{
  "_format": "hh-sol-artifact-1",
  "contractName": "WalletBank",
  "sourceName": "contracts/WalletBank.sol",
  "abi": [
    {
      "inputs": [],
      "stateMutability": "nonpayable",
      "type": "constructor"
    },
    {
      "anonymous": false,
      "inputs": [
        {
          "indexed": true,
          "internalType": "address",
          "name": "reciever",
          "type": "address"
        },
        {
          "indexed": false,
          "internalType": "uint256",
          "name": "amount",
          "type": "uint256"
        },
        {
          "indexed": false,
          "internalType": "uint256",
          "name": "timestamp",
          "type": "uint256"
        }
      ],
      "name": "DepositMade",
      "type": "event"
    },
    {
      "anonymous": false,
      "inputs": [
        {
          "indexed": true,
          "internalType": "address",
          "name": "from",
          "type": "address"
        },
        {
          "indexed": true,
          "internalType": "address",
          "name": "to",
          "type": "address"
        },
        {
          "indexed": false,
          "internalType": "uint256",
          "name": "amount",
          "type": "uint256"
        },
        {
          "indexed": false,
          "internalType": "uint256",
          "name": "fee",
          "type": "uint256"
        },
        {
          "indexed": false,
          "internalType": "uint256",
          "name": "timestamp",
          "type": "uint256"
        }
      ],
      "name": "TransferMade",
      "type": "event"
    },
    {
      "anonymous": false,
      "inputs": [
        {
          "indexed": true,
          "internalType": "address",
          "name": "depositor",
          "type": "address"
        },
        {
          "indexed": true,
          "internalType": "address",
          "name": "token",
          "type": "address"
        },
        {
          "indexed": false,
          "internalType": "uint256",
          "name": "amount",
          "type": "uint256"
        },
        {
          "indexed": false,
          "internalType": "uint256",
          "name": "timestamp",
          "type": "uint256"
        }
      ],
      "name": "tokenDepositMade",
      "type": "event"
    },
    {
      "inputs": [
        {
          "internalType": "address",
          "name": "",
          "type": "address"
        }
      ],
      "name": "balance",
      "outputs": [
        {
          "internalType": "uint256",
          "name": "",
          "type": "uint256"
        }
      ],
      "stateMutability": "view",
      "type": "function"
    },
    {
      "inputs": [
        {
          "internalType": "address",
          "name": "",
          "type": "address"
        }
      ],
      "name": "dailyTransfer",
      "outputs": [
        {
          "internalType": "uint256",
          "name": "",
          "type": "uint256"
        }
      ],
      "stateMutability": "view",
      "type": "function"
    },
    {
      "inputs": [],
      "name": "deposit",
      "outputs": [],
      "stateMutability": "payable",
      "type": "function"
    },
    {
      "inputs": [
        {
          "internalType": "address",
          "name": "",
          "type": "address"
        },
        {
          "internalType": "uint256",
          "name": "",
          "type": "uint256"
        }
      ],
      "name": "depositHistory",
      "outputs": [
        {
          "internalType": "address",
          "name": "depositor",
          "type": "address"
        },
        {
          "internalType": "uint256",
          "name": "amount",
          "type": "uint256"
        },
        {
          "internalType": "uint256",
          "name": "timestamp",
          "type": "uint256"
        },
        {
          "internalType": "string",
          "name": "txHash",
          "type": "string"
        }
      ],
      "stateMutability": "view",
      "type": "function"
    },
    {
      "inputs": [
        {
          "internalType": "address",
          "name": "_token",
          "type": "address"
        },
        {
          "internalType": "uint256",
          "name": "_amount",
          "type": "uint256"
        }
      ],
      "name": "depositToken",
      "outputs": [],
      "stateMutability": "nonpayable",
      "type": "function"
    },
    {
      "inputs": [],
      "name": "fee",
      "outputs": [
        {
          "internalType": "uint256",
          "name": "",
          "type": "uint256"
        }
      ],
      "stateMutability": "view",
      "type": "function"
    },
    {
      "inputs": [
        {
          "internalType": "address",
          "name": "",
          "type": "address"
        }
      ],
      "name": "lastTransferDay",
      "outputs": [
        {
          "internalType": "uint256",
          "name": "",
          "type": "uint256"
        }
      ],
      "stateMutability": "view",
      "type": "function"
    },
    {
      "inputs": [],
      "name": "maxDeposit",
      "outputs": [
        {
          "internalType": "uint256",
          "name": "",
          "type": "uint256"
        }
      ],
      "stateMutability": "view",
      "type": "function"
    },
    {
      "inputs": [],
      "name": "minDeposit",
      "outputs": [
        {
          "internalType": "uint256",
          "name": "",
          "type": "uint256"
        }
      ],
      "stateMutability": "view",
      "type": "function"
    },
    {
      "inputs": [],
      "name": "owner",
      "outputs": [
        {
          "internalType": "address",
          "name": "",
          "type": "address"
        }
      ],
      "stateMutability": "view",
      "type": "function"
    },
    {
      "inputs": [
        {
          "internalType": "uint256",
          "name": "_fee",
          "type": "uint256"
        }
      ],
      "name": "setFee",
      "outputs": [],
      "stateMutability": "nonpayable",
      "type": "function"
    },
    {
      "inputs": [
        {
          "internalType": "address",
          "name": "",
          "type": "address"
        },
        {
          "internalType": "address",
          "name": "",
          "type": "address"
        }
      ],
      "name": "tokenDeposit",
      "outputs": [
        {
          "internalType": "uint256",
          "name": "",
          "type": "uint256"
        }
      ],
      "stateMutability": "view",
      "type": "function"
    },
    {
      "inputs": [
        {
          "internalType": "address",
          "name": "_to",
          "type": "address"
        },
        {
          "internalType": "uint256",
          "name": "_amount",
          "type": "uint256"
        }
      ],
      "name": "transfer",
      "outputs": [],
      "stateMutability": "nonpayable",
      "type": "function"
    },
    {
      "inputs": [],
      "name": "transferDailyLimit",
      "outputs": [
        {
          "internalType": "uint256",
          "name": "",
          "type": "uint256"
        }
      ],
      "stateMutability": "view",
      "type": "function"
    },
    {
      "inputs": [
        {
          "internalType": "address",
          "name": "",
          "type": "address"
        },
        {
          "internalType": "uint256",
          "name": "",
          "type": "uint256"
        }
      ],
      "name": "transferHistory",
      "outputs": [
        {
          "internalType": "address",
          "name": "from",
          "type": "address"
        },
        {
          "internalType": "address",
          "name": "to",
          "type": "address"
        },
        {
          "internalType": "uint256",
          "name": "amount",
          "type": "uint256"
        },
        {
          "internalType": "uint256",
          "name": "fee",
          "type": "uint256"
        },
        {
          "internalType": "uint256",
          "name": "timestamp",
          "type": "uint256"
        }
      ],
      "stateMutability": "view",
      "type": "function"
    },
    {
      "inputs": [
        {
          "internalType": "address",
          "name": "",
          "type": "address"
        },
        {
          "internalType": "uint256",
          "name": "",
          "type": "uint256"
        }
      ],
      "name": "treasuries",
      "outputs": [
        {
          "internalType": "address",
          "name": "owner",
          "type": "address"
        },
        {
          "internalType": "uint256",
          "name": "amount",
          "type": "uint256"
        }
      ],
      "stateMutability": "view",
      "type": "function"
    },
    {
      "inputs": [],
      "name": "treasury",
      "outputs": [
        {
          "internalType": "address",
          "name": "owner",
          "type": "address"
        },
        {
          "internalType": "uint256",
          "name": "amount",
          "type": "uint256"
        }
      ],
      "stateMutability": "view",
      "type": "function"
    },
    {
      "inputs": [
        {
          "internalType": "uint256",
          "name": "_amount",
          "type": "uint256"
        }
      ],
      "name": "withdraw",
      "outputs": [],
      "stateMutability": "nonpayable",
      "type": "function"
    }
  ],
  "bytecode": "0x60806040526201518042620000159190620000ca565b6004553480156200002557600080fd5b50336000806101000a81548173ffffffffffffffffffffffffffffffffffffffff021916908373ffffffffffffffffffffffffffffffffffffffff160217905550662386f26fc10000600181905550678ac7230489e80000600281905550600260038190555062000102565b6000819050919050565b7f4e487b7100000000000000000000000000000000000000000000000000000000600052601260045260246000fd5b6000620000d78262000091565b9150620000e48362000091565b925082620000f757620000f66200009b565b5b828204905092915050565b611f5380620001126000396000f3fe6080604052600436106101095760003560e01c80638da5cb5b11610095578063c04cd19111610064578063c04cd19114610382578063d0e30db0146103bf578063d1fb4454146103c9578063ddca3f431461040a578063e3d670d71461043557610109565b80638da5cb5b146102c65780639abb68e8146102f1578063a9059cbb1461032e578063b981fb7a1461035757610109565b80636083e59a116100dc5780636083e59a146101c957806361d027b3146101f457806369fe0e2d14610220578063715a6e9a146102495780638cdb90e91461028957610109565b80632e1a7d4d1461010e578063338b5dea146101375780634133d1681461016057806341b3d1851461019e575b600080fd5b34801561011a57600080fd5b5061013560048036038101906101309190611371565b610472565b005b34801561014357600080fd5b5061015e600480360381019061015991906113fc565b610594565b005b34801561016c57600080fd5b50610187600480360381019061018291906113fc565b610809565b60405161019592919061145a565b60405180910390f35b3480156101aa57600080fd5b506101b361086a565b6040516101c09190611483565b60405180910390f35b3480156101d557600080fd5b506101de610870565b6040516101eb9190611483565b60405180910390f35b34801561020057600080fd5b50610209610876565b60405161021792919061145a565b60405180910390f35b34801561022c57600080fd5b5061024760048036038101906102429190611371565b6108a8565b005b34801561025557600080fd5b50610270600480360381019061026b91906113fc565b610940565b604051610280949392919061152e565b60405180910390f35b34801561029557600080fd5b506102b060048036038101906102ab919061157a565b610a35565b6040516102bd9190611483565b60405180910390f35b3480156102d257600080fd5b506102db610a5a565b6040516102e891906115ba565b60405180910390f35b3480156102fd57600080fd5b50610318600480360381019061031391906115d5565b610a7e565b6040516103259190611483565b60405180910390f35b34801561033a57600080fd5b50610355600480360381019061035091906113fc565b610a96565b005b34801561036357600080fd5b5061036c610fe8565b6040516103799190611483565b60405180910390f35b34801561038e57600080fd5b506103a960048036038101906103a491906115d5565b610ff4565b6040516103b69190611483565b60405180910390f35b6103c761100c565b005b3480156103d557600080fd5b506103f060048036038101906103eb91906113fc565b611285565b604051610401959493929190611602565b60405180910390f35b34801561041657600080fd5b5061041f611318565b60405161042c9190611483565b60405180910390f35b34801561044157600080fd5b5061045c600480360381019061045791906115d5565b61131e565b6040516104699190611483565b60405180910390f35b80600560003373ffffffffffffffffffffffffffffffffffffffff1673ffffffffffffffffffffffffffffffffffffffff1681526020019081526020016000205410156104f4576040517f08c379a00000000000000000000000000000000000000000000000000000000081526004016104eb906116a1565b60405180910390fd5b80600560003373ffffffffffffffffffffffffffffffffffffffff1673ffffffffffffffffffffffffffffffffffffffff168152602001908152602001600020600082825461054391906116f0565b925050819055503373ffffffffffffffffffffffffffffffffffffffff166108fc829081150290604051600060405180830381858888f19350505050158015610590573d6000803e3d6000fd5b5050565b600081116105d7576040517f08c379a00000000000000000000000000000000000000000000000000000000081526004016105ce90611770565b60405180910390fd5b600073ffffffffffffffffffffffffffffffffffffffff168273ffffffffffffffffffffffffffffffffffffffff1603610646576040517f08c379a000000000000000000000000000000000000000000000000000000000815260040161063d906117dc565b60405180910390fd5b60008273ffffffffffffffffffffffffffffffffffffffff166323b872dd3330856040518463ffffffff1660e01b8152600401610685939291906117fc565b6020604051808303816000875af11580156106a4573d6000803e3d6000fd5b505050506040513d601f19601f820116820180604052508101906106c8919061186b565b90508061070a576040517f08c379a0000000000000000000000000000000000000000000000000000000008152600401610701906118e4565b60405180910390fd5b81600660003373ffffffffffffffffffffffffffffffffffffffff1673ffffffffffffffffffffffffffffffffffffffff16815260200190815260200160002060008573ffffffffffffffffffffffffffffffffffffffff1673ffffffffffffffffffffffffffffffffffffffff16815260200190815260200160002060008282546107969190611904565b925050819055508273ffffffffffffffffffffffffffffffffffffffff163373ffffffffffffffffffffffffffffffffffffffff167f639bf98c5ad51658194aa1402527b789e7421e0b7d3fa528fe342912a465c1b184426040516107fc929190611938565b60405180910390a3505050565b600d602052816000526040600020818154811061082557600080fd5b9060005260206000209060020201600091509150508060000160009054906101000a900473ffffffffffffffffffffffffffffffffffffffff16908060010154905082565b60015481565b60025481565b600b8060000160009054906101000a900473ffffffffffffffffffffffffffffffffffffffff16908060010154905082565b60008054906101000a900473ffffffffffffffffffffffffffffffffffffffff1673ffffffffffffffffffffffffffffffffffffffff163373ffffffffffffffffffffffffffffffffffffffff1614610936576040517f08c379a000000000000000000000000000000000000000000000000000000000815260040161092d906119d3565b60405180910390fd5b8060038190555050565b6009602052816000526040600020818154811061095c57600080fd5b9060005260206000209060040201600091509150508060000160009054906101000a900473ffffffffffffffffffffffffffffffffffffffff16908060010154908060020154908060030180546109b290611a22565b80601f01602080910402602001604051908101604052809291908181526020018280546109de90611a22565b8015610a2b5780601f10610a0057610100808354040283529160200191610a2b565b820191906000526020600020905b815481529060010190602001808311610a0e57829003601f168201915b5050505050905084565b6006602052816000526040600020602052806000526040600020600091509150505481565b60008054906101000a900473ffffffffffffffffffffffffffffffffffffffff1681565b60086020528060005260406000206000915090505481565b80600454600860003373ffffffffffffffffffffffffffffffffffffffff1673ffffffffffffffffffffffffffffffffffffffff1681526020019081526020016000205414610b6b576000600760003373ffffffffffffffffffffffffffffffffffffffff1673ffffffffffffffffffffffffffffffffffffffff16815260200190815260200160002081905550600454600860003373ffffffffffffffffffffffffffffffffffffffff1673ffffffffffffffffffffffffffffffffffffffff168152602001908152602001600020819055505b67d02ab486cedc000081600760003373ffffffffffffffffffffffffffffffffffffffff1673ffffffffffffffffffffffffffffffffffffffff16815260200190815260200160002054610bbf9190611904565b1115610c00576040517f08c379a0000000000000000000000000000000000000000000000000000000008152600401610bf790611a9f565b60405180910390fd5b80600760003373ffffffffffffffffffffffffffffffffffffffff1673ffffffffffffffffffffffffffffffffffffffff1681526020019081526020016000206000828254610c4f9190611904565b9250508190555081600560003373ffffffffffffffffffffffffffffffffffffffff1673ffffffffffffffffffffffffffffffffffffffff168152602001908152602001600020541015610cd8576040517f08c379a0000000000000000000000000000000000000000000000000000000008152600401610ccf906116a1565b60405180910390fd5b81600560003373ffffffffffffffffffffffffffffffffffffffff1673ffffffffffffffffffffffffffffffffffffffff1681526020019081526020016000206000828254610d2791906116f0565b925050819055508273ffffffffffffffffffffffffffffffffffffffff166108fc839081150290604051600060405180830381858888f19350505050158015610d74573d6000803e3d6000fd5b506000606460035484610d879190611abf565b610d919190611b30565b90508083610d9f91906116f0565b600560008673ffffffffffffffffffffffffffffffffffffffff1673ffffffffffffffffffffffffffffffffffffffff1681526020019081526020016000206000828254610ded9190611904565b9250508190555080600b6001016000828254610e099190611904565b92505081905550600a60003373ffffffffffffffffffffffffffffffffffffffff1673ffffffffffffffffffffffffffffffffffffffff1681526020019081526020016000206040518060a001604052803373ffffffffffffffffffffffffffffffffffffffff1681526020018673ffffffffffffffffffffffffffffffffffffffff16815260200185815260200183815260200142815250908060018154018082558091505060019003906000526020600020906005020160009091909190915060008201518160000160006101000a81548173ffffffffffffffffffffffffffffffffffffffff021916908373ffffffffffffffffffffffffffffffffffffffff16021790555060208201518160010160006101000a81548173ffffffffffffffffffffffffffffffffffffffff021916908373ffffffffffffffffffffffffffffffffffffffff16021790555060408201518160020155606082015181600301556080820151816004015550508373ffffffffffffffffffffffffffffffffffffffff163373ffffffffffffffffffffffffffffffffffffffff167f905bccc5f50166716cb6847f818ec21f9f17eaacf4af764af6cdc82060fc7b21858442604051610fda93929190611b61565b60405180910390a350505050565b67d02ab486cedc000081565b60076020528060005260406000206000915090505481565b600154341015611051576040517f08c379a000000000000000000000000000000000000000000000000000000000815260040161104890611be4565b60405180910390fd5b600254341115611096576040517f08c379a000000000000000000000000000000000000000000000000000000000815260040161108d90611c50565b60405180910390fd5b34600560003373ffffffffffffffffffffffffffffffffffffffff1673ffffffffffffffffffffffffffffffffffffffff16815260200190815260200160002060008282546110e59190611904565b92505081905550600960003373ffffffffffffffffffffffffffffffffffffffff1673ffffffffffffffffffffffffffffffffffffffff16815260200190815260200160002060405180608001604052803373ffffffffffffffffffffffffffffffffffffffff1681526020013481526020014281526020016040518060400160405280600281526020017f3078000000000000000000000000000000000000000000000000000000000000815250815250908060018154018082558091505060019003906000526020600020906004020160009091909190915060008201518160000160006101000a81548173ffffffffffffffffffffffffffffffffffffffff021916908373ffffffffffffffffffffffffffffffffffffffff160217905550602082015181600101556040820151816002015560608201518160030190816112309190611e4b565b5050503373ffffffffffffffffffffffffffffffffffffffff167f0b05f0d1cd0819f155b8a61f60baf7767c1ee49d04aeaab701df236140eb93f9344260405161127b929190611938565b60405180910390a2565b600a60205281600052604060002081815481106112a157600080fd5b9060005260206000209060050201600091509150508060000160009054906101000a900473ffffffffffffffffffffffffffffffffffffffff16908060010160009054906101000a900473ffffffffffffffffffffffffffffffffffffffff16908060020154908060030154908060040154905085565b60035481565b60056020528060005260406000206000915090505481565b600080fd5b6000819050919050565b61134e8161133b565b811461135957600080fd5b50565b60008135905061136b81611345565b92915050565b60006020828403121561138757611386611336565b5b60006113958482850161135c565b91505092915050565b600073ffffffffffffffffffffffffffffffffffffffff82169050919050565b60006113c98261139e565b9050919050565b6113d9816113be565b81146113e457600080fd5b50565b6000813590506113f6816113d0565b92915050565b6000806040838503121561141357611412611336565b5b6000611421858286016113e7565b92505060206114328582860161135c565b9150509250929050565b611445816113be565b82525050565b6114548161133b565b82525050565b600060408201905061146f600083018561143c565b61147c602083018461144b565b9392505050565b6000602082019050611498600083018461144b565b92915050565b600081519050919050565b600082825260208201905092915050565b60005b838110156114d85780820151818401526020810190506114bd565b60008484015250505050565b6000601f19601f8301169050919050565b60006115008261149e565b61150a81856114a9565b935061151a8185602086016114ba565b611523816114e4565b840191505092915050565b6000608082019050611543600083018761143c565b611550602083018661144b565b61155d604083018561144b565b818103606083015261156f81846114f5565b905095945050505050565b6000806040838503121561159157611590611336565b5b600061159f858286016113e7565b92505060206115b0858286016113e7565b9150509250929050565b60006020820190506115cf600083018461143c565b92915050565b6000602082840312156115eb576115ea611336565b5b60006115f9848285016113e7565b91505092915050565b600060a082019050611617600083018861143c565b611624602083018761143c565b611631604083018661144b565b61163e606083018561144b565b61164b608083018461144b565b9695505050505050565b7f496e73756666696369656e742062616c616e6365000000000000000000000000600082015250565b600061168b6014836114a9565b915061169682611655565b602082019050919050565b600060208201905081810360008301526116ba8161167e565b9050919050565b7f4e487b7100000000000000000000000000000000000000000000000000000000600052601160045260246000fd5b60006116fb8261133b565b91506117068361133b565b925082820390508181111561171e5761171d6116c1565b5b92915050565b7f416d6f756e74206d7573742062652067726561746572207468616e207a65726f600082015250565b600061175a6020836114a9565b915061176582611724565b602082019050919050565b600060208201905081810360008301526117898161174d565b9050919050565b7f496e76616c696420746f6b656e20616464726573730000000000000000000000600082015250565b60006117c66015836114a9565b91506117d182611790565b602082019050919050565b600060208201905081810360008301526117f5816117b9565b9050919050565b6000606082019050611811600083018661143c565b61181e602083018561143c565b61182b604083018461144b565b949350505050565b60008115159050919050565b61184881611833565b811461185357600080fd5b50565b6000815190506118658161183f565b92915050565b60006020828403121561188157611880611336565b5b600061188f84828501611856565b91505092915050565b7f546f6b656e207472616e73666572206661696c65640000000000000000000000600082015250565b60006118ce6015836114a9565b91506118d982611898565b602082019050919050565b600060208201905081810360008301526118fd816118c1565b9050919050565b600061190f8261133b565b915061191a8361133b565b9250828201905080821115611932576119316116c1565b5b92915050565b600060408201905061194d600083018561144b565b61195a602083018461144b565b9392505050565b7f4f6e6c79206f776e65722063616e2063616c6c20746869732066756e6374696f60008201527f6e00000000000000000000000000000000000000000000000000000000000000602082015250565b60006119bd6021836114a9565b91506119c882611961565b604082019050919050565b600060208201905081810360008301526119ec816119b0565b9050919050565b7f4e487b7100000000000000000000000000000000000000000000000000000000600052602260045260246000fd5b60006002820490506001821680611a3a57607f821691505b602082108103611a4d57611a4c6119f3565b5b50919050565b7f4461696c79207472616e73666572206c696d6974206578636565646564000000600082015250565b6000611a89601d836114a9565b9150611a9482611a53565b602082019050919050565b60006020820190508181036000830152611ab881611a7c565b9050919050565b6000611aca8261133b565b9150611ad58361133b565b9250828202611ae38161133b565b91508282048414831517611afa57611af96116c1565b5b5092915050565b7f4e487b7100000000000000000000000000000000000000000000000000000000600052601260045260246000fd5b6000611b3b8261133b565b9150611b468361133b565b925082611b5657611b55611b01565b5b828204905092915050565b6000606082019050611b76600083018661144b565b611b83602083018561144b565b611b90604083018461144b565b949350505050565b7f4465706f7369742062656c6f77206d696e206c696d6974000000000000000000600082015250565b6000611bce6017836114a9565b9150611bd982611b98565b602082019050919050565b60006020820190508181036000830152611bfd81611bc1565b9050919050565b7f4465706f7369742065786365656473206d6178206c696d697400000000000000600082015250565b6000611c3a6019836114a9565b9150611c4582611c04565b602082019050919050565b60006020820190508181036000830152611c6981611c2d565b9050919050565b7f4e487b7100000000000000000000000000000000000000000000000000000000600052604160045260246000fd5b60008190508160005260206000209050919050565b60006020601f8301049050919050565b600082821b905092915050565b600060088302611d017fffffffffffffffffffffffffffffffffffffffffffffffffffffffffffffffff82611cc4565b611d0b8683611cc4565b95508019841693508086168417925050509392505050565b6000819050919050565b6000611d48611d43611d3e8461133b565b611d23565b61133b565b9050919050565b6000819050919050565b611d6283611d2d565b611d76611d6e82611d4f565b848454611cd1565b825550505050565b600090565b611d8b611d7e565b611d96818484611d59565b505050565b5b81811015611dba57611daf600082611d83565b600181019050611d9c565b5050565b601f821115611dff57611dd081611c9f565b611dd984611cb4565b81016020851015611de8578190505b611dfc611df485611cb4565b830182611d9b565b50505b505050565b600082821c905092915050565b6000611e2260001984600802611e04565b1980831691505092915050565b6000611e3b8383611e11565b9150826002028217905092915050565b611e548261149e565b67ffffffffffffffff811115611e6d57611e6c611c70565b5b611e778254611a22565b611e82828285611dbe565b600060209050601f831160018114611eb55760008415611ea3578287015190505b611ead8582611e2f565b865550611f15565b601f198416611ec386611c9f565b60005b82811015611eeb57848901518255600182019150602085019450602081019050611ec6565b86831015611f085784890151611f04601f891682611e11565b8355505b6001600288020188555050505b50505050505056fea26469706673582212203056f3ff77d760f19f0066ccdf09d581ef6a89eb7f4861ea2c8d572839376dd164736f6c63430008140033",
  "linkReferences": {},
  "deployedLinkReferences": {}
}