{
  "_format": "hh-sol-artifact-1",
  "contractName": "WalletBank",
  "sourceName": "contracts/WalletBank.sol",
  "abi": [
    {
      "inputs": [],
      "stateMutability": "nonpayable",
      "type": "constructor"
    },
    {
      "anonymous": false,
      "inputs": [
        {
          "indexed": true,
          "internalType": "address",
          "name": "reciever",
          "type": "address"
        },
        {
          "indexed": false,
          "internalType": "uint256",
          "name": "amount",
          "type": "uint256"
        },
        {
          "indexed": false,
          "internalType": "uint256",
          "name": "timestamp",
          "type": "uint256"
        }
      ],
      "name": "DepositMade",
      "type": "event"
    },
    {
      "anonymous": false,
      "inputs": [
        {
          "indexed": true,
          "internalType": "address",
          "name": "depositor",
          "type": "address"
        },
        {
          "indexed": true,
          "internalType": "address",
          "name": "token",
          "type": "address"
        },
        {
          "indexed": false,
          "internalType": "uint256",
          "name": "amount",
          "type": "uint256"
        },
        {
          "indexed": false,
          "internalType": "uint256",
          "name": "timestamp",
          "type": "uint256"
        }
      ],
      "name": "tokenDepositMade",
      "type": "event"
    },
    {
      "inputs": [
        {
          "internalType": "address",
          "name": "",
          "type": "address"
        }
      ],
      "name": "balance",
      "outputs": [
        {
          "internalType": "uint256",
          "name": "",
          "type": "uint256"
        }
      ],
      "stateMutability": "view",
      "type": "function"
    },
    {
      "inputs": [],
      "name": "deposit",
      "outputs": [],
      "stateMutability": "payable",
      "type": "function"
    },
    {
      "inputs": [
        {
          "internalType": "address",
          "name": "",
          "type": "address"
        },
        {
          "internalType": "uint256",
          "name": "",
          "type": "uint256"
        }
      ],
      "name": "depositHistory",
      "outputs": [
        {
          "internalType": "address",
          "name": "depositor",
          "type": "address"
        },
        {
          "internalType": "uint256",
          "name": "amount",
          "type": "uint256"
        },
        {
          "internalType": "uint256",
          "name": "timestamp",
          "type": "uint256"
        },
        {
          "internalType": "string",
          "name": "txHash",
          "type": "string"
        }
      ],
      "stateMutability": "view",
      "type": "function"
    },
    {
      "inputs": [
        {
          "internalType": "address",
          "name": "_token",
          "type": "address"
        },
        {
          "internalType": "uint256",
          "name": "_amount",
          "type": "uint256"
        }
      ],
      "name": "depositToken",
      "outputs": [],
      "stateMutability": "nonpayable",
      "type": "function"
    },
    {
      "inputs": [],
      "name": "maxDeposit",
      "outputs": [
        {
          "internalType": "uint256",
          "name": "",
          "type": "uint256"
        }
      ],
      "stateMutability": "view",
      "type": "function"
    },
    {
      "inputs": [],
      "name": "minDeposit",
      "outputs": [
        {
          "internalType": "uint256",
          "name": "",
          "type": "uint256"
        }
      ],
      "stateMutability": "view",
      "type": "function"
    },
    {
      "inputs": [],
      "name": "owner",
      "outputs": [
        {
          "internalType": "address",
          "name": "",
          "type": "address"
        }
      ],
      "stateMutability": "view",
      "type": "function"
    },
    {
      "inputs": [
        {
          "internalType": "address",
          "name": "",
          "type": "address"
        },
        {
          "internalType": "address",
          "name": "",
          "type": "address"
        }
      ],
      "name": "tokenDeposit",
      "outputs": [
        {
          "internalType": "uint256",
          "name": "",
          "type": "uint256"
        }
      ],
      "stateMutability": "view",
      "type": "function"
    },
    {
      "inputs": [
        {
          "internalType": "address",
          "name": "_to",
          "type": "address"
        },
        {
          "internalType": "uint256",
          "name": "_amount",
          "type": "uint256"
        }
      ],
      "name": "transfer",
      "outputs": [],
      "stateMutability": "nonpayable",
      "type": "function"
    },
    {
      "inputs": [
        {
          "internalType": "uint256",
          "name": "_amount",
          "type": "uint256"
        }
      ],
      "name": "withdraw",
      "outputs": [],
      "stateMutability": "nonpayable",
      "type": "function"
    }
  ],
  "bytecode": "0x608060405234801561001057600080fd5b50336000806101000a81548173ffffffffffffffffffffffffffffffffffffffff021916908373ffffffffffffffffffffffffffffffffffffffff160217905550662386f26fc10000600181905550678ac7230489e800006002819055506114c48061007d6000396000f3fe6080604052600436106100915760003560e01c80638cdb90e9116100595780638cdb90e91461017e5780638da5cb5b146101bb578063a9059cbb146101e6578063d0e30db01461020f578063e3d670d71461021957610091565b80632e1a7d4d14610096578063338b5dea146100bf57806341b3d185146100e85780636083e59a14610113578063715a6e9a1461013e575b600080fd5b3480156100a257600080fd5b506100bd60048036038101906100b89190610b35565b610256565b005b3480156100cb57600080fd5b506100e660048036038101906100e19190610bc0565b610331565b005b3480156100f457600080fd5b506100fd6105a6565b60405161010a9190610c0f565b60405180910390f35b34801561011f57600080fd5b506101286105ac565b6040516101359190610c0f565b60405180910390f35b34801561014a57600080fd5b5061016560048036038101906101609190610bc0565b6105b2565b6040516101759493929190610cc9565b60405180910390f35b34801561018a57600080fd5b506101a560048036038101906101a09190610d15565b6106a7565b6040516101b29190610c0f565b60405180910390f35b3480156101c757600080fd5b506101d06106cc565b6040516101dd9190610d55565b60405180910390f35b3480156101f257600080fd5b5061020d60048036038101906102089190610bc0565b6106f0565b005b610217610869565b005b34801561022557600080fd5b50610240600480360381019061023b9190610d70565b610ae2565b60405161024d9190610c0f565b60405180910390f35b80600360003373ffffffffffffffffffffffffffffffffffffffff1673ffffffffffffffffffffffffffffffffffffffff1681526020019081526020016000205410156102d8576040517f08c379a00000000000000000000000000000000000000000000000000000000081526004016102cf90610de9565b60405180910390fd5b80600360003373ffffffffffffffffffffffffffffffffffffffff1673ffffffffffffffffffffffffffffffffffffffff16815260200190815260200160002060008282546103279190610e38565b9250508190555050565b60008111610374576040517f08c379a000000000000000000000000000000000000000000000000000000000815260040161036b90610eb8565b60405180910390fd5b600073ffffffffffffffffffffffffffffffffffffffff168273ffffffffffffffffffffffffffffffffffffffff16036103e3576040517f08c379a00000000000000000000000000000000000000000000000000000000081526004016103da90610f24565b60405180910390fd5b60008273ffffffffffffffffffffffffffffffffffffffff166323b872dd3330856040518463ffffffff1660e01b815260040161042293929190610f44565b6020604051808303816000875af1158015610441573d6000803e3d6000fd5b505050506040513d601f19601f820116820180604052508101906104659190610fb3565b9050806104a7576040517f08c379a000000000000000000000000000000000000000000000000000000000815260040161049e9061102c565b60405180910390fd5b81600460003373ffffffffffffffffffffffffffffffffffffffff1673ffffffffffffffffffffffffffffffffffffffff16815260200190815260200160002060008573ffffffffffffffffffffffffffffffffffffffff1673ffffffffffffffffffffffffffffffffffffffff1681526020019081526020016000206000828254610533919061104c565b925050819055508273ffffffffffffffffffffffffffffffffffffffff163373ffffffffffffffffffffffffffffffffffffffff167f639bf98c5ad51658194aa1402527b789e7421e0b7d3fa528fe342912a465c1b18442604051610599929190611080565b60405180910390a3505050565b60015481565b60025481565b600560205281600052604060002081815481106105ce57600080fd5b9060005260206000209060040201600091509150508060000160009054906101000a900473ffffffffffffffffffffffffffffffffffffffff1690806001015490806002015490806003018054610624906110d8565b80601f0160208091040260200160405190810160405280929190818152602001828054610650906110d8565b801561069d5780601f106106725761010080835404028352916020019161069d565b820191906000526020600020905b81548152906001019060200180831161068057829003601f168201915b5050505050905084565b6004602052816000526040600020602052806000526040600020600091509150505481565b60008054906101000a900473ffffffffffffffffffffffffffffffffffffffff1681565b80600360003373ffffffffffffffffffffffffffffffffffffffff1673ffffffffffffffffffffffffffffffffffffffff168152602001908152602001600020541015610772576040517f08c379a000000000000000000000000000000000000000000000000000000000815260040161076990610de9565b60405180910390fd5b80600360003373ffffffffffffffffffffffffffffffffffffffff1673ffffffffffffffffffffffffffffffffffffffff16815260200190815260200160002060008282546107c19190610e38565b925050819055508173ffffffffffffffffffffffffffffffffffffffff166108fc829081150290604051600060405180830381858888f1935050505015801561080e573d6000803e3d6000fd5b5080600360008473ffffffffffffffffffffffffffffffffffffffff1673ffffffffffffffffffffffffffffffffffffffff168152602001908152602001600020600082825461085e919061104c565b925050819055505050565b6001543410156108ae576040517f08c379a00000000000000000000000000000000000000000000000000000000081526004016108a590611155565b60405180910390fd5b6002543411156108f3576040517f08c379a00000000000000000000000000000000000000000000000000000000081526004016108ea906111c1565b60405180910390fd5b34600360003373ffffffffffffffffffffffffffffffffffffffff1673ffffffffffffffffffffffffffffffffffffffff1681526020019081526020016000206000828254610942919061104c565b92505081905550600560003373ffffffffffffffffffffffffffffffffffffffff1673ffffffffffffffffffffffffffffffffffffffff16815260200190815260200160002060405180608001604052803373ffffffffffffffffffffffffffffffffffffffff1681526020013481526020014281526020016040518060400160405280600281526020017f3078000000000000000000000000000000000000000000000000000000000000815250815250908060018154018082558091505060019003906000526020600020906004020160009091909190915060008201518160000160006101000a81548173ffffffffffffffffffffffffffffffffffffffff021916908373ffffffffffffffffffffffffffffffffffffffff16021790555060208201518160010155604082015181600201556060820151816003019081610a8d91906113bc565b5050503373ffffffffffffffffffffffffffffffffffffffff167f0b05f0d1cd0819f155b8a61f60baf7767c1ee49d04aeaab701df236140eb93f93442604051610ad8929190611080565b60405180910390a2565b60036020528060005260406000206000915090505481565b600080fd5b6000819050919050565b610b1281610aff565b8114610b1d57600080fd5b50565b600081359050610b2f81610b09565b92915050565b600060208284031215610b4b57610b4a610afa565b5b6000610b5984828501610b20565b91505092915050565b600073ffffffffffffffffffffffffffffffffffffffff82169050919050565b6000610b8d82610b62565b9050919050565b610b9d81610b82565b8114610ba857600080fd5b50565b600081359050610bba81610b94565b92915050565b60008060408385031215610bd757610bd6610afa565b5b6000610be585828601610bab565b9250506020610bf685828601610b20565b9150509250929050565b610c0981610aff565b82525050565b6000602082019050610c246000830184610c00565b92915050565b610c3381610b82565b82525050565b600081519050919050565b600082825260208201905092915050565b60005b83811015610c73578082015181840152602081019050610c58565b60008484015250505050565b6000601f19601f8301169050919050565b6000610c9b82610c39565b610ca58185610c44565b9350610cb5818560208601610c55565b610cbe81610c7f565b840191505092915050565b6000608082019050610cde6000830187610c2a565b610ceb6020830186610c00565b610cf86040830185610c00565b8181036060830152610d0a8184610c90565b905095945050505050565b60008060408385031215610d2c57610d2b610afa565b5b6000610d3a85828601610bab565b9250506020610d4b85828601610bab565b9150509250929050565b6000602082019050610d6a6000830184610c2a565b92915050565b600060208284031215610d8657610d85610afa565b5b6000610d9484828501610bab565b91505092915050565b7f496e73756666696369656e742062616c616e6365000000000000000000000000600082015250565b6000610dd3601483610c44565b9150610dde82610d9d565b602082019050919050565b60006020820190508181036000830152610e0281610dc6565b9050919050565b7f4e487b7100000000000000000000000000000000000000000000000000000000600052601160045260246000fd5b6000610e4382610aff565b9150610e4e83610aff565b9250828203905081811115610e6657610e65610e09565b5b92915050565b7f416d6f756e74206d7573742062652067726561746572207468616e207a65726f600082015250565b6000610ea2602083610c44565b9150610ead82610e6c565b602082019050919050565b60006020820190508181036000830152610ed181610e95565b9050919050565b7f496e76616c696420746f6b656e20616464726573730000000000000000000000600082015250565b6000610f0e601583610c44565b9150610f1982610ed8565b602082019050919050565b60006020820190508181036000830152610f3d81610f01565b9050919050565b6000606082019050610f596000830186610c2a565b610f666020830185610c2a565b610f736040830184610c00565b949350505050565b60008115159050919050565b610f9081610f7b565b8114610f9b57600080fd5b50565b600081519050610fad81610f87565b92915050565b600060208284031215610fc957610fc8610afa565b5b6000610fd784828501610f9e565b91505092915050565b7f546f6b656e207472616e73666572206661696c65640000000000000000000000600082015250565b6000611016601583610c44565b915061102182610fe0565b602082019050919050565b6000602082019050818103600083015261104581611009565b9050919050565b600061105782610aff565b915061106283610aff565b925082820190508082111561107a57611079610e09565b5b92915050565b60006040820190506110956000830185610c00565b6110a26020830184610c00565b9392505050565b7f4e487b7100000000000000000000000000000000000000000000000000000000600052602260045260246000fd5b600060028204905060018216806110f057607f821691505b602082108103611103576111026110a9565b5b50919050565b7f4465706f7369742062656c6f77206d696e206c696d6974000000000000000000600082015250565b600061113f601783610c44565b915061114a82611109565b602082019050919050565b6000602082019050818103600083015261116e81611132565b9050919050565b7f4465706f7369742065786365656473206d6178206c696d697400000000000000600082015250565b60006111ab601983610c44565b91506111b682611175565b602082019050919050565b600060208201905081810360008301526111da8161119e565b9050919050565b7f4e487b7100000000000000000000000000000000000000000000000000000000600052604160045260246000fd5b60008190508160005260206000209050919050565b60006020601f8301049050919050565b600082821b905092915050565b6000600883026112727fffffffffffffffffffffffffffffffffffffffffffffffffffffffffffffffff82611235565b61127c8683611235565b95508019841693508086168417925050509392505050565b6000819050919050565b60006112b96112b46112af84610aff565b611294565b610aff565b9050919050565b6000819050919050565b6112d38361129e565b6112e76112df826112c0565b848454611242565b825550505050565b600090565b6112fc6112ef565b6113078184846112ca565b505050565b5b8181101561132b576113206000826112f4565b60018101905061130d565b5050565b601f8211156113705761134181611210565b61134a84611225565b81016020851015611359578190505b61136d61136585611225565b83018261130c565b50505b505050565b600082821c905092915050565b600061139360001984600802611375565b1980831691505092915050565b60006113ac8383611382565b9150826002028217905092915050565b6113c582610c39565b67ffffffffffffffff8111156113de576113dd6111e1565b5b6113e882546110d8565b6113f382828561132f565b600060209050601f8311600181146114265760008415611414578287015190505b61141e85826113a0565b865550611486565b601f19841661143486611210565b60005b8281101561145c57848901518255600182019150602085019450602081019050611437565b868310156114795784890151611475601f891682611382565b8355505b6001600288020188555050505b50505050505056fea26469706673582212203fe20fd8db11509660b5c871948fe555e8c85bb34549d13eadba004a0e6e495964736f6c63430008140033",
  "linkReferences": {},
  "deployedLinkReferences": {}
}