{
  "_format": "hh-sol-artifact-1",
  "contractName": "WalletBank",
  "sourceName": "contracts/WalletBank.sol",
  "abi": [
    {
      "inputs": [],
      "stateMutability": "nonpayable",
      "type": "constructor"
    },
    {
      "inputs": [],
      "name": "ReentrancyGuardReentrantCall",
      "type": "error"
    },
    {
      "anonymous": false,
      "inputs": [
        {
          "indexed": true,
          "internalType": "address",
          "name": "reciever",
          "type": "address"
        },
        {
          "indexed": false,
          "internalType": "uint256",
          "name": "amount",
          "type": "uint256"
        },
        {
          "indexed": false,
          "internalType": "uint256",
          "name": "timestamp",
          "type": "uint256"
        }
      ],
      "name": "DepositMade",
      "type": "event"
    },
    {
      "anonymous": false,
      "inputs": [
        {
          "indexed": true,
          "internalType": "address",
          "name": "from",
          "type": "address"
        },
        {
          "indexed": true,
          "internalType": "address",
          "name": "to",
          "type": "address"
        },
        {
          "indexed": false,
          "internalType": "uint256",
          "name": "amount",
          "type": "uint256"
        },
        {
          "indexed": false,
          "internalType": "uint256",
          "name": "fee",
          "type": "uint256"
        },
        {
          "indexed": false,
          "internalType": "uint256",
          "name": "timestamp",
          "type": "uint256"
        }
      ],
      "name": "TransferMade",
      "type": "event"
    },
    {
      "anonymous": false,
      "inputs": [
        {
          "indexed": true,
          "internalType": "address",
          "name": "depositor",
          "type": "address"
        },
        {
          "indexed": true,
          "internalType": "address",
          "name": "token",
          "type": "address"
        },
        {
          "indexed": false,
          "internalType": "uint256",
          "name": "amount",
          "type": "uint256"
        },
        {
          "indexed": false,
          "internalType": "uint256",
          "name": "timestamp",
          "type": "uint256"
        }
      ],
      "name": "tokenDepositMade",
      "type": "event"
    },
    {
      "inputs": [],
      "name": "deposit",
      "outputs": [],
      "stateMutability": "payable",
      "type": "function"
    },
    {
      "inputs": [
        {
          "internalType": "address",
          "name": "",
          "type": "address"
        },
        {
          "internalType": "uint256",
          "name": "",
          "type": "uint256"
        }
      ],
      "name": "depositHistory",
      "outputs": [
        {
          "internalType": "address",
          "name": "depositor",
          "type": "address"
        },
        {
          "internalType": "uint256",
          "name": "amount",
          "type": "uint256"
        },
        {
          "internalType": "uint256",
          "name": "timestamp",
          "type": "uint256"
        },
        {
          "internalType": "string",
          "name": "txHash",
          "type": "string"
        }
      ],
      "stateMutability": "view",
      "type": "function"
    },
    {
      "inputs": [
        {
          "internalType": "address",
          "name": "_token",
          "type": "address"
        },
        {
          "internalType": "uint256",
          "name": "_amount",
          "type": "uint256"
        }
      ],
      "name": "depositToken",
      "outputs": [],
      "stateMutability": "nonpayable",
      "type": "function"
    },
    {
      "inputs": [],
      "name": "fee",
      "outputs": [
        {
          "internalType": "uint256",
          "name": "",
          "type": "uint256"
        }
      ],
      "stateMutability": "view",
      "type": "function"
    },
    {
      "inputs": [
        {
          "internalType": "address",
          "name": "_user",
          "type": "address"
        }
      ],
      "name": "getBalance",
      "outputs": [
        {
          "internalType": "uint256",
          "name": "",
          "type": "uint256"
        }
      ],
      "stateMutability": "view",
      "type": "function"
    },
    {
      "inputs": [
        {
          "internalType": "address",
          "name": "_user",
          "type": "address"
        }
      ],
      "name": "getDailyTransfer",
      "outputs": [
        {
          "internalType": "uint256",
          "name": "",
          "type": "uint256"
        }
      ],
      "stateMutability": "view",
      "type": "function"
    },
    {
      "inputs": [
        {
          "internalType": "address",
          "name": "_user",
          "type": "address"
        }
      ],
      "name": "getLastTransferDay",
      "outputs": [
        {
          "internalType": "uint256",
          "name": "",
          "type": "uint256"
        }
      ],
      "stateMutability": "view",
      "type": "function"
    },
    {
      "inputs": [
        {
          "internalType": "address",
          "name": "_user",
          "type": "address"
        },
        {
          "internalType": "address",
          "name": "_token",
          "type": "address"
        }
      ],
      "name": "getTokenDeposit",
      "outputs": [
        {
          "internalType": "uint256",
          "name": "",
          "type": "uint256"
        }
      ],
      "stateMutability": "view",
      "type": "function"
    },
    {
      "inputs": [],
      "name": "maxDeposit",
      "outputs": [
        {
          "internalType": "uint256",
          "name": "",
          "type": "uint256"
        }
      ],
      "stateMutability": "view",
      "type": "function"
    },
    {
      "inputs": [],
      "name": "minDeposit",
      "outputs": [
        {
          "internalType": "uint256",
          "name": "",
          "type": "uint256"
        }
      ],
      "stateMutability": "view",
      "type": "function"
    },
    {
      "inputs": [],
      "name": "owner",
      "outputs": [
        {
          "internalType": "address",
          "name": "",
          "type": "address"
        }
      ],
      "stateMutability": "view",
      "type": "function"
    },
    {
      "inputs": [
        {
          "internalType": "uint256",
          "name": "_fee",
          "type": "uint256"
        }
      ],
      "name": "setFee",
      "outputs": [],
      "stateMutability": "nonpayable",
      "type": "function"
    },
    {
      "inputs": [
        {
          "internalType": "address",
          "name": "_to",
          "type": "address"
        },
        {
          "internalType": "uint256",
          "name": "_amount",
          "type": "uint256"
        }
      ],
      "name": "transfer",
      "outputs": [],
      "stateMutability": "nonpayable",
      "type": "function"
    },
    {
      "inputs": [],
      "name": "transferDailyLimit",
      "outputs": [
        {
          "internalType": "uint256",
          "name": "",
          "type": "uint256"
        }
      ],
      "stateMutability": "view",
      "type": "function"
    },
    {
      "inputs": [
        {
          "internalType": "address",
          "name": "",
          "type": "address"
        },
        {
          "internalType": "uint256",
          "name": "",
          "type": "uint256"
        }
      ],
      "name": "transferHistory",
      "outputs": [
        {
          "internalType": "address",
          "name": "from",
          "type": "address"
        },
        {
          "internalType": "address",
          "name": "to",
          "type": "address"
        },
        {
          "internalType": "uint256",
          "name": "amount",
          "type": "uint256"
        },
        {
          "internalType": "uint256",
          "name": "fee",
          "type": "uint256"
        },
        {
          "internalType": "uint256",
          "name": "timestamp",
          "type": "uint256"
        }
      ],
      "stateMutability": "view",
      "type": "function"
    },
    {
      "inputs": [
        {
          "internalType": "address",
          "name": "",
          "type": "address"
        },
        {
          "internalType": "uint256",
          "name": "",
          "type": "uint256"
        }
      ],
      "name": "treasuries",
      "outputs": [
        {
          "internalType": "address",
          "name": "owner",
          "type": "address"
        },
        {
          "internalType": "uint256",
          "name": "amount",
          "type": "uint256"
        }
      ],
      "stateMutability": "view",
      "type": "function"
    },
    {
      "inputs": [],
      "name": "treasury",
      "outputs": [
        {
          "internalType": "address",
          "name": "owner",
          "type": "address"
        },
        {
          "internalType": "uint256",
          "name": "amount",
          "type": "uint256"
        }
      ],
      "stateMutability": "view",
      "type": "function"
    },
    {
      "inputs": [
        {
          "internalType": "uint256",
          "name": "_amount",
          "type": "uint256"
        }
      ],
      "name": "withdraw",
      "outputs": [],
      "stateMutability": "nonpayable",
      "type": "function"
    }
  ],
  "bytecode": "0x608060405234801561001057600080fd5b50600160008190555033600160006101000a81548173ffffffffffffffffffffffffffffffffffffffff021916908373ffffffffffffffffffffffffffffffffffffffff160217905550662386f26fc10000600281905550678ac7230489e8000060038190555060026004819055506122318061008e6000396000f3fe6080604052600436106101095760003560e01c8063715a6e9a11610095578063cfe6a2a511610064578063cfe6a2a514610382578063d0e30db0146103bf578063d1fb4454146103c9578063ddca3f431461040a578063f8b2cb4f1461043557610109565b8063715a6e9a146102c35780638da5cb5b14610303578063a9059cbb1461032e578063b981fb7a1461035757610109565b80634133d168116100dc5780634133d168146101da57806341b3d185146102185780636083e59a1461024357806361d027b31461026e57806369fe0e2d1461029a57610109565b80630fe593121461010e5780631ddf264e1461014b5780632e1a7d4d14610188578063338b5dea146101b1575b600080fd5b34801561011a57600080fd5b506101356004803603810190610130919061159f565b610472565b60405161014291906115e5565b60405180910390f35b34801561015757600080fd5b50610172600480360381019061016d919061159f565b6104bb565b60405161017f91906115e5565b60405180910390f35b34801561019457600080fd5b506101af60048036038101906101aa919061162c565b610504565b005b3480156101bd57600080fd5b506101d860048036038101906101d39190611659565b610636565b005b3480156101e657600080fd5b5061020160048036038101906101fc9190611659565b6108ab565b60405161020f9291906116a8565b60405180910390f35b34801561022457600080fd5b5061022d61090c565b60405161023a91906115e5565b60405180910390f35b34801561024f57600080fd5b50610258610912565b60405161026591906115e5565b60405180910390f35b34801561027a57600080fd5b50610283610918565b6040516102919291906116a8565b60405180910390f35b3480156102a657600080fd5b506102c160048036038101906102bc919061162c565b61094a565b005b3480156102cf57600080fd5b506102ea60048036038101906102e59190611659565b6109e4565b6040516102fa9493929190611761565b60405180910390f35b34801561030f57600080fd5b50610318610ad9565b60405161032591906117ad565b60405180910390f35b34801561033a57600080fd5b5061035560048036038101906103509190611659565b610aff565b005b34801561036357600080fd5b5061036c6110fe565b60405161037991906115e5565b60405180910390f35b34801561038e57600080fd5b506103a960048036038101906103a491906117c8565b61110a565b6040516103b691906115e5565b60405180910390f35b6103c7611191565b005b3480156103d557600080fd5b506103f060048036038101906103eb9190611659565b61140a565b604051610401959493929190611808565b60405180910390f35b34801561041657600080fd5b5061041f61149d565b60405161042c91906115e5565b60405180910390f35b34801561044157600080fd5b5061045c6004803603810190610457919061159f565b6114a3565b60405161046991906115e5565b60405180910390f35b6000600860008373ffffffffffffffffffffffffffffffffffffffff1673ffffffffffffffffffffffffffffffffffffffff168152602001908152602001600020549050919050565b6000600760008373ffffffffffffffffffffffffffffffffffffffff1673ffffffffffffffffffffffffffffffffffffffff168152602001908152602001600020549050919050565b61050c6114ec565b80600560003373ffffffffffffffffffffffffffffffffffffffff1673ffffffffffffffffffffffffffffffffffffffff16815260200190815260200160002054101561058e576040517f08c379a0000000000000000000000000000000000000000000000000000000008152600401610585906118a7565b60405180910390fd5b80600560003373ffffffffffffffffffffffffffffffffffffffff1673ffffffffffffffffffffffffffffffffffffffff16815260200190815260200160002060008282546105dd91906118f6565b925050819055503373ffffffffffffffffffffffffffffffffffffffff166108fc829081150290604051600060405180830381858888f1935050505015801561062a573d6000803e3d6000fd5b50610633611532565b50565b60008111610679576040517f08c379a000000000000000000000000000000000000000000000000000000000815260040161067090611976565b60405180910390fd5b600073ffffffffffffffffffffffffffffffffffffffff168273ffffffffffffffffffffffffffffffffffffffff16036106e8576040517f08c379a00000000000000000000000000000000000000000000000000000000081526004016106df906119e2565b60405180910390fd5b60008273ffffffffffffffffffffffffffffffffffffffff166323b872dd3330856040518463ffffffff1660e01b815260040161072793929190611a02565b6020604051808303816000875af1158015610746573d6000803e3d6000fd5b505050506040513d601f19601f8201168201806040525081019061076a9190611a71565b9050806107ac576040517f08c379a00000000000000000000000000000000000000000000000000000000081526004016107a390611aea565b60405180910390fd5b81600660003373ffffffffffffffffffffffffffffffffffffffff1673ffffffffffffffffffffffffffffffffffffffff16815260200190815260200160002060008573ffffffffffffffffffffffffffffffffffffffff1673ffffffffffffffffffffffffffffffffffffffff16815260200190815260200160002060008282546108389190611b0a565b925050819055508273ffffffffffffffffffffffffffffffffffffffff163373ffffffffffffffffffffffffffffffffffffffff167f639bf98c5ad51658194aa1402527b789e7421e0b7d3fa528fe342912a465c1b1844260405161089e929190611b3e565b60405180910390a3505050565b600d60205281600052604060002081815481106108c757600080fd5b9060005260206000209060020201600091509150508060000160009054906101000a900473ffffffffffffffffffffffffffffffffffffffff16908060010154905082565b60025481565b60035481565b600b8060000160009054906101000a900473ffffffffffffffffffffffffffffffffffffffff16908060010154905082565b600160009054906101000a900473ffffffffffffffffffffffffffffffffffffffff1673ffffffffffffffffffffffffffffffffffffffff163373ffffffffffffffffffffffffffffffffffffffff16146109da576040517f08c379a00000000000000000000000000000000000000000000000000000000081526004016109d190611bd9565b60405180910390fd5b8060048190555050565b60096020528160005260406000208181548110610a0057600080fd5b9060005260206000209060040201600091509150508060000160009054906101000a900473ffffffffffffffffffffffffffffffffffffffff1690806001015490806002015490806003018054610a5690611c28565b80601f0160208091040260200160405190810160405280929190818152602001828054610a8290611c28565b8015610acf5780601f10610aa457610100808354040283529160200191610acf565b820191906000526020600020905b815481529060010190602001808311610ab257829003601f168201915b5050505050905084565b600160009054906101000a900473ffffffffffffffffffffffffffffffffffffffff1681565b610b076114ec565b8060006201518042610b199190611c88565b905080600860003373ffffffffffffffffffffffffffffffffffffffff1673ffffffffffffffffffffffffffffffffffffffff1681526020019081526020016000205414610beb576000600760003373ffffffffffffffffffffffffffffffffffffffff1673ffffffffffffffffffffffffffffffffffffffff1681526020019081526020016000208190555080600860003373ffffffffffffffffffffffffffffffffffffffff1673ffffffffffffffffffffffffffffffffffffffff168152602001908152602001600020819055505b67d02ab486cedc000082600760003373ffffffffffffffffffffffffffffffffffffffff1673ffffffffffffffffffffffffffffffffffffffff16815260200190815260200160002054610c3f9190611b0a565b1115610c80576040517f08c379a0000000000000000000000000000000000000000000000000000000008152600401610c7790611d05565b60405180910390fd5b81600760003373ffffffffffffffffffffffffffffffffffffffff1673ffffffffffffffffffffffffffffffffffffffff1681526020019081526020016000206000828254610ccf9190611b0a565b9250508190555082600560003373ffffffffffffffffffffffffffffffffffffffff1673ffffffffffffffffffffffffffffffffffffffff168152602001908152602001600020541015610d58576040517f08c379a0000000000000000000000000000000000000000000000000000000008152600401610d4f906118a7565b60405180910390fd5b600073ffffffffffffffffffffffffffffffffffffffff168473ffffffffffffffffffffffffffffffffffffffff1603610dc7576040517f08c379a0000000000000000000000000000000000000000000000000000000008152600401610dbe90611d71565b60405180910390fd5b3373ffffffffffffffffffffffffffffffffffffffff168473ffffffffffffffffffffffffffffffffffffffff1603610e35576040517f08c379a0000000000000000000000000000000000000000000000000000000008152600401610e2c90611ddd565b60405180910390fd5b82600560003373ffffffffffffffffffffffffffffffffffffffff1673ffffffffffffffffffffffffffffffffffffffff1681526020019081526020016000206000828254610e8491906118f6565b925050819055506000606460045485610e9d9190611dfd565b610ea79190611c88565b905060008185610eb791906118f6565b90508573ffffffffffffffffffffffffffffffffffffffff166108fc829081150290604051600060405180830381858888f19350505050158015610eff573d6000803e3d6000fd5b5081600b6001016000828254610f159190611b0a565b92505081905550600a60003373ffffffffffffffffffffffffffffffffffffffff1673ffffffffffffffffffffffffffffffffffffffff1681526020019081526020016000206040518060a001604052803373ffffffffffffffffffffffffffffffffffffffff1681526020018873ffffffffffffffffffffffffffffffffffffffff16815260200187815260200184815260200142815250908060018154018082558091505060019003906000526020600020906005020160009091909190915060008201518160000160006101000a81548173ffffffffffffffffffffffffffffffffffffffff021916908373ffffffffffffffffffffffffffffffffffffffff16021790555060208201518160010160006101000a81548173ffffffffffffffffffffffffffffffffffffffff021916908373ffffffffffffffffffffffffffffffffffffffff16021790555060408201518160020155606082015181600301556080820151816004015550508573ffffffffffffffffffffffffffffffffffffffff163373ffffffffffffffffffffffffffffffffffffffff167f905bccc5f50166716cb6847f818ec21f9f17eaacf4af764af6cdc82060fc7b218785426040516110e693929190611e3f565b60405180910390a3505050506110fa611532565b5050565b67d02ab486cedc000081565b6000600660008473ffffffffffffffffffffffffffffffffffffffff1673ffffffffffffffffffffffffffffffffffffffff16815260200190815260200160002060008373ffffffffffffffffffffffffffffffffffffffff1673ffffffffffffffffffffffffffffffffffffffff16815260200190815260200160002054905092915050565b6002543410156111d6576040517f08c379a00000000000000000000000000000000000000000000000000000000081526004016111cd90611ec2565b60405180910390fd5b60035434111561121b576040517f08c379a000000000000000000000000000000000000000000000000000000000815260040161121290611f2e565b60405180910390fd5b34600560003373ffffffffffffffffffffffffffffffffffffffff1673ffffffffffffffffffffffffffffffffffffffff168152602001908152602001600020600082825461126a9190611b0a565b92505081905550600960003373ffffffffffffffffffffffffffffffffffffffff1673ffffffffffffffffffffffffffffffffffffffff16815260200190815260200160002060405180608001604052803373ffffffffffffffffffffffffffffffffffffffff1681526020013481526020014281526020016040518060400160405280600281526020017f3078000000000000000000000000000000000000000000000000000000000000815250815250908060018154018082558091505060019003906000526020600020906004020160009091909190915060008201518160000160006101000a81548173ffffffffffffffffffffffffffffffffffffffff021916908373ffffffffffffffffffffffffffffffffffffffff160217905550602082015181600101556040820151816002015560608201518160030190816113b59190612129565b5050503373ffffffffffffffffffffffffffffffffffffffff167f0b05f0d1cd0819f155b8a61f60baf7767c1ee49d04aeaab701df236140eb93f93442604051611400929190611b3e565b60405180910390a2565b600a602052816000526040600020818154811061142657600080fd5b9060005260206000209060050201600091509150508060000160009054906101000a900473ffffffffffffffffffffffffffffffffffffffff16908060010160009054906101000a900473ffffffffffffffffffffffffffffffffffffffff16908060020154908060030154908060040154905085565b60045481565b6000600560008373ffffffffffffffffffffffffffffffffffffffff1673ffffffffffffffffffffffffffffffffffffffff168152602001908152602001600020549050919050565b600260005403611528576040517f3ee5aeb500000000000000000000000000000000000000000000000000000000815260040160405180910390fd5b6002600081905550565b6001600081905550565b600080fd5b600073ffffffffffffffffffffffffffffffffffffffff82169050919050565b600061156c82611541565b9050919050565b61157c81611561565b811461158757600080fd5b50565b60008135905061159981611573565b92915050565b6000602082840312156115b5576115b461153c565b5b60006115c38482850161158a565b91505092915050565b6000819050919050565b6115df816115cc565b82525050565b60006020820190506115fa60008301846115d6565b92915050565b611609816115cc565b811461161457600080fd5b50565b60008135905061162681611600565b92915050565b6000602082840312156116425761164161153c565b5b600061165084828501611617565b91505092915050565b600080604083850312156116705761166f61153c565b5b600061167e8582860161158a565b925050602061168f85828601611617565b9150509250929050565b6116a281611561565b82525050565b60006040820190506116bd6000830185611699565b6116ca60208301846115d6565b9392505050565b600081519050919050565b600082825260208201905092915050565b60005b8381101561170b5780820151818401526020810190506116f0565b60008484015250505050565b6000601f19601f8301169050919050565b6000611733826116d1565b61173d81856116dc565b935061174d8185602086016116ed565b61175681611717565b840191505092915050565b60006080820190506117766000830187611699565b61178360208301866115d6565b61179060408301856115d6565b81810360608301526117a28184611728565b905095945050505050565b60006020820190506117c26000830184611699565b92915050565b600080604083850312156117df576117de61153c565b5b60006117ed8582860161158a565b92505060206117fe8582860161158a565b9150509250929050565b600060a08201905061181d6000830188611699565b61182a6020830187611699565b61183760408301866115d6565b61184460608301856115d6565b61185160808301846115d6565b9695505050505050565b7f496e73756666696369656e742062616c616e6365000000000000000000000000600082015250565b60006118916014836116dc565b915061189c8261185b565b602082019050919050565b600060208201905081810360008301526118c081611884565b9050919050565b7f4e487b7100000000000000000000000000000000000000000000000000000000600052601160045260246000fd5b6000611901826115cc565b915061190c836115cc565b9250828203905081811115611924576119236118c7565b5b92915050565b7f416d6f756e74206d7573742062652067726561746572207468616e207a65726f600082015250565b60006119606020836116dc565b915061196b8261192a565b602082019050919050565b6000602082019050818103600083015261198f81611953565b9050919050565b7f496e76616c696420746f6b656e20616464726573730000000000000000000000600082015250565b60006119cc6015836116dc565b91506119d782611996565b602082019050919050565b600060208201905081810360008301526119fb816119bf565b9050919050565b6000606082019050611a176000830186611699565b611a246020830185611699565b611a3160408301846115d6565b949350505050565b60008115159050919050565b611a4e81611a39565b8114611a5957600080fd5b50565b600081519050611a6b81611a45565b92915050565b600060208284031215611a8757611a8661153c565b5b6000611a9584828501611a5c565b91505092915050565b7f546f6b656e207472616e73666572206661696c65640000000000000000000000600082015250565b6000611ad46015836116dc565b9150611adf82611a9e565b602082019050919050565b60006020820190508181036000830152611b0381611ac7565b9050919050565b6000611b15826115cc565b9150611b20836115cc565b9250828201905080821115611b3857611b376118c7565b5b92915050565b6000604082019050611b5360008301856115d6565b611b6060208301846115d6565b9392505050565b7f4f6e6c79206f776e65722063616e2063616c6c20746869732066756e6374696f60008201527f6e00000000000000000000000000000000000000000000000000000000000000602082015250565b6000611bc36021836116dc565b9150611bce82611b67565b604082019050919050565b60006020820190508181036000830152611bf281611bb6565b9050919050565b7f4e487b7100000000000000000000000000000000000000000000000000000000600052602260045260246000fd5b60006002820490506001821680611c4057607f821691505b602082108103611c5357611c52611bf9565b5b50919050565b7f4e487b7100000000000000000000000000000000000000000000000000000000600052601260045260246000fd5b6000611c93826115cc565b9150611c9e836115cc565b925082611cae57611cad611c59565b5b828204905092915050565b7f4461696c79207472616e73666572206c696d6974206578636565646564000000600082015250565b6000611cef601d836116dc565b9150611cfa82611cb9565b602082019050919050565b60006020820190508181036000830152611d1e81611ce2565b9050919050565b7f496e76616c696420726563697069656e74206164647265737300000000000000600082015250565b6000611d5b6019836116dc565b9150611d6682611d25565b602082019050919050565b60006020820190508181036000830152611d8a81611d4e565b9050919050565b7f43616e6e6f74207472616e7366657220746f20796f757273656c660000000000600082015250565b6000611dc7601b836116dc565b9150611dd282611d91565b602082019050919050565b60006020820190508181036000830152611df681611dba565b9050919050565b6000611e08826115cc565b9150611e13836115cc565b9250828202611e21816115cc565b91508282048414831517611e3857611e376118c7565b5b5092915050565b6000606082019050611e5460008301866115d6565b611e6160208301856115d6565b611e6e60408301846115d6565b949350505050565b7f4465706f7369742062656c6f77206d696e206c696d6974000000000000000000600082015250565b6000611eac6017836116dc565b9150611eb782611e76565b602082019050919050565b60006020820190508181036000830152611edb81611e9f565b9050919050565b7f4465706f7369742065786365656473206d6178206c696d697400000000000000600082015250565b6000611f186019836116dc565b9150611f2382611ee2565b602082019050919050565b60006020820190508181036000830152611f4781611f0b565b9050919050565b7f4e487b7100000000000000000000000000000000000000000000000000000000600052604160045260246000fd5b60008190508160005260206000209050919050565b60006020601f8301049050919050565b600082821b905092915050565b600060088302611fdf7fffffffffffffffffffffffffffffffffffffffffffffffffffffffffffffffff82611fa2565b611fe98683611fa2565b95508019841693508086168417925050509392505050565b6000819050919050565b600061202661202161201c846115cc565b612001565b6115cc565b9050919050565b6000819050919050565b6120408361200b565b61205461204c8261202d565b848454611faf565b825550505050565b600090565b61206961205c565b612074818484612037565b505050565b5b818110156120985761208d600082612061565b60018101905061207a565b5050565b601f8211156120dd576120ae81611f7d565b6120b784611f92565b810160208510156120c6578190505b6120da6120d285611f92565b830182612079565b50505b505050565b600082821c905092915050565b6000612100600019846008026120e2565b1980831691505092915050565b600061211983836120ef565b9150826002028217905092915050565b612132826116d1565b67ffffffffffffffff81111561214b5761214a611f4e565b5b6121558254611c28565b61216082828561209c565b600060209050601f8311600181146121935760008415612181578287015190505b61218b858261210d565b8655506121f3565b601f1984166121a186611f7d565b60005b828110156121c9578489015182556001820191506020850194506020810190506121a4565b868310156121e657848901516121e2601f8916826120ef565b8355505b6001600288020188555050505b50505050505056fea2646970667358221220a1a58a669bec1720bae182f4987196cfa5b6cc93fb58dcf3bb598408dfde872964736f6c63430008140033",
  "linkReferences": {},
  "deployedLinkReferences": {}
}