{
  "_format": "hh-sol-artifact-1",
  "contractName": "WalletBank",
  "sourceName": "contracts/WalletBank.sol",
  "abi": [
    {
      "inputs": [],
      "stateMutability": "nonpayable",
      "type": "constructor"
    },
    {
      "inputs": [],
      "name": "ReentrancyGuardReentrantCall",
      "type": "error"
    },
    {
      "anonymous": false,
      "inputs": [
        {
          "indexed": true,
          "internalType": "address",
          "name": "reciever",
          "type": "address"
        },
        {
          "indexed": false,
          "internalType": "uint256",
          "name": "amount",
          "type": "uint256"
        },
        {
          "indexed": false,
          "internalType": "uint256",
          "name": "timestamp",
          "type": "uint256"
        }
      ],
      "name": "DepositMade",
      "type": "event"
    },
    {
      "anonymous": false,
      "inputs": [
        {
          "indexed": true,
          "internalType": "address",
          "name": "from",
          "type": "address"
        },
        {
          "indexed": true,
          "internalType": "address",
          "name": "to",
          "type": "address"
        },
        {
          "indexed": false,
          "internalType": "uint256",
          "name": "amount",
          "type": "uint256"
        },
        {
          "indexed": false,
          "internalType": "uint256",
          "name": "fee",
          "type": "uint256"
        },
        {
          "indexed": false,
          "internalType": "uint256",
          "name": "timestamp",
          "type": "uint256"
        }
      ],
      "name": "TransferMade",
      "type": "event"
    },
    {
      "anonymous": false,
      "inputs": [
        {
          "indexed": true,
          "internalType": "address",
          "name": "depositor",
          "type": "address"
        },
        {
          "indexed": true,
          "internalType": "address",
          "name": "token",
          "type": "address"
        },
        {
          "indexed": false,
          "internalType": "uint256",
          "name": "amount",
          "type": "uint256"
        },
        {
          "indexed": false,
          "internalType": "uint256",
          "name": "timestamp",
          "type": "uint256"
        }
      ],
      "name": "tokenDepositMade",
      "type": "event"
    },
    {
      "inputs": [],
      "name": "deposit",
      "outputs": [],
      "stateMutability": "payable",
      "type": "function"
    },
    {
      "inputs": [
        {
          "internalType": "address",
          "name": "",
          "type": "address"
        },
        {
          "internalType": "uint256",
          "name": "",
          "type": "uint256"
        }
      ],
      "name": "depositHistory",
      "outputs": [
        {
          "internalType": "address",
          "name": "depositor",
          "type": "address"
        },
        {
          "internalType": "uint256",
          "name": "amount",
          "type": "uint256"
        },
        {
          "internalType": "uint256",
          "name": "timestamp",
          "type": "uint256"
        },
        {
          "internalType": "string",
          "name": "txHash",
          "type": "string"
        }
      ],
      "stateMutability": "view",
      "type": "function"
    },
    {
      "inputs": [
        {
          "internalType": "address",
          "name": "_token",
          "type": "address"
        },
        {
          "internalType": "uint256",
          "name": "_amount",
          "type": "uint256"
        }
      ],
      "name": "depositToken",
      "outputs": [],
      "stateMutability": "nonpayable",
      "type": "function"
    },
    {
      "inputs": [],
      "name": "fee",
      "outputs": [
        {
          "internalType": "uint256",
          "name": "",
          "type": "uint256"
        }
      ],
      "stateMutability": "view",
      "type": "function"
    },
    {
      "inputs": [
        {
          "internalType": "address",
          "name": "_user",
          "type": "address"
        }
      ],
      "name": "getBalance",
      "outputs": [
        {
          "internalType": "uint256",
          "name": "",
          "type": "uint256"
        }
      ],
      "stateMutability": "view",
      "type": "function"
    },
    {
      "inputs": [
        {
          "internalType": "address",
          "name": "_user",
          "type": "address"
        }
      ],
      "name": "getDailyTransfer",
      "outputs": [
        {
          "internalType": "uint256",
          "name": "",
          "type": "uint256"
        }
      ],
      "stateMutability": "view",
      "type": "function"
    },
    {
      "inputs": [
        {
          "internalType": "address",
          "name": "_user",
          "type": "address"
        }
      ],
      "name": "getLastTransferDay",
      "outputs": [
        {
          "internalType": "uint256",
          "name": "",
          "type": "uint256"
        }
      ],
      "stateMutability": "view",
      "type": "function"
    },
    {
      "inputs": [
        {
          "internalType": "address",
          "name": "_user",
          "type": "address"
        },
        {
          "internalType": "address",
          "name": "_token",
          "type": "address"
        }
      ],
      "name": "getTokenDeposit",
      "outputs": [
        {
          "internalType": "uint256",
          "name": "",
          "type": "uint256"
        }
      ],
      "stateMutability": "view",
      "type": "function"
    },
    {
      "inputs": [],
      "name": "maxDeposit",
      "outputs": [
        {
          "internalType": "uint256",
          "name": "",
          "type": "uint256"
        }
      ],
      "stateMutability": "view",
      "type": "function"
    },
    {
      "inputs": [],
      "name": "minDeposit",
      "outputs": [
        {
          "internalType": "uint256",
          "name": "",
          "type": "uint256"
        }
      ],
      "stateMutability": "view",
      "type": "function"
    },
    {
      "inputs": [],
      "name": "owner",
      "outputs": [
        {
          "internalType": "address",
          "name": "",
          "type": "address"
        }
      ],
      "stateMutability": "view",
      "type": "function"
    },
    {
      "inputs": [
        {
          "internalType": "uint256",
          "name": "_fee",
          "type": "uint256"
        }
      ],
      "name": "setFee",
      "outputs": [],
      "stateMutability": "nonpayable",
      "type": "function"
    },
    {
      "inputs": [
        {
          "internalType": "address",
          "name": "_to",
          "type": "address"
        },
        {
          "internalType": "uint256",
          "name": "_amount",
          "type": "uint256"
        }
      ],
      "name": "transfer",
      "outputs": [],
      "stateMutability": "nonpayable",
      "type": "function"
    },
    {
      "inputs": [],
      "name": "transferDailyLimit",
      "outputs": [
        {
          "internalType": "uint256",
          "name": "",
          "type": "uint256"
        }
      ],
      "stateMutability": "view",
      "type": "function"
    },
    {
      "inputs": [
        {
          "internalType": "address",
          "name": "",
          "type": "address"
        },
        {
          "internalType": "uint256",
          "name": "",
          "type": "uint256"
        }
      ],
      "name": "transferHistory",
      "outputs": [
        {
          "internalType": "address",
          "name": "from",
          "type": "address"
        },
        {
          "internalType": "address",
          "name": "to",
          "type": "address"
        },
        {
          "internalType": "uint256",
          "name": "amount",
          "type": "uint256"
        },
        {
          "internalType": "uint256",
          "name": "fee",
          "type": "uint256"
        },
        {
          "internalType": "uint256",
          "name": "timestamp",
          "type": "uint256"
        }
      ],
      "stateMutability": "view",
      "type": "function"
    },
    {
      "inputs": [
        {
          "internalType": "address",
          "name": "",
          "type": "address"
        },
        {
          "internalType": "uint256",
          "name": "",
          "type": "uint256"
        }
      ],
      "name": "treasuries",
      "outputs": [
        {
          "internalType": "address",
          "name": "owner",
          "type": "address"
        },
        {
          "internalType": "uint256",
          "name": "amount",
          "type": "uint256"
        }
      ],
      "stateMutability": "view",
      "type": "function"
    },
    {
      "inputs": [],
      "name": "treasury",
      "outputs": [
        {
          "internalType": "address",
          "name": "owner",
          "type": "address"
        },
        {
          "internalType": "uint256",
          "name": "amount",
          "type": "uint256"
        }
      ],
      "stateMutability": "view",
      "type": "function"
    },
    {
      "inputs": [
        {
          "internalType": "uint256",
          "name": "_amount",
          "type": "uint256"
        }
      ],
      "name": "withdraw",
      "outputs": [],
      "stateMutability": "nonpayable",
      "type": "function"
    }
  ],
  "bytecode": "0x60808060405234610049576001600081905580546001600160a01b03191633179055662386f26fc100006002908155678ac7230489e80000600355600455610f9c908161004f8239f35b600080fdfe608060408181526004918236101561001657600080fd5b600092833560e01c9182630fe5931214610dc1575081631ddf264e14610d89578382632e1a7d4d14610d0f57508163338b5dea14610b4d5781634133d16814610ae257816341b3d18514610ac35781636083e59a14610aa457816361d027b314610a6f57816369fe0e2d146109f4578163715a6e9a1461089b5781638da5cb5b14610872578163a9059cbb14610557578163b981fb7a14610534578163cfe6a2a5146104e0578163d0e30db0146101d0578163d1fb445414610149578163ddca3f4314610127575063f8b2cb4f146100ed57600080fd5b346101235760203660031901126101235760209181906001600160a01b03610113610df5565b1681526005845220549051908152f35b5080fd5b90503461014557826003193601126101455760209250549051908152f35b8280fd5b91905034610145578060031936011261014557610164610df5565b6001600160a01b039081168452600a602052818420805460243595929492908610156101cd575060a09461019791610eb4565b50908382541693600183015416926002830154916003840154930154938151958652602086015284015260608301526080820152f35b80fd5b83838160031936011261012357600254341061049e57600354341161045c5733825260209060058252808320610207348254610ed0565b905533835260098252808320815190608082019567ffffffffffffffff9683811088821117610449578452338352848301923484528481014281528551948686018681108b8211176104365787526002865261060f60f31b88870152606083019586528454600160401b81101561043657610289906001968782018155610e10565b939093610424575183546001600160a01b0319166001600160a01b03919091161783555184830155516002820155925180519760039490940193909190881161041157506102d78354610e42565b601f81116103cb575b508490601f881160011461034c57968092819288997f0b05f0d1cd0819f155b8a61f60baf7767c1ee49d04aeaab701df236140eb93f9989994610341575b50501b916000199060031b1c19161790555b80519234845242908401523392a280f35b01519250898061031e565b838752858720909791601f198316885b8181106103b6575098837f0b05f0d1cd0819f155b8a61f60baf7767c1ee49d04aeaab701df236140eb93f998999a1061039d575b505050811b019055610330565b015160001960f88460031b161c19169055878080610390565b8a83015184559285019291880191880161035c565b838752858720601f890160051c810191878a10610407575b601f0160051c019083905b8281106103fc5750506102e0565b8881550183906103ee565b90915081906103e3565b634e487b7160e01b875260419052602486fd5b634e487b7160e01b8a5289855260248afd5b634e487b7160e01b8a526041855260248afd5b634e487b7160e01b875260418252602487fd5b5162461bcd60e51b8152602081840152601960248201527f4465706f7369742065786365656473206d6178206c696d6974000000000000006044820152606490fd5b5162461bcd60e51b8152602081840152601760248201527f4465706f7369742062656c6f77206d696e206c696d69740000000000000000006044820152606490fd5b5050346101235780600319360112610123576104fa610df5565b6001600160a01b036024358181169290839003610530579160209491849316825260068552828220908252845220549051908152f35b8480fd5b5050346101235781600319360112610123576020905167d02ab486cedc00008152f35b91905034610145578060031936011261014557610572610df5565b90602491823592610581610f43565b620151804204903387526020916008835280858920540361085b575b506007825267d02ab486cedc00006105b886868a2054610ed0565b1161081a57338752600782528387206105d2868254610ed0565b9055338752600582526105ea85858920541015610ef3565b6001600160a01b039283169586156107da5733871461079a5733885260058352848820610618878254610f36565b905580548087029087820414871517156107885760649004938880808061063f898c610f36565b8c82821561077f575bf1156107755761065a85600c54610ed0565b600c55338952600a84528589209086519060a0820182811067ffffffffffffffff8211176107635788523382528582018a8152888301918a835260608401938985526080810195428752805490600160401b82101561075057906106c391600182018155610eb4565b989098610740575081905116906bffffffffffffffffffffffff60a01b9182895416178855600188019251169082541617905551600285015551600384015551910155825193845283015242908201527f905bccc5f50166716cb6847f818ec21f9f17eaacf4af764af6cdc82060fc7b2160603392a36001815580f35b634e487b7160e01b8f528e88528efd5b50634e487b7160e01b8f5260418852888ffd5b634e487b7160e01b8c5260418552858cfd5b85513d8a823e3d90fd5b506108fc610648565b50634e487b7160e01b88526011905286fd5b601b6064928487519362461bcd60e51b85528401528201527f43616e6e6f74207472616e7366657220746f20796f757273656c6600000000006044820152fd5b60196064928487519362461bcd60e51b85528401528201527f496e76616c696420726563697069656e742061646472657373000000000000006044820152fd5b601d869160649386519362461bcd60e51b85528401528201527f4461696c79207472616e73666572206c696d69742065786365656465640000006044820152fd5b60078352878581205560088352848820553861059d565b50503461012357816003193601126101235760015490516001600160a01b039091168152602090f35b5050346101235780600319360112610123576108b5610df5565b9160243560018060a01b0380941682526020906009825283832080548210156109f057906108e291610e10565b5093845416936001938482015460036002840154930182518097879083549361090a85610e42565b948585528983821691826000146109ce575050600114610991575b505061093992509896949392980387610e7c565b805196879586528486015284015260806060840152835191826080850152815b83811061097a57505060a08094508284010152601f80199101168101030190f35b80860182015187820160a001528694508101610959565b88925089528189209089915b8583106109b557505061093993508201013880610925565b819484848396959654920101520191018992889261099d565b925093505061093994915060ff191682840152151560051b8201013880610925565b8380fd5b91905034610145576020366003190112610145576001546001600160a01b03163303610a2257508035905580f35b906020608492519162461bcd60e51b8352820152602160248201527f4f6e6c79206f776e65722063616e2063616c6c20746869732066756e6374696f6044820152603760f91b6064820152fd5b8284346101cd57806003193601126101cd5750600b54600c5491516001600160a01b0390911681526020810191909152604090f35b5050346101235781600319360112610123576020906003549051908152f35b5050346101235781600319360112610123576020906002549051908152f35b8284346101cd57816003193601126101cd57610afc610df5565b906024359060018060a01b038093168152600d6020528381208054831015610123578152602090819020600192831b0180549201549351929091166001600160a01b03168252810191909152604090f35b91905034610145578060031936011261014557610b68610df5565b90602435918215610ccc576001600160a01b0316928315610c925781516323b872dd60e01b81523382820152306024820152604481018490526020919082816064818a8a5af1908115610c88578791610c4e575b5015610c155750907f639bf98c5ad51658194aa1402527b789e7421e0b7d3fa528fe342912a465c1b191338652600681528186208587528152818620610c03858254610ed0565b9055815193845242908401523392a380f35b915162461bcd60e51b8152918201526015602482015274151bdad95b881d1c985b9cd9995c8819985a5b1959605a1b6044820152606490fd5b90508281813d8311610c81575b610c658183610e7c565b81010312610c7d57518015158103610c7d5738610bbc565b8680fd5b503d610c5b565b84513d89823e3d90fd5b6020606492519162461bcd60e51b83528201526015602482015274496e76616c696420746f6b656e206164647265737360581b6044820152fd5b815162461bcd60e51b8152602081860181905260248201527f416d6f756e74206d7573742062652067726561746572207468616e207a65726f6044820152606490fd5b915034610123576020366003190112610123578180809235610d2f610f43565b3382526005602052610d4681878420541015610ef3565b3382526005602052858220610d5c828254610f36565b9055818115610d80575b3390f115610d7657506001815580f35b51903d90823e3d90fd5b506108fc610d66565b5050346101235760203660031901126101235760209181906001600160a01b03610db1610df5565b1681526007845220549051908152f35b84908434610145576020366003190112610145576020926001600160a01b03610de8610df5565b1681526008845220548152f35b600435906001600160a01b0382168203610e0b57565b600080fd5b8054821015610e2c5760005260206000209060021b0190600090565b634e487b7160e01b600052603260045260246000fd5b90600182811c92168015610e72575b6020831014610e5c57565b634e487b7160e01b600052602260045260246000fd5b91607f1691610e51565b90601f8019910116810190811067ffffffffffffffff821117610e9e57604052565b634e487b7160e01b600052604160045260246000fd5b8054821015610e2c576000526005602060002091020190600090565b91908201809211610edd57565b634e487b7160e01b600052601160045260246000fd5b15610efa57565b60405162461bcd60e51b8152602060048201526014602482015273496e73756666696369656e742062616c616e636560601b6044820152606490fd5b91908203918211610edd57565b600260005414610f54576002600055565b604051633ee5aeb560e01b8152600490fdfea26469706673582212201b42193470e0524854b60157c0ffc4bdd21f8b57330f8ff76878ab1acf19394b64736f6c63430008140033",
  "linkReferences": {},
  "deployedLinkReferences": {}
}