{
  "_format": "hh-sol-artifact-1",
  "contractName": "WalletBank",
  "sourceName": "contracts/WalletBank.sol",
  "abi": [
    {
      "inputs": [],
      "stateMutability": "nonpayable",
      "type": "constructor"
    },
    {
      "anonymous": false,
      "inputs": [
        {
          "indexed": true,
          "internalType": "address",
          "name": "reciever",
          "type": "address"
        },
        {
          "indexed": false,
          "internalType": "uint256",
          "name": "amount",
          "type": "uint256"
        },
        {
          "indexed": false,
          "internalType": "uint256",
          "name": "timestamp",
          "type": "uint256"
        }
      ],
      "name": "DepositMade",
      "type": "event"
    },
    {
      "inputs": [
        {
          "internalType": "address",
          "name": "",
          "type": "address"
        }
      ],
      "name": "balance",
      "outputs": [
        {
          "internalType": "uint256",
          "name": "",
          "type": "uint256"
        }
      ],
      "stateMutability": "view",
      "type": "function"
    },
    {
      "inputs": [],
      "name": "deposit",
      "outputs": [],
      "stateMutability": "payable",
      "type": "function"
    },
    {
      "inputs": [
        {
          "internalType": "address",
          "name": "",
          "type": "address"
        },
        {
          "internalType": "uint256",
          "name": "",
          "type": "uint256"
        }
      ],
      "name": "depositHistory",
      "outputs": [
        {
          "internalType": "address",
          "name": "depositor",
          "type": "address"
        },
        {
          "internalType": "uint256",
          "name": "amount",
          "type": "uint256"
        },
        {
          "internalType": "uint256",
          "name": "timestamp",
          "type": "uint256"
        },
        {
          "internalType": "string",
          "name": "txHash",
          "type": "string"
        }
      ],
      "stateMutability": "view",
      "type": "function"
    },
    {
      "inputs": [],
      "name": "maxDeposit",
      "outputs": [
        {
          "internalType": "uint256",
          "name": "",
          "type": "uint256"
        }
      ],
      "stateMutability": "view",
      "type": "function"
    },
    {
      "inputs": [],
      "name": "minDeposit",
      "outputs": [
        {
          "internalType": "uint256",
          "name": "",
          "type": "uint256"
        }
      ],
      "stateMutability": "view",
      "type": "function"
    },
    {
      "inputs": [],
      "name": "owner",
      "outputs": [
        {
          "internalType": "address",
          "name": "",
          "type": "address"
        }
      ],
      "stateMutability": "view",
      "type": "function"
    },
    {
      "inputs": [
        {
          "internalType": "address",
          "name": "_to",
          "type": "address"
        },
        {
          "internalType": "uint256",
          "name": "_amount",
          "type": "uint256"
        }
      ],
      "name": "transfer",
      "outputs": [],
      "stateMutability": "nonpayable",
      "type": "function"
    },
    {
      "inputs": [
        {
          "internalType": "uint256",
          "name": "_amount",
          "type": "uint256"
        }
      ],
      "name": "withdraw",
      "outputs": [],
      "stateMutability": "nonpayable",
      "type": "function"
    }
  ],
  "bytecode": "0x608060405234801561001057600080fd5b50336000806101000a81548173ffffffffffffffffffffffffffffffffffffffff021916908373ffffffffffffffffffffffffffffffffffffffff160217905550662386f26fc10000600181905550678ac7230489e80000600281905550610f8e8061007d6000396000f3fe60806040526004361061007b5760003560e01c80638da5cb5b1161004e5780638da5cb5b1461013f578063a9059cbb1461016a578063d0e30db014610193578063e3d670d71461019d5761007b565b80632e1a7d4d1461008057806341b3d185146100a95780636083e59a146100d4578063715a6e9a146100ff575b600080fd5b34801561008c57600080fd5b506100a760048036038101906100a2919061081f565b6101da565b005b3480156100b557600080fd5b506100be6102b5565b6040516100cb919061085b565b60405180910390f35b3480156100e057600080fd5b506100e96102bb565b6040516100f6919061085b565b60405180910390f35b34801561010b57600080fd5b50610126600480360381019061012191906108d4565b6102c1565b60405161013694939291906109b3565b60405180910390f35b34801561014b57600080fd5b506101546103b6565b60405161016191906109ff565b60405180910390f35b34801561017657600080fd5b50610191600480360381019061018c91906108d4565b6103da565b005b61019b610553565b005b3480156101a957600080fd5b506101c460048036038101906101bf9190610a1a565b6107cc565b6040516101d1919061085b565b60405180910390f35b80600360003373ffffffffffffffffffffffffffffffffffffffff1673ffffffffffffffffffffffffffffffffffffffff16815260200190815260200160002054101561025c576040517f08c379a000000000000000000000000000000000000000000000000000000000815260040161025390610a93565b60405180910390fd5b80600360003373ffffffffffffffffffffffffffffffffffffffff1673ffffffffffffffffffffffffffffffffffffffff16815260200190815260200160002060008282546102ab9190610ae2565b9250508190555050565b60015481565b60025481565b600460205281600052604060002081815481106102dd57600080fd5b9060005260206000209060040201600091509150508060000160009054906101000a900473ffffffffffffffffffffffffffffffffffffffff169080600101549080600201549080600301805461033390610b45565b80601f016020809104026020016040519081016040528092919081815260200182805461035f90610b45565b80156103ac5780601f10610381576101008083540402835291602001916103ac565b820191906000526020600020905b81548152906001019060200180831161038f57829003601f168201915b5050505050905084565b60008054906101000a900473ffffffffffffffffffffffffffffffffffffffff1681565b80600360003373ffffffffffffffffffffffffffffffffffffffff1673ffffffffffffffffffffffffffffffffffffffff16815260200190815260200160002054101561045c576040517f08c379a000000000000000000000000000000000000000000000000000000000815260040161045390610a93565b60405180910390fd5b80600360003373ffffffffffffffffffffffffffffffffffffffff1673ffffffffffffffffffffffffffffffffffffffff16815260200190815260200160002060008282546104ab9190610ae2565b925050819055508173ffffffffffffffffffffffffffffffffffffffff166108fc829081150290604051600060405180830381858888f193505050501580156104f8573d6000803e3d6000fd5b5080600360008473ffffffffffffffffffffffffffffffffffffffff1673ffffffffffffffffffffffffffffffffffffffff16815260200190815260200160002060008282546105489190610b76565b925050819055505050565b600154341015610598576040517f08c379a000000000000000000000000000000000000000000000000000000000815260040161058f90610bf6565b60405180910390fd5b6002543411156105dd576040517f08c379a00000000000000000000000000000000000000000000000000000000081526004016105d490610c62565b60405180910390fd5b34600360003373ffffffffffffffffffffffffffffffffffffffff1673ffffffffffffffffffffffffffffffffffffffff168152602001908152602001600020600082825461062c9190610b76565b92505081905550600460003373ffffffffffffffffffffffffffffffffffffffff1673ffffffffffffffffffffffffffffffffffffffff16815260200190815260200160002060405180608001604052803373ffffffffffffffffffffffffffffffffffffffff1681526020013481526020014281526020016040518060400160405280600281526020017f3078000000000000000000000000000000000000000000000000000000000000815250815250908060018154018082558091505060019003906000526020600020906004020160009091909190915060008201518160000160006101000a81548173ffffffffffffffffffffffffffffffffffffffff021916908373ffffffffffffffffffffffffffffffffffffffff160217905550602082015181600101556040820151816002015560608201518160030190816107779190610e5d565b5050503373ffffffffffffffffffffffffffffffffffffffff167f0b05f0d1cd0819f155b8a61f60baf7767c1ee49d04aeaab701df236140eb93f934426040516107c2929190610f2f565b60405180910390a2565b60036020528060005260406000206000915090505481565b600080fd5b6000819050919050565b6107fc816107e9565b811461080757600080fd5b50565b600081359050610819816107f3565b92915050565b600060208284031215610835576108346107e4565b5b60006108438482850161080a565b91505092915050565b610855816107e9565b82525050565b6000602082019050610870600083018461084c565b92915050565b600073ffffffffffffffffffffffffffffffffffffffff82169050919050565b60006108a182610876565b9050919050565b6108b181610896565b81146108bc57600080fd5b50565b6000813590506108ce816108a8565b92915050565b600080604083850312156108eb576108ea6107e4565b5b60006108f9858286016108bf565b925050602061090a8582860161080a565b9150509250929050565b61091d81610896565b82525050565b600081519050919050565b600082825260208201905092915050565b60005b8381101561095d578082015181840152602081019050610942565b60008484015250505050565b6000601f19601f8301169050919050565b600061098582610923565b61098f818561092e565b935061099f81856020860161093f565b6109a881610969565b840191505092915050565b60006080820190506109c86000830187610914565b6109d5602083018661084c565b6109e2604083018561084c565b81810360608301526109f4818461097a565b905095945050505050565b6000602082019050610a146000830184610914565b92915050565b600060208284031215610a3057610a2f6107e4565b5b6000610a3e848285016108bf565b91505092915050565b7f496e73756666696369656e742062616c616e6365000000000000000000000000600082015250565b6000610a7d60148361092e565b9150610a8882610a47565b602082019050919050565b60006020820190508181036000830152610aac81610a70565b9050919050565b7f4e487b7100000000000000000000000000000000000000000000000000000000600052601160045260246000fd5b6000610aed826107e9565b9150610af8836107e9565b9250828203905081811115610b1057610b0f610ab3565b5b92915050565b7f4e487b7100000000000000000000000000000000000000000000000000000000600052602260045260246000fd5b60006002820490506001821680610b5d57607f821691505b602082108103610b7057610b6f610b16565b5b50919050565b6000610b81826107e9565b9150610b8c836107e9565b9250828201905080821115610ba457610ba3610ab3565b5b92915050565b7f4465706f7369742062656c6f77206d696e206c696d6974000000000000000000600082015250565b6000610be060178361092e565b9150610beb82610baa565b602082019050919050565b60006020820190508181036000830152610c0f81610bd3565b9050919050565b7f4465706f7369742065786365656473206d6178206c696d697400000000000000600082015250565b6000610c4c60198361092e565b9150610c5782610c16565b602082019050919050565b60006020820190508181036000830152610c7b81610c3f565b9050919050565b7f4e487b7100000000000000000000000000000000000000000000000000000000600052604160045260246000fd5b60008190508160005260206000209050919050565b60006020601f8301049050919050565b600082821b905092915050565b600060088302610d137fffffffffffffffffffffffffffffffffffffffffffffffffffffffffffffffff82610cd6565b610d1d8683610cd6565b95508019841693508086168417925050509392505050565b6000819050919050565b6000610d5a610d55610d50846107e9565b610d35565b6107e9565b9050919050565b6000819050919050565b610d7483610d3f565b610d88610d8082610d61565b848454610ce3565b825550505050565b600090565b610d9d610d90565b610da8818484610d6b565b505050565b5b81811015610dcc57610dc1600082610d95565b600181019050610dae565b5050565b601f821115610e1157610de281610cb1565b610deb84610cc6565b81016020851015610dfa578190505b610e0e610e0685610cc6565b830182610dad565b50505b505050565b600082821c905092915050565b6000610e3460001984600802610e16565b1980831691505092915050565b6000610e4d8383610e23565b9150826002028217905092915050565b610e6682610923565b67ffffffffffffffff811115610e7f57610e7e610c82565b5b610e898254610b45565b610e94828285610dd0565b600060209050601f831160018114610ec75760008415610eb5578287015190505b610ebf8582610e41565b865550610f27565b601f198416610ed586610cb1565b60005b82811015610efd57848901518255600182019150602085019450602081019050610ed8565b86831015610f1a5784890151610f16601f891682610e23565b8355505b6001600288020188555050505b505050505050565b6000604082019050610f44600083018561084c565b610f51602083018461084c565b939250505056fea26469706673582212204ed2c2a7368b65c52292b6f7e9d29855a5ac271ac9680c2d75760f1816d0969e64736f6c63430008140033",
  "linkReferences": {},
  "deployedLinkReferences": {}
}