{"contracts/TradingGame.sol":{"TradingGame":{"abi":[{"inputs":[{"internalType":"contract IERC20","name":"_token","type":"address"}],"stateMutability":"nonpayable","type":"constructor"},{"anonymous":false,"inputs":[{"indexed":true,"internalType":"address","name":"player","type":"address"},{"indexed":true,"internalType":"uint256","name":"petId","type":"uint256"}],"name":"PetBought","type":"event"},{"anonymous":false,"inputs":[{"indexed":true,"internalType":"address","name":"player","type":"address"},{"indexed":true,"internalType":"uint256","name":"petId","type":"uint256"}],"name":"PetCanceledForSale","type":"event"},{"anonymous":false,"inputs":[{"indexed":true,"internalType":"address","name":"player","type":"address"},{"indexed":true,"internalType":"uint256","name":"petId","type":"uint256"}],"name":"PetFed","type":"event"},{"anonymous":false,"inputs":[{"indexed":true,"internalType":"address","name":"player","type":"address"},{"indexed":true,"internalType":"uint256","name":"petId","type":"uint256"},{"indexed":false,"internalType":"uint256","name":"price","type":"uint256"}],"name":"PetForSale","type":"event"},{"anonymous":false,"inputs":[{"indexed":true,"internalType":"address","name":"player","type":"address"},{"indexed":true,"internalType":"uint256","name":"petId","type":"uint256"}],"name":"PetLiked","type":"event"},{"anonymous":false,"inputs":[{"indexed":true,"internalType":"address","name":"player","type":"address"},{"indexed":true,"internalType":"uint256","name":"petId","type":"uint256"},{"indexed":false,"internalType":"uint256","name":"price","type":"uint256"}],"name":"PetSold","type":"event"},{"anonymous":false,"inputs":[{"indexed":true,"internalType":"address","name":"player","type":"address"}],"name":"PlayerJoined","type":"event"},{"inputs":[{"internalType":"uint256","name":"_id","type":"uint256"},{"internalType":"string","name":"_name","type":"string"},{"internalType":"string","name":"_gender","type":"string"},{"internalType":"uint256","name":"_level","type":"uint256"},{"internalType":"string","name":"_types","type":"string"},{"internalType":"uint256","name":"_hunger","type":"uint256"},{"internalType":"uint256","name":"_hapiness","type":"uint256"},{"internalType":"uint256","name":"_health","type":"uint256"},{"internalType":"address","name":"_owner","type":"address"},{"internalType":"uint256","name":"_price","type":"uint256"},{"internalType":"bool","name":"_isForSale","type":"bool"},{"internalType":"uint256","name":"_likes","type":"uint256"}],"name":"addPet","outputs":[],"stateMutability":"nonpayable","type":"function"},{"inputs":[{"internalType":"uint256","name":"_petId","type":"uint256"}],"name":"buyPet","outputs":[],"stateMutability":"payable","type":"function"},{"inputs":[{"internalType":"uint256","name":"_petId","type":"uint256"}],"name":"cancelPetSale","outputs":[],"stateMutability":"nonpayable","type":"function"},{"inputs":[],"name":"defaultPets","outputs":[],"stateMutability":"nonpayable","type":"function"},{"inputs":[],"name":"entryFee","outputs":[{"internalType":"uint256","name":"","type":"uint256"}],"stateMutability":"view","type":"function"},{"inputs":[{"internalType":"uint256","name":"_petId","type":"uint256"}],"name":"feedPet","outputs":[],"stateMutability":"nonpayable","type":"function"},{"inputs":[],"name":"gameFee","outputs":[{"internalType":"uint256","name":"","type":"uint256"}],"stateMutability":"view","type":"function"},{"inputs":[],"name":"getAllPets","outputs":[{"components":[{"internalType":"uint256","name":"id","type":"uint256"},{"internalType":"string","name":"name","type":"string"},{"internalType":"string","name":"gender","type":"string"},{"internalType":"uint256","name":"level","type":"uint256"},{"internalType":"string","name":"types","type":"string"},{"internalType":"uint256","name":"hunger","type":"uint256"},{"internalType":"uint256","name":"hapiness","type":"uint256"},{"internalType":"uint256","name":"health","type":"uint256"},{"internalType":"address","name":"owner","type":"address"},{"internalType":"uint256","name":"price","type":"uint256"},{"internalType":"bool","name":"isForSale","type":"bool"},{"internalType":"uint256","name":"likes","type":"uint256"}],"internalType":"struct TradingGame.Pet[]","name":"","type":"tuple[]"}],"stateMutability":"view","type":"function"},{"inputs":[{"internalType":"address","name":"_playerAddress","type":"address"},{"internalType":"uint256","name":"_petId","type":"uint256"}],"name":"getPlayerPetBalance","outputs":[{"internalType":"uint256","name":"","type":"uint256"}],"stateMutability":"view","type":"function"},{"inputs":[{"internalType":"address","name":"","type":"address"}],"name":"hasJoined","outputs":[{"internalType":"bool","name":"","type":"bool"}],"stateMutability":"view","type":"function"},{"inputs":[],"name":"joinGame","outputs":[],"stateMutability":"payable","type":"function"},{"inputs":[{"internalType":"uint256","name":"_petId","type":"uint256"}],"name":"likePet","outputs":[],"stateMutability":"payable","type":"function"},{"inputs":[],"name":"owner","outputs":[{"internalType":"address","name":"","type":"address"}],"stateMutability":"view","type":"function"},{"inputs":[{"internalType":"uint256","name":"_petId","type":"uint256"},{"internalType":"uint256","name":"_price","type":"uint256"}],"name":"petForSale","outputs":[],"stateMutability":"nonpayable","type":"function"},{"inputs":[{"internalType":"uint256","name":"","type":"uint256"}],"name":"pets","outputs":[{"internalType":"uint256","name":"id","type":"uint256"},{"internalType":"string","name":"name","type":"string"},{"internalType":"string","name":"gender","type":"string"},{"internalType":"uint256","name":"level","type":"uint256"},{"internalType":"string","name":"types","type":"string"},{"internalType":"uint256","name":"hunger","type":"uint256"},{"internalType":"uint256","name":"hapiness","type":"uint256"},{"internalType":"uint256","name":"health","type":"uint256"},{"internalType":"address","name":"owner","type":"address"},{"internalType":"uint256","name":"price","type":"uint256"},{"internalType":"bool","name":"isForSale","type":"bool"},{"internalType":"uint256","name":"likes","type":"uint256"}],"stateMutability":"view","type":"function"},{"inputs":[{"internalType":"address","name":"","type":"address"}],"name":"playerInfo","outputs":[{"internalType":"address","name":"playerAddress","type":"address"},{"internalType":"string","name":"name","type":"string"},{"internalType":"uint256","name":"balance","type":"uint256"},{"internalType":"bool","name":"isActive","type":"bool"}],"stateMutability":"view","type":"function"},{"inputs":[{"internalType":"address","name":"","type":"address"},{"internalType":"uint256","name":"","type":"uint256"}],"name":"playerPet","outputs":[{"internalType":"uint256","name":"","type":"uint256"}],"stateMutability":"view","type":"function"},{"inputs":[{"internalType":"address","name":"","type":"address"},{"internalType":"uint256","name":"","type":"uint256"}],"name":"playerPetIds","outputs":[{"internalType":"uint256","name":"","type":"uint256"}],"stateMutability":"view","type":"function"},{"inputs":[{"internalType":"uint256","name":"","type":"uint256"}],"name":"players","outputs":[{"internalType":"address","name":"playerAddress","type":"address"},{"internalType":"string","name":"name","type":"string"},{"internalType":"uint256","name":"balance","type":"uint256"},{"internalType":"bool","name":"isActive","type":"bool"}],"stateMutability":"view","type":"function"},{"inputs":[{"internalType":"uint256","name":"_fee","type":"uint256"}],"name":"setFee","outputs":[],"stateMutability":"nonpayable","type":"function"},{"inputs":[],"name":"token","outputs":[{"internalType":"contract IERC20","name":"","type":"address"}],"stateMutability":"view","type":"function"}],"evm":{"bytecode":{"linkReferences":{},"object":"6080346200009357601f6200367d38819003918201601f19168301916001600160401b0383118484101762000098578084926020946040528339810103126200009357516001600160a01b038116908190036200009357662386f26fc10000600155633b9aca0060025560018060a01b03193381600054161760005560035416176003556040516135ce9081620000af8239f35b600080fd5b634e487b7160e01b600052604160045260246000fdfe608080604052600436101561001357600080fd5b60003560e01c908163072ea61c14612fb1575080630c596d9114612aca5780631080d30f146127ec5780634b11469114612a875780635b236d971461286257806369fe0e2d146128345780637781b86b146127ec578063877f4e12146127ad5780638da5cb5b146127845780639edded11146124d3578063c8c9bd2814610845578063c9275220146107cd578063cfb869bf146106d2578063d4f77b1c14610562578063de440fe91461044d578063ea777eec1461042f578063f3cd7add146103b9578063f6a1cf9114610361578063f71d96cb14610300578063fbfabac4146101345763fc0c546a1461010657600080fd5b3461012f57600036600319011261012f576003546040516001600160a01b039091168152602090f35b600080fd5b3461012f57602036600319011261012f57600435610169610154826131e3565b50600801546001600160a01b031633146133d3565b6005610174826131e3565b506064918291015410156102cf57600361018d836131e3565b5001548060011b90808204600214901517156102b9573360005260056020526101c0816002604060002001541015613384565b3360005260056020526101dc60026040600020019182546133c6565b905560056101e9836131e3565b500180546009198101919082116102b957556007610206836131e3565b5001805490600a82018092116102b957556006610222836131e3565b5001805490600a82018092116102b9575561023c826131e3565b505080600761024a846131e3565b500154116102a5575b80600661025f846131e3565b50015411610291575b50337f9ef3ef96a69917dbd3b0809769d9f6728750e08ab778d8fbf3ea05b2ac7a9438600080a3005b600661029c836131e3565b50015581610268565b8060076102b1846131e3565b500155610253565b634e487b7160e01b600052601160045260246000fd5b60405162461bcd60e51b815260206004820152600c60248201526b5065742069732066756c6c2160a01b6044820152fd5b3461012f57602036600319011261012f5760043560045481101561012f576103279061324c565b5080546001600160a01b031661035d610342600184016130ca565b9260ff600360028301549201541690604051948594856131b0565b0390f35b3461012f57604036600319011261012f5761037a61307a565b6001600160a01b031660009081526009602052604090208054602435919082101561012f576020916103ab91613234565b90546040519160031b1c8152f35b3461012f57602036600319011261012f576004356103d9610154826131e3565b6103f260ff600a6103e9846131e3565b50015416613341565b600a6103fd826131e3565b5001805460ff19169055337f1f76122ceba009bc563ff10d1bb29fcd3211e178931624d631121a877dd7fde4600080a3005b3461012f57600036600319011261012f576020600254604051908152f35b602036600319011261012f57600435610465816131e3565b50600801546001600160a01b0316331461051d576007548110156104e757600b61048e826131e3565b5001805490600182018092116102b957553360005260056020526002604060002001805490600582018092116102b95755337f608b673d19f28498e8e55664ba7500d0b17e731a244de245f1cd25a32eec2e4f600080a3005b60405162461bcd60e51b815260206004820152600e60248201526d506574206e6f7420666f756e642160901b6044820152606490fd5b60405162461bcd60e51b815260206004820152601e60248201527f596f752063616e206e6f74206c696b6520796f7572206f776e207065742100006044820152606490fd5b600036600319011261012f5761057c600154341015613384565b3360005260206006815260ff6040600020541661068e5760025460405190608082018281106001600160401b03821117610678576040523382526040516105c281612fe8565b6006815265283630bcb2b960d11b8482015283830152604082015260016060820152600454600160401b81101561067857806001610603920160045561324c565b6106625761063a926106178360059361342a565b33600052600681526040600020600160ff1982541617905552604060002061342a565b337f31e760aa525306aba638a784082a013b6a1cc0a9a1789f3f22281c0453b10b1f600080a2005b634e487b7160e01b600052600060045260246000fd5b634e487b7160e01b600052604160045260246000fd5b6064906040519062461bcd60e51b82526004820152601c60248201527f596f7520616c7265616479206a6f696e6564207468652067616d6521000000006044820152fd5b3461012f57602036600319011261012f5760043560075481101561012f576106f9906131e3565b508054610708600183016130ca565b91610715600282016130ca565b600382015491610727600482016130ca565b600582015493600683015460078401549061079f60018060a01b036008870154169360098701549561078c600b60ff600a8b0154169901549961077e6040519e8f9e8f908152610180908160208201520190613170565b8d810360408f015290613170565b9160608c01528a820360808c0152613170565b9660a089015260c088015260e087015261010086015261012085015215156101408401526101608301520390f35b3461012f57604036600319011261012f576004356024356107f0610154836131e3565b600a6107fb836131e3565b5001805460ff19166001179055806009610814846131e3565b5001556040519081527f3f90625203379813fb9623a1de60ef53b769232ed539a1673d0ce181eea593bb60203392a3005b3461012f57600036600319011261012f576000546001600160a01b0316331461086d81613286565b6040519061087a82612fe8565b600382526210d85d60ea1b60208301526108926132dd565b6108bd604051926108a284612fe8565b60098452684c6567656e6461727960b81b6020850152613286565b604051926108ca84612fcc565b6001845260208401526040830152606460608301526080820152606460a0820152606460c0820152606460e08201526000610100820152606461012082015260006101408201526000610160820152600754600160401b8110156106785780600161093892016007556131e3565b919091610662578051825560208101519182516001600160401b038111610678576109666001830154613090565b601f811161248c575b506020601f821160011461241e5781929394600092612413575b50508160011b916000199060031b1c19161760018201555b60408201519182516001600160401b038111610678576109c46002840154613090565b601f81116123cc575b506020601f821160011461235e5781929394600092612353575b50508160011b916000199060031b1c19161760028301555b6060810151600383015560808101518051906001600160401b03821161067857610a2c6004850154613090565b601f811161230c575b50602090601f8311600114612296579180600b94926101609460009261228b575b50508160011b916000199060031b1c19161760048501555b60a0810151600585015560c0810151600685015560e0810151600785015560018060a01b03610100820151166001600160601b0360a01b6008860154161760088501556101208101516009850155610adc6101408201511515600a86019060ff801983541691151516179055565b0151910155604051610aed81612fe8565b6005815264446f67677960d81b6020820152610b076132fd565b60405190610b1482612fe8565b60048252634570696360e01b6020830152610b3a60018060a01b03600054163314613286565b60405192610b4784612fcc565b6002845260208401526040830152603260608301526080820152606460a0820152606460c0820152606460e08201526000610100820152605a61012082015260016101408201526000610160820152600754600160401b81101561067857806001610bb592016007556131e3565b919091610662578051825560208101519182516001600160401b03811161067857610be36001830154613090565b601f8111612244575b506020601f82116001146121d657819293946000926121cb575b50508160011b916000199060031b1c19161760018201555b60408201519182516001600160401b03811161067857610c416002840154613090565b601f8111612184575b506020601f8211600114612116578192939460009261210b575b50508160011b916000199060031b1c19161760028301555b6060810151600383015560808101518051906001600160401b03821161067857610ca96004850154613090565b601f81116120c4575b50602090601f831160011461204e579180600b949261016094600092612043575b50508160011b916000199060031b1c19161760048501555b60a0810151600585015560c0810151600685015560e081015160078501556008840160018060a01b03610100830151166001600160601b0360a01b8254161790556101208101516009850155610d576101408201511515600a86019060ff801983541691151516179055565b0151910155604051610d6881612fe8565b600481526308cd2e6d60e31b6020820152610d816132dd565b610d8961331f565b90610d9f60018060a01b03600054163314613286565b60405192610dac84612fcc565b6003845260208401526040830152600a60608301526080820152606460a0820152606460c0820152606460e08201526000610100820152603261012082015260016101408201526000610160820152600754600160401b81101561067857806001610e1a92016007556131e3565b919091610662578051825560208101519182516001600160401b03811161067857610e486001830154613090565b601f8111611ffc575b506020601f8211600114611f8e5781929394600092611f83575b50508160011b916000199060031b1c19161760018201555b60408201519182516001600160401b03811161067857610ea66002840154613090565b601f8111611f3c575b506020601f8211600114611ece5781929394600092611ec3575b50508160011b916000199060031b1c19161760028301555b6060810151600383015560808101518051906001600160401b03821161067857610f0e6004850154613090565b601f8111611e7c575b50602090601f8311600114611e06579180600b949261016094600092611dfb575b50508160011b916000199060031b1c19161760048501555b60a0810151600585015560c0810151600685015560e081015160078501556008840160018060a01b03610100830151166001600160601b0360a01b8254161790556101208101516009850155610fbc6101408201511515600a86019060ff801983541691151516179055565b0151910155604051610fcd81612fe8565b6006815265149858989a5d60d21b6020820152610fe86132fd565b610ff061331f565b9061100660018060a01b03600054163314613286565b6040519261101384612fcc565b6004845260208401526040830152600f60608301526080820152606460a0820152606460c0820152606460e08201526000610100820152603761012082015260016101408201526000610160820152600754600160401b8110156106785780600161108192016007556131e3565b919091610662578051825560208101519182516001600160401b038111610678576110af6001830154613090565b601f8111611db4575b506020601f8211600114611d465781929394600092611d3b575b50508160011b916000199060031b1c19161760018201555b60408201519182516001600160401b0381116106785761110d6002840154613090565b601f8111611cf4575b506020601f8211600114611c865781929394600092611c7b575b50508160011b916000199060031b1c19161760028301555b6060810151600383015560808101518051906001600160401b038211610678576111756004850154613090565b601f8111611c34575b50602090601f8311600114611bbe579180600b949261016094600092611bb3575b50508160011b916000199060031b1c19161760048501555b60a0810151600585015560c0810151600685015560e081015160078501556008840160018060a01b03610100830151166001600160601b0360a01b82541617905561012081015160098501556112236101408201511515600a86019060ff801983541691151516179055565b015191015560405161123481612fe8565b6004815263109a5c9960e21b602082015261124d6132dd565b6040519061125a82612fe8565b60048252635261726560e01b602083015261128060018060a01b03600054163314613286565b6040519261128d84612fcc565b6005845260208401526040830152601e60608301526080820152606460a0820152606460c0820152606460e08201526000610100820152602861012082015260016101408201526000610160820152600754600160401b811015610678578060016112fb92016007556131e3565b919091610662578051825560208101519182516001600160401b038111610678576113296001830154613090565b601f8111611b6c575b506020601f8211600114611afe5781929394600092611af3575b50508160011b916000199060031b1c19161760018201555b60408201519182516001600160401b038111610678576113876002840154613090565b601f8111611aac575b506020601f8211600114611a3e5781929394600092611a33575b50508160011b916000199060031b1c19161760028301555b6060810151600383015560808101518051906001600160401b038211610678576113ef6004850154613090565b601f81116119ec575b50602090601f8311600114611976579180600b94926101609460009261196b575b50508160011b916000199060031b1c19161760048501555b60a0810151600585015560c0810151600685015560e081015160078501556008840160018060a01b03610100830151166001600160601b0360a01b825416179055610120810151600985015561149d6101408201511515600a86019060ff801983541691151516179055565b01519101556040516114ae81612fe8565b600881526723babb32b931b4b760c11b60208201526114cb6132dd565b604051906114d882612fe8565b600782526654616b6c61636960c81b602083015261150160018060a01b03600054163314613286565b6040519261150e84612fcc565b6006845260208401526040830152600160608301526080820152606460a0820152606460c0820152606460e08201526000610100820152600161012082015260016101408201526000610160820152600754600160401b8110156106785780600161157c92016007556131e3565b919091610662578051825560208101519182516001600160401b038111610678576115aa6001830154613090565b601f8111611924575b506020601f82116001146118b857819293946000926118ad575b50508160011b916000199060031b1c19161760018201555b60408201519182516001600160401b038111610678576116086002840154613090565b601f8111611866575b506020601f82116001146117f857819293946000926117ed575b50508160011b916000199060031b1c19161760028301555b6060810151600383015560808101518051906001600160401b038211610678576116706004850154613090565b601f81116117a6575b50602090601f8311600114611730579180600b949261016094600092611725575b50508160011b916000199060031b1c19161760048501555b60a0810151600585015560c0810151600685015560e081015160078501556008840160018060a01b03610100830151166001600160601b0360a01b825416179055610120810151600985015561171e6101408201511515600a86019060ff801983541691151516179055565b0151910155005b01519050868061169a565b906004850160005260206000209160005b601f198516811061178e575092600b94926001926101609583601f19811610611775575b505050811b0160048501556116b2565b015160001960f88460031b161c19169055868080611765565b91926020600181928685015181550194019201611741565b600485016000526020600020601f840160051c8101602085106117e6575b601f830160051c820181106117da575050611679565b600081556001016117c4565b50806117c4565b01519050848061162b565b6002840160005260206000209060005b601f198416811061184e5750600193949583601f19811610611835575b505050811b016002830155611643565b015160001960f88460031b161c19169055848080611825565b9091602060018192858a015181550193019101611808565b600284016000526020600020601f830160051c8101602084106118a6575b601f830160051c8201811061189a575050611611565b60008155600101611884565b5080611884565b0151905084806115cd565b600183016000526020600020906000601f198416905b81811061190c575095836001959697106118f3575b505050811b0160018201556115e5565b015160001960f88460031b161c191690558480806118e3565b9192602060018192868b0151815501940192016118ce565b600183016000526020600020601f830160051c810160208410611964575b601f830160051c820181106119585750506115b3565b60008155600101611942565b5080611942565b015190508680611419565b906004850160005260206000209160005b601f19851681106119d4575092600b94926001926101609583601f198116106119bb575b505050811b016004850155611431565b015160001960f88460031b161c191690558680806119ab565b91926020600181928685015181550194019201611987565b600485016000526020600020601f840160051c810160208510611a2c575b601f830160051c82018110611a205750506113f8565b60008155600101611a0a565b5080611a0a565b0151905084806113aa565b6002840160005260206000209060005b601f1984168110611a945750600193949583601f19811610611a7b575b505050811b0160028301556113c2565b015160001960f88460031b161c19169055848080611a6b565b9091602060018192858a015181550193019101611a4e565b600284016000526020600020601f830160051c810160208410611aec575b601f830160051c82018110611ae0575050611390565b60008155600101611aca565b5080611aca565b01519050848061134c565b6001830160005260206000209060005b601f1984168110611b545750600193949583601f19811610611b3b575b505050811b016001820155611364565b015160001960f88460031b161c19169055848080611b2b565b9091602060018192858a015181550193019101611b0e565b600183016000526020600020601f830160051c810160208410611bac575b601f830160051c82018110611ba0575050611332565b60008155600101611b8a565b5080611b8a565b01519050868061119f565b906004850160005260206000209160005b601f1985168110611c1c575092600b94926001926101609583601f19811610611c03575b505050811b0160048501556111b7565b015160001960f88460031b161c19169055868080611bf3565b91926020600181928685015181550194019201611bcf565b600485016000526020600020601f840160051c810160208510611c74575b601f830160051c82018110611c6857505061117e565b60008155600101611c52565b5080611c52565b015190508480611130565b6002840160005260206000209060005b601f1984168110611cdc5750600193949583601f19811610611cc3575b505050811b016002830155611148565b015160001960f88460031b161c19169055848080611cb3565b9091602060018192858a015181550193019101611c96565b600284016000526020600020601f830160051c810160208410611d34575b601f830160051c82018110611d28575050611116565b60008155600101611d12565b5080611d12565b0151905084806110d2565b6001830160005260206000209060005b601f1984168110611d9c5750600193949583601f19811610611d83575b505050811b0160018201556110ea565b015160001960f88460031b161c19169055848080611d73565b9091602060018192858a015181550193019101611d56565b600183016000526020600020601f830160051c810160208410611df4575b601f830160051c82018110611de85750506110b8565b60008155600101611dd2565b5080611dd2565b015190508680610f38565b906004850160005260206000209160005b601f1985168110611e64575092600b94926001926101609583601f19811610611e4b575b505050811b016004850155610f50565b015160001960f88460031b161c19169055868080611e3b565b91926020600181928685015181550194019201611e17565b600485016000526020600020601f840160051c810160208510611ebc575b601f830160051c82018110611eb0575050610f17565b60008155600101611e9a565b5080611e9a565b015190508480610ec9565b6002840160005260206000209060005b601f1984168110611f245750600193949583601f19811610611f0b575b505050811b016002830155610ee1565b015160001960f88460031b161c19169055848080611efb565b9091602060018192858a015181550193019101611ede565b600284016000526020600020601f830160051c810160208410611f7c575b601f830160051c82018110611f70575050610eaf565b60008155600101611f5a565b5080611f5a565b015190508480610e6b565b6001830160005260206000209060005b601f1984168110611fe45750600193949583601f19811610611fcb575b505050811b016001820155610e83565b015160001960f88460031b161c19169055848080611fbb565b9091602060018192858a015181550193019101611f9e565b600183016000526020600020601f830160051c81016020841061203c575b601f830160051c82018110612030575050610e51565b6000815560010161201a565b508061201a565b015190508680610cd3565b906004850160005260206000209160005b601f19851681106120ac575092600b94926001926101609583601f19811610612093575b505050811b016004850155610ceb565b015160001960f88460031b161c19169055868080612083565b9192602060018192868501518155019401920161205f565b600485016000526020600020601f840160051c810160208510612104575b601f830160051c820181106120f8575050610cb2565b600081556001016120e2565b50806120e2565b015190508480610c64565b6002840160005260206000209060005b601f198416811061216c5750600193949583601f19811610612153575b505050811b016002830155610c7c565b015160001960f88460031b161c19169055848080612143565b9091602060018192858a015181550193019101612126565b600284016000526020600020601f830160051c8101602084106121c4575b601f830160051c820181106121b8575050610c4a565b600081556001016121a2565b50806121a2565b015190508480610c06565b6001830160005260206000209060005b601f198416811061222c5750600193949583601f19811610612213575b505050811b016001820155610c1e565b015160001960f88460031b161c19169055848080612203565b9091602060018192858a0151815501930191016121e6565b600183016000526020600020601f830160051c810160208410612284575b601f830160051c82018110612278575050610bec565b60008155600101612262565b5080612262565b015190508680610a56565b906004850160005260206000209160005b601f19851681106122f4575092600b94926001926101609583601f198116106122db575b505050811b016004850155610a6e565b015160001960f88460031b161c191690558680806122cb565b919260206001819286850151815501940192016122a7565b600485016000526020600020601f840160051c81016020851061234c575b601f830160051c82018110612340575050610a35565b6000815560010161232a565b508061232a565b0151905084806109e7565b6002840160005260206000209060005b601f19841681106123b45750600193949583601f1981161061239b575b505050811b0160028301556109ff565b015160001960f88460031b161c1916905584808061238b565b9091602060018192858a01518155019301910161236e565b600284016000526020600020601f830160051c81016020841061240c575b601f830160051c820181106124005750506109cd565b600081556001016123ea565b50806123ea565b015190508480610989565b6001830160005260206000209060005b601f19841681106124745750600193949583601f1981161061245b575b505050811b0160018201556109a1565b015160001960f88460031b161c1916905584808061244b565b9091602060018192858a01518155019301910161242e565b600183016000526020600020601f830160051c8101602084106124cc575b601f830160051c820181106124c057505061096f565b600081556001016124aa565b50806124aa565b60208060031936011261012f57600435906124f460ff600a6103e9856131e3565b336000526005815261251d6002604060002001546009612513856131e3565b5001541115613384565b612526826131e3565b50600801546001600160a01b03908116331461273f576008612547846131e3565b500154166009612556846131e3565b500154336000526005835261257460026040600020019182546133c6565b90556009612581846131e3565b5001548160005260058352600260406000200180549182018092116102b957559060086125ad846131e3565b500180546001600160a01b03191633179055600a6125ca846131e3565b500160ff1981541690558160005260088152604060002083600052815260006040812055336000526008815260406000208360005281526001918260406000205560005260098152604060002090826000905b612694575b506009915033600052526040600020805491600160401b831015610678578284926126539261266c95018155613234565b90919082549060031b91821b91600019901b1916179055565b337f87b964eb5a2c9bec2a555f2dab828a37bf9c62ed6d24158233c27783ad6484d3600080a3005b84835480831015612738576126a98386613234565b929054600393841b1c146126ca57505060001981146102b95783018361261d565b6000199491928186019182116102b9576126536126ea6126f79385613234565b905490861b1c9184613234565b8054938415612722578060099501926127108484613234565b81939154921b1b191690555584612622565b634e487b7160e01b600052603160045260246000fd5b5050612622565b60405162461bcd60e51b815260048101839052601960248201527f596f7520616c7265616479206f776e20746869732070657421000000000000006044820152606490fd5b3461012f57600036600319011261012f576000546040516001600160a01b039091168152602090f35b3461012f57602036600319011261012f576001600160a01b036127ce61307a565b166000526006602052602060ff604060002054166040519015158152f35b3461012f57604036600319011261012f576001600160a01b0361280d61307a565b16600052600860205260406000206024356000526020526020604060002054604051908152f35b3461012f57602036600319011261012f5761285a60018060a01b03600054163314613286565b600435600155005b3461012f57600036600319011261012f5760078054906001600160401b0382116106785760405190602060059361289d8282871b0185613003565b8084526000838152828501937fa66cc928b5edb82af9bd49922954155ab7b0942694bea4ce44661d9a8736c68890855b8484106129ce575050505050604051928184019082855251809152604081818601961b85010192916000955b8287106129065785850386f35b909192938280600192603f198982030185528751908151815261296b61294e61293c858501516101808088870152850190613170565b60408501518482036040860152613170565b606080850151908401526080808501519084830390850152613170565b9160a0808201519083015260c0808201519083015260e081015160e0830152610100868060a01b038183015116908301526101208082015190830152610140808201511515908301526101608091015191015296019201960195929190926128f9565b600c8660019260409a989a516129e381612fcc565b865481526129f28588016130ca565b83820152612a02600288016130ca565b604082015260038701546060820152612a1d600488016130ca565b60808201528c87015460a0820152600687015460c08201528587015460e0820152848060a01b03600888015416610100820152600987015461012082015260ff600a880154161515610140820152600b8701546101608201528152019301930192919694966128cd565b3461012f57602036600319011261012f576001600160a01b0380612aa961307a565b16600052600560205260406000209081541661035d610342600184016130ca565b3461012f5761018036600319011261012f576024356001600160401b03811161012f57612afb903690600401613024565b6044356001600160401b03811161012f57612b1a903690600401613024565b6084356001600160401b03811161012f57612b39903690600401613024565b610104356001600160a01b038116919082900361012f57610144359283151580940361012f57612b7460018060a01b03600054163314613286565b60405194612b8186612fcc565b6004358652602086015260408501526064356060850152608084015260a43560a084015260c43560c084015260e43560e0840152610100830152610124356101208301526101408201526000610160820152600754600160401b81101561067857806001612bf292016007556131e3565b919091610662578051825560208101519182516001600160401b03811161067857612c206001830154613090565b601f8111612f6a575b506020601f8211600114612efe5781929394600092612ef3575b50508160011b916000199060031b1c19161760018201555b60408201519182516001600160401b03811161067857612c7e6002840154613090565b601f8111612eac575b506020601f8211600114612e3e5781929394600092612e33575b50508160011b916000199060031b1c19161760028301555b6060810151600383015560808101518051906001600160401b03821161067857612ce66004850154613090565b601f8111612dec575b50602090601f8311600114612d92579180600b9492610160946000926117255750508160011b916000199060031b1c191617600485015560a0810151600585015560c0810151600685015560e081015160078501556008840160018060a01b03610100830151166001600160601b0360a01b825416179055610120810151600985015561171e6101408201511515600a86019060ff801983541691151516179055565b90601f198316916004860160005260206000209260005b818110612dd4575092600192859261016096600b98961061177557505050811b0160048501556116b2565b92936020600181928786015181550195019301612da9565b600485016000526020600020601f840160051c810160208510612e2c575b601f830160051c82018110612e20575050612cef565b60008155600101612e0a565b5080612e0a565b015190508480612ca1565b6002840160005260206000209060005b601f1984168110612e945750600193949583601f19811610612e7b575b505050811b016002830155612cb9565b015160001960f88460031b161c19169055848080612e6b565b9091602060018192858a015181550193019101612e4e565b600284016000526020600020601f830160051c810160208410612eec575b601f830160051c82018110612ee0575050612c87565b60008155600101612eca565b5080612eca565b015190508480612c43565b600183016000526020600020906000601f198416905b818110612f5257509583600195969710612f39575b505050811b016001820155612c5b565b015160001960f88460031b161c19169055848080612f29565b9192602060018192868b015181550194019201612f14565b600183016000526020600020601f830160051c810160208410612faa575b601f830160051c82018110612f9e575050612c29565b60008155600101612f88565b5080612f88565b3461012f57600036600319011261012f576020906001548152f35b61018081019081106001600160401b0382111761067857604052565b604081019081106001600160401b0382111761067857604052565b90601f801991011681019081106001600160401b0382111761067857604052565b81601f8201121561012f578035906001600160401b0382116106785760405192613058601f8401601f191660200185613003565b8284526020838301011161012f57816000926020809301838601378301015290565b600435906001600160a01b038216820361012f57565b90600182811c921680156130c0575b60208310146130aa57565b634e487b7160e01b600052602260045260246000fd5b91607f169161309f565b90604051918260008254926130de84613090565b90818452600194858116908160001461314d575060011461310a575b505061310892500383613003565b565b9093915060005260209081600020936000915b818310613135575050613108935082010138806130fa565b8554888401850152948501948794509183019161311d565b91505061310894506020925060ff191682840152151560051b82010138806130fa565b919082519283825260005b84811061319c575050826000602080949584010152601f8019910116010190565b60208183018101518483018201520161317b565b929493906060926131d69160018060a01b03168552608060208601526080850190613170565b9460408401521515910152565b60075481101561321e57600c906007600052027fa66cc928b5edb82af9bd49922954155ab7b0942694bea4ce44661d9a8736c6880190600090565b634e487b7160e01b600052603260045260246000fd5b805482101561321e5760005260206000200190600090565b60045481101561321e57600460005260021b7f8a35acfbc15ff81a39ae7d344fd709f28e8600b4aa8c65c6b64bfe7fe36bd19b0190600090565b1561328d57565b60405162461bcd60e51b815260206004820152602260248201527f4f6e6c79206f776e65722063616e2063616c6c20746869732066756e6374696f6044820152616e2160f01b6064820152608490fd5b604051906132ea82612fe8565b60048252634d616c6560e01b6020830152565b6040519061330a82612fe8565b600682526546656d616c6560d01b6020830152565b6040519061332c82612fe8565b600682526521b7b6b6b7b760d11b6020830152565b1561334857565b60405162461bcd60e51b8152602060048201526014602482015273506574206973206e6f7420666f722073616c652160601b6044820152606490fd5b1561338b57565b60405162461bcd60e51b81526020600482015260136024820152724e6f7420656e6f7567682062616c616e63652160681b6044820152606490fd5b919082039182116102b957565b156133da57565b60405162461bcd60e51b815260206004820152602260248201527f596f7520617265206e6f7420746865206f776e6572206f662074686973207065604482015261742160f01b6064820152608490fd5b815181546001600160a01b0319166001600160a01b03919091161781556020808301518051909391600184810192916001600160401b038311610678576134718454613090565b601f811161354f575b5080601f84116001146134dc575091808060609593600397956131089a6000946134d1575b50501b9160001990871b1c19161790555b604081015160028501550151151591019060ff801983541691151516179055565b01519250388061349f565b9193949596601f1984168660005283600020936000905b828210613538575050926060959285926131089a99966003999610613520575b505050811b0190556134b0565b015160001983891b60f8161c19169055388080613513565b8088869782949787015181550196019401906134f3565b6000858152828120601f860160051c81019284871061358e575b601f0160051c019184905b8381106135835750505061347a565b828155018490613574565b909250829061356956fea2646970667358221220eea0b28d59b14435a028ca4f748f887e3e03e7b2e15f774a82eeb094af20c5d364736f6c63430008140033","opcodes":"PUSH1 0x80 CALLVALUE PUSH3 0x93 JUMPI PUSH1 0x1F PUSH3 0x367D CODESIZE DUP2 SWAP1 SUB SWAP2 DUP3 ADD PUSH1 0x1F NOT AND DUP4 ADD SWAP2 PUSH1 0x1 PUSH1 0x1 PUSH1 0x40 SHL SUB DUP4 GT DUP5 DUP5 LT OR PUSH3 0x98 JUMPI DUP1 DUP5 SWAP3 PUSH1 0x20 SWAP5 PUSH1 0x40 MSTORE DUP4 CODECOPY DUP2 ADD SUB SLT PUSH3 0x93 JUMPI MLOAD PUSH1 0x1 PUSH1 0x1 PUSH1 0xA0 SHL SUB DUP2 AND SWAP1 DUP2 SWAP1 SUB PUSH3 0x93 JUMPI PUSH7 0x2386F26FC10000 PUSH1 0x1 SSTORE PUSH4 0x3B9ACA00 PUSH1 0x2 SSTORE PUSH1 0x1 DUP1 PUSH1 0xA0 SHL SUB NOT CALLER DUP2 PUSH1 0x0 SLOAD AND OR PUSH1 0x0 SSTORE PUSH1 0x3 SLOAD AND OR PUSH1 0x3 SSTORE PUSH1 0x40 MLOAD PUSH2 0x35CE SWAP1 DUP2 PUSH3 0xAF DUP3 CODECOPY RETURN JUMPDEST PUSH1 0x0 DUP1 REVERT JUMPDEST PUSH4 0x4E487B71 PUSH1 0xE0 SHL PUSH1 0x0 MSTORE PUSH1 0x41 PUSH1 0x4 MSTORE PUSH1 0x24 PUSH1 0x0 REVERT INVALID PUSH1 0x80 DUP1 PUSH1 0x40 MSTORE PUSH1 0x4 CALLDATASIZE LT ISZERO PUSH2 0x13 JUMPI PUSH1 0x0 DUP1 REVERT JUMPDEST PUSH1 0x0 CALLDATALOAD PUSH1 0xE0 SHR SWAP1 DUP2 PUSH4 0x72EA61C EQ PUSH2 0x2FB1 JUMPI POP DUP1 PUSH4 0xC596D91 EQ PUSH2 0x2ACA JUMPI DUP1 PUSH4 0x1080D30F EQ PUSH2 0x27EC JUMPI DUP1 PUSH4 0x4B114691 EQ PUSH2 0x2A87 JUMPI DUP1 PUSH4 0x5B236D97 EQ PUSH2 0x2862 JUMPI DUP1 PUSH4 0x69FE0E2D EQ PUSH2 0x2834 JUMPI DUP1 PUSH4 0x7781B86B EQ PUSH2 0x27EC JUMPI DUP1 PUSH4 0x877F4E12 EQ PUSH2 0x27AD JUMPI DUP1 PUSH4 0x8DA5CB5B EQ PUSH2 0x2784 JUMPI DUP1 PUSH4 0x9EDDED11 EQ PUSH2 0x24D3 JUMPI DUP1 PUSH4 0xC8C9BD28 EQ PUSH2 0x845 JUMPI DUP1 PUSH4 0xC9275220 EQ PUSH2 0x7CD JUMPI DUP1 PUSH4 0xCFB869BF EQ PUSH2 0x6D2 JUMPI DUP1 PUSH4 0xD4F77B1C EQ PUSH2 0x562 JUMPI DUP1 PUSH4 0xDE440FE9 EQ PUSH2 0x44D JUMPI DUP1 PUSH4 0xEA777EEC EQ PUSH2 0x42F JUMPI DUP1 PUSH4 0xF3CD7ADD EQ PUSH2 0x3B9 JUMPI DUP1 PUSH4 0xF6A1CF91 EQ PUSH2 0x361 JUMPI DUP1 PUSH4 0xF71D96CB EQ PUSH2 0x300 JUMPI DUP1 PUSH4 0xFBFABAC4 EQ PUSH2 0x134 JUMPI PUSH4 0xFC0C546A EQ PUSH2 0x106 JUMPI PUSH1 0x0 DUP1 REVERT JUMPDEST CALLVALUE PUSH2 0x12F JUMPI PUSH1 0x0 CALLDATASIZE PUSH1 0x3 NOT ADD SLT PUSH2 0x12F JUMPI PUSH1 0x3 SLOAD PUSH1 0x40 MLOAD PUSH1 0x1 PUSH1 0x1 PUSH1 0xA0 SHL SUB SWAP1 SWAP2 AND DUP2 MSTORE PUSH1 0x20 SWAP1 RETURN JUMPDEST PUSH1 0x0 DUP1 REVERT JUMPDEST CALLVALUE PUSH2 0x12F JUMPI PUSH1 0x20 CALLDATASIZE PUSH1 0x3 NOT ADD SLT PUSH2 0x12F JUMPI PUSH1 0x4 CALLDATALOAD PUSH2 0x169 PUSH2 0x154 DUP3 PUSH2 0x31E3 JUMP JUMPDEST POP PUSH1 0x8 ADD SLOAD PUSH1 0x1 PUSH1 0x1 PUSH1 0xA0 SHL SUB AND CALLER EQ PUSH2 0x33D3 JUMP JUMPDEST PUSH1 0x5 PUSH2 0x174 DUP3 PUSH2 0x31E3 JUMP JUMPDEST POP PUSH1 0x64 SWAP2 DUP3 SWAP2 ADD SLOAD LT ISZERO PUSH2 0x2CF JUMPI PUSH1 0x3 PUSH2 0x18D DUP4 PUSH2 0x31E3 JUMP JUMPDEST POP ADD SLOAD DUP1 PUSH1 0x1 SHL SWAP1 DUP1 DUP3 DIV PUSH1 0x2 EQ SWAP1 ISZERO OR ISZERO PUSH2 0x2B9 JUMPI CALLER PUSH1 0x0 MSTORE PUSH1 0x5 PUSH1 0x20 MSTORE PUSH2 0x1C0 DUP2 PUSH1 0x2 PUSH1 0x40 PUSH1 0x0 KECCAK256 ADD SLOAD LT ISZERO PUSH2 0x3384 JUMP JUMPDEST CALLER PUSH1 0x0 MSTORE PUSH1 0x5 PUSH1 0x20 MSTORE PUSH2 0x1DC PUSH1 0x2 PUSH1 0x40 PUSH1 0x0 KECCAK256 ADD SWAP2 DUP3 SLOAD PUSH2 0x33C6 JUMP JUMPDEST SWAP1 SSTORE PUSH1 0x5 PUSH2 0x1E9 DUP4 PUSH2 0x31E3 JUMP JUMPDEST POP ADD DUP1 SLOAD PUSH1 0x9 NOT DUP2 ADD SWAP2 SWAP1 DUP3 GT PUSH2 0x2B9 JUMPI SSTORE PUSH1 0x7 PUSH2 0x206 DUP4 PUSH2 0x31E3 JUMP JUMPDEST POP ADD DUP1 SLOAD SWAP1 PUSH1 0xA DUP3 ADD DUP1 SWAP3 GT PUSH2 0x2B9 JUMPI SSTORE PUSH1 0x6 PUSH2 0x222 DUP4 PUSH2 0x31E3 JUMP JUMPDEST POP ADD DUP1 SLOAD SWAP1 PUSH1 0xA DUP3 ADD DUP1 SWAP3 GT PUSH2 0x2B9 JUMPI SSTORE PUSH2 0x23C DUP3 PUSH2 0x31E3 JUMP JUMPDEST POP POP DUP1 PUSH1 0x7 PUSH2 0x24A DUP5 PUSH2 0x31E3 JUMP JUMPDEST POP ADD SLOAD GT PUSH2 0x2A5 JUMPI JUMPDEST DUP1 PUSH1 0x6 PUSH2 0x25F DUP5 PUSH2 0x31E3 JUMP JUMPDEST POP ADD SLOAD GT PUSH2 0x291 JUMPI JUMPDEST POP CALLER PUSH32 0x9EF3EF96A69917DBD3B0809769D9F6728750E08AB778D8FBF3EA05B2AC7A9438 PUSH1 0x0 DUP1 LOG3 STOP JUMPDEST PUSH1 0x6 PUSH2 0x29C DUP4 PUSH2 0x31E3 JUMP JUMPDEST POP ADD SSTORE DUP2 PUSH2 0x268 JUMP JUMPDEST DUP1 PUSH1 0x7 PUSH2 0x2B1 DUP5 PUSH2 0x31E3 JUMP JUMPDEST POP ADD SSTORE PUSH2 0x253 JUMP JUMPDEST PUSH4 0x4E487B71 PUSH1 0xE0 SHL PUSH1 0x0 MSTORE PUSH1 0x11 PUSH1 0x4 MSTORE PUSH1 0x24 PUSH1 0x0 REVERT JUMPDEST PUSH1 0x40 MLOAD PUSH3 0x461BCD PUSH1 0xE5 SHL DUP2 MSTORE PUSH1 0x20 PUSH1 0x4 DUP3 ADD MSTORE PUSH1 0xC PUSH1 0x24 DUP3 ADD MSTORE PUSH12 0x5065742069732066756C6C21 PUSH1 0xA0 SHL PUSH1 0x44 DUP3 ADD MSTORE REVERT JUMPDEST CALLVALUE PUSH2 0x12F JUMPI PUSH1 0x20 CALLDATASIZE PUSH1 0x3 NOT ADD SLT PUSH2 0x12F JUMPI PUSH1 0x4 CALLDATALOAD PUSH1 0x4 SLOAD DUP2 LT ISZERO PUSH2 0x12F JUMPI PUSH2 0x327 SWAP1 PUSH2 0x324C JUMP JUMPDEST POP DUP1 SLOAD PUSH1 0x1 PUSH1 0x1 PUSH1 0xA0 SHL SUB AND PUSH2 0x35D PUSH2 0x342 PUSH1 0x1 DUP5 ADD PUSH2 0x30CA JUMP JUMPDEST SWAP3 PUSH1 0xFF PUSH1 0x3 PUSH1 0x2 DUP4 ADD SLOAD SWAP3 ADD SLOAD AND SWAP1 PUSH1 0x40 MLOAD SWAP5 DUP6 SWAP5 DUP6 PUSH2 0x31B0 JUMP JUMPDEST SUB SWAP1 RETURN JUMPDEST CALLVALUE PUSH2 0x12F JUMPI PUSH1 0x40 CALLDATASIZE PUSH1 0x3 NOT ADD SLT PUSH2 0x12F JUMPI PUSH2 0x37A PUSH2 0x307A JUMP JUMPDEST PUSH1 0x1 PUSH1 0x1 PUSH1 0xA0 SHL SUB AND PUSH1 0x0 SWAP1 DUP2 MSTORE PUSH1 0x9 PUSH1 0x20 MSTORE PUSH1 0x40 SWAP1 KECCAK256 DUP1 SLOAD PUSH1 0x24 CALLDATALOAD SWAP2 SWAP1 DUP3 LT ISZERO PUSH2 0x12F JUMPI PUSH1 0x20 SWAP2 PUSH2 0x3AB SWAP2 PUSH2 0x3234 JUMP JUMPDEST SWAP1 SLOAD PUSH1 0x40 MLOAD SWAP2 PUSH1 0x3 SHL SHR DUP2 MSTORE RETURN JUMPDEST CALLVALUE PUSH2 0x12F JUMPI PUSH1 0x20 CALLDATASIZE PUSH1 0x3 NOT ADD SLT PUSH2 0x12F JUMPI PUSH1 0x4 CALLDATALOAD PUSH2 0x3D9 PUSH2 0x154 DUP3 PUSH2 0x31E3 JUMP JUMPDEST PUSH2 0x3F2 PUSH1 0xFF PUSH1 0xA PUSH2 0x3E9 DUP5 PUSH2 0x31E3 JUMP JUMPDEST POP ADD SLOAD AND PUSH2 0x3341 JUMP JUMPDEST PUSH1 0xA PUSH2 0x3FD DUP3 PUSH2 0x31E3 JUMP JUMPDEST POP ADD DUP1 SLOAD PUSH1 0xFF NOT AND SWAP1 SSTORE CALLER PUSH32 0x1F76122CEBA009BC563FF10D1BB29FCD3211E178931624D631121A877DD7FDE4 PUSH1 0x0 DUP1 LOG3 STOP JUMPDEST CALLVALUE PUSH2 0x12F JUMPI PUSH1 0x0 CALLDATASIZE PUSH1 0x3 NOT ADD SLT PUSH2 0x12F JUMPI PUSH1 0x20 PUSH1 0x2 SLOAD PUSH1 0x40 MLOAD SWAP1 DUP2 MSTORE RETURN JUMPDEST PUSH1 0x20 CALLDATASIZE PUSH1 0x3 NOT ADD SLT PUSH2 0x12F JUMPI PUSH1 0x4 CALLDATALOAD PUSH2 0x465 DUP2 PUSH2 0x31E3 JUMP JUMPDEST POP PUSH1 0x8 ADD SLOAD PUSH1 0x1 PUSH1 0x1 PUSH1 0xA0 SHL SUB AND CALLER EQ PUSH2 0x51D JUMPI PUSH1 0x7 SLOAD DUP2 LT ISZERO PUSH2 0x4E7 JUMPI PUSH1 0xB PUSH2 0x48E DUP3 PUSH2 0x31E3 JUMP JUMPDEST POP ADD DUP1 SLOAD SWAP1 PUSH1 0x1 DUP3 ADD DUP1 SWAP3 GT PUSH2 0x2B9 JUMPI SSTORE CALLER PUSH1 0x0 MSTORE PUSH1 0x5 PUSH1 0x20 MSTORE PUSH1 0x2 PUSH1 0x40 PUSH1 0x0 KECCAK256 ADD DUP1 SLOAD SWAP1 PUSH1 0x5 DUP3 ADD DUP1 SWAP3 GT PUSH2 0x2B9 JUMPI SSTORE CALLER PUSH32 0x608B673D19F28498E8E55664BA7500D0B17E731A244DE245F1CD25A32EEC2E4F PUSH1 0x0 DUP1 LOG3 STOP JUMPDEST PUSH1 0x40 MLOAD PUSH3 0x461BCD PUSH1 0xE5 SHL DUP2 MSTORE PUSH1 0x20 PUSH1 0x4 DUP3 ADD MSTORE PUSH1 0xE PUSH1 0x24 DUP3 ADD MSTORE PUSH14 0x506574206E6F7420666F756E6421 PUSH1 0x90 SHL PUSH1 0x44 DUP3 ADD MSTORE PUSH1 0x64 SWAP1 REVERT JUMPDEST PUSH1 0x40 MLOAD PUSH3 0x461BCD PUSH1 0xE5 SHL DUP2 MSTORE PUSH1 0x20 PUSH1 0x4 DUP3 ADD MSTORE PUSH1 0x1E PUSH1 0x24 DUP3 ADD MSTORE PUSH32 0x596F752063616E206E6F74206C696B6520796F7572206F776E20706574210000 PUSH1 0x44 DUP3 ADD MSTORE PUSH1 0x64 SWAP1 REVERT JUMPDEST PUSH1 0x0 CALLDATASIZE PUSH1 0x3 NOT ADD SLT PUSH2 0x12F JUMPI PUSH2 0x57C PUSH1 0x1 SLOAD CALLVALUE LT ISZERO PUSH2 0x3384 JUMP JUMPDEST CALLER PUSH1 0x0 MSTORE PUSH1 0x20 PUSH1 0x6 DUP2 MSTORE PUSH1 0xFF PUSH1 0x40 PUSH1 0x0 KECCAK256 SLOAD AND PUSH2 0x68E JUMPI PUSH1 0x2 SLOAD PUSH1 0x40 MLOAD SWAP1 PUSH1 0x80 DUP3 ADD DUP3 DUP2 LT PUSH1 0x1 PUSH1 0x1 PUSH1 0x40 SHL SUB DUP3 GT OR PUSH2 0x678 JUMPI PUSH1 0x40 MSTORE CALLER DUP3 MSTORE PUSH1 0x40 MLOAD PUSH2 0x5C2 DUP2 PUSH2 0x2FE8 JUMP JUMPDEST PUSH1 0x6 DUP2 MSTORE PUSH6 0x283630BCB2B9 PUSH1 0xD1 SHL DUP5 DUP3 ADD MSTORE DUP4 DUP4 ADD MSTORE PUSH1 0x40 DUP3 ADD MSTORE PUSH1 0x1 PUSH1 0x60 DUP3 ADD MSTORE PUSH1 0x4 SLOAD PUSH1 0x1 PUSH1 0x40 SHL DUP2 LT ISZERO PUSH2 0x678 JUMPI DUP1 PUSH1 0x1 PUSH2 0x603 SWAP3 ADD PUSH1 0x4 SSTORE PUSH2 0x324C JUMP JUMPDEST PUSH2 0x662 JUMPI PUSH2 0x63A SWAP3 PUSH2 0x617 DUP4 PUSH1 0x5 SWAP4 PUSH2 0x342A JUMP JUMPDEST CALLER PUSH1 0x0 MSTORE PUSH1 0x6 DUP2 MSTORE PUSH1 0x40 PUSH1 0x0 KECCAK256 PUSH1 0x1 PUSH1 0xFF NOT DUP3 SLOAD AND OR SWAP1 SSTORE MSTORE PUSH1 0x40 PUSH1 0x0 KECCAK256 PUSH2 0x342A JUMP JUMPDEST CALLER PUSH32 0x31E760AA525306ABA638A784082A013B6A1CC0A9A1789F3F22281C0453B10B1F PUSH1 0x0 DUP1 LOG2 STOP JUMPDEST PUSH4 0x4E487B71 PUSH1 0xE0 SHL PUSH1 0x0 MSTORE PUSH1 0x0 PUSH1 0x4 MSTORE PUSH1 0x24 PUSH1 0x0 REVERT JUMPDEST PUSH4 0x4E487B71 PUSH1 0xE0 SHL PUSH1 0x0 MSTORE PUSH1 0x41 PUSH1 0x4 MSTORE PUSH1 0x24 PUSH1 0x0 REVERT JUMPDEST PUSH1 0x64 SWAP1 PUSH1 0x40 MLOAD SWAP1 PUSH3 0x461BCD PUSH1 0xE5 SHL DUP3 MSTORE PUSH1 0x4 DUP3 ADD MSTORE PUSH1 0x1C PUSH1 0x24 DUP3 ADD MSTORE PUSH32 0x596F7520616C7265616479206A6F696E6564207468652067616D652100000000 PUSH1 0x44 DUP3 ADD MSTORE REVERT JUMPDEST CALLVALUE PUSH2 0x12F JUMPI PUSH1 0x20 CALLDATASIZE PUSH1 0x3 NOT ADD SLT PUSH2 0x12F JUMPI PUSH1 0x4 CALLDATALOAD PUSH1 0x7 SLOAD DUP2 LT ISZERO PUSH2 0x12F JUMPI PUSH2 0x6F9 SWAP1 PUSH2 0x31E3 JUMP JUMPDEST POP DUP1 SLOAD PUSH2 0x708 PUSH1 0x1 DUP4 ADD PUSH2 0x30CA JUMP JUMPDEST SWAP2 PUSH2 0x715 PUSH1 0x2 DUP3 ADD PUSH2 0x30CA JUMP JUMPDEST PUSH1 0x3 DUP3 ADD SLOAD SWAP2 PUSH2 0x727 PUSH1 0x4 DUP3 ADD PUSH2 0x30CA JUMP JUMPDEST PUSH1 0x5 DUP3 ADD SLOAD SWAP4 PUSH1 0x6 DUP4 ADD SLOAD PUSH1 0x7 DUP5 ADD SLOAD SWAP1 PUSH2 0x79F PUSH1 0x1 DUP1 PUSH1 0xA0 SHL SUB PUSH1 0x8 DUP8 ADD SLOAD AND SWAP4 PUSH1 0x9 DUP8 ADD SLOAD SWAP6 PUSH2 0x78C PUSH1 0xB PUSH1 0xFF PUSH1 0xA DUP12 ADD SLOAD AND SWAP10 ADD SLOAD SWAP10 PUSH2 0x77E PUSH1 0x40 MLOAD SWAP15 DUP16 SWAP15 DUP16 SWAP1 DUP2 MSTORE PUSH2 0x180 SWAP1 DUP2 PUSH1 0x20 DUP3 ADD MSTORE ADD SWAP1 PUSH2 0x3170 JUMP JUMPDEST DUP14 DUP2 SUB PUSH1 0x40 DUP16 ADD MSTORE SWAP1 PUSH2 0x3170 JUMP JUMPDEST SWAP2 PUSH1 0x60 DUP13 ADD MSTORE DUP11 DUP3 SUB PUSH1 0x80 DUP13 ADD MSTORE PUSH2 0x3170 JUMP JUMPDEST SWAP7 PUSH1 0xA0 DUP10 ADD MSTORE PUSH1 0xC0 DUP9 ADD MSTORE PUSH1 0xE0 DUP8 ADD MSTORE PUSH2 0x100 DUP7 ADD MSTORE PUSH2 0x120 DUP6 ADD MSTORE ISZERO ISZERO PUSH2 0x140 DUP5 ADD MSTORE PUSH2 0x160 DUP4 ADD MSTORE SUB SWAP1 RETURN JUMPDEST CALLVALUE PUSH2 0x12F JUMPI PUSH1 0x40 CALLDATASIZE PUSH1 0x3 NOT ADD SLT PUSH2 0x12F JUMPI PUSH1 0x4 CALLDATALOAD PUSH1 0x24 CALLDATALOAD PUSH2 0x7F0 PUSH2 0x154 DUP4 PUSH2 0x31E3 JUMP JUMPDEST PUSH1 0xA PUSH2 0x7FB DUP4 PUSH2 0x31E3 JUMP JUMPDEST POP ADD DUP1 SLOAD PUSH1 0xFF NOT AND PUSH1 0x1 OR SWAP1 SSTORE DUP1 PUSH1 0x9 PUSH2 0x814 DUP5 PUSH2 0x31E3 JUMP JUMPDEST POP ADD SSTORE PUSH1 0x40 MLOAD SWAP1 DUP2 MSTORE PUSH32 0x3F90625203379813FB9623A1DE60EF53B769232ED539A1673D0CE181EEA593BB PUSH1 0x20 CALLER SWAP3 LOG3 STOP JUMPDEST CALLVALUE PUSH2 0x12F JUMPI PUSH1 0x0 CALLDATASIZE PUSH1 0x3 NOT ADD SLT PUSH2 0x12F JUMPI PUSH1 0x0 SLOAD PUSH1 0x1 PUSH1 0x1 PUSH1 0xA0 SHL SUB AND CALLER EQ PUSH2 0x86D DUP2 PUSH2 0x3286 JUMP JUMPDEST PUSH1 0x40 MLOAD SWAP1 PUSH2 0x87A DUP3 PUSH2 0x2FE8 JUMP JUMPDEST PUSH1 0x3 DUP3 MSTORE PUSH3 0x10D85D PUSH1 0xEA SHL PUSH1 0x20 DUP4 ADD MSTORE PUSH2 0x892 PUSH2 0x32DD JUMP JUMPDEST PUSH2 0x8BD PUSH1 0x40 MLOAD SWAP3 PUSH2 0x8A2 DUP5 PUSH2 0x2FE8 JUMP JUMPDEST PUSH1 0x9 DUP5 MSTORE PUSH9 0x4C6567656E64617279 PUSH1 0xB8 SHL PUSH1 0x20 DUP6 ADD MSTORE PUSH2 0x3286 JUMP JUMPDEST PUSH1 0x40 MLOAD SWAP3 PUSH2 0x8CA DUP5 PUSH2 0x2FCC JUMP JUMPDEST PUSH1 0x1 DUP5 MSTORE PUSH1 0x20 DUP5 ADD MSTORE PUSH1 0x40 DUP4 ADD MSTORE PUSH1 0x64 PUSH1 0x60 DUP4 ADD MSTORE PUSH1 0x80 DUP3 ADD MSTORE PUSH1 0x64 PUSH1 0xA0 DUP3 ADD MSTORE PUSH1 0x64 PUSH1 0xC0 DUP3 ADD MSTORE PUSH1 0x64 PUSH1 0xE0 DUP3 ADD MSTORE PUSH1 0x0 PUSH2 0x100 DUP3 ADD MSTORE PUSH1 0x64 PUSH2 0x120 DUP3 ADD MSTORE PUSH1 0x0 PUSH2 0x140 DUP3 ADD MSTORE PUSH1 0x0 PUSH2 0x160 DUP3 ADD MSTORE PUSH1 0x7 SLOAD PUSH1 0x1 PUSH1 0x40 SHL DUP2 LT ISZERO PUSH2 0x678 JUMPI DUP1 PUSH1 0x1 PUSH2 0x938 SWAP3 ADD PUSH1 0x7 SSTORE PUSH2 0x31E3 JUMP JUMPDEST SWAP2 SWAP1 SWAP2 PUSH2 0x662 JUMPI DUP1 MLOAD DUP3 SSTORE PUSH1 0x20 DUP2 ADD MLOAD SWAP2 DUP3 MLOAD PUSH1 0x1 PUSH1 0x1 PUSH1 0x40 SHL SUB DUP2 GT PUSH2 0x678 JUMPI PUSH2 0x966 PUSH1 0x1 DUP4 ADD SLOAD PUSH2 0x3090 JUMP JUMPDEST PUSH1 0x1F DUP2 GT PUSH2 0x248C JUMPI JUMPDEST POP PUSH1 0x20 PUSH1 0x1F DUP3 GT PUSH1 0x1 EQ PUSH2 0x241E JUMPI DUP2 SWAP3 SWAP4 SWAP5 PUSH1 0x0 SWAP3 PUSH2 0x2413 JUMPI JUMPDEST POP POP DUP2 PUSH1 0x1 SHL SWAP2 PUSH1 0x0 NOT SWAP1 PUSH1 0x3 SHL SHR NOT AND OR PUSH1 0x1 DUP3 ADD SSTORE JUMPDEST PUSH1 0x40 DUP3 ADD MLOAD SWAP2 DUP3 MLOAD PUSH1 0x1 PUSH1 0x1 PUSH1 0x40 SHL SUB DUP2 GT PUSH2 0x678 JUMPI PUSH2 0x9C4 PUSH1 0x2 DUP5 ADD SLOAD PUSH2 0x3090 JUMP JUMPDEST PUSH1 0x1F DUP2 GT PUSH2 0x23CC JUMPI JUMPDEST POP PUSH1 0x20 PUSH1 0x1F DUP3 GT PUSH1 0x1 EQ PUSH2 0x235E JUMPI DUP2 SWAP3 SWAP4 SWAP5 PUSH1 0x0 SWAP3 PUSH2 0x2353 JUMPI JUMPDEST POP POP DUP2 PUSH1 0x1 SHL SWAP2 PUSH1 0x0 NOT SWAP1 PUSH1 0x3 SHL SHR NOT AND OR PUSH1 0x2 DUP4 ADD SSTORE JUMPDEST PUSH1 0x60 DUP2 ADD MLOAD PUSH1 0x3 DUP4 ADD SSTORE PUSH1 0x80 DUP2 ADD MLOAD DUP1 MLOAD SWAP1 PUSH1 0x1 PUSH1 0x1 PUSH1 0x40 SHL SUB DUP3 GT PUSH2 0x678 JUMPI PUSH2 0xA2C PUSH1 0x4 DUP6 ADD SLOAD PUSH2 0x3090 JUMP JUMPDEST PUSH1 0x1F DUP2 GT PUSH2 0x230C JUMPI JUMPDEST POP PUSH1 0x20 SWAP1 PUSH1 0x1F DUP4 GT PUSH1 0x1 EQ PUSH2 0x2296 JUMPI SWAP2 DUP1 PUSH1 0xB SWAP5 SWAP3 PUSH2 0x160 SWAP5 PUSH1 0x0 SWAP3 PUSH2 0x228B JUMPI JUMPDEST POP POP DUP2 PUSH1 0x1 SHL SWAP2 PUSH1 0x0 NOT SWAP1 PUSH1 0x3 SHL SHR NOT AND OR PUSH1 0x4 DUP6 ADD SSTORE JUMPDEST PUSH1 0xA0 DUP2 ADD MLOAD PUSH1 0x5 DUP6 ADD SSTORE PUSH1 0xC0 DUP2 ADD MLOAD PUSH1 0x6 DUP6 ADD SSTORE PUSH1 0xE0 DUP2 ADD MLOAD PUSH1 0x7 DUP6 ADD SSTORE PUSH1 0x1 DUP1 PUSH1 0xA0 SHL SUB PUSH2 0x100 DUP3 ADD MLOAD AND PUSH1 0x1 PUSH1 0x1 PUSH1 0x60 SHL SUB PUSH1 0xA0 SHL PUSH1 0x8 DUP7 ADD SLOAD AND OR PUSH1 0x8 DUP6 ADD SSTORE PUSH2 0x120 DUP2 ADD MLOAD PUSH1 0x9 DUP6 ADD SSTORE PUSH2 0xADC PUSH2 0x140 DUP3 ADD MLOAD ISZERO ISZERO PUSH1 0xA DUP7 ADD SWAP1 PUSH1 0xFF DUP1 NOT DUP4 SLOAD AND SWAP2 ISZERO ISZERO AND OR SWAP1 SSTORE JUMP JUMPDEST ADD MLOAD SWAP2 ADD SSTORE PUSH1 0x40 MLOAD PUSH2 0xAED DUP2 PUSH2 0x2FE8 JUMP JUMPDEST PUSH1 0x5 DUP2 MSTORE PUSH5 0x446F676779 PUSH1 0xD8 SHL PUSH1 0x20 DUP3 ADD MSTORE PUSH2 0xB07 PUSH2 0x32FD JUMP JUMPDEST PUSH1 0x40 MLOAD SWAP1 PUSH2 0xB14 DUP3 PUSH2 0x2FE8 JUMP JUMPDEST PUSH1 0x4 DUP3 MSTORE PUSH4 0x45706963 PUSH1 0xE0 SHL PUSH1 0x20 DUP4 ADD MSTORE PUSH2 0xB3A PUSH1 0x1 DUP1 PUSH1 0xA0 SHL SUB PUSH1 0x0 SLOAD AND CALLER EQ PUSH2 0x3286 JUMP JUMPDEST PUSH1 0x40 MLOAD SWAP3 PUSH2 0xB47 DUP5 PUSH2 0x2FCC JUMP JUMPDEST PUSH1 0x2 DUP5 MSTORE PUSH1 0x20 DUP5 ADD MSTORE PUSH1 0x40 DUP4 ADD MSTORE PUSH1 0x32 PUSH1 0x60 DUP4 ADD MSTORE PUSH1 0x80 DUP3 ADD MSTORE PUSH1 0x64 PUSH1 0xA0 DUP3 ADD MSTORE PUSH1 0x64 PUSH1 0xC0 DUP3 ADD MSTORE PUSH1 0x64 PUSH1 0xE0 DUP3 ADD MSTORE PUSH1 0x0 PUSH2 0x100 DUP3 ADD MSTORE PUSH1 0x5A PUSH2 0x120 DUP3 ADD MSTORE PUSH1 0x1 PUSH2 0x140 DUP3 ADD MSTORE PUSH1 0x0 PUSH2 0x160 DUP3 ADD MSTORE PUSH1 0x7 SLOAD PUSH1 0x1 PUSH1 0x40 SHL DUP2 LT ISZERO PUSH2 0x678 JUMPI DUP1 PUSH1 0x1 PUSH2 0xBB5 SWAP3 ADD PUSH1 0x7 SSTORE PUSH2 0x31E3 JUMP JUMPDEST SWAP2 SWAP1 SWAP2 PUSH2 0x662 JUMPI DUP1 MLOAD DUP3 SSTORE PUSH1 0x20 DUP2 ADD MLOAD SWAP2 DUP3 MLOAD PUSH1 0x1 PUSH1 0x1 PUSH1 0x40 SHL SUB DUP2 GT PUSH2 0x678 JUMPI PUSH2 0xBE3 PUSH1 0x1 DUP4 ADD SLOAD PUSH2 0x3090 JUMP JUMPDEST PUSH1 0x1F DUP2 GT PUSH2 0x2244 JUMPI JUMPDEST POP PUSH1 0x20 PUSH1 0x1F DUP3 GT PUSH1 0x1 EQ PUSH2 0x21D6 JUMPI DUP2 SWAP3 SWAP4 SWAP5 PUSH1 0x0 SWAP3 PUSH2 0x21CB JUMPI JUMPDEST POP POP DUP2 PUSH1 0x1 SHL SWAP2 PUSH1 0x0 NOT SWAP1 PUSH1 0x3 SHL SHR NOT AND OR PUSH1 0x1 DUP3 ADD SSTORE JUMPDEST PUSH1 0x40 DUP3 ADD MLOAD SWAP2 DUP3 MLOAD PUSH1 0x1 PUSH1 0x1 PUSH1 0x40 SHL SUB DUP2 GT PUSH2 0x678 JUMPI PUSH2 0xC41 PUSH1 0x2 DUP5 ADD SLOAD PUSH2 0x3090 JUMP JUMPDEST PUSH1 0x1F DUP2 GT PUSH2 0x2184 JUMPI JUMPDEST POP PUSH1 0x20 PUSH1 0x1F DUP3 GT PUSH1 0x1 EQ PUSH2 0x2116 JUMPI DUP2 SWAP3 SWAP4 SWAP5 PUSH1 0x0 SWAP3 PUSH2 0x210B JUMPI JUMPDEST POP POP DUP2 PUSH1 0x1 SHL SWAP2 PUSH1 0x0 NOT SWAP1 PUSH1 0x3 SHL SHR NOT AND OR PUSH1 0x2 DUP4 ADD SSTORE JUMPDEST PUSH1 0x60 DUP2 ADD MLOAD PUSH1 0x3 DUP4 ADD SSTORE PUSH1 0x80 DUP2 ADD MLOAD DUP1 MLOAD SWAP1 PUSH1 0x1 PUSH1 0x1 PUSH1 0x40 SHL SUB DUP3 GT PUSH2 0x678 JUMPI PUSH2 0xCA9 PUSH1 0x4 DUP6 ADD SLOAD PUSH2 0x3090 JUMP JUMPDEST PUSH1 0x1F DUP2 GT PUSH2 0x20C4 JUMPI JUMPDEST POP PUSH1 0x20 SWAP1 PUSH1 0x1F DUP4 GT PUSH1 0x1 EQ PUSH2 0x204E JUMPI SWAP2 DUP1 PUSH1 0xB SWAP5 SWAP3 PUSH2 0x160 SWAP5 PUSH1 0x0 SWAP3 PUSH2 0x2043 JUMPI JUMPDEST POP POP DUP2 PUSH1 0x1 SHL SWAP2 PUSH1 0x0 NOT SWAP1 PUSH1 0x3 SHL SHR NOT AND OR PUSH1 0x4 DUP6 ADD SSTORE JUMPDEST PUSH1 0xA0 DUP2 ADD MLOAD PUSH1 0x5 DUP6 ADD SSTORE PUSH1 0xC0 DUP2 ADD MLOAD PUSH1 0x6 DUP6 ADD SSTORE PUSH1 0xE0 DUP2 ADD MLOAD PUSH1 0x7 DUP6 ADD SSTORE PUSH1 0x8 DUP5 ADD PUSH1 0x1 DUP1 PUSH1 0xA0 SHL SUB PUSH2 0x100 DUP4 ADD MLOAD AND PUSH1 0x1 PUSH1 0x1 PUSH1 0x60 SHL SUB PUSH1 0xA0 SHL DUP3 SLOAD AND OR SWAP1 SSTORE PUSH2 0x120 DUP2 ADD MLOAD PUSH1 0x9 DUP6 ADD SSTORE PUSH2 0xD57 PUSH2 0x140 DUP3 ADD MLOAD ISZERO ISZERO PUSH1 0xA DUP7 ADD SWAP1 PUSH1 0xFF DUP1 NOT DUP4 SLOAD AND SWAP2 ISZERO ISZERO AND OR SWAP1 SSTORE JUMP JUMPDEST ADD MLOAD SWAP2 ADD SSTORE PUSH1 0x40 MLOAD PUSH2 0xD68 DUP2 PUSH2 0x2FE8 JUMP JUMPDEST PUSH1 0x4 DUP2 MSTORE PUSH4 0x8CD2E6D PUSH1 0xE3 SHL PUSH1 0x20 DUP3 ADD MSTORE PUSH2 0xD81 PUSH2 0x32DD JUMP JUMPDEST PUSH2 0xD89 PUSH2 0x331F JUMP JUMPDEST SWAP1 PUSH2 0xD9F PUSH1 0x1 DUP1 PUSH1 0xA0 SHL SUB PUSH1 0x0 SLOAD AND CALLER EQ PUSH2 0x3286 JUMP JUMPDEST PUSH1 0x40 MLOAD SWAP3 PUSH2 0xDAC DUP5 PUSH2 0x2FCC JUMP JUMPDEST PUSH1 0x3 DUP5 MSTORE PUSH1 0x20 DUP5 ADD MSTORE PUSH1 0x40 DUP4 ADD MSTORE PUSH1 0xA PUSH1 0x60 DUP4 ADD MSTORE PUSH1 0x80 DUP3 ADD MSTORE PUSH1 0x64 PUSH1 0xA0 DUP3 ADD MSTORE PUSH1 0x64 PUSH1 0xC0 DUP3 ADD MSTORE PUSH1 0x64 PUSH1 0xE0 DUP3 ADD MSTORE PUSH1 0x0 PUSH2 0x100 DUP3 ADD MSTORE PUSH1 0x32 PUSH2 0x120 DUP3 ADD MSTORE PUSH1 0x1 PUSH2 0x140 DUP3 ADD MSTORE PUSH1 0x0 PUSH2 0x160 DUP3 ADD MSTORE PUSH1 0x7 SLOAD PUSH1 0x1 PUSH1 0x40 SHL DUP2 LT ISZERO PUSH2 0x678 JUMPI DUP1 PUSH1 0x1 PUSH2 0xE1A SWAP3 ADD PUSH1 0x7 SSTORE PUSH2 0x31E3 JUMP JUMPDEST SWAP2 SWAP1 SWAP2 PUSH2 0x662 JUMPI DUP1 MLOAD DUP3 SSTORE PUSH1 0x20 DUP2 ADD MLOAD SWAP2 DUP3 MLOAD PUSH1 0x1 PUSH1 0x1 PUSH1 0x40 SHL SUB DUP2 GT PUSH2 0x678 JUMPI PUSH2 0xE48 PUSH1 0x1 DUP4 ADD SLOAD PUSH2 0x3090 JUMP JUMPDEST PUSH1 0x1F DUP2 GT PUSH2 0x1FFC JUMPI JUMPDEST POP PUSH1 0x20 PUSH1 0x1F DUP3 GT PUSH1 0x1 EQ PUSH2 0x1F8E JUMPI DUP2 SWAP3 SWAP4 SWAP5 PUSH1 0x0 SWAP3 PUSH2 0x1F83 JUMPI JUMPDEST POP POP DUP2 PUSH1 0x1 SHL SWAP2 PUSH1 0x0 NOT SWAP1 PUSH1 0x3 SHL SHR NOT AND OR PUSH1 0x1 DUP3 ADD SSTORE JUMPDEST PUSH1 0x40 DUP3 ADD MLOAD SWAP2 DUP3 MLOAD PUSH1 0x1 PUSH1 0x1 PUSH1 0x40 SHL SUB DUP2 GT PUSH2 0x678 JUMPI PUSH2 0xEA6 PUSH1 0x2 DUP5 ADD SLOAD PUSH2 0x3090 JUMP JUMPDEST PUSH1 0x1F DUP2 GT PUSH2 0x1F3C JUMPI JUMPDEST POP PUSH1 0x20 PUSH1 0x1F DUP3 GT PUSH1 0x1 EQ PUSH2 0x1ECE JUMPI DUP2 SWAP3 SWAP4 SWAP5 PUSH1 0x0 SWAP3 PUSH2 0x1EC3 JUMPI JUMPDEST POP POP DUP2 PUSH1 0x1 SHL SWAP2 PUSH1 0x0 NOT SWAP1 PUSH1 0x3 SHL SHR NOT AND OR PUSH1 0x2 DUP4 ADD SSTORE JUMPDEST PUSH1 0x60 DUP2 ADD MLOAD PUSH1 0x3 DUP4 ADD SSTORE PUSH1 0x80 DUP2 ADD MLOAD DUP1 MLOAD SWAP1 PUSH1 0x1 PUSH1 0x1 PUSH1 0x40 SHL SUB DUP3 GT PUSH2 0x678 JUMPI PUSH2 0xF0E PUSH1 0x4 DUP6 ADD SLOAD PUSH2 0x3090 JUMP JUMPDEST PUSH1 0x1F DUP2 GT PUSH2 0x1E7C JUMPI JUMPDEST POP PUSH1 0x20 SWAP1 PUSH1 0x1F DUP4 GT PUSH1 0x1 EQ PUSH2 0x1E06 JUMPI SWAP2 DUP1 PUSH1 0xB SWAP5 SWAP3 PUSH2 0x160 SWAP5 PUSH1 0x0 SWAP3 PUSH2 0x1DFB JUMPI JUMPDEST POP POP DUP2 PUSH1 0x1 SHL SWAP2 PUSH1 0x0 NOT SWAP1 PUSH1 0x3 SHL SHR NOT AND OR PUSH1 0x4 DUP6 ADD SSTORE JUMPDEST PUSH1 0xA0 DUP2 ADD MLOAD PUSH1 0x5 DUP6 ADD SSTORE PUSH1 0xC0 DUP2 ADD MLOAD PUSH1 0x6 DUP6 ADD SSTORE PUSH1 0xE0 DUP2 ADD MLOAD PUSH1 0x7 DUP6 ADD SSTORE PUSH1 0x8 DUP5 ADD PUSH1 0x1 DUP1 PUSH1 0xA0 SHL SUB PUSH2 0x100 DUP4 ADD MLOAD AND PUSH1 0x1 PUSH1 0x1 PUSH1 0x60 SHL SUB PUSH1 0xA0 SHL DUP3 SLOAD AND OR SWAP1 SSTORE PUSH2 0x120 DUP2 ADD MLOAD PUSH1 0x9 DUP6 ADD SSTORE PUSH2 0xFBC PUSH2 0x140 DUP3 ADD MLOAD ISZERO ISZERO PUSH1 0xA DUP7 ADD SWAP1 PUSH1 0xFF DUP1 NOT DUP4 SLOAD AND SWAP2 ISZERO ISZERO AND OR SWAP1 SSTORE JUMP JUMPDEST ADD MLOAD SWAP2 ADD SSTORE PUSH1 0x40 MLOAD PUSH2 0xFCD DUP2 PUSH2 0x2FE8 JUMP JUMPDEST PUSH1 0x6 DUP2 MSTORE PUSH6 0x149858989A5D PUSH1 0xD2 SHL PUSH1 0x20 DUP3 ADD MSTORE PUSH2 0xFE8 PUSH2 0x32FD JUMP JUMPDEST PUSH2 0xFF0 PUSH2 0x331F JUMP JUMPDEST SWAP1 PUSH2 0x1006 PUSH1 0x1 DUP1 PUSH1 0xA0 SHL SUB PUSH1 0x0 SLOAD AND CALLER EQ PUSH2 0x3286 JUMP JUMPDEST PUSH1 0x40 MLOAD SWAP3 PUSH2 0x1013 DUP5 PUSH2 0x2FCC JUMP JUMPDEST PUSH1 0x4 DUP5 MSTORE PUSH1 0x20 DUP5 ADD MSTORE PUSH1 0x40 DUP4 ADD MSTORE PUSH1 0xF PUSH1 0x60 DUP4 ADD MSTORE PUSH1 0x80 DUP3 ADD MSTORE PUSH1 0x64 PUSH1 0xA0 DUP3 ADD MSTORE PUSH1 0x64 PUSH1 0xC0 DUP3 ADD MSTORE PUSH1 0x64 PUSH1 0xE0 DUP3 ADD MSTORE PUSH1 0x0 PUSH2 0x100 DUP3 ADD MSTORE PUSH1 0x37 PUSH2 0x120 DUP3 ADD MSTORE PUSH1 0x1 PUSH2 0x140 DUP3 ADD MSTORE PUSH1 0x0 PUSH2 0x160 DUP3 ADD MSTORE PUSH1 0x7 SLOAD PUSH1 0x1 PUSH1 0x40 SHL DUP2 LT ISZERO PUSH2 0x678 JUMPI DUP1 PUSH1 0x1 PUSH2 0x1081 SWAP3 ADD PUSH1 0x7 SSTORE PUSH2 0x31E3 JUMP JUMPDEST SWAP2 SWAP1 SWAP2 PUSH2 0x662 JUMPI DUP1 MLOAD DUP3 SSTORE PUSH1 0x20 DUP2 ADD MLOAD SWAP2 DUP3 MLOAD PUSH1 0x1 PUSH1 0x1 PUSH1 0x40 SHL SUB DUP2 GT PUSH2 0x678 JUMPI PUSH2 0x10AF PUSH1 0x1 DUP4 ADD SLOAD PUSH2 0x3090 JUMP JUMPDEST PUSH1 0x1F DUP2 GT PUSH2 0x1DB4 JUMPI JUMPDEST POP PUSH1 0x20 PUSH1 0x1F DUP3 GT PUSH1 0x1 EQ PUSH2 0x1D46 JUMPI DUP2 SWAP3 SWAP4 SWAP5 PUSH1 0x0 SWAP3 PUSH2 0x1D3B JUMPI JUMPDEST POP POP DUP2 PUSH1 0x1 SHL SWAP2 PUSH1 0x0 NOT SWAP1 PUSH1 0x3 SHL SHR NOT AND OR PUSH1 0x1 DUP3 ADD SSTORE JUMPDEST PUSH1 0x40 DUP3 ADD MLOAD SWAP2 DUP3 MLOAD PUSH1 0x1 PUSH1 0x1 PUSH1 0x40 SHL SUB DUP2 GT PUSH2 0x678 JUMPI PUSH2 0x110D PUSH1 0x2 DUP5 ADD SLOAD PUSH2 0x3090 JUMP JUMPDEST PUSH1 0x1F DUP2 GT PUSH2 0x1CF4 JUMPI JUMPDEST POP PUSH1 0x20 PUSH1 0x1F DUP3 GT PUSH1 0x1 EQ PUSH2 0x1C86 JUMPI DUP2 SWAP3 SWAP4 SWAP5 PUSH1 0x0 SWAP3 PUSH2 0x1C7B JUMPI JUMPDEST POP POP DUP2 PUSH1 0x1 SHL SWAP2 PUSH1 0x0 NOT SWAP1 PUSH1 0x3 SHL SHR NOT AND OR PUSH1 0x2 DUP4 ADD SSTORE JUMPDEST PUSH1 0x60 DUP2 ADD MLOAD PUSH1 0x3 DUP4 ADD SSTORE PUSH1 0x80 DUP2 ADD MLOAD DUP1 MLOAD SWAP1 PUSH1 0x1 PUSH1 0x1 PUSH1 0x40 SHL SUB DUP3 GT PUSH2 0x678 JUMPI PUSH2 0x1175 PUSH1 0x4 DUP6 ADD SLOAD PUSH2 0x3090 JUMP JUMPDEST PUSH1 0x1F DUP2 GT PUSH2 0x1C34 JUMPI JUMPDEST POP PUSH1 0x20 SWAP1 PUSH1 0x1F DUP4 GT PUSH1 0x1 EQ PUSH2 0x1BBE JUMPI SWAP2 DUP1 PUSH1 0xB SWAP5 SWAP3 PUSH2 0x160 SWAP5 PUSH1 0x0 SWAP3 PUSH2 0x1BB3 JUMPI JUMPDEST POP POP DUP2 PUSH1 0x1 SHL SWAP2 PUSH1 0x0 NOT SWAP1 PUSH1 0x3 SHL SHR NOT AND OR PUSH1 0x4 DUP6 ADD SSTORE JUMPDEST PUSH1 0xA0 DUP2 ADD MLOAD PUSH1 0x5 DUP6 ADD SSTORE PUSH1 0xC0 DUP2 ADD MLOAD PUSH1 0x6 DUP6 ADD SSTORE PUSH1 0xE0 DUP2 ADD MLOAD PUSH1 0x7 DUP6 ADD SSTORE PUSH1 0x8 DUP5 ADD PUSH1 0x1 DUP1 PUSH1 0xA0 SHL SUB PUSH2 0x100 DUP4 ADD MLOAD AND PUSH1 0x1 PUSH1 0x1 PUSH1 0x60 SHL SUB PUSH1 0xA0 SHL DUP3 SLOAD AND OR SWAP1 SSTORE PUSH2 0x120 DUP2 ADD MLOAD PUSH1 0x9 DUP6 ADD SSTORE PUSH2 0x1223 PUSH2 0x140 DUP3 ADD MLOAD ISZERO ISZERO PUSH1 0xA DUP7 ADD SWAP1 PUSH1 0xFF DUP1 NOT DUP4 SLOAD AND SWAP2 ISZERO ISZERO AND OR SWAP1 SSTORE JUMP JUMPDEST ADD MLOAD SWAP2 ADD SSTORE PUSH1 0x40 MLOAD PUSH2 0x1234 DUP2 PUSH2 0x2FE8 JUMP JUMPDEST PUSH1 0x4 DUP2 MSTORE PUSH4 0x109A5C99 PUSH1 0xE2 SHL PUSH1 0x20 DUP3 ADD MSTORE PUSH2 0x124D PUSH2 0x32DD JUMP JUMPDEST PUSH1 0x40 MLOAD SWAP1 PUSH2 0x125A DUP3 PUSH2 0x2FE8 JUMP JUMPDEST PUSH1 0x4 DUP3 MSTORE PUSH4 0x52617265 PUSH1 0xE0 SHL PUSH1 0x20 DUP4 ADD MSTORE PUSH2 0x1280 PUSH1 0x1 DUP1 PUSH1 0xA0 SHL SUB PUSH1 0x0 SLOAD AND CALLER EQ PUSH2 0x3286 JUMP JUMPDEST PUSH1 0x40 MLOAD SWAP3 PUSH2 0x128D DUP5 PUSH2 0x2FCC JUMP JUMPDEST PUSH1 0x5 DUP5 MSTORE PUSH1 0x20 DUP5 ADD MSTORE PUSH1 0x40 DUP4 ADD MSTORE PUSH1 0x1E PUSH1 0x60 DUP4 ADD MSTORE PUSH1 0x80 DUP3 ADD MSTORE PUSH1 0x64 PUSH1 0xA0 DUP3 ADD MSTORE PUSH1 0x64 PUSH1 0xC0 DUP3 ADD MSTORE PUSH1 0x64 PUSH1 0xE0 DUP3 ADD MSTORE PUSH1 0x0 PUSH2 0x100 DUP3 ADD MSTORE PUSH1 0x28 PUSH2 0x120 DUP3 ADD MSTORE PUSH1 0x1 PUSH2 0x140 DUP3 ADD MSTORE PUSH1 0x0 PUSH2 0x160 DUP3 ADD MSTORE PUSH1 0x7 SLOAD PUSH1 0x1 PUSH1 0x40 SHL DUP2 LT ISZERO PUSH2 0x678 JUMPI DUP1 PUSH1 0x1 PUSH2 0x12FB SWAP3 ADD PUSH1 0x7 SSTORE PUSH2 0x31E3 JUMP JUMPDEST SWAP2 SWAP1 SWAP2 PUSH2 0x662 JUMPI DUP1 MLOAD DUP3 SSTORE PUSH1 0x20 DUP2 ADD MLOAD SWAP2 DUP3 MLOAD PUSH1 0x1 PUSH1 0x1 PUSH1 0x40 SHL SUB DUP2 GT PUSH2 0x678 JUMPI PUSH2 0x1329 PUSH1 0x1 DUP4 ADD SLOAD PUSH2 0x3090 JUMP JUMPDEST PUSH1 0x1F DUP2 GT PUSH2 0x1B6C JUMPI JUMPDEST POP PUSH1 0x20 PUSH1 0x1F DUP3 GT PUSH1 0x1 EQ PUSH2 0x1AFE JUMPI DUP2 SWAP3 SWAP4 SWAP5 PUSH1 0x0 SWAP3 PUSH2 0x1AF3 JUMPI JUMPDEST POP POP DUP2 PUSH1 0x1 SHL SWAP2 PUSH1 0x0 NOT SWAP1 PUSH1 0x3 SHL SHR NOT AND OR PUSH1 0x1 DUP3 ADD SSTORE JUMPDEST PUSH1 0x40 DUP3 ADD MLOAD SWAP2 DUP3 MLOAD PUSH1 0x1 PUSH1 0x1 PUSH1 0x40 SHL SUB DUP2 GT PUSH2 0x678 JUMPI PUSH2 0x1387 PUSH1 0x2 DUP5 ADD SLOAD PUSH2 0x3090 JUMP JUMPDEST PUSH1 0x1F DUP2 GT PUSH2 0x1AAC JUMPI JUMPDEST POP PUSH1 0x20 PUSH1 0x1F DUP3 GT PUSH1 0x1 EQ PUSH2 0x1A3E JUMPI DUP2 SWAP3 SWAP4 SWAP5 PUSH1 0x0 SWAP3 PUSH2 0x1A33 JUMPI JUMPDEST POP POP DUP2 PUSH1 0x1 SHL SWAP2 PUSH1 0x0 NOT SWAP1 PUSH1 0x3 SHL SHR NOT AND OR PUSH1 0x2 DUP4 ADD SSTORE JUMPDEST PUSH1 0x60 DUP2 ADD MLOAD PUSH1 0x3 DUP4 ADD SSTORE PUSH1 0x80 DUP2 ADD MLOAD DUP1 MLOAD SWAP1 PUSH1 0x1 PUSH1 0x1 PUSH1 0x40 SHL SUB DUP3 GT PUSH2 0x678 JUMPI PUSH2 0x13EF PUSH1 0x4 DUP6 ADD SLOAD PUSH2 0x3090 JUMP JUMPDEST PUSH1 0x1F DUP2 GT PUSH2 0x19EC JUMPI JUMPDEST POP PUSH1 0x20 SWAP1 PUSH1 0x1F DUP4 GT PUSH1 0x1 EQ PUSH2 0x1976 JUMPI SWAP2 DUP1 PUSH1 0xB SWAP5 SWAP3 PUSH2 0x160 SWAP5 PUSH1 0x0 SWAP3 PUSH2 0x196B JUMPI JUMPDEST POP POP DUP2 PUSH1 0x1 SHL SWAP2 PUSH1 0x0 NOT SWAP1 PUSH1 0x3 SHL SHR NOT AND OR PUSH1 0x4 DUP6 ADD SSTORE JUMPDEST PUSH1 0xA0 DUP2 ADD MLOAD PUSH1 0x5 DUP6 ADD SSTORE PUSH1 0xC0 DUP2 ADD MLOAD PUSH1 0x6 DUP6 ADD SSTORE PUSH1 0xE0 DUP2 ADD MLOAD PUSH1 0x7 DUP6 ADD SSTORE PUSH1 0x8 DUP5 ADD PUSH1 0x1 DUP1 PUSH1 0xA0 SHL SUB PUSH2 0x100 DUP4 ADD MLOAD AND PUSH1 0x1 PUSH1 0x1 PUSH1 0x60 SHL SUB PUSH1 0xA0 SHL DUP3 SLOAD AND OR SWAP1 SSTORE PUSH2 0x120 DUP2 ADD MLOAD PUSH1 0x9 DUP6 ADD SSTORE PUSH2 0x149D PUSH2 0x140 DUP3 ADD MLOAD ISZERO ISZERO PUSH1 0xA DUP7 ADD SWAP1 PUSH1 0xFF DUP1 NOT DUP4 SLOAD AND SWAP2 ISZERO ISZERO AND OR SWAP1 SSTORE JUMP JUMPDEST ADD MLOAD SWAP2 ADD SSTORE PUSH1 0x40 MLOAD PUSH2 0x14AE DUP2 PUSH2 0x2FE8 JUMP JUMPDEST PUSH1 0x8 DUP2 MSTORE PUSH8 0x23BABB32B931B4B7 PUSH1 0xC1 SHL PUSH1 0x20 DUP3 ADD MSTORE PUSH2 0x14CB PUSH2 0x32DD JUMP JUMPDEST PUSH1 0x40 MLOAD SWAP1 PUSH2 0x14D8 DUP3 PUSH2 0x2FE8 JUMP JUMPDEST PUSH1 0x7 DUP3 MSTORE PUSH7 0x54616B6C616369 PUSH1 0xC8 SHL PUSH1 0x20 DUP4 ADD MSTORE PUSH2 0x1501 PUSH1 0x1 DUP1 PUSH1 0xA0 SHL SUB PUSH1 0x0 SLOAD AND CALLER EQ PUSH2 0x3286 JUMP JUMPDEST PUSH1 0x40 MLOAD SWAP3 PUSH2 0x150E DUP5 PUSH2 0x2FCC JUMP JUMPDEST PUSH1 0x6 DUP5 MSTORE PUSH1 0x20 DUP5 ADD MSTORE PUSH1 0x40 DUP4 ADD MSTORE PUSH1 0x1 PUSH1 0x60 DUP4 ADD MSTORE PUSH1 0x80 DUP3 ADD MSTORE PUSH1 0x64 PUSH1 0xA0 DUP3 ADD MSTORE PUSH1 0x64 PUSH1 0xC0 DUP3 ADD MSTORE PUSH1 0x64 PUSH1 0xE0 DUP3 ADD MSTORE PUSH1 0x0 PUSH2 0x100 DUP3 ADD MSTORE PUSH1 0x1 PUSH2 0x120 DUP3 ADD MSTORE PUSH1 0x1 PUSH2 0x140 DUP3 ADD MSTORE PUSH1 0x0 PUSH2 0x160 DUP3 ADD MSTORE PUSH1 0x7 SLOAD PUSH1 0x1 PUSH1 0x40 SHL DUP2 LT ISZERO PUSH2 0x678 JUMPI DUP1 PUSH1 0x1 PUSH2 0x157C SWAP3 ADD PUSH1 0x7 SSTORE PUSH2 0x31E3 JUMP JUMPDEST SWAP2 SWAP1 SWAP2 PUSH2 0x662 JUMPI DUP1 MLOAD DUP3 SSTORE PUSH1 0x20 DUP2 ADD MLOAD SWAP2 DUP3 MLOAD PUSH1 0x1 PUSH1 0x1 PUSH1 0x40 SHL SUB DUP2 GT PUSH2 0x678 JUMPI PUSH2 0x15AA PUSH1 0x1 DUP4 ADD SLOAD PUSH2 0x3090 JUMP JUMPDEST PUSH1 0x1F DUP2 GT PUSH2 0x1924 JUMPI JUMPDEST POP PUSH1 0x20 PUSH1 0x1F DUP3 GT PUSH1 0x1 EQ PUSH2 0x18B8 JUMPI DUP2 SWAP3 SWAP4 SWAP5 PUSH1 0x0 SWAP3 PUSH2 0x18AD JUMPI JUMPDEST POP POP DUP2 PUSH1 0x1 SHL SWAP2 PUSH1 0x0 NOT SWAP1 PUSH1 0x3 SHL SHR NOT AND OR PUSH1 0x1 DUP3 ADD SSTORE JUMPDEST PUSH1 0x40 DUP3 ADD MLOAD SWAP2 DUP3 MLOAD PUSH1 0x1 PUSH1 0x1 PUSH1 0x40 SHL SUB DUP2 GT PUSH2 0x678 JUMPI PUSH2 0x1608 PUSH1 0x2 DUP5 ADD SLOAD PUSH2 0x3090 JUMP JUMPDEST PUSH1 0x1F DUP2 GT PUSH2 0x1866 JUMPI JUMPDEST POP PUSH1 0x20 PUSH1 0x1F DUP3 GT PUSH1 0x1 EQ PUSH2 0x17F8 JUMPI DUP2 SWAP3 SWAP4 SWAP5 PUSH1 0x0 SWAP3 PUSH2 0x17ED JUMPI JUMPDEST POP POP DUP2 PUSH1 0x1 SHL SWAP2 PUSH1 0x0 NOT SWAP1 PUSH1 0x3 SHL SHR NOT AND OR PUSH1 0x2 DUP4 ADD SSTORE JUMPDEST PUSH1 0x60 DUP2 ADD MLOAD PUSH1 0x3 DUP4 ADD SSTORE PUSH1 0x80 DUP2 ADD MLOAD DUP1 MLOAD SWAP1 PUSH1 0x1 PUSH1 0x1 PUSH1 0x40 SHL SUB DUP3 GT PUSH2 0x678 JUMPI PUSH2 0x1670 PUSH1 0x4 DUP6 ADD SLOAD PUSH2 0x3090 JUMP JUMPDEST PUSH1 0x1F DUP2 GT PUSH2 0x17A6 JUMPI JUMPDEST POP PUSH1 0x20 SWAP1 PUSH1 0x1F DUP4 GT PUSH1 0x1 EQ PUSH2 0x1730 JUMPI SWAP2 DUP1 PUSH1 0xB SWAP5 SWAP3 PUSH2 0x160 SWAP5 PUSH1 0x0 SWAP3 PUSH2 0x1725 JUMPI JUMPDEST POP POP DUP2 PUSH1 0x1 SHL SWAP2 PUSH1 0x0 NOT SWAP1 PUSH1 0x3 SHL SHR NOT AND OR PUSH1 0x4 DUP6 ADD SSTORE JUMPDEST PUSH1 0xA0 DUP2 ADD MLOAD PUSH1 0x5 DUP6 ADD SSTORE PUSH1 0xC0 DUP2 ADD MLOAD PUSH1 0x6 DUP6 ADD SSTORE PUSH1 0xE0 DUP2 ADD MLOAD PUSH1 0x7 DUP6 ADD SSTORE PUSH1 0x8 DUP5 ADD PUSH1 0x1 DUP1 PUSH1 0xA0 SHL SUB PUSH2 0x100 DUP4 ADD MLOAD AND PUSH1 0x1 PUSH1 0x1 PUSH1 0x60 SHL SUB PUSH1 0xA0 SHL DUP3 SLOAD AND OR SWAP1 SSTORE PUSH2 0x120 DUP2 ADD MLOAD PUSH1 0x9 DUP6 ADD SSTORE PUSH2 0x171E PUSH2 0x140 DUP3 ADD MLOAD ISZERO ISZERO PUSH1 0xA DUP7 ADD SWAP1 PUSH1 0xFF DUP1 NOT DUP4 SLOAD AND SWAP2 ISZERO ISZERO AND OR SWAP1 SSTORE JUMP JUMPDEST ADD MLOAD SWAP2 ADD SSTORE STOP JUMPDEST ADD MLOAD SWAP1 POP DUP7 DUP1 PUSH2 0x169A JUMP JUMPDEST SWAP1 PUSH1 0x4 DUP6 ADD PUSH1 0x0 MSTORE PUSH1 0x20 PUSH1 0x0 KECCAK256 SWAP2 PUSH1 0x0 JUMPDEST PUSH1 0x1F NOT DUP6 AND DUP2 LT PUSH2 0x178E JUMPI POP SWAP3 PUSH1 0xB SWAP5 SWAP3 PUSH1 0x1 SWAP3 PUSH2 0x160 SWAP6 DUP4 PUSH1 0x1F NOT DUP2 AND LT PUSH2 0x1775 JUMPI JUMPDEST POP POP POP DUP2 SHL ADD PUSH1 0x4 DUP6 ADD SSTORE PUSH2 0x16B2 JUMP JUMPDEST ADD MLOAD PUSH1 0x0 NOT PUSH1 0xF8 DUP5 PUSH1 0x3 SHL AND SHR NOT AND SWAP1 SSTORE DUP7 DUP1 DUP1 PUSH2 0x1765 JUMP JUMPDEST SWAP2 SWAP3 PUSH1 0x20 PUSH1 0x1 DUP2 SWAP3 DUP7 DUP6 ADD MLOAD DUP2 SSTORE ADD SWAP5 ADD SWAP3 ADD PUSH2 0x1741 JUMP JUMPDEST PUSH1 0x4 DUP6 ADD PUSH1 0x0 MSTORE PUSH1 0x20 PUSH1 0x0 KECCAK256 PUSH1 0x1F DUP5 ADD PUSH1 0x5 SHR DUP2 ADD PUSH1 0x20 DUP6 LT PUSH2 0x17E6 JUMPI JUMPDEST PUSH1 0x1F DUP4 ADD PUSH1 0x5 SHR DUP3 ADD DUP2 LT PUSH2 0x17DA JUMPI POP POP PUSH2 0x1679 JUMP JUMPDEST PUSH1 0x0 DUP2 SSTORE PUSH1 0x1 ADD PUSH2 0x17C4 JUMP JUMPDEST POP DUP1 PUSH2 0x17C4 JUMP JUMPDEST ADD MLOAD SWAP1 POP DUP5 DUP1 PUSH2 0x162B JUMP JUMPDEST PUSH1 0x2 DUP5 ADD PUSH1 0x0 MSTORE PUSH1 0x20 PUSH1 0x0 KECCAK256 SWAP1 PUSH1 0x0 JUMPDEST PUSH1 0x1F NOT DUP5 AND DUP2 LT PUSH2 0x184E JUMPI POP PUSH1 0x1 SWAP4 SWAP5 SWAP6 DUP4 PUSH1 0x1F NOT DUP2 AND LT PUSH2 0x1835 JUMPI JUMPDEST POP POP POP DUP2 SHL ADD PUSH1 0x2 DUP4 ADD SSTORE PUSH2 0x1643 JUMP JUMPDEST ADD MLOAD PUSH1 0x0 NOT PUSH1 0xF8 DUP5 PUSH1 0x3 SHL AND SHR NOT AND SWAP1 SSTORE DUP5 DUP1 DUP1 PUSH2 0x1825 JUMP JUMPDEST SWAP1 SWAP2 PUSH1 0x20 PUSH1 0x1 DUP2 SWAP3 DUP6 DUP11 ADD MLOAD DUP2 SSTORE ADD SWAP4 ADD SWAP2 ADD PUSH2 0x1808 JUMP JUMPDEST PUSH1 0x2 DUP5 ADD PUSH1 0x0 MSTORE PUSH1 0x20 PUSH1 0x0 KECCAK256 PUSH1 0x1F DUP4 ADD PUSH1 0x5 SHR DUP2 ADD PUSH1 0x20 DUP5 LT PUSH2 0x18A6 JUMPI JUMPDEST PUSH1 0x1F DUP4 ADD PUSH1 0x5 SHR DUP3 ADD DUP2 LT PUSH2 0x189A JUMPI POP POP PUSH2 0x1611 JUMP JUMPDEST PUSH1 0x0 DUP2 SSTORE PUSH1 0x1 ADD PUSH2 0x1884 JUMP JUMPDEST POP DUP1 PUSH2 0x1884 JUMP JUMPDEST ADD MLOAD SWAP1 POP DUP5 DUP1 PUSH2 0x15CD JUMP JUMPDEST PUSH1 0x1 DUP4 ADD PUSH1 0x0 MSTORE PUSH1 0x20 PUSH1 0x0 KECCAK256 SWAP1 PUSH1 0x0 PUSH1 0x1F NOT DUP5 AND SWAP1 JUMPDEST DUP2 DUP2 LT PUSH2 0x190C JUMPI POP SWAP6 DUP4 PUSH1 0x1 SWAP6 SWAP7 SWAP8 LT PUSH2 0x18F3 JUMPI JUMPDEST POP POP POP DUP2 SHL ADD PUSH1 0x1 DUP3 ADD SSTORE PUSH2 0x15E5 JUMP JUMPDEST ADD MLOAD PUSH1 0x0 NOT PUSH1 0xF8 DUP5 PUSH1 0x3 SHL AND SHR NOT AND SWAP1 SSTORE DUP5 DUP1 DUP1 PUSH2 0x18E3 JUMP JUMPDEST SWAP2 SWAP3 PUSH1 0x20 PUSH1 0x1 DUP2 SWAP3 DUP7 DUP12 ADD MLOAD DUP2 SSTORE ADD SWAP5 ADD SWAP3 ADD PUSH2 0x18CE JUMP JUMPDEST PUSH1 0x1 DUP4 ADD PUSH1 0x0 MSTORE PUSH1 0x20 PUSH1 0x0 KECCAK256 PUSH1 0x1F DUP4 ADD PUSH1 0x5 SHR DUP2 ADD PUSH1 0x20 DUP5 LT PUSH2 0x1964 JUMPI JUMPDEST PUSH1 0x1F DUP4 ADD PUSH1 0x5 SHR DUP3 ADD DUP2 LT PUSH2 0x1958 JUMPI POP POP PUSH2 0x15B3 JUMP JUMPDEST PUSH1 0x0 DUP2 SSTORE PUSH1 0x1 ADD PUSH2 0x1942 JUMP JUMPDEST POP DUP1 PUSH2 0x1942 JUMP JUMPDEST ADD MLOAD SWAP1 POP DUP7 DUP1 PUSH2 0x1419 JUMP JUMPDEST SWAP1 PUSH1 0x4 DUP6 ADD PUSH1 0x0 MSTORE PUSH1 0x20 PUSH1 0x0 KECCAK256 SWAP2 PUSH1 0x0 JUMPDEST PUSH1 0x1F NOT DUP6 AND DUP2 LT PUSH2 0x19D4 JUMPI POP SWAP3 PUSH1 0xB SWAP5 SWAP3 PUSH1 0x1 SWAP3 PUSH2 0x160 SWAP6 DUP4 PUSH1 0x1F NOT DUP2 AND LT PUSH2 0x19BB JUMPI JUMPDEST POP POP POP DUP2 SHL ADD PUSH1 0x4 DUP6 ADD SSTORE PUSH2 0x1431 JUMP JUMPDEST ADD MLOAD PUSH1 0x0 NOT PUSH1 0xF8 DUP5 PUSH1 0x3 SHL AND SHR NOT AND SWAP1 SSTORE DUP7 DUP1 DUP1 PUSH2 0x19AB JUMP JUMPDEST SWAP2 SWAP3 PUSH1 0x20 PUSH1 0x1 DUP2 SWAP3 DUP7 DUP6 ADD MLOAD DUP2 SSTORE ADD SWAP5 ADD SWAP3 ADD PUSH2 0x1987 JUMP JUMPDEST PUSH1 0x4 DUP6 ADD PUSH1 0x0 MSTORE PUSH1 0x20 PUSH1 0x0 KECCAK256 PUSH1 0x1F DUP5 ADD PUSH1 0x5 SHR DUP2 ADD PUSH1 0x20 DUP6 LT PUSH2 0x1A2C JUMPI JUMPDEST PUSH1 0x1F DUP4 ADD PUSH1 0x5 SHR DUP3 ADD DUP2 LT PUSH2 0x1A20 JUMPI POP POP PUSH2 0x13F8 JUMP JUMPDEST PUSH1 0x0 DUP2 SSTORE PUSH1 0x1 ADD PUSH2 0x1A0A JUMP JUMPDEST POP DUP1 PUSH2 0x1A0A JUMP JUMPDEST ADD MLOAD SWAP1 POP DUP5 DUP1 PUSH2 0x13AA JUMP JUMPDEST PUSH1 0x2 DUP5 ADD PUSH1 0x0 MSTORE PUSH1 0x20 PUSH1 0x0 KECCAK256 SWAP1 PUSH1 0x0 JUMPDEST PUSH1 0x1F NOT DUP5 AND DUP2 LT PUSH2 0x1A94 JUMPI POP PUSH1 0x1 SWAP4 SWAP5 SWAP6 DUP4 PUSH1 0x1F NOT DUP2 AND LT PUSH2 0x1A7B JUMPI JUMPDEST POP POP POP DUP2 SHL ADD PUSH1 0x2 DUP4 ADD SSTORE PUSH2 0x13C2 JUMP JUMPDEST ADD MLOAD PUSH1 0x0 NOT PUSH1 0xF8 DUP5 PUSH1 0x3 SHL AND SHR NOT AND SWAP1 SSTORE DUP5 DUP1 DUP1 PUSH2 0x1A6B JUMP JUMPDEST SWAP1 SWAP2 PUSH1 0x20 PUSH1 0x1 DUP2 SWAP3 DUP6 DUP11 ADD MLOAD DUP2 SSTORE ADD SWAP4 ADD SWAP2 ADD PUSH2 0x1A4E JUMP JUMPDEST PUSH1 0x2 DUP5 ADD PUSH1 0x0 MSTORE PUSH1 0x20 PUSH1 0x0 KECCAK256 PUSH1 0x1F DUP4 ADD PUSH1 0x5 SHR DUP2 ADD PUSH1 0x20 DUP5 LT PUSH2 0x1AEC JUMPI JUMPDEST PUSH1 0x1F DUP4 ADD PUSH1 0x5 SHR DUP3 ADD DUP2 LT PUSH2 0x1AE0 JUMPI POP POP PUSH2 0x1390 JUMP JUMPDEST PUSH1 0x0 DUP2 SSTORE PUSH1 0x1 ADD PUSH2 0x1ACA JUMP JUMPDEST POP DUP1 PUSH2 0x1ACA JUMP JUMPDEST ADD MLOAD SWAP1 POP DUP5 DUP1 PUSH2 0x134C JUMP JUMPDEST PUSH1 0x1 DUP4 ADD PUSH1 0x0 MSTORE PUSH1 0x20 PUSH1 0x0 KECCAK256 SWAP1 PUSH1 0x0 JUMPDEST PUSH1 0x1F NOT DUP5 AND DUP2 LT PUSH2 0x1B54 JUMPI POP PUSH1 0x1 SWAP4 SWAP5 SWAP6 DUP4 PUSH1 0x1F NOT DUP2 AND LT PUSH2 0x1B3B JUMPI JUMPDEST POP POP POP DUP2 SHL ADD PUSH1 0x1 DUP3 ADD SSTORE PUSH2 0x1364 JUMP JUMPDEST ADD MLOAD PUSH1 0x0 NOT PUSH1 0xF8 DUP5 PUSH1 0x3 SHL AND SHR NOT AND SWAP1 SSTORE DUP5 DUP1 DUP1 PUSH2 0x1B2B JUMP JUMPDEST SWAP1 SWAP2 PUSH1 0x20 PUSH1 0x1 DUP2 SWAP3 DUP6 DUP11 ADD MLOAD DUP2 SSTORE ADD SWAP4 ADD SWAP2 ADD PUSH2 0x1B0E JUMP JUMPDEST PUSH1 0x1 DUP4 ADD PUSH1 0x0 MSTORE PUSH1 0x20 PUSH1 0x0 KECCAK256 PUSH1 0x1F DUP4 ADD PUSH1 0x5 SHR DUP2 ADD PUSH1 0x20 DUP5 LT PUSH2 0x1BAC JUMPI JUMPDEST PUSH1 0x1F DUP4 ADD PUSH1 0x5 SHR DUP3 ADD DUP2 LT PUSH2 0x1BA0 JUMPI POP POP PUSH2 0x1332 JUMP JUMPDEST PUSH1 0x0 DUP2 SSTORE PUSH1 0x1 ADD PUSH2 0x1B8A JUMP JUMPDEST POP DUP1 PUSH2 0x1B8A JUMP JUMPDEST ADD MLOAD SWAP1 POP DUP7 DUP1 PUSH2 0x119F JUMP JUMPDEST SWAP1 PUSH1 0x4 DUP6 ADD PUSH1 0x0 MSTORE PUSH1 0x20 PUSH1 0x0 KECCAK256 SWAP2 PUSH1 0x0 JUMPDEST PUSH1 0x1F NOT DUP6 AND DUP2 LT PUSH2 0x1C1C JUMPI POP SWAP3 PUSH1 0xB SWAP5 SWAP3 PUSH1 0x1 SWAP3 PUSH2 0x160 SWAP6 DUP4 PUSH1 0x1F NOT DUP2 AND LT PUSH2 0x1C03 JUMPI JUMPDEST POP POP POP DUP2 SHL ADD PUSH1 0x4 DUP6 ADD SSTORE PUSH2 0x11B7 JUMP JUMPDEST ADD MLOAD PUSH1 0x0 NOT PUSH1 0xF8 DUP5 PUSH1 0x3 SHL AND SHR NOT AND SWAP1 SSTORE DUP7 DUP1 DUP1 PUSH2 0x1BF3 JUMP JUMPDEST SWAP2 SWAP3 PUSH1 0x20 PUSH1 0x1 DUP2 SWAP3 DUP7 DUP6 ADD MLOAD DUP2 SSTORE ADD SWAP5 ADD SWAP3 ADD PUSH2 0x1BCF JUMP JUMPDEST PUSH1 0x4 DUP6 ADD PUSH1 0x0 MSTORE PUSH1 0x20 PUSH1 0x0 KECCAK256 PUSH1 0x1F DUP5 ADD PUSH1 0x5 SHR DUP2 ADD PUSH1 0x20 DUP6 LT PUSH2 0x1C74 JUMPI JUMPDEST PUSH1 0x1F DUP4 ADD PUSH1 0x5 SHR DUP3 ADD DUP2 LT PUSH2 0x1C68 JUMPI POP POP PUSH2 0x117E JUMP JUMPDEST PUSH1 0x0 DUP2 SSTORE PUSH1 0x1 ADD PUSH2 0x1C52 JUMP JUMPDEST POP DUP1 PUSH2 0x1C52 JUMP JUMPDEST ADD MLOAD SWAP1 POP DUP5 DUP1 PUSH2 0x1130 JUMP JUMPDEST PUSH1 0x2 DUP5 ADD PUSH1 0x0 MSTORE PUSH1 0x20 PUSH1 0x0 KECCAK256 SWAP1 PUSH1 0x0 JUMPDEST PUSH1 0x1F NOT DUP5 AND DUP2 LT PUSH2 0x1CDC JUMPI POP PUSH1 0x1 SWAP4 SWAP5 SWAP6 DUP4 PUSH1 0x1F NOT DUP2 AND LT PUSH2 0x1CC3 JUMPI JUMPDEST POP POP POP DUP2 SHL ADD PUSH1 0x2 DUP4 ADD SSTORE PUSH2 0x1148 JUMP JUMPDEST ADD MLOAD PUSH1 0x0 NOT PUSH1 0xF8 DUP5 PUSH1 0x3 SHL AND SHR NOT AND SWAP1 SSTORE DUP5 DUP1 DUP1 PUSH2 0x1CB3 JUMP JUMPDEST SWAP1 SWAP2 PUSH1 0x20 PUSH1 0x1 DUP2 SWAP3 DUP6 DUP11 ADD MLOAD DUP2 SSTORE ADD SWAP4 ADD SWAP2 ADD PUSH2 0x1C96 JUMP JUMPDEST PUSH1 0x2 DUP5 ADD PUSH1 0x0 MSTORE PUSH1 0x20 PUSH1 0x0 KECCAK256 PUSH1 0x1F DUP4 ADD PUSH1 0x5 SHR DUP2 ADD PUSH1 0x20 DUP5 LT PUSH2 0x1D34 JUMPI JUMPDEST PUSH1 0x1F DUP4 ADD PUSH1 0x5 SHR DUP3 ADD DUP2 LT PUSH2 0x1D28 JUMPI POP POP PUSH2 0x1116 JUMP JUMPDEST PUSH1 0x0 DUP2 SSTORE PUSH1 0x1 ADD PUSH2 0x1D12 JUMP JUMPDEST POP DUP1 PUSH2 0x1D12 JUMP JUMPDEST ADD MLOAD SWAP1 POP DUP5 DUP1 PUSH2 0x10D2 JUMP JUMPDEST PUSH1 0x1 DUP4 ADD PUSH1 0x0 MSTORE PUSH1 0x20 PUSH1 0x0 KECCAK256 SWAP1 PUSH1 0x0 JUMPDEST PUSH1 0x1F NOT DUP5 AND DUP2 LT PUSH2 0x1D9C JUMPI POP PUSH1 0x1 SWAP4 SWAP5 SWAP6 DUP4 PUSH1 0x1F NOT DUP2 AND LT PUSH2 0x1D83 JUMPI JUMPDEST POP POP POP DUP2 SHL ADD PUSH1 0x1 DUP3 ADD SSTORE PUSH2 0x10EA JUMP JUMPDEST ADD MLOAD PUSH1 0x0 NOT PUSH1 0xF8 DUP5 PUSH1 0x3 SHL AND SHR NOT AND SWAP1 SSTORE DUP5 DUP1 DUP1 PUSH2 0x1D73 JUMP JUMPDEST SWAP1 SWAP2 PUSH1 0x20 PUSH1 0x1 DUP2 SWAP3 DUP6 DUP11 ADD MLOAD DUP2 SSTORE ADD SWAP4 ADD SWAP2 ADD PUSH2 0x1D56 JUMP JUMPDEST PUSH1 0x1 DUP4 ADD PUSH1 0x0 MSTORE PUSH1 0x20 PUSH1 0x0 KECCAK256 PUSH1 0x1F DUP4 ADD PUSH1 0x5 SHR DUP2 ADD PUSH1 0x20 DUP5 LT PUSH2 0x1DF4 JUMPI JUMPDEST PUSH1 0x1F DUP4 ADD PUSH1 0x5 SHR DUP3 ADD DUP2 LT PUSH2 0x1DE8 JUMPI POP POP PUSH2 0x10B8 JUMP JUMPDEST PUSH1 0x0 DUP2 SSTORE PUSH1 0x1 ADD PUSH2 0x1DD2 JUMP JUMPDEST POP DUP1 PUSH2 0x1DD2 JUMP JUMPDEST ADD MLOAD SWAP1 POP DUP7 DUP1 PUSH2 0xF38 JUMP JUMPDEST SWAP1 PUSH1 0x4 DUP6 ADD PUSH1 0x0 MSTORE PUSH1 0x20 PUSH1 0x0 KECCAK256 SWAP2 PUSH1 0x0 JUMPDEST PUSH1 0x1F NOT DUP6 AND DUP2 LT PUSH2 0x1E64 JUMPI POP SWAP3 PUSH1 0xB SWAP5 SWAP3 PUSH1 0x1 SWAP3 PUSH2 0x160 SWAP6 DUP4 PUSH1 0x1F NOT DUP2 AND LT PUSH2 0x1E4B JUMPI JUMPDEST POP POP POP DUP2 SHL ADD PUSH1 0x4 DUP6 ADD SSTORE PUSH2 0xF50 JUMP JUMPDEST ADD MLOAD PUSH1 0x0 NOT PUSH1 0xF8 DUP5 PUSH1 0x3 SHL AND SHR NOT AND SWAP1 SSTORE DUP7 DUP1 DUP1 PUSH2 0x1E3B JUMP JUMPDEST SWAP2 SWAP3 PUSH1 0x20 PUSH1 0x1 DUP2 SWAP3 DUP7 DUP6 ADD MLOAD DUP2 SSTORE ADD SWAP5 ADD SWAP3 ADD PUSH2 0x1E17 JUMP JUMPDEST PUSH1 0x4 DUP6 ADD PUSH1 0x0 MSTORE PUSH1 0x20 PUSH1 0x0 KECCAK256 PUSH1 0x1F DUP5 ADD PUSH1 0x5 SHR DUP2 ADD PUSH1 0x20 DUP6 LT PUSH2 0x1EBC JUMPI JUMPDEST PUSH1 0x1F DUP4 ADD PUSH1 0x5 SHR DUP3 ADD DUP2 LT PUSH2 0x1EB0 JUMPI POP POP PUSH2 0xF17 JUMP JUMPDEST PUSH1 0x0 DUP2 SSTORE PUSH1 0x1 ADD PUSH2 0x1E9A JUMP JUMPDEST POP DUP1 PUSH2 0x1E9A JUMP JUMPDEST ADD MLOAD SWAP1 POP DUP5 DUP1 PUSH2 0xEC9 JUMP JUMPDEST PUSH1 0x2 DUP5 ADD PUSH1 0x0 MSTORE PUSH1 0x20 PUSH1 0x0 KECCAK256 SWAP1 PUSH1 0x0 JUMPDEST PUSH1 0x1F NOT DUP5 AND DUP2 LT PUSH2 0x1F24 JUMPI POP PUSH1 0x1 SWAP4 SWAP5 SWAP6 DUP4 PUSH1 0x1F NOT DUP2 AND LT PUSH2 0x1F0B JUMPI JUMPDEST POP POP POP DUP2 SHL ADD PUSH1 0x2 DUP4 ADD SSTORE PUSH2 0xEE1 JUMP JUMPDEST ADD MLOAD PUSH1 0x0 NOT PUSH1 0xF8 DUP5 PUSH1 0x3 SHL AND SHR NOT AND SWAP1 SSTORE DUP5 DUP1 DUP1 PUSH2 0x1EFB JUMP JUMPDEST SWAP1 SWAP2 PUSH1 0x20 PUSH1 0x1 DUP2 SWAP3 DUP6 DUP11 ADD MLOAD DUP2 SSTORE ADD SWAP4 ADD SWAP2 ADD PUSH2 0x1EDE JUMP JUMPDEST PUSH1 0x2 DUP5 ADD PUSH1 0x0 MSTORE PUSH1 0x20 PUSH1 0x0 KECCAK256 PUSH1 0x1F DUP4 ADD PUSH1 0x5 SHR DUP2 ADD PUSH1 0x20 DUP5 LT PUSH2 0x1F7C JUMPI JUMPDEST PUSH1 0x1F DUP4 ADD PUSH1 0x5 SHR DUP3 ADD DUP2 LT PUSH2 0x1F70 JUMPI POP POP PUSH2 0xEAF JUMP JUMPDEST PUSH1 0x0 DUP2 SSTORE PUSH1 0x1 ADD PUSH2 0x1F5A JUMP JUMPDEST POP DUP1 PUSH2 0x1F5A JUMP JUMPDEST ADD MLOAD SWAP1 POP DUP5 DUP1 PUSH2 0xE6B JUMP JUMPDEST PUSH1 0x1 DUP4 ADD PUSH1 0x0 MSTORE PUSH1 0x20 PUSH1 0x0 KECCAK256 SWAP1 PUSH1 0x0 JUMPDEST PUSH1 0x1F NOT DUP5 AND DUP2 LT PUSH2 0x1FE4 JUMPI POP PUSH1 0x1 SWAP4 SWAP5 SWAP6 DUP4 PUSH1 0x1F NOT DUP2 AND LT PUSH2 0x1FCB JUMPI JUMPDEST POP POP POP DUP2 SHL ADD PUSH1 0x1 DUP3 ADD SSTORE PUSH2 0xE83 JUMP JUMPDEST ADD MLOAD PUSH1 0x0 NOT PUSH1 0xF8 DUP5 PUSH1 0x3 SHL AND SHR NOT AND SWAP1 SSTORE DUP5 DUP1 DUP1 PUSH2 0x1FBB JUMP JUMPDEST SWAP1 SWAP2 PUSH1 0x20 PUSH1 0x1 DUP2 SWAP3 DUP6 DUP11 ADD MLOAD DUP2 SSTORE ADD SWAP4 ADD SWAP2 ADD PUSH2 0x1F9E JUMP JUMPDEST PUSH1 0x1 DUP4 ADD PUSH1 0x0 MSTORE PUSH1 0x20 PUSH1 0x0 KECCAK256 PUSH1 0x1F DUP4 ADD PUSH1 0x5 SHR DUP2 ADD PUSH1 0x20 DUP5 LT PUSH2 0x203C JUMPI JUMPDEST PUSH1 0x1F DUP4 ADD PUSH1 0x5 SHR DUP3 ADD DUP2 LT PUSH2 0x2030 JUMPI POP POP PUSH2 0xE51 JUMP JUMPDEST PUSH1 0x0 DUP2 SSTORE PUSH1 0x1 ADD PUSH2 0x201A JUMP JUMPDEST POP DUP1 PUSH2 0x201A JUMP JUMPDEST ADD MLOAD SWAP1 POP DUP7 DUP1 PUSH2 0xCD3 JUMP JUMPDEST SWAP1 PUSH1 0x4 DUP6 ADD PUSH1 0x0 MSTORE PUSH1 0x20 PUSH1 0x0 KECCAK256 SWAP2 PUSH1 0x0 JUMPDEST PUSH1 0x1F NOT DUP6 AND DUP2 LT PUSH2 0x20AC JUMPI POP SWAP3 PUSH1 0xB SWAP5 SWAP3 PUSH1 0x1 SWAP3 PUSH2 0x160 SWAP6 DUP4 PUSH1 0x1F NOT DUP2 AND LT PUSH2 0x2093 JUMPI JUMPDEST POP POP POP DUP2 SHL ADD PUSH1 0x4 DUP6 ADD SSTORE PUSH2 0xCEB JUMP JUMPDEST ADD MLOAD PUSH1 0x0 NOT PUSH1 0xF8 DUP5 PUSH1 0x3 SHL AND SHR NOT AND SWAP1 SSTORE DUP7 DUP1 DUP1 PUSH2 0x2083 JUMP JUMPDEST SWAP2 SWAP3 PUSH1 0x20 PUSH1 0x1 DUP2 SWAP3 DUP7 DUP6 ADD MLOAD DUP2 SSTORE ADD SWAP5 ADD SWAP3 ADD PUSH2 0x205F JUMP JUMPDEST PUSH1 0x4 DUP6 ADD PUSH1 0x0 MSTORE PUSH1 0x20 PUSH1 0x0 KECCAK256 PUSH1 0x1F DUP5 ADD PUSH1 0x5 SHR DUP2 ADD PUSH1 0x20 DUP6 LT PUSH2 0x2104 JUMPI JUMPDEST PUSH1 0x1F DUP4 ADD PUSH1 0x5 SHR DUP3 ADD DUP2 LT PUSH2 0x20F8 JUMPI POP POP PUSH2 0xCB2 JUMP JUMPDEST PUSH1 0x0 DUP2 SSTORE PUSH1 0x1 ADD PUSH2 0x20E2 JUMP JUMPDEST POP DUP1 PUSH2 0x20E2 JUMP JUMPDEST ADD MLOAD SWAP1 POP DUP5 DUP1 PUSH2 0xC64 JUMP JUMPDEST PUSH1 0x2 DUP5 ADD PUSH1 0x0 MSTORE PUSH1 0x20 PUSH1 0x0 KECCAK256 SWAP1 PUSH1 0x0 JUMPDEST PUSH1 0x1F NOT DUP5 AND DUP2 LT PUSH2 0x216C JUMPI POP PUSH1 0x1 SWAP4 SWAP5 SWAP6 DUP4 PUSH1 0x1F NOT DUP2 AND LT PUSH2 0x2153 JUMPI JUMPDEST POP POP POP DUP2 SHL ADD PUSH1 0x2 DUP4 ADD SSTORE PUSH2 0xC7C JUMP JUMPDEST ADD MLOAD PUSH1 0x0 NOT PUSH1 0xF8 DUP5 PUSH1 0x3 SHL AND SHR NOT AND SWAP1 SSTORE DUP5 DUP1 DUP1 PUSH2 0x2143 JUMP JUMPDEST SWAP1 SWAP2 PUSH1 0x20 PUSH1 0x1 DUP2 SWAP3 DUP6 DUP11 ADD MLOAD DUP2 SSTORE ADD SWAP4 ADD SWAP2 ADD PUSH2 0x2126 JUMP JUMPDEST PUSH1 0x2 DUP5 ADD PUSH1 0x0 MSTORE PUSH1 0x20 PUSH1 0x0 KECCAK256 PUSH1 0x1F DUP4 ADD PUSH1 0x5 SHR DUP2 ADD PUSH1 0x20 DUP5 LT PUSH2 0x21C4 JUMPI JUMPDEST PUSH1 0x1F DUP4 ADD PUSH1 0x5 SHR DUP3 ADD DUP2 LT PUSH2 0x21B8 JUMPI POP POP PUSH2 0xC4A JUMP JUMPDEST PUSH1 0x0 DUP2 SSTORE PUSH1 0x1 ADD PUSH2 0x21A2 JUMP JUMPDEST POP DUP1 PUSH2 0x21A2 JUMP JUMPDEST ADD MLOAD SWAP1 POP DUP5 DUP1 PUSH2 0xC06 JUMP JUMPDEST PUSH1 0x1 DUP4 ADD PUSH1 0x0 MSTORE PUSH1 0x20 PUSH1 0x0 KECCAK256 SWAP1 PUSH1 0x0 JUMPDEST PUSH1 0x1F NOT DUP5 AND DUP2 LT PUSH2 0x222C JUMPI POP PUSH1 0x1 SWAP4 SWAP5 SWAP6 DUP4 PUSH1 0x1F NOT DUP2 AND LT PUSH2 0x2213 JUMPI JUMPDEST POP POP POP DUP2 SHL ADD PUSH1 0x1 DUP3 ADD SSTORE PUSH2 0xC1E JUMP JUMPDEST ADD MLOAD PUSH1 0x0 NOT PUSH1 0xF8 DUP5 PUSH1 0x3 SHL AND SHR NOT AND SWAP1 SSTORE DUP5 DUP1 DUP1 PUSH2 0x2203 JUMP JUMPDEST SWAP1 SWAP2 PUSH1 0x20 PUSH1 0x1 DUP2 SWAP3 DUP6 DUP11 ADD MLOAD DUP2 SSTORE ADD SWAP4 ADD SWAP2 ADD PUSH2 0x21E6 JUMP JUMPDEST PUSH1 0x1 DUP4 ADD PUSH1 0x0 MSTORE PUSH1 0x20 PUSH1 0x0 KECCAK256 PUSH1 0x1F DUP4 ADD PUSH1 0x5 SHR DUP2 ADD PUSH1 0x20 DUP5 LT PUSH2 0x2284 JUMPI JUMPDEST PUSH1 0x1F DUP4 ADD PUSH1 0x5 SHR DUP3 ADD DUP2 LT PUSH2 0x2278 JUMPI POP POP PUSH2 0xBEC JUMP JUMPDEST PUSH1 0x0 DUP2 SSTORE PUSH1 0x1 ADD PUSH2 0x2262 JUMP JUMPDEST POP DUP1 PUSH2 0x2262 JUMP JUMPDEST ADD MLOAD SWAP1 POP DUP7 DUP1 PUSH2 0xA56 JUMP JUMPDEST SWAP1 PUSH1 0x4 DUP6 ADD PUSH1 0x0 MSTORE PUSH1 0x20 PUSH1 0x0 KECCAK256 SWAP2 PUSH1 0x0 JUMPDEST PUSH1 0x1F NOT DUP6 AND DUP2 LT PUSH2 0x22F4 JUMPI POP SWAP3 PUSH1 0xB SWAP5 SWAP3 PUSH1 0x1 SWAP3 PUSH2 0x160 SWAP6 DUP4 PUSH1 0x1F NOT DUP2 AND LT PUSH2 0x22DB JUMPI JUMPDEST POP POP POP DUP2 SHL ADD PUSH1 0x4 DUP6 ADD SSTORE PUSH2 0xA6E JUMP JUMPDEST ADD MLOAD PUSH1 0x0 NOT PUSH1 0xF8 DUP5 PUSH1 0x3 SHL AND SHR NOT AND SWAP1 SSTORE DUP7 DUP1 DUP1 PUSH2 0x22CB JUMP JUMPDEST SWAP2 SWAP3 PUSH1 0x20 PUSH1 0x1 DUP2 SWAP3 DUP7 DUP6 ADD MLOAD DUP2 SSTORE ADD SWAP5 ADD SWAP3 ADD PUSH2 0x22A7 JUMP JUMPDEST PUSH1 0x4 DUP6 ADD PUSH1 0x0 MSTORE PUSH1 0x20 PUSH1 0x0 KECCAK256 PUSH1 0x1F DUP5 ADD PUSH1 0x5 SHR DUP2 ADD PUSH1 0x20 DUP6 LT PUSH2 0x234C JUMPI JUMPDEST PUSH1 0x1F DUP4 ADD PUSH1 0x5 SHR DUP3 ADD DUP2 LT PUSH2 0x2340 JUMPI POP POP PUSH2 0xA35 JUMP JUMPDEST PUSH1 0x0 DUP2 SSTORE PUSH1 0x1 ADD PUSH2 0x232A JUMP JUMPDEST POP DUP1 PUSH2 0x232A JUMP JUMPDEST ADD MLOAD SWAP1 POP DUP5 DUP1 PUSH2 0x9E7 JUMP JUMPDEST PUSH1 0x2 DUP5 ADD PUSH1 0x0 MSTORE PUSH1 0x20 PUSH1 0x0 KECCAK256 SWAP1 PUSH1 0x0 JUMPDEST PUSH1 0x1F NOT DUP5 AND DUP2 LT PUSH2 0x23B4 JUMPI POP PUSH1 0x1 SWAP4 SWAP5 SWAP6 DUP4 PUSH1 0x1F NOT DUP2 AND LT PUSH2 0x239B JUMPI JUMPDEST POP POP POP DUP2 SHL ADD PUSH1 0x2 DUP4 ADD SSTORE PUSH2 0x9FF JUMP JUMPDEST ADD MLOAD PUSH1 0x0 NOT PUSH1 0xF8 DUP5 PUSH1 0x3 SHL AND SHR NOT AND SWAP1 SSTORE DUP5 DUP1 DUP1 PUSH2 0x238B JUMP JUMPDEST SWAP1 SWAP2 PUSH1 0x20 PUSH1 0x1 DUP2 SWAP3 DUP6 DUP11 ADD MLOAD DUP2 SSTORE ADD SWAP4 ADD SWAP2 ADD PUSH2 0x236E JUMP JUMPDEST PUSH1 0x2 DUP5 ADD PUSH1 0x0 MSTORE PUSH1 0x20 PUSH1 0x0 KECCAK256 PUSH1 0x1F DUP4 ADD PUSH1 0x5 SHR DUP2 ADD PUSH1 0x20 DUP5 LT PUSH2 0x240C JUMPI JUMPDEST PUSH1 0x1F DUP4 ADD PUSH1 0x5 SHR DUP3 ADD DUP2 LT PUSH2 0x2400 JUMPI POP POP PUSH2 0x9CD JUMP JUMPDEST PUSH1 0x0 DUP2 SSTORE PUSH1 0x1 ADD PUSH2 0x23EA JUMP JUMPDEST POP DUP1 PUSH2 0x23EA JUMP JUMPDEST ADD MLOAD SWAP1 POP DUP5 DUP1 PUSH2 0x989 JUMP JUMPDEST PUSH1 0x1 DUP4 ADD PUSH1 0x0 MSTORE PUSH1 0x20 PUSH1 0x0 KECCAK256 SWAP1 PUSH1 0x0 JUMPDEST PUSH1 0x1F NOT DUP5 AND DUP2 LT PUSH2 0x2474 JUMPI POP PUSH1 0x1 SWAP4 SWAP5 SWAP6 DUP4 PUSH1 0x1F NOT DUP2 AND LT PUSH2 0x245B JUMPI JUMPDEST POP POP POP DUP2 SHL ADD PUSH1 0x1 DUP3 ADD SSTORE PUSH2 0x9A1 JUMP JUMPDEST ADD MLOAD PUSH1 0x0 NOT PUSH1 0xF8 DUP5 PUSH1 0x3 SHL AND SHR NOT AND SWAP1 SSTORE DUP5 DUP1 DUP1 PUSH2 0x244B JUMP JUMPDEST SWAP1 SWAP2 PUSH1 0x20 PUSH1 0x1 DUP2 SWAP3 DUP6 DUP11 ADD MLOAD DUP2 SSTORE ADD SWAP4 ADD SWAP2 ADD PUSH2 0x242E JUMP JUMPDEST PUSH1 0x1 DUP4 ADD PUSH1 0x0 MSTORE PUSH1 0x20 PUSH1 0x0 KECCAK256 PUSH1 0x1F DUP4 ADD PUSH1 0x5 SHR DUP2 ADD PUSH1 0x20 DUP5 LT PUSH2 0x24CC JUMPI JUMPDEST PUSH1 0x1F DUP4 ADD PUSH1 0x5 SHR DUP3 ADD DUP2 LT PUSH2 0x24C0 JUMPI POP POP PUSH2 0x96F JUMP JUMPDEST PUSH1 0x0 DUP2 SSTORE PUSH1 0x1 ADD PUSH2 0x24AA JUMP JUMPDEST POP DUP1 PUSH2 0x24AA JUMP JUMPDEST PUSH1 0x20 DUP1 PUSH1 0x3 NOT CALLDATASIZE ADD SLT PUSH2 0x12F JUMPI PUSH1 0x4 CALLDATALOAD SWAP1 PUSH2 0x24F4 PUSH1 0xFF PUSH1 0xA PUSH2 0x3E9 DUP6 PUSH2 0x31E3 JUMP JUMPDEST CALLER PUSH1 0x0 MSTORE PUSH1 0x5 DUP2 MSTORE PUSH2 0x251D PUSH1 0x2 PUSH1 0x40 PUSH1 0x0 KECCAK256 ADD SLOAD PUSH1 0x9 PUSH2 0x2513 DUP6 PUSH2 0x31E3 JUMP JUMPDEST POP ADD SLOAD GT ISZERO PUSH2 0x3384 JUMP JUMPDEST PUSH2 0x2526 DUP3 PUSH2 0x31E3 JUMP JUMPDEST POP PUSH1 0x8 ADD SLOAD PUSH1 0x1 PUSH1 0x1 PUSH1 0xA0 SHL SUB SWAP1 DUP2 AND CALLER EQ PUSH2 0x273F JUMPI PUSH1 0x8 PUSH2 0x2547 DUP5 PUSH2 0x31E3 JUMP JUMPDEST POP ADD SLOAD AND PUSH1 0x9 PUSH2 0x2556 DUP5 PUSH2 0x31E3 JUMP JUMPDEST POP ADD SLOAD CALLER PUSH1 0x0 MSTORE PUSH1 0x5 DUP4 MSTORE PUSH2 0x2574 PUSH1 0x2 PUSH1 0x40 PUSH1 0x0 KECCAK256 ADD SWAP2 DUP3 SLOAD PUSH2 0x33C6 JUMP JUMPDEST SWAP1 SSTORE PUSH1 0x9 PUSH2 0x2581 DUP5 PUSH2 0x31E3 JUMP JUMPDEST POP ADD SLOAD DUP2 PUSH1 0x0 MSTORE PUSH1 0x5 DUP4 MSTORE PUSH1 0x2 PUSH1 0x40 PUSH1 0x0 KECCAK256 ADD DUP1 SLOAD SWAP2 DUP3 ADD DUP1 SWAP3 GT PUSH2 0x2B9 JUMPI SSTORE SWAP1 PUSH1 0x8 PUSH2 0x25AD DUP5 PUSH2 0x31E3 JUMP JUMPDEST POP ADD DUP1 SLOAD PUSH1 0x1 PUSH1 0x1 PUSH1 0xA0 SHL SUB NOT AND CALLER OR SWAP1 SSTORE PUSH1 0xA PUSH2 0x25CA DUP5 PUSH2 0x31E3 JUMP JUMPDEST POP ADD PUSH1 0xFF NOT DUP2 SLOAD AND SWAP1 SSTORE DUP2 PUSH1 0x0 MSTORE PUSH1 0x8 DUP2 MSTORE PUSH1 0x40 PUSH1 0x0 KECCAK256 DUP4 PUSH1 0x0 MSTORE DUP2 MSTORE PUSH1 0x0 PUSH1 0x40 DUP2 KECCAK256 SSTORE CALLER PUSH1 0x0 MSTORE PUSH1 0x8 DUP2 MSTORE PUSH1 0x40 PUSH1 0x0 KECCAK256 DUP4 PUSH1 0x0 MSTORE DUP2 MSTORE PUSH1 0x1 SWAP2 DUP3 PUSH1 0x40 PUSH1 0x0 KECCAK256 SSTORE PUSH1 0x0 MSTORE PUSH1 0x9 DUP2 MSTORE PUSH1 0x40 PUSH1 0x0 KECCAK256 SWAP1 DUP3 PUSH1 0x0 SWAP1 JUMPDEST PUSH2 0x2694 JUMPI JUMPDEST POP PUSH1 0x9 SWAP2 POP CALLER PUSH1 0x0 MSTORE MSTORE PUSH1 0x40 PUSH1 0x0 KECCAK256 DUP1 SLOAD SWAP2 PUSH1 0x1 PUSH1 0x40 SHL DUP4 LT ISZERO PUSH2 0x678 JUMPI DUP3 DUP5 SWAP3 PUSH2 0x2653 SWAP3 PUSH2 0x266C SWAP6 ADD DUP2 SSTORE PUSH2 0x3234 JUMP JUMPDEST SWAP1 SWAP2 SWAP1 DUP3 SLOAD SWAP1 PUSH1 0x3 SHL SWAP2 DUP3 SHL SWAP2 PUSH1 0x0 NOT SWAP1 SHL NOT AND OR SWAP1 SSTORE JUMP JUMPDEST CALLER PUSH32 0x87B964EB5A2C9BEC2A555F2DAB828A37BF9C62ED6D24158233C27783AD6484D3 PUSH1 0x0 DUP1 LOG3 STOP JUMPDEST DUP5 DUP4 SLOAD DUP1 DUP4 LT ISZERO PUSH2 0x2738 JUMPI PUSH2 0x26A9 DUP4 DUP7 PUSH2 0x3234 JUMP JUMPDEST SWAP3 SWAP1 SLOAD PUSH1 0x3 SWAP4 DUP5 SHL SHR EQ PUSH2 0x26CA JUMPI POP POP PUSH1 0x0 NOT DUP2 EQ PUSH2 0x2B9 JUMPI DUP4 ADD DUP4 PUSH2 0x261D JUMP JUMPDEST PUSH1 0x0 NOT SWAP5 SWAP2 SWAP3 DUP2 DUP7 ADD SWAP2 DUP3 GT PUSH2 0x2B9 JUMPI PUSH2 0x2653 PUSH2 0x26EA PUSH2 0x26F7 SWAP4 DUP6 PUSH2 0x3234 JUMP JUMPDEST SWAP1 SLOAD SWAP1 DUP7 SHL SHR SWAP2 DUP5 PUSH2 0x3234 JUMP JUMPDEST DUP1 SLOAD SWAP4 DUP5 ISZERO PUSH2 0x2722 JUMPI DUP1 PUSH1 0x9 SWAP6 ADD SWAP3 PUSH2 0x2710 DUP5 DUP5 PUSH2 0x3234 JUMP JUMPDEST DUP2 SWAP4 SWAP2 SLOAD SWAP3 SHL SHL NOT AND SWAP1 SSTORE SSTORE DUP5 PUSH2 0x2622 JUMP JUMPDEST PUSH4 0x4E487B71 PUSH1 0xE0 SHL PUSH1 0x0 MSTORE PUSH1 0x31 PUSH1 0x4 MSTORE PUSH1 0x24 PUSH1 0x0 REVERT JUMPDEST POP POP PUSH2 0x2622 JUMP JUMPDEST PUSH1 0x40 MLOAD PUSH3 0x461BCD PUSH1 0xE5 SHL DUP2 MSTORE PUSH1 0x4 DUP2 ADD DUP4 SWAP1 MSTORE PUSH1 0x19 PUSH1 0x24 DUP3 ADD MSTORE PUSH32 0x596F7520616C7265616479206F776E2074686973207065742100000000000000 PUSH1 0x44 DUP3 ADD MSTORE PUSH1 0x64 SWAP1 REVERT JUMPDEST CALLVALUE PUSH2 0x12F JUMPI PUSH1 0x0 CALLDATASIZE PUSH1 0x3 NOT ADD SLT PUSH2 0x12F JUMPI PUSH1 0x0 SLOAD PUSH1 0x40 MLOAD PUSH1 0x1 PUSH1 0x1 PUSH1 0xA0 SHL SUB SWAP1 SWAP2 AND DUP2 MSTORE PUSH1 0x20 SWAP1 RETURN JUMPDEST CALLVALUE PUSH2 0x12F JUMPI PUSH1 0x20 CALLDATASIZE PUSH1 0x3 NOT ADD SLT PUSH2 0x12F JUMPI PUSH1 0x1 PUSH1 0x1 PUSH1 0xA0 SHL SUB PUSH2 0x27CE PUSH2 0x307A JUMP JUMPDEST AND PUSH1 0x0 MSTORE PUSH1 0x6 PUSH1 0x20 MSTORE PUSH1 0x20 PUSH1 0xFF PUSH1 0x40 PUSH1 0x0 KECCAK256 SLOAD AND PUSH1 0x40 MLOAD SWAP1 ISZERO ISZERO DUP2 MSTORE RETURN JUMPDEST CALLVALUE PUSH2 0x12F JUMPI PUSH1 0x40 CALLDATASIZE PUSH1 0x3 NOT ADD SLT PUSH2 0x12F JUMPI PUSH1 0x1 PUSH1 0x1 PUSH1 0xA0 SHL SUB PUSH2 0x280D PUSH2 0x307A JUMP JUMPDEST AND PUSH1 0x0 MSTORE PUSH1 0x8 PUSH1 0x20 MSTORE PUSH1 0x40 PUSH1 0x0 KECCAK256 PUSH1 0x24 CALLDATALOAD PUSH1 0x0 MSTORE PUSH1 0x20 MSTORE PUSH1 0x20 PUSH1 0x40 PUSH1 0x0 KECCAK256 SLOAD PUSH1 0x40 MLOAD SWAP1 DUP2 MSTORE RETURN JUMPDEST CALLVALUE PUSH2 0x12F JUMPI PUSH1 0x20 CALLDATASIZE PUSH1 0x3 NOT ADD SLT PUSH2 0x12F JUMPI PUSH2 0x285A PUSH1 0x1 DUP1 PUSH1 0xA0 SHL SUB PUSH1 0x0 SLOAD AND CALLER EQ PUSH2 0x3286 JUMP JUMPDEST PUSH1 0x4 CALLDATALOAD PUSH1 0x1 SSTORE STOP JUMPDEST CALLVALUE PUSH2 0x12F JUMPI PUSH1 0x0 CALLDATASIZE PUSH1 0x3 NOT ADD SLT PUSH2 0x12F JUMPI PUSH1 0x7 DUP1 SLOAD SWAP1 PUSH1 0x1 PUSH1 0x1 PUSH1 0x40 SHL SUB DUP3 GT PUSH2 0x678 JUMPI PUSH1 0x40 MLOAD SWAP1 PUSH1 0x20 PUSH1 0x5 SWAP4 PUSH2 0x289D DUP3 DUP3 DUP8 SHL ADD DUP6 PUSH2 0x3003 JUMP JUMPDEST DUP1 DUP5 MSTORE PUSH1 0x0 DUP4 DUP2 MSTORE DUP3 DUP6 ADD SWAP4 PUSH32 0xA66CC928B5EDB82AF9BD49922954155AB7B0942694BEA4CE44661D9A8736C688 SWAP1 DUP6 JUMPDEST DUP5 DUP5 LT PUSH2 0x29CE JUMPI POP POP POP POP POP PUSH1 0x40 MLOAD SWAP3 DUP2 DUP5 ADD SWAP1 DUP3 DUP6 MSTORE MLOAD DUP1 SWAP2 MSTORE PUSH1 0x40 DUP2 DUP2 DUP7 ADD SWAP7 SHL DUP6 ADD ADD SWAP3 SWAP2 PUSH1 0x0 SWAP6 JUMPDEST DUP3 DUP8 LT PUSH2 0x2906 JUMPI DUP6 DUP6 SUB DUP7 RETURN JUMPDEST SWAP1 SWAP2 SWAP3 SWAP4 DUP3 DUP1 PUSH1 0x1 SWAP3 PUSH1 0x3F NOT DUP10 DUP3 SUB ADD DUP6 MSTORE DUP8 MLOAD SWAP1 DUP2 MLOAD DUP2 MSTORE PUSH2 0x296B PUSH2 0x294E PUSH2 0x293C DUP6 DUP6 ADD MLOAD PUSH2 0x180 DUP1 DUP9 DUP8 ADD MSTORE DUP6 ADD SWAP1 PUSH2 0x3170 JUMP JUMPDEST PUSH1 0x40 DUP6 ADD MLOAD DUP5 DUP3 SUB PUSH1 0x40 DUP7 ADD MSTORE PUSH2 0x3170 JUMP JUMPDEST PUSH1 0x60 DUP1 DUP6 ADD MLOAD SWAP1 DUP5 ADD MSTORE PUSH1 0x80 DUP1 DUP6 ADD MLOAD SWAP1 DUP5 DUP4 SUB SWAP1 DUP6 ADD MSTORE PUSH2 0x3170 JUMP JUMPDEST SWAP2 PUSH1 0xA0 DUP1 DUP3 ADD MLOAD SWAP1 DUP4 ADD MSTORE PUSH1 0xC0 DUP1 DUP3 ADD MLOAD SWAP1 DUP4 ADD MSTORE PUSH1 0xE0 DUP2 ADD MLOAD PUSH1 0xE0 DUP4 ADD MSTORE PUSH2 0x100 DUP7 DUP1 PUSH1 0xA0 SHL SUB DUP2 DUP4 ADD MLOAD AND SWAP1 DUP4 ADD MSTORE PUSH2 0x120 DUP1 DUP3 ADD MLOAD SWAP1 DUP4 ADD MSTORE PUSH2 0x140 DUP1 DUP3 ADD MLOAD ISZERO ISZERO SWAP1 DUP4 ADD MSTORE PUSH2 0x160 DUP1 SWAP2 ADD MLOAD SWAP2 ADD MSTORE SWAP7 ADD SWAP3 ADD SWAP7 ADD SWAP6 SWAP3 SWAP2 SWAP1 SWAP3 PUSH2 0x28F9 JUMP JUMPDEST PUSH1 0xC DUP7 PUSH1 0x1 SWAP3 PUSH1 0x40 SWAP11 SWAP9 SWAP11 MLOAD PUSH2 0x29E3 DUP2 PUSH2 0x2FCC JUMP JUMPDEST DUP7 SLOAD DUP2 MSTORE PUSH2 0x29F2 DUP6 DUP9 ADD PUSH2 0x30CA JUMP JUMPDEST DUP4 DUP3 ADD MSTORE PUSH2 0x2A02 PUSH1 0x2 DUP9 ADD PUSH2 0x30CA JUMP JUMPDEST PUSH1 0x40 DUP3 ADD MSTORE PUSH1 0x3 DUP8 ADD SLOAD PUSH1 0x60 DUP3 ADD MSTORE PUSH2 0x2A1D PUSH1 0x4 DUP9 ADD PUSH2 0x30CA JUMP JUMPDEST PUSH1 0x80 DUP3 ADD MSTORE DUP13 DUP8 ADD SLOAD PUSH1 0xA0 DUP3 ADD MSTORE PUSH1 0x6 DUP8 ADD SLOAD PUSH1 0xC0 DUP3 ADD MSTORE DUP6 DUP8 ADD SLOAD PUSH1 0xE0 DUP3 ADD MSTORE DUP5 DUP1 PUSH1 0xA0 SHL SUB PUSH1 0x8 DUP9 ADD SLOAD AND PUSH2 0x100 DUP3 ADD MSTORE PUSH1 0x9 DUP8 ADD SLOAD PUSH2 0x120 DUP3 ADD MSTORE PUSH1 0xFF PUSH1 0xA DUP9 ADD SLOAD AND ISZERO ISZERO PUSH2 0x140 DUP3 ADD MSTORE PUSH1 0xB DUP8 ADD SLOAD PUSH2 0x160 DUP3 ADD MSTORE DUP2 MSTORE ADD SWAP4 ADD SWAP4 ADD SWAP3 SWAP2 SWAP7 SWAP5 SWAP7 PUSH2 0x28CD JUMP JUMPDEST CALLVALUE PUSH2 0x12F JUMPI PUSH1 0x20 CALLDATASIZE PUSH1 0x3 NOT ADD SLT PUSH2 0x12F JUMPI PUSH1 0x1 PUSH1 0x1 PUSH1 0xA0 SHL SUB DUP1 PUSH2 0x2AA9 PUSH2 0x307A JUMP JUMPDEST AND PUSH1 0x0 MSTORE PUSH1 0x5 PUSH1 0x20 MSTORE PUSH1 0x40 PUSH1 0x0 KECCAK256 SWAP1 DUP2 SLOAD AND PUSH2 0x35D PUSH2 0x342 PUSH1 0x1 DUP5 ADD PUSH2 0x30CA JUMP JUMPDEST CALLVALUE PUSH2 0x12F JUMPI PUSH2 0x180 CALLDATASIZE PUSH1 0x3 NOT ADD SLT PUSH2 0x12F JUMPI PUSH1 0x24 CALLDATALOAD PUSH1 0x1 PUSH1 0x1 PUSH1 0x40 SHL SUB DUP2 GT PUSH2 0x12F JUMPI PUSH2 0x2AFB SWAP1 CALLDATASIZE SWAP1 PUSH1 0x4 ADD PUSH2 0x3024 JUMP JUMPDEST PUSH1 0x44 CALLDATALOAD PUSH1 0x1 PUSH1 0x1 PUSH1 0x40 SHL SUB DUP2 GT PUSH2 0x12F JUMPI PUSH2 0x2B1A SWAP1 CALLDATASIZE SWAP1 PUSH1 0x4 ADD PUSH2 0x3024 JUMP JUMPDEST PUSH1 0x84 CALLDATALOAD PUSH1 0x1 PUSH1 0x1 PUSH1 0x40 SHL SUB DUP2 GT PUSH2 0x12F JUMPI PUSH2 0x2B39 SWAP1 CALLDATASIZE SWAP1 PUSH1 0x4 ADD PUSH2 0x3024 JUMP JUMPDEST PUSH2 0x104 CALLDATALOAD PUSH1 0x1 PUSH1 0x1 PUSH1 0xA0 SHL SUB DUP2 AND SWAP2 SWAP1 DUP3 SWAP1 SUB PUSH2 0x12F JUMPI PUSH2 0x144 CALLDATALOAD SWAP3 DUP4 ISZERO ISZERO DUP1 SWAP5 SUB PUSH2 0x12F JUMPI PUSH2 0x2B74 PUSH1 0x1 DUP1 PUSH1 0xA0 SHL SUB PUSH1 0x0 SLOAD AND CALLER EQ PUSH2 0x3286 JUMP JUMPDEST PUSH1 0x40 MLOAD SWAP5 PUSH2 0x2B81 DUP7 PUSH2 0x2FCC JUMP JUMPDEST PUSH1 0x4 CALLDATALOAD DUP7 MSTORE PUSH1 0x20 DUP7 ADD MSTORE PUSH1 0x40 DUP6 ADD MSTORE PUSH1 0x64 CALLDATALOAD PUSH1 0x60 DUP6 ADD MSTORE PUSH1 0x80 DUP5 ADD MSTORE PUSH1 0xA4 CALLDATALOAD PUSH1 0xA0 DUP5 ADD MSTORE PUSH1 0xC4 CALLDATALOAD PUSH1 0xC0 DUP5 ADD MSTORE PUSH1 0xE4 CALLDATALOAD PUSH1 0xE0 DUP5 ADD MSTORE PUSH2 0x100 DUP4 ADD MSTORE PUSH2 0x124 CALLDATALOAD PUSH2 0x120 DUP4 ADD MSTORE PUSH2 0x140 DUP3 ADD MSTORE PUSH1 0x0 PUSH2 0x160 DUP3 ADD MSTORE PUSH1 0x7 SLOAD PUSH1 0x1 PUSH1 0x40 SHL DUP2 LT ISZERO PUSH2 0x678 JUMPI DUP1 PUSH1 0x1 PUSH2 0x2BF2 SWAP3 ADD PUSH1 0x7 SSTORE PUSH2 0x31E3 JUMP JUMPDEST SWAP2 SWAP1 SWAP2 PUSH2 0x662 JUMPI DUP1 MLOAD DUP3 SSTORE PUSH1 0x20 DUP2 ADD MLOAD SWAP2 DUP3 MLOAD PUSH1 0x1 PUSH1 0x1 PUSH1 0x40 SHL SUB DUP2 GT PUSH2 0x678 JUMPI PUSH2 0x2C20 PUSH1 0x1 DUP4 ADD SLOAD PUSH2 0x3090 JUMP JUMPDEST PUSH1 0x1F DUP2 GT PUSH2 0x2F6A JUMPI JUMPDEST POP PUSH1 0x20 PUSH1 0x1F DUP3 GT PUSH1 0x1 EQ PUSH2 0x2EFE JUMPI DUP2 SWAP3 SWAP4 SWAP5 PUSH1 0x0 SWAP3 PUSH2 0x2EF3 JUMPI JUMPDEST POP POP DUP2 PUSH1 0x1 SHL SWAP2 PUSH1 0x0 NOT SWAP1 PUSH1 0x3 SHL SHR NOT AND OR PUSH1 0x1 DUP3 ADD SSTORE JUMPDEST PUSH1 0x40 DUP3 ADD MLOAD SWAP2 DUP3 MLOAD PUSH1 0x1 PUSH1 0x1 PUSH1 0x40 SHL SUB DUP2 GT PUSH2 0x678 JUMPI PUSH2 0x2C7E PUSH1 0x2 DUP5 ADD SLOAD PUSH2 0x3090 JUMP JUMPDEST PUSH1 0x1F DUP2 GT PUSH2 0x2EAC JUMPI JUMPDEST POP PUSH1 0x20 PUSH1 0x1F DUP3 GT PUSH1 0x1 EQ PUSH2 0x2E3E JUMPI DUP2 SWAP3 SWAP4 SWAP5 PUSH1 0x0 SWAP3 PUSH2 0x2E33 JUMPI JUMPDEST POP POP DUP2 PUSH1 0x1 SHL SWAP2 PUSH1 0x0 NOT SWAP1 PUSH1 0x3 SHL SHR NOT AND OR PUSH1 0x2 DUP4 ADD SSTORE JUMPDEST PUSH1 0x60 DUP2 ADD MLOAD PUSH1 0x3 DUP4 ADD SSTORE PUSH1 0x80 DUP2 ADD MLOAD DUP1 MLOAD SWAP1 PUSH1 0x1 PUSH1 0x1 PUSH1 0x40 SHL SUB DUP3 GT PUSH2 0x678 JUMPI PUSH2 0x2CE6 PUSH1 0x4 DUP6 ADD SLOAD PUSH2 0x3090 JUMP JUMPDEST PUSH1 0x1F DUP2 GT PUSH2 0x2DEC JUMPI JUMPDEST POP PUSH1 0x20 SWAP1 PUSH1 0x1F DUP4 GT PUSH1 0x1 EQ PUSH2 0x2D92 JUMPI SWAP2 DUP1 PUSH1 0xB SWAP5 SWAP3 PUSH2 0x160 SWAP5 PUSH1 0x0 SWAP3 PUSH2 0x1725 JUMPI POP POP DUP2 PUSH1 0x1 SHL SWAP2 PUSH1 0x0 NOT SWAP1 PUSH1 0x3 SHL SHR NOT AND OR PUSH1 0x4 DUP6 ADD SSTORE PUSH1 0xA0 DUP2 ADD MLOAD PUSH1 0x5 DUP6 ADD SSTORE PUSH1 0xC0 DUP2 ADD MLOAD PUSH1 0x6 DUP6 ADD SSTORE PUSH1 0xE0 DUP2 ADD MLOAD PUSH1 0x7 DUP6 ADD SSTORE PUSH1 0x8 DUP5 ADD PUSH1 0x1 DUP1 PUSH1 0xA0 SHL SUB PUSH2 0x100 DUP4 ADD MLOAD AND PUSH1 0x1 PUSH1 0x1 PUSH1 0x60 SHL SUB PUSH1 0xA0 SHL DUP3 SLOAD AND OR SWAP1 SSTORE PUSH2 0x120 DUP2 ADD MLOAD PUSH1 0x9 DUP6 ADD SSTORE PUSH2 0x171E PUSH2 0x140 DUP3 ADD MLOAD ISZERO ISZERO PUSH1 0xA DUP7 ADD SWAP1 PUSH1 0xFF DUP1 NOT DUP4 SLOAD AND SWAP2 ISZERO ISZERO AND OR SWAP1 SSTORE JUMP JUMPDEST SWAP1 PUSH1 0x1F NOT DUP4 AND SWAP2 PUSH1 0x4 DUP7 ADD PUSH1 0x0 MSTORE PUSH1 0x20 PUSH1 0x0 KECCAK256 SWAP3 PUSH1 0x0 JUMPDEST DUP2 DUP2 LT PUSH2 0x2DD4 JUMPI POP SWAP3 PUSH1 0x1 SWAP3 DUP6 SWAP3 PUSH2 0x160 SWAP7 PUSH1 0xB SWAP9 SWAP7 LT PUSH2 0x1775 JUMPI POP POP POP DUP2 SHL ADD PUSH1 0x4 DUP6 ADD SSTORE PUSH2 0x16B2 JUMP JUMPDEST SWAP3 SWAP4 PUSH1 0x20 PUSH1 0x1 DUP2 SWAP3 DUP8 DUP7 ADD MLOAD DUP2 SSTORE ADD SWAP6 ADD SWAP4 ADD PUSH2 0x2DA9 JUMP JUMPDEST PUSH1 0x4 DUP6 ADD PUSH1 0x0 MSTORE PUSH1 0x20 PUSH1 0x0 KECCAK256 PUSH1 0x1F DUP5 ADD PUSH1 0x5 SHR DUP2 ADD PUSH1 0x20 DUP6 LT PUSH2 0x2E2C JUMPI JUMPDEST PUSH1 0x1F DUP4 ADD PUSH1 0x5 SHR DUP3 ADD DUP2 LT PUSH2 0x2E20 JUMPI POP POP PUSH2 0x2CEF JUMP JUMPDEST PUSH1 0x0 DUP2 SSTORE PUSH1 0x1 ADD PUSH2 0x2E0A JUMP JUMPDEST POP DUP1 PUSH2 0x2E0A JUMP JUMPDEST ADD MLOAD SWAP1 POP DUP5 DUP1 PUSH2 0x2CA1 JUMP JUMPDEST PUSH1 0x2 DUP5 ADD PUSH1 0x0 MSTORE PUSH1 0x20 PUSH1 0x0 KECCAK256 SWAP1 PUSH1 0x0 JUMPDEST PUSH1 0x1F NOT DUP5 AND DUP2 LT PUSH2 0x2E94 JUMPI POP PUSH1 0x1 SWAP4 SWAP5 SWAP6 DUP4 PUSH1 0x1F NOT DUP2 AND LT PUSH2 0x2E7B JUMPI JUMPDEST POP POP POP DUP2 SHL ADD PUSH1 0x2 DUP4 ADD SSTORE PUSH2 0x2CB9 JUMP JUMPDEST ADD MLOAD PUSH1 0x0 NOT PUSH1 0xF8 DUP5 PUSH1 0x3 SHL AND SHR NOT AND SWAP1 SSTORE DUP5 DUP1 DUP1 PUSH2 0x2E6B JUMP JUMPDEST SWAP1 SWAP2 PUSH1 0x20 PUSH1 0x1 DUP2 SWAP3 DUP6 DUP11 ADD MLOAD DUP2 SSTORE ADD SWAP4 ADD SWAP2 ADD PUSH2 0x2E4E JUMP JUMPDEST PUSH1 0x2 DUP5 ADD PUSH1 0x0 MSTORE PUSH1 0x20 PUSH1 0x0 KECCAK256 PUSH1 0x1F DUP4 ADD PUSH1 0x5 SHR DUP2 ADD PUSH1 0x20 DUP5 LT PUSH2 0x2EEC JUMPI JUMPDEST PUSH1 0x1F DUP4 ADD PUSH1 0x5 SHR DUP3 ADD DUP2 LT PUSH2 0x2EE0 JUMPI POP POP PUSH2 0x2C87 JUMP JUMPDEST PUSH1 0x0 DUP2 SSTORE PUSH1 0x1 ADD PUSH2 0x2ECA JUMP JUMPDEST POP DUP1 PUSH2 0x2ECA JUMP JUMPDEST ADD MLOAD SWAP1 POP DUP5 DUP1 PUSH2 0x2C43 JUMP JUMPDEST PUSH1 0x1 DUP4 ADD PUSH1 0x0 MSTORE PUSH1 0x20 PUSH1 0x0 KECCAK256 SWAP1 PUSH1 0x0 PUSH1 0x1F NOT DUP5 AND SWAP1 JUMPDEST DUP2 DUP2 LT PUSH2 0x2F52 JUMPI POP SWAP6 DUP4 PUSH1 0x1 SWAP6 SWAP7 SWAP8 LT PUSH2 0x2F39 JUMPI JUMPDEST POP POP POP DUP2 SHL ADD PUSH1 0x1 DUP3 ADD SSTORE PUSH2 0x2C5B JUMP JUMPDEST ADD MLOAD PUSH1 0x0 NOT PUSH1 0xF8 DUP5 PUSH1 0x3 SHL AND SHR NOT AND SWAP1 SSTORE DUP5 DUP1 DUP1 PUSH2 0x2F29 JUMP JUMPDEST SWAP2 SWAP3 PUSH1 0x20 PUSH1 0x1 DUP2 SWAP3 DUP7 DUP12 ADD MLOAD DUP2 SSTORE ADD SWAP5 ADD SWAP3 ADD PUSH2 0x2F14 JUMP JUMPDEST PUSH1 0x1 DUP4 ADD PUSH1 0x0 MSTORE PUSH1 0x20 PUSH1 0x0 KECCAK256 PUSH1 0x1F DUP4 ADD PUSH1 0x5 SHR DUP2 ADD PUSH1 0x20 DUP5 LT PUSH2 0x2FAA JUMPI JUMPDEST PUSH1 0x1F DUP4 ADD PUSH1 0x5 SHR DUP3 ADD DUP2 LT PUSH2 0x2F9E JUMPI POP POP PUSH2 0x2C29 JUMP JUMPDEST PUSH1 0x0 DUP2 SSTORE PUSH1 0x1 ADD PUSH2 0x2F88 JUMP JUMPDEST POP DUP1 PUSH2 0x2F88 JUMP JUMPDEST CALLVALUE PUSH2 0x12F JUMPI PUSH1 0x0 CALLDATASIZE PUSH1 0x3 NOT ADD SLT PUSH2 0x12F JUMPI PUSH1 0x20 SWAP1 PUSH1 0x1 SLOAD DUP2 MSTORE RETURN JUMPDEST PUSH2 0x180 DUP2 ADD SWAP1 DUP2 LT PUSH1 0x1 PUSH1 0x1 PUSH1 0x40 SHL SUB DUP3 GT OR PUSH2 0x678 JUMPI PUSH1 0x40 MSTORE JUMP JUMPDEST PUSH1 0x40 DUP2 ADD SWAP1 DUP2 LT PUSH1 0x1 PUSH1 0x1 PUSH1 0x40 SHL SUB DUP3 GT OR PUSH2 0x678 JUMPI PUSH1 0x40 MSTORE JUMP JUMPDEST SWAP1 PUSH1 0x1F DUP1 NOT SWAP2 ADD AND DUP2 ADD SWAP1 DUP2 LT PUSH1 0x1 PUSH1 0x1 PUSH1 0x40 SHL SUB DUP3 GT OR PUSH2 0x678 JUMPI PUSH1 0x40 MSTORE JUMP JUMPDEST DUP2 PUSH1 0x1F DUP3 ADD SLT ISZERO PUSH2 0x12F JUMPI DUP1 CALLDATALOAD SWAP1 PUSH1 0x1 PUSH1 0x1 PUSH1 0x40 SHL SUB DUP3 GT PUSH2 0x678 JUMPI PUSH1 0x40 MLOAD SWAP3 PUSH2 0x3058 PUSH1 0x1F DUP5 ADD PUSH1 0x1F NOT AND PUSH1 0x20 ADD DUP6 PUSH2 0x3003 JUMP JUMPDEST DUP3 DUP5 MSTORE PUSH1 0x20 DUP4 DUP4 ADD ADD GT PUSH2 0x12F JUMPI DUP2 PUSH1 0x0 SWAP3 PUSH1 0x20 DUP1 SWAP4 ADD DUP4 DUP7 ADD CALLDATACOPY DUP4 ADD ADD MSTORE SWAP1 JUMP JUMPDEST PUSH1 0x4 CALLDATALOAD SWAP1 PUSH1 0x1 PUSH1 0x1 PUSH1 0xA0 SHL SUB DUP3 AND DUP3 SUB PUSH2 0x12F JUMPI JUMP JUMPDEST SWAP1 PUSH1 0x1 DUP3 DUP2 SHR SWAP3 AND DUP1 ISZERO PUSH2 0x30C0 JUMPI JUMPDEST PUSH1 0x20 DUP4 LT EQ PUSH2 0x30AA JUMPI JUMP JUMPDEST PUSH4 0x4E487B71 PUSH1 0xE0 SHL PUSH1 0x0 MSTORE PUSH1 0x22 PUSH1 0x4 MSTORE PUSH1 0x24 PUSH1 0x0 REVERT JUMPDEST SWAP2 PUSH1 0x7F AND SWAP2 PUSH2 0x309F JUMP JUMPDEST SWAP1 PUSH1 0x40 MLOAD SWAP2 DUP3 PUSH1 0x0 DUP3 SLOAD SWAP3 PUSH2 0x30DE DUP5 PUSH2 0x3090 JUMP JUMPDEST SWAP1 DUP2 DUP5 MSTORE PUSH1 0x1 SWAP5 DUP6 DUP2 AND SWAP1 DUP2 PUSH1 0x0 EQ PUSH2 0x314D JUMPI POP PUSH1 0x1 EQ PUSH2 0x310A JUMPI JUMPDEST POP POP PUSH2 0x3108 SWAP3 POP SUB DUP4 PUSH2 0x3003 JUMP JUMPDEST JUMP JUMPDEST SWAP1 SWAP4 SWAP2 POP PUSH1 0x0 MSTORE PUSH1 0x20 SWAP1 DUP2 PUSH1 0x0 KECCAK256 SWAP4 PUSH1 0x0 SWAP2 JUMPDEST DUP2 DUP4 LT PUSH2 0x3135 JUMPI POP POP PUSH2 0x3108 SWAP4 POP DUP3 ADD ADD CODESIZE DUP1 PUSH2 0x30FA JUMP JUMPDEST DUP6 SLOAD DUP9 DUP5 ADD DUP6 ADD MSTORE SWAP5 DUP6 ADD SWAP5 DUP8 SWAP5 POP SWAP2 DUP4 ADD SWAP2 PUSH2 0x311D JUMP JUMPDEST SWAP2 POP POP PUSH2 0x3108 SWAP5 POP PUSH1 0x20 SWAP3 POP PUSH1 0xFF NOT AND DUP3 DUP5 ADD MSTORE ISZERO ISZERO PUSH1 0x5 SHL DUP3 ADD ADD CODESIZE DUP1 PUSH2 0x30FA JUMP JUMPDEST SWAP2 SWAP1 DUP3 MLOAD SWAP3 DUP4 DUP3 MSTORE PUSH1 0x0 JUMPDEST DUP5 DUP2 LT PUSH2 0x319C JUMPI POP POP DUP3 PUSH1 0x0 PUSH1 0x20 DUP1 SWAP5 SWAP6 DUP5 ADD ADD MSTORE PUSH1 0x1F DUP1 NOT SWAP2 ADD AND ADD ADD SWAP1 JUMP JUMPDEST PUSH1 0x20 DUP2 DUP4 ADD DUP2 ADD MLOAD DUP5 DUP4 ADD DUP3 ADD MSTORE ADD PUSH2 0x317B JUMP JUMPDEST SWAP3 SWAP5 SWAP4 SWAP1 PUSH1 0x60 SWAP3 PUSH2 0x31D6 SWAP2 PUSH1 0x1 DUP1 PUSH1 0xA0 SHL SUB AND DUP6 MSTORE PUSH1 0x80 PUSH1 0x20 DUP7 ADD MSTORE PUSH1 0x80 DUP6 ADD SWAP1 PUSH2 0x3170 JUMP JUMPDEST SWAP5 PUSH1 0x40 DUP5 ADD MSTORE ISZERO ISZERO SWAP2 ADD MSTORE JUMP JUMPDEST PUSH1 0x7 SLOAD DUP2 LT ISZERO PUSH2 0x321E JUMPI PUSH1 0xC SWAP1 PUSH1 0x7 PUSH1 0x0 MSTORE MUL PUSH32 0xA66CC928B5EDB82AF9BD49922954155AB7B0942694BEA4CE44661D9A8736C688 ADD SWAP1 PUSH1 0x0 SWAP1 JUMP JUMPDEST PUSH4 0x4E487B71 PUSH1 0xE0 SHL PUSH1 0x0 MSTORE PUSH1 0x32 PUSH1 0x4 MSTORE PUSH1 0x24 PUSH1 0x0 REVERT JUMPDEST DUP1 SLOAD DUP3 LT ISZERO PUSH2 0x321E JUMPI PUSH1 0x0 MSTORE PUSH1 0x20 PUSH1 0x0 KECCAK256 ADD SWAP1 PUSH1 0x0 SWAP1 JUMP JUMPDEST PUSH1 0x4 SLOAD DUP2 LT ISZERO PUSH2 0x321E JUMPI PUSH1 0x4 PUSH1 0x0 MSTORE PUSH1 0x2 SHL PUSH32 0x8A35ACFBC15FF81A39AE7D344FD709F28E8600B4AA8C65C6B64BFE7FE36BD19B ADD SWAP1 PUSH1 0x0 SWAP1 JUMP JUMPDEST ISZERO PUSH2 0x328D JUMPI JUMP JUMPDEST PUSH1 0x40 MLOAD PUSH3 0x461BCD PUSH1 0xE5 SHL DUP2 MSTORE PUSH1 0x20 PUSH1 0x4 DUP3 ADD MSTORE PUSH1 0x22 PUSH1 0x24 DUP3 ADD MSTORE PUSH32 0x4F6E6C79206F776E65722063616E2063616C6C20746869732066756E6374696F PUSH1 0x44 DUP3 ADD MSTORE PUSH2 0x6E21 PUSH1 0xF0 SHL PUSH1 0x64 DUP3 ADD MSTORE PUSH1 0x84 SWAP1 REVERT JUMPDEST PUSH1 0x40 MLOAD SWAP1 PUSH2 0x32EA DUP3 PUSH2 0x2FE8 JUMP JUMPDEST PUSH1 0x4 DUP3 MSTORE PUSH4 0x4D616C65 PUSH1 0xE0 SHL PUSH1 0x20 DUP4 ADD MSTORE JUMP JUMPDEST PUSH1 0x40 MLOAD SWAP1 PUSH2 0x330A DUP3 PUSH2 0x2FE8 JUMP JUMPDEST PUSH1 0x6 DUP3 MSTORE PUSH6 0x46656D616C65 PUSH1 0xD0 SHL PUSH1 0x20 DUP4 ADD MSTORE JUMP JUMPDEST PUSH1 0x40 MLOAD SWAP1 PUSH2 0x332C DUP3 PUSH2 0x2FE8 JUMP JUMPDEST PUSH1 0x6 DUP3 MSTORE PUSH6 0x21B7B6B6B7B7 PUSH1 0xD1 SHL PUSH1 0x20 DUP4 ADD MSTORE JUMP JUMPDEST ISZERO PUSH2 0x3348 JUMPI JUMP JUMPDEST PUSH1 0x40 MLOAD PUSH3 0x461BCD PUSH1 0xE5 SHL DUP2 MSTORE PUSH1 0x20 PUSH1 0x4 DUP3 ADD MSTORE PUSH1 0x14 PUSH1 0x24 DUP3 ADD MSTORE PUSH20 0x506574206973206E6F7420666F722073616C6521 PUSH1 0x60 SHL PUSH1 0x44 DUP3 ADD MSTORE PUSH1 0x64 SWAP1 REVERT JUMPDEST ISZERO PUSH2 0x338B JUMPI JUMP JUMPDEST PUSH1 0x40 MLOAD PUSH3 0x461BCD PUSH1 0xE5 SHL DUP2 MSTORE PUSH1 0x20 PUSH1 0x4 DUP3 ADD MSTORE PUSH1 0x13 PUSH1 0x24 DUP3 ADD MSTORE PUSH19 0x4E6F7420656E6F7567682062616C616E636521 PUSH1 0x68 SHL PUSH1 0x44 DUP3 ADD MSTORE PUSH1 0x64 SWAP1 REVERT JUMPDEST SWAP2 SWAP1 DUP3 SUB SWAP2 DUP3 GT PUSH2 0x2B9 JUMPI JUMP JUMPDEST ISZERO PUSH2 0x33DA JUMPI JUMP JUMPDEST PUSH1 0x40 MLOAD PUSH3 0x461BCD PUSH1 0xE5 SHL DUP2 MSTORE PUSH1 0x20 PUSH1 0x4 DUP3 ADD MSTORE PUSH1 0x22 PUSH1 0x24 DUP3 ADD MSTORE PUSH32 0x596F7520617265206E6F7420746865206F776E6572206F662074686973207065 PUSH1 0x44 DUP3 ADD MSTORE PUSH2 0x7421 PUSH1 0xF0 SHL PUSH1 0x64 DUP3 ADD MSTORE PUSH1 0x84 SWAP1 REVERT JUMPDEST DUP2 MLOAD DUP2 SLOAD PUSH1 0x1 PUSH1 0x1 PUSH1 0xA0 SHL SUB NOT AND PUSH1 0x1 PUSH1 0x1 PUSH1 0xA0 SHL SUB SWAP2 SWAP1 SWAP2 AND OR DUP2 SSTORE PUSH1 0x20 DUP1 DUP4 ADD MLOAD DUP1 MLOAD SWAP1 SWAP4 SWAP2 PUSH1 0x1 DUP5 DUP2 ADD SWAP3 SWAP2 PUSH1 0x1 PUSH1 0x1 PUSH1 0x40 SHL SUB DUP4 GT PUSH2 0x678 JUMPI PUSH2 0x3471 DUP5 SLOAD PUSH2 0x3090 JUMP JUMPDEST PUSH1 0x1F DUP2 GT PUSH2 0x354F JUMPI JUMPDEST POP DUP1 PUSH1 0x1F DUP5 GT PUSH1 0x1 EQ PUSH2 0x34DC JUMPI POP SWAP2 DUP1 DUP1 PUSH1 0x60 SWAP6 SWAP4 PUSH1 0x3 SWAP8 SWAP6 PUSH2 0x3108 SWAP11 PUSH1 0x0 SWAP5 PUSH2 0x34D1 JUMPI JUMPDEST POP POP SHL SWAP2 PUSH1 0x0 NOT SWAP1 DUP8 SHL SHR NOT AND OR SWAP1 SSTORE JUMPDEST PUSH1 0x40 DUP2 ADD MLOAD PUSH1 0x2 DUP6 ADD SSTORE ADD MLOAD ISZERO ISZERO SWAP2 ADD SWAP1 PUSH1 0xFF DUP1 NOT DUP4 SLOAD AND SWAP2 ISZERO ISZERO AND OR SWAP1 SSTORE JUMP JUMPDEST ADD MLOAD SWAP3 POP CODESIZE DUP1 PUSH2 0x349F JUMP JUMPDEST SWAP2 SWAP4 SWAP5 SWAP6 SWAP7 PUSH1 0x1F NOT DUP5 AND DUP7 PUSH1 0x0 MSTORE DUP4 PUSH1 0x0 KECCAK256 SWAP4 PUSH1 0x0 SWAP1 JUMPDEST DUP3 DUP3 LT PUSH2 0x3538 JUMPI POP POP SWAP3 PUSH1 0x60 SWAP6 SWAP3 DUP6 SWAP3 PUSH2 0x3108 SWAP11 SWAP10 SWAP7 PUSH1 0x3 SWAP10 SWAP7 LT PUSH2 0x3520 JUMPI JUMPDEST POP POP POP DUP2 SHL ADD SWAP1 SSTORE PUSH2 0x34B0 JUMP JUMPDEST ADD MLOAD PUSH1 0x0 NOT DUP4 DUP10 SHL PUSH1 0xF8 AND SHR NOT AND SWAP1 SSTORE CODESIZE DUP1 DUP1 PUSH2 0x3513 JUMP JUMPDEST DUP1 DUP9 DUP7 SWAP8 DUP3 SWAP5 SWAP8 DUP8 ADD MLOAD DUP2 SSTORE ADD SWAP7 ADD SWAP5 ADD SWAP1 PUSH2 0x34F3 JUMP JUMPDEST PUSH1 0x0 DUP6 DUP2 MSTORE DUP3 DUP2 KECCAK256 PUSH1 0x1F DUP7 ADD PUSH1 0x5 SHR DUP2 ADD SWAP3 DUP5 DUP8 LT PUSH2 0x358E JUMPI JUMPDEST PUSH1 0x1F ADD PUSH1 0x5 SHR ADD SWAP2 DUP5 SWAP1 JUMPDEST DUP4 DUP2 LT PUSH2 0x3583 JUMPI POP POP POP PUSH2 0x347A JUMP JUMPDEST DUP3 DUP2 SSTORE ADD DUP5 SWAP1 PUSH2 0x3574 JUMP JUMPDEST SWAP1 SWAP3 POP DUP3 SWAP1 PUSH2 0x3569 JUMP INVALID LOG2 PUSH5 0x6970667358 0x22 SLT KECCAK256 0xEE LOG0 0xB2 DUP14 MSIZE 0xB1 PREVRANDAO CALLDATALOAD LOG0 0x28 0xCA 0x4F PUSH21 0x8F887E3E03E7B2E15F774A82EEB094AF20C5D36473 PUSH16 0x6C634300081400330000000000000000 "},"methodIdentifiers":{"addPet(uint256,string,string,uint256,string,uint256,uint256,uint256,address,uint256,bool,uint256)":"0c596d91","buyPet(uint256)":"9edded11","cancelPetSale(uint256)":"f3cd7add","defaultPets()":"c8c9bd28","entryFee()":"072ea61c","feedPet(uint256)":"fbfabac4","gameFee()":"ea777eec","getAllPets()":"5b236d97","getPlayerPetBalance(address,uint256)":"7781b86b","hasJoined(address)":"877f4e12","joinGame()":"d4f77b1c","likePet(uint256)":"de440fe9","owner()":"8da5cb5b","petForSale(uint256,uint256)":"c9275220","pets(uint256)":"cfb869bf","playerInfo(address)":"4b114691","playerPet(address,uint256)":"1080d30f","playerPetIds(address,uint256)":"f6a1cf91","players(uint256)":"f71d96cb","setFee(uint256)":"69fe0e2d","token()":"fc0c546a"}}}}}