{"contracts/WalletBank.sol":{"WalletBank":{"abi":[{"inputs":[],"stateMutability":"nonpayable","type":"constructor"},{"inputs":[],"name":"ReentrancyGuardReentrantCall","type":"error"},{"anonymous":false,"inputs":[{"indexed":true,"internalType":"address","name":"reciever","type":"address"},{"indexed":false,"internalType":"uint256","name":"amount","type":"uint256"},{"indexed":false,"internalType":"uint256","name":"timestamp","type":"uint256"}],"name":"DepositMade","type":"event"},{"anonymous":false,"inputs":[{"indexed":true,"internalType":"address","name":"from","type":"address"},{"indexed":true,"internalType":"address","name":"to","type":"address"},{"indexed":false,"internalType":"uint256","name":"amount","type":"uint256"},{"indexed":false,"internalType":"uint256","name":"fee","type":"uint256"},{"indexed":false,"internalType":"uint256","name":"timestamp","type":"uint256"}],"name":"TransferMade","type":"event"},{"anonymous":false,"inputs":[{"indexed":true,"internalType":"address","name":"depositor","type":"address"},{"indexed":true,"internalType":"address","name":"token","type":"address"},{"indexed":false,"internalType":"uint256","name":"amount","type":"uint256"},{"indexed":false,"internalType":"uint256","name":"timestamp","type":"uint256"}],"name":"tokenDepositMade","type":"event"},{"inputs":[],"name":"deposit","outputs":[],"stateMutability":"payable","type":"function"},{"inputs":[{"internalType":"address","name":"","type":"address"},{"internalType":"uint256","name":"","type":"uint256"}],"name":"depositHistory","outputs":[{"internalType":"address","name":"depositor","type":"address"},{"internalType":"uint256","name":"amount","type":"uint256"},{"internalType":"uint256","name":"timestamp","type":"uint256"},{"internalType":"string","name":"txHash","type":"string"}],"stateMutability":"view","type":"function"},{"inputs":[{"internalType":"address","name":"_token","type":"address"},{"internalType":"uint256","name":"_amount","type":"uint256"}],"name":"depositToken","outputs":[],"stateMutability":"nonpayable","type":"function"},{"inputs":[],"name":"fee","outputs":[{"internalType":"uint256","name":"","type":"uint256"}],"stateMutability":"view","type":"function"},{"inputs":[{"internalType":"address","name":"_user","type":"address"}],"name":"getBalance","outputs":[{"internalType":"uint256","name":"","type":"uint256"}],"stateMutability":"view","type":"function"},{"inputs":[{"internalType":"address","name":"_user","type":"address"}],"name":"getDailyTransfer","outputs":[{"internalType":"uint256","name":"","type":"uint256"}],"stateMutability":"view","type":"function"},{"inputs":[{"internalType":"address","name":"_user","type":"address"}],"name":"getLastTransferDay","outputs":[{"internalType":"uint256","name":"","type":"uint256"}],"stateMutability":"view","type":"function"},{"inputs":[{"internalType":"address","name":"_user","type":"address"},{"internalType":"address","name":"_token","type":"address"}],"name":"getTokenDeposit","outputs":[{"internalType":"uint256","name":"","type":"uint256"}],"stateMutability":"view","type":"function"},{"inputs":[],"name":"maxDeposit","outputs":[{"internalType":"uint256","name":"","type":"uint256"}],"stateMutability":"view","type":"function"},{"inputs":[],"name":"minDeposit","outputs":[{"internalType":"uint256","name":"","type":"uint256"}],"stateMutability":"view","type":"function"},{"inputs":[],"name":"owner","outputs":[{"internalType":"address","name":"","type":"address"}],"stateMutability":"view","type":"function"},{"inputs":[{"internalType":"uint256","name":"_fee","type":"uint256"}],"name":"setFee","outputs":[],"stateMutability":"nonpayable","type":"function"},{"inputs":[{"internalType":"address","name":"_to","type":"address"},{"internalType":"uint256","name":"_amount","type":"uint256"}],"name":"transfer","outputs":[],"stateMutability":"nonpayable","type":"function"},{"inputs":[],"name":"transferDailyLimit","outputs":[{"internalType":"uint256","name":"","type":"uint256"}],"stateMutability":"view","type":"function"},{"inputs":[{"internalType":"address","name":"","type":"address"},{"internalType":"uint256","name":"","type":"uint256"}],"name":"transferHistory","outputs":[{"internalType":"address","name":"from","type":"address"},{"internalType":"address","name":"to","type":"address"},{"internalType":"uint256","name":"amount","type":"uint256"},{"internalType":"uint256","name":"fee","type":"uint256"},{"internalType":"uint256","name":"timestamp","type":"uint256"}],"stateMutability":"view","type":"function"},{"inputs":[{"internalType":"address","name":"","type":"address"},{"internalType":"uint256","name":"","type":"uint256"}],"name":"treasuries","outputs":[{"internalType":"address","name":"owner","type":"address"},{"internalType":"uint256","name":"amount","type":"uint256"}],"stateMutability":"view","type":"function"},{"inputs":[],"name":"treasury","outputs":[{"internalType":"address","name":"owner","type":"address"},{"internalType":"uint256","name":"amount","type":"uint256"}],"stateMutability":"view","type":"function"},{"inputs":[{"internalType":"uint256","name":"_amount","type":"uint256"}],"name":"withdraw","outputs":[],"stateMutability":"nonpayable","type":"function"}],"evm":{"bytecode":{"linkReferences":{},"object":"60808060405234610049576001600081905580546001600160a01b03191633179055662386f26fc100006002908155678ac7230489e80000600355600455610f9c908161004f8239f35b600080fdfe608060408181526004918236101561001657600080fd5b600092833560e01c9182630fe5931214610dc1575081631ddf264e14610d89578382632e1a7d4d14610d0f57508163338b5dea14610b4d5781634133d16814610ae257816341b3d18514610ac35781636083e59a14610aa457816361d027b314610a6f57816369fe0e2d146109f4578163715a6e9a1461089b5781638da5cb5b14610872578163a9059cbb14610557578163b981fb7a14610534578163cfe6a2a5146104e0578163d0e30db0146101d0578163d1fb445414610149578163ddca3f4314610127575063f8b2cb4f146100ed57600080fd5b346101235760203660031901126101235760209181906001600160a01b03610113610df5565b1681526005845220549051908152f35b5080fd5b90503461014557826003193601126101455760209250549051908152f35b8280fd5b91905034610145578060031936011261014557610164610df5565b6001600160a01b039081168452600a602052818420805460243595929492908610156101cd575060a09461019791610eb4565b50908382541693600183015416926002830154916003840154930154938151958652602086015284015260608301526080820152f35b80fd5b83838160031936011261012357600254341061049e57600354341161045c5733825260209060058252808320610207348254610ed0565b905533835260098252808320815190608082019567ffffffffffffffff9683811088821117610449578452338352848301923484528481014281528551948686018681108b8211176104365787526002865261060f60f31b88870152606083019586528454600160401b81101561043657610289906001968782018155610e10565b939093610424575183546001600160a01b0319166001600160a01b03919091161783555184830155516002820155925180519760039490940193909190881161041157506102d78354610e42565b601f81116103cb575b508490601f881160011461034c57968092819288997f0b05f0d1cd0819f155b8a61f60baf7767c1ee49d04aeaab701df236140eb93f9989994610341575b50501b916000199060031b1c19161790555b80519234845242908401523392a280f35b01519250898061031e565b838752858720909791601f198316885b8181106103b6575098837f0b05f0d1cd0819f155b8a61f60baf7767c1ee49d04aeaab701df236140eb93f998999a1061039d575b505050811b019055610330565b015160001960f88460031b161c19169055878080610390565b8a83015184559285019291880191880161035c565b838752858720601f890160051c810191878a10610407575b601f0160051c019083905b8281106103fc5750506102e0565b8881550183906103ee565b90915081906103e3565b634e487b7160e01b875260419052602486fd5b634e487b7160e01b8a5289855260248afd5b634e487b7160e01b8a526041855260248afd5b634e487b7160e01b875260418252602487fd5b5162461bcd60e51b8152602081840152601960248201527f4465706f7369742065786365656473206d6178206c696d6974000000000000006044820152606490fd5b5162461bcd60e51b8152602081840152601760248201527f4465706f7369742062656c6f77206d696e206c696d69740000000000000000006044820152606490fd5b5050346101235780600319360112610123576104fa610df5565b6001600160a01b036024358181169290839003610530579160209491849316825260068552828220908252845220549051908152f35b8480fd5b5050346101235781600319360112610123576020905167d02ab486cedc00008152f35b91905034610145578060031936011261014557610572610df5565b90602491823592610581610f43565b620151804204903387526020916008835280858920540361085b575b506007825267d02ab486cedc00006105b886868a2054610ed0565b1161081a57338752600782528387206105d2868254610ed0565b9055338752600582526105ea85858920541015610ef3565b6001600160a01b039283169586156107da5733871461079a5733885260058352848820610618878254610f36565b905580548087029087820414871517156107885760649004938880808061063f898c610f36565b8c82821561077f575bf1156107755761065a85600c54610ed0565b600c55338952600a84528589209086519060a0820182811067ffffffffffffffff8211176107635788523382528582018a8152888301918a835260608401938985526080810195428752805490600160401b82101561075057906106c391600182018155610eb4565b989098610740575081905116906bffffffffffffffffffffffff60a01b9182895416178855600188019251169082541617905551600285015551600384015551910155825193845283015242908201527f905bccc5f50166716cb6847f818ec21f9f17eaacf4af764af6cdc82060fc7b2160603392a36001815580f35b634e487b7160e01b8f528e88528efd5b50634e487b7160e01b8f5260418852888ffd5b634e487b7160e01b8c5260418552858cfd5b85513d8a823e3d90fd5b506108fc610648565b50634e487b7160e01b88526011905286fd5b601b6064928487519362461bcd60e51b85528401528201527f43616e6e6f74207472616e7366657220746f20796f757273656c6600000000006044820152fd5b60196064928487519362461bcd60e51b85528401528201527f496e76616c696420726563697069656e742061646472657373000000000000006044820152fd5b601d869160649386519362461bcd60e51b85528401528201527f4461696c79207472616e73666572206c696d69742065786365656465640000006044820152fd5b60078352878581205560088352848820553861059d565b50503461012357816003193601126101235760015490516001600160a01b039091168152602090f35b5050346101235780600319360112610123576108b5610df5565b9160243560018060a01b0380941682526020906009825283832080548210156109f057906108e291610e10565b5093845416936001938482015460036002840154930182518097879083549361090a85610e42565b948585528983821691826000146109ce575050600114610991575b505061093992509896949392980387610e7c565b805196879586528486015284015260806060840152835191826080850152815b83811061097a57505060a08094508284010152601f80199101168101030190f35b80860182015187820160a001528694508101610959565b88925089528189209089915b8583106109b557505061093993508201013880610925565b819484848396959654920101520191018992889261099d565b925093505061093994915060ff191682840152151560051b8201013880610925565b8380fd5b91905034610145576020366003190112610145576001546001600160a01b03163303610a2257508035905580f35b906020608492519162461bcd60e51b8352820152602160248201527f4f6e6c79206f776e65722063616e2063616c6c20746869732066756e6374696f6044820152603760f91b6064820152fd5b8284346101cd57806003193601126101cd5750600b54600c5491516001600160a01b0390911681526020810191909152604090f35b5050346101235781600319360112610123576020906003549051908152f35b5050346101235781600319360112610123576020906002549051908152f35b8284346101cd57816003193601126101cd57610afc610df5565b906024359060018060a01b038093168152600d6020528381208054831015610123578152602090819020600192831b0180549201549351929091166001600160a01b03168252810191909152604090f35b91905034610145578060031936011261014557610b68610df5565b90602435918215610ccc576001600160a01b0316928315610c925781516323b872dd60e01b81523382820152306024820152604481018490526020919082816064818a8a5af1908115610c88578791610c4e575b5015610c155750907f639bf98c5ad51658194aa1402527b789e7421e0b7d3fa528fe342912a465c1b191338652600681528186208587528152818620610c03858254610ed0565b9055815193845242908401523392a380f35b915162461bcd60e51b8152918201526015602482015274151bdad95b881d1c985b9cd9995c8819985a5b1959605a1b6044820152606490fd5b90508281813d8311610c81575b610c658183610e7c565b81010312610c7d57518015158103610c7d5738610bbc565b8680fd5b503d610c5b565b84513d89823e3d90fd5b6020606492519162461bcd60e51b83528201526015602482015274496e76616c696420746f6b656e206164647265737360581b6044820152fd5b815162461bcd60e51b8152602081860181905260248201527f416d6f756e74206d7573742062652067726561746572207468616e207a65726f6044820152606490fd5b915034610123576020366003190112610123578180809235610d2f610f43565b3382526005602052610d4681878420541015610ef3565b3382526005602052858220610d5c828254610f36565b9055818115610d80575b3390f115610d7657506001815580f35b51903d90823e3d90fd5b506108fc610d66565b5050346101235760203660031901126101235760209181906001600160a01b03610db1610df5565b1681526007845220549051908152f35b84908434610145576020366003190112610145576020926001600160a01b03610de8610df5565b1681526008845220548152f35b600435906001600160a01b0382168203610e0b57565b600080fd5b8054821015610e2c5760005260206000209060021b0190600090565b634e487b7160e01b600052603260045260246000fd5b90600182811c92168015610e72575b6020831014610e5c57565b634e487b7160e01b600052602260045260246000fd5b91607f1691610e51565b90601f8019910116810190811067ffffffffffffffff821117610e9e57604052565b634e487b7160e01b600052604160045260246000fd5b8054821015610e2c576000526005602060002091020190600090565b91908201809211610edd57565b634e487b7160e01b600052601160045260246000fd5b15610efa57565b60405162461bcd60e51b8152602060048201526014602482015273496e73756666696369656e742062616c616e636560601b6044820152606490fd5b91908203918211610edd57565b600260005414610f54576002600055565b604051633ee5aeb560e01b8152600490fdfea26469706673582212201b42193470e0524854b60157c0ffc4bdd21f8b57330f8ff76878ab1acf19394b64736f6c63430008140033","opcodes":"PUSH1 0x80 DUP1 PUSH1 0x40 MSTORE CALLVALUE PUSH2 0x49 JUMPI PUSH1 0x1 PUSH1 0x0 DUP2 SWAP1 SSTORE DUP1 SLOAD PUSH1 0x1 PUSH1 0x1 PUSH1 0xA0 SHL SUB NOT AND CALLER OR SWAP1 SSTORE PUSH7 0x2386F26FC10000 PUSH1 0x2 SWAP1 DUP2 SSTORE PUSH8 0x8AC7230489E80000 PUSH1 0x3 SSTORE PUSH1 0x4 SSTORE PUSH2 0xF9C SWAP1 DUP2 PUSH2 0x4F DUP3 CODECOPY RETURN JUMPDEST PUSH1 0x0 DUP1 REVERT INVALID PUSH1 0x80 PUSH1 0x40 DUP2 DUP2 MSTORE PUSH1 0x4 SWAP2 DUP3 CALLDATASIZE LT ISZERO PUSH2 0x16 JUMPI PUSH1 0x0 DUP1 REVERT JUMPDEST PUSH1 0x0 SWAP3 DUP4 CALLDATALOAD PUSH1 0xE0 SHR SWAP2 DUP3 PUSH4 0xFE59312 EQ PUSH2 0xDC1 JUMPI POP DUP2 PUSH4 0x1DDF264E EQ PUSH2 0xD89 JUMPI DUP4 DUP3 PUSH4 0x2E1A7D4D EQ PUSH2 0xD0F JUMPI POP DUP2 PUSH4 0x338B5DEA EQ PUSH2 0xB4D JUMPI DUP2 PUSH4 0x4133D168 EQ PUSH2 0xAE2 JUMPI DUP2 PUSH4 0x41B3D185 EQ PUSH2 0xAC3 JUMPI DUP2 PUSH4 0x6083E59A EQ PUSH2 0xAA4 JUMPI DUP2 PUSH4 0x61D027B3 EQ PUSH2 0xA6F JUMPI DUP2 PUSH4 0x69FE0E2D EQ PUSH2 0x9F4 JUMPI DUP2 PUSH4 0x715A6E9A EQ PUSH2 0x89B JUMPI DUP2 PUSH4 0x8DA5CB5B EQ PUSH2 0x872 JUMPI DUP2 PUSH4 0xA9059CBB EQ PUSH2 0x557 JUMPI DUP2 PUSH4 0xB981FB7A EQ PUSH2 0x534 JUMPI DUP2 PUSH4 0xCFE6A2A5 EQ PUSH2 0x4E0 JUMPI DUP2 PUSH4 0xD0E30DB0 EQ PUSH2 0x1D0 JUMPI DUP2 PUSH4 0xD1FB4454 EQ PUSH2 0x149 JUMPI DUP2 PUSH4 0xDDCA3F43 EQ PUSH2 0x127 JUMPI POP PUSH4 0xF8B2CB4F EQ PUSH2 0xED JUMPI PUSH1 0x0 DUP1 REVERT JUMPDEST CALLVALUE PUSH2 0x123 JUMPI PUSH1 0x20 CALLDATASIZE PUSH1 0x3 NOT ADD SLT PUSH2 0x123 JUMPI PUSH1 0x20 SWAP2 DUP2 SWAP1 PUSH1 0x1 PUSH1 0x1 PUSH1 0xA0 SHL SUB PUSH2 0x113 PUSH2 0xDF5 JUMP JUMPDEST AND DUP2 MSTORE PUSH1 0x5 DUP5 MSTORE KECCAK256 SLOAD SWAP1 MLOAD SWAP1 DUP2 MSTORE RETURN JUMPDEST POP DUP1 REVERT JUMPDEST SWAP1 POP CALLVALUE PUSH2 0x145 JUMPI DUP3 PUSH1 0x3 NOT CALLDATASIZE ADD SLT PUSH2 0x145 JUMPI PUSH1 0x20 SWAP3 POP SLOAD SWAP1 MLOAD SWAP1 DUP2 MSTORE RETURN JUMPDEST DUP3 DUP1 REVERT JUMPDEST SWAP2 SWAP1 POP CALLVALUE PUSH2 0x145 JUMPI DUP1 PUSH1 0x3 NOT CALLDATASIZE ADD SLT PUSH2 0x145 JUMPI PUSH2 0x164 PUSH2 0xDF5 JUMP JUMPDEST PUSH1 0x1 PUSH1 0x1 PUSH1 0xA0 SHL SUB SWAP1 DUP2 AND DUP5 MSTORE PUSH1 0xA PUSH1 0x20 MSTORE DUP2 DUP5 KECCAK256 DUP1 SLOAD PUSH1 0x24 CALLDATALOAD SWAP6 SWAP3 SWAP5 SWAP3 SWAP1 DUP7 LT ISZERO PUSH2 0x1CD JUMPI POP PUSH1 0xA0 SWAP5 PUSH2 0x197 SWAP2 PUSH2 0xEB4 JUMP JUMPDEST POP SWAP1 DUP4 DUP3 SLOAD AND SWAP4 PUSH1 0x1 DUP4 ADD SLOAD AND SWAP3 PUSH1 0x2 DUP4 ADD SLOAD SWAP2 PUSH1 0x3 DUP5 ADD SLOAD SWAP4 ADD SLOAD SWAP4 DUP2 MLOAD SWAP6 DUP7 MSTORE PUSH1 0x20 DUP7 ADD MSTORE DUP5 ADD MSTORE PUSH1 0x60 DUP4 ADD MSTORE PUSH1 0x80 DUP3 ADD MSTORE RETURN JUMPDEST DUP1 REVERT JUMPDEST DUP4 DUP4 DUP2 PUSH1 0x3 NOT CALLDATASIZE ADD SLT PUSH2 0x123 JUMPI PUSH1 0x2 SLOAD CALLVALUE LT PUSH2 0x49E JUMPI PUSH1 0x3 SLOAD CALLVALUE GT PUSH2 0x45C JUMPI CALLER DUP3 MSTORE PUSH1 0x20 SWAP1 PUSH1 0x5 DUP3 MSTORE DUP1 DUP4 KECCAK256 PUSH2 0x207 CALLVALUE DUP3 SLOAD PUSH2 0xED0 JUMP JUMPDEST SWAP1 SSTORE CALLER DUP4 MSTORE PUSH1 0x9 DUP3 MSTORE DUP1 DUP4 KECCAK256 DUP2 MLOAD SWAP1 PUSH1 0x80 DUP3 ADD SWAP6 PUSH8 0xFFFFFFFFFFFFFFFF SWAP7 DUP4 DUP2 LT DUP9 DUP3 GT OR PUSH2 0x449 JUMPI DUP5 MSTORE CALLER DUP4 MSTORE DUP5 DUP4 ADD SWAP3 CALLVALUE DUP5 MSTORE DUP5 DUP2 ADD TIMESTAMP DUP2 MSTORE DUP6 MLOAD SWAP5 DUP7 DUP7 ADD DUP7 DUP2 LT DUP12 DUP3 GT OR PUSH2 0x436 JUMPI DUP8 MSTORE PUSH1 0x2 DUP7 MSTORE PUSH2 0x60F PUSH1 0xF3 SHL DUP9 DUP8 ADD MSTORE PUSH1 0x60 DUP4 ADD SWAP6 DUP7 MSTORE DUP5 SLOAD PUSH1 0x1 PUSH1 0x40 SHL DUP2 LT ISZERO PUSH2 0x436 JUMPI PUSH2 0x289 SWAP1 PUSH1 0x1 SWAP7 DUP8 DUP3 ADD DUP2 SSTORE PUSH2 0xE10 JUMP JUMPDEST SWAP4 SWAP1 SWAP4 PUSH2 0x424 JUMPI MLOAD DUP4 SLOAD PUSH1 0x1 PUSH1 0x1 PUSH1 0xA0 SHL SUB NOT AND PUSH1 0x1 PUSH1 0x1 PUSH1 0xA0 SHL SUB SWAP2 SWAP1 SWAP2 AND OR DUP4 SSTORE MLOAD DUP5 DUP4 ADD SSTORE MLOAD PUSH1 0x2 DUP3 ADD SSTORE SWAP3 MLOAD DUP1 MLOAD SWAP8 PUSH1 0x3 SWAP5 SWAP1 SWAP5 ADD SWAP4 SWAP1 SWAP2 SWAP1 DUP9 GT PUSH2 0x411 JUMPI POP PUSH2 0x2D7 DUP4 SLOAD PUSH2 0xE42 JUMP JUMPDEST PUSH1 0x1F DUP2 GT PUSH2 0x3CB JUMPI JUMPDEST POP DUP5 SWAP1 PUSH1 0x1F DUP9 GT PUSH1 0x1 EQ PUSH2 0x34C JUMPI SWAP7 DUP1 SWAP3 DUP2 SWAP3 DUP9 SWAP10 PUSH32 0xB05F0D1CD0819F155B8A61F60BAF7767C1EE49D04AEAAB701DF236140EB93F9 SWAP9 SWAP10 SWAP5 PUSH2 0x341 JUMPI JUMPDEST POP POP SHL SWAP2 PUSH1 0x0 NOT SWAP1 PUSH1 0x3 SHL SHR NOT AND OR SWAP1 SSTORE JUMPDEST DUP1 MLOAD SWAP3 CALLVALUE DUP5 MSTORE TIMESTAMP SWAP1 DUP5 ADD MSTORE CALLER SWAP3 LOG2 DUP1 RETURN JUMPDEST ADD MLOAD SWAP3 POP DUP10 DUP1 PUSH2 0x31E JUMP JUMPDEST DUP4 DUP8 MSTORE DUP6 DUP8 KECCAK256 SWAP1 SWAP8 SWAP2 PUSH1 0x1F NOT DUP4 AND DUP9 JUMPDEST DUP2 DUP2 LT PUSH2 0x3B6 JUMPI POP SWAP9 DUP4 PUSH32 0xB05F0D1CD0819F155B8A61F60BAF7767C1EE49D04AEAAB701DF236140EB93F9 SWAP9 SWAP10 SWAP11 LT PUSH2 0x39D JUMPI JUMPDEST POP POP POP DUP2 SHL ADD SWAP1 SSTORE PUSH2 0x330 JUMP JUMPDEST ADD MLOAD PUSH1 0x0 NOT PUSH1 0xF8 DUP5 PUSH1 0x3 SHL AND SHR NOT AND SWAP1 SSTORE DUP8 DUP1 DUP1 PUSH2 0x390 JUMP JUMPDEST DUP11 DUP4 ADD MLOAD DUP5 SSTORE SWAP3 DUP6 ADD SWAP3 SWAP2 DUP9 ADD SWAP2 DUP9 ADD PUSH2 0x35C JUMP JUMPDEST DUP4 DUP8 MSTORE DUP6 DUP8 KECCAK256 PUSH1 0x1F DUP10 ADD PUSH1 0x5 SHR DUP2 ADD SWAP2 DUP8 DUP11 LT PUSH2 0x407 JUMPI JUMPDEST PUSH1 0x1F ADD PUSH1 0x5 SHR ADD SWAP1 DUP4 SWAP1 JUMPDEST DUP3 DUP2 LT PUSH2 0x3FC JUMPI POP POP PUSH2 0x2E0 JUMP JUMPDEST DUP9 DUP2 SSTORE ADD DUP4 SWAP1 PUSH2 0x3EE JUMP JUMPDEST SWAP1 SWAP2 POP DUP2 SWAP1 PUSH2 0x3E3 JUMP JUMPDEST PUSH4 0x4E487B71 PUSH1 0xE0 SHL DUP8 MSTORE PUSH1 0x41 SWAP1 MSTORE PUSH1 0x24 DUP7 REVERT JUMPDEST PUSH4 0x4E487B71 PUSH1 0xE0 SHL DUP11 MSTORE DUP10 DUP6 MSTORE PUSH1 0x24 DUP11 REVERT JUMPDEST PUSH4 0x4E487B71 PUSH1 0xE0 SHL DUP11 MSTORE PUSH1 0x41 DUP6 MSTORE PUSH1 0x24 DUP11 REVERT JUMPDEST PUSH4 0x4E487B71 PUSH1 0xE0 SHL DUP8 MSTORE PUSH1 0x41 DUP3 MSTORE PUSH1 0x24 DUP8 REVERT JUMPDEST MLOAD PUSH3 0x461BCD PUSH1 0xE5 SHL DUP2 MSTORE PUSH1 0x20 DUP2 DUP5 ADD MSTORE PUSH1 0x19 PUSH1 0x24 DUP3 ADD MSTORE PUSH32 0x4465706F7369742065786365656473206D6178206C696D697400000000000000 PUSH1 0x44 DUP3 ADD MSTORE PUSH1 0x64 SWAP1 REVERT JUMPDEST MLOAD PUSH3 0x461BCD PUSH1 0xE5 SHL DUP2 MSTORE PUSH1 0x20 DUP2 DUP5 ADD MSTORE PUSH1 0x17 PUSH1 0x24 DUP3 ADD MSTORE PUSH32 0x4465706F7369742062656C6F77206D696E206C696D6974000000000000000000 PUSH1 0x44 DUP3 ADD MSTORE PUSH1 0x64 SWAP1 REVERT JUMPDEST POP POP CALLVALUE PUSH2 0x123 JUMPI DUP1 PUSH1 0x3 NOT CALLDATASIZE ADD SLT PUSH2 0x123 JUMPI PUSH2 0x4FA PUSH2 0xDF5 JUMP JUMPDEST PUSH1 0x1 PUSH1 0x1 PUSH1 0xA0 SHL SUB PUSH1 0x24 CALLDATALOAD DUP2 DUP2 AND SWAP3 SWAP1 DUP4 SWAP1 SUB PUSH2 0x530 JUMPI SWAP2 PUSH1 0x20 SWAP5 SWAP2 DUP5 SWAP4 AND DUP3 MSTORE PUSH1 0x6 DUP6 MSTORE DUP3 DUP3 KECCAK256 SWAP1 DUP3 MSTORE DUP5 MSTORE KECCAK256 SLOAD SWAP1 MLOAD SWAP1 DUP2 MSTORE RETURN JUMPDEST DUP5 DUP1 REVERT JUMPDEST POP POP CALLVALUE PUSH2 0x123 JUMPI DUP2 PUSH1 0x3 NOT CALLDATASIZE ADD SLT PUSH2 0x123 JUMPI PUSH1 0x20 SWAP1 MLOAD PUSH8 0xD02AB486CEDC0000 DUP2 MSTORE RETURN JUMPDEST SWAP2 SWAP1 POP CALLVALUE PUSH2 0x145 JUMPI DUP1 PUSH1 0x3 NOT CALLDATASIZE ADD SLT PUSH2 0x145 JUMPI PUSH2 0x572 PUSH2 0xDF5 JUMP JUMPDEST SWAP1 PUSH1 0x24 SWAP2 DUP3 CALLDATALOAD SWAP3 PUSH2 0x581 PUSH2 0xF43 JUMP JUMPDEST PUSH3 0x15180 TIMESTAMP DIV SWAP1 CALLER DUP8 MSTORE PUSH1 0x20 SWAP2 PUSH1 0x8 DUP4 MSTORE DUP1 DUP6 DUP10 KECCAK256 SLOAD SUB PUSH2 0x85B JUMPI JUMPDEST POP PUSH1 0x7 DUP3 MSTORE PUSH8 0xD02AB486CEDC0000 PUSH2 0x5B8 DUP7 DUP7 DUP11 KECCAK256 SLOAD PUSH2 0xED0 JUMP JUMPDEST GT PUSH2 0x81A JUMPI CALLER DUP8 MSTORE PUSH1 0x7 DUP3 MSTORE DUP4 DUP8 KECCAK256 PUSH2 0x5D2 DUP7 DUP3 SLOAD PUSH2 0xED0 JUMP JUMPDEST SWAP1 SSTORE CALLER DUP8 MSTORE PUSH1 0x5 DUP3 MSTORE PUSH2 0x5EA DUP6 DUP6 DUP10 KECCAK256 SLOAD LT ISZERO PUSH2 0xEF3 JUMP JUMPDEST PUSH1 0x1 PUSH1 0x1 PUSH1 0xA0 SHL SUB SWAP3 DUP4 AND SWAP6 DUP7 ISZERO PUSH2 0x7DA JUMPI CALLER DUP8 EQ PUSH2 0x79A JUMPI CALLER DUP9 MSTORE PUSH1 0x5 DUP4 MSTORE DUP5 DUP9 KECCAK256 PUSH2 0x618 DUP8 DUP3 SLOAD PUSH2 0xF36 JUMP JUMPDEST SWAP1 SSTORE DUP1 SLOAD DUP1 DUP8 MUL SWAP1 DUP8 DUP3 DIV EQ DUP8 ISZERO OR ISZERO PUSH2 0x788 JUMPI PUSH1 0x64 SWAP1 DIV SWAP4 DUP9 DUP1 DUP1 DUP1 PUSH2 0x63F DUP10 DUP13 PUSH2 0xF36 JUMP JUMPDEST DUP13 DUP3 DUP3 ISZERO PUSH2 0x77F JUMPI JUMPDEST CALL ISZERO PUSH2 0x775 JUMPI PUSH2 0x65A DUP6 PUSH1 0xC SLOAD PUSH2 0xED0 JUMP JUMPDEST PUSH1 0xC SSTORE CALLER DUP10 MSTORE PUSH1 0xA DUP5 MSTORE DUP6 DUP10 KECCAK256 SWAP1 DUP7 MLOAD SWAP1 PUSH1 0xA0 DUP3 ADD DUP3 DUP2 LT PUSH8 0xFFFFFFFFFFFFFFFF DUP3 GT OR PUSH2 0x763 JUMPI DUP9 MSTORE CALLER DUP3 MSTORE DUP6 DUP3 ADD DUP11 DUP2 MSTORE DUP9 DUP4 ADD SWAP2 DUP11 DUP4 MSTORE PUSH1 0x60 DUP5 ADD SWAP4 DUP10 DUP6 MSTORE PUSH1 0x80 DUP2 ADD SWAP6 TIMESTAMP DUP8 MSTORE DUP1 SLOAD SWAP1 PUSH1 0x1 PUSH1 0x40 SHL DUP3 LT ISZERO PUSH2 0x750 JUMPI SWAP1 PUSH2 0x6C3 SWAP2 PUSH1 0x1 DUP3 ADD DUP2 SSTORE PUSH2 0xEB4 JUMP JUMPDEST SWAP9 SWAP1 SWAP9 PUSH2 0x740 JUMPI POP DUP2 SWAP1 MLOAD AND SWAP1 PUSH12 0xFFFFFFFFFFFFFFFFFFFFFFFF PUSH1 0xA0 SHL SWAP2 DUP3 DUP10 SLOAD AND OR DUP9 SSTORE PUSH1 0x1 DUP9 ADD SWAP3 MLOAD AND SWAP1 DUP3 SLOAD AND OR SWAP1 SSTORE MLOAD PUSH1 0x2 DUP6 ADD SSTORE MLOAD PUSH1 0x3 DUP5 ADD SSTORE MLOAD SWAP2 ADD SSTORE DUP3 MLOAD SWAP4 DUP5 MSTORE DUP4 ADD MSTORE TIMESTAMP SWAP1 DUP3 ADD MSTORE PUSH32 0x905BCCC5F50166716CB6847F818EC21F9F17EAACF4AF764AF6CDC82060FC7B21 PUSH1 0x60 CALLER SWAP3 LOG3 PUSH1 0x1 DUP2 SSTORE DUP1 RETURN JUMPDEST PUSH4 0x4E487B71 PUSH1 0xE0 SHL DUP16 MSTORE DUP15 DUP9 MSTORE DUP15 REVERT JUMPDEST POP PUSH4 0x4E487B71 PUSH1 0xE0 SHL DUP16 MSTORE PUSH1 0x41 DUP9 MSTORE DUP9 DUP16 REVERT JUMPDEST PUSH4 0x4E487B71 PUSH1 0xE0 SHL DUP13 MSTORE PUSH1 0x41 DUP6 MSTORE DUP6 DUP13 REVERT JUMPDEST DUP6 MLOAD RETURNDATASIZE DUP11 DUP3 RETURNDATACOPY RETURNDATASIZE SWAP1 REVERT JUMPDEST POP PUSH2 0x8FC PUSH2 0x648 JUMP JUMPDEST POP PUSH4 0x4E487B71 PUSH1 0xE0 SHL DUP9 MSTORE PUSH1 0x11 SWAP1 MSTORE DUP7 REVERT JUMPDEST PUSH1 0x1B PUSH1 0x64 SWAP3 DUP5 DUP8 MLOAD SWAP4 PUSH3 0x461BCD PUSH1 0xE5 SHL DUP6 MSTORE DUP5 ADD MSTORE DUP3 ADD MSTORE PUSH32 0x43616E6E6F74207472616E7366657220746F20796F757273656C660000000000 PUSH1 0x44 DUP3 ADD MSTORE REVERT JUMPDEST PUSH1 0x19 PUSH1 0x64 SWAP3 DUP5 DUP8 MLOAD SWAP4 PUSH3 0x461BCD PUSH1 0xE5 SHL DUP6 MSTORE DUP5 ADD MSTORE DUP3 ADD MSTORE PUSH32 0x496E76616C696420726563697069656E74206164647265737300000000000000 PUSH1 0x44 DUP3 ADD MSTORE REVERT JUMPDEST PUSH1 0x1D DUP7 SWAP2 PUSH1 0x64 SWAP4 DUP7 MLOAD SWAP4 PUSH3 0x461BCD PUSH1 0xE5 SHL DUP6 MSTORE DUP5 ADD MSTORE DUP3 ADD MSTORE PUSH32 0x4461696C79207472616E73666572206C696D6974206578636565646564000000 PUSH1 0x44 DUP3 ADD MSTORE REVERT JUMPDEST PUSH1 0x7 DUP4 MSTORE DUP8 DUP6 DUP2 KECCAK256 SSTORE PUSH1 0x8 DUP4 MSTORE DUP5 DUP9 KECCAK256 SSTORE CODESIZE PUSH2 0x59D JUMP JUMPDEST POP POP CALLVALUE PUSH2 0x123 JUMPI DUP2 PUSH1 0x3 NOT CALLDATASIZE ADD SLT PUSH2 0x123 JUMPI PUSH1 0x1 SLOAD SWAP1 MLOAD PUSH1 0x1 PUSH1 0x1 PUSH1 0xA0 SHL SUB SWAP1 SWAP2 AND DUP2 MSTORE PUSH1 0x20 SWAP1 RETURN JUMPDEST POP POP CALLVALUE PUSH2 0x123 JUMPI DUP1 PUSH1 0x3 NOT CALLDATASIZE ADD SLT PUSH2 0x123 JUMPI PUSH2 0x8B5 PUSH2 0xDF5 JUMP JUMPDEST SWAP2 PUSH1 0x24 CALLDATALOAD PUSH1 0x1 DUP1 PUSH1 0xA0 SHL SUB DUP1 SWAP5 AND DUP3 MSTORE PUSH1 0x20 SWAP1 PUSH1 0x9 DUP3 MSTORE DUP4 DUP4 KECCAK256 DUP1 SLOAD DUP3 LT ISZERO PUSH2 0x9F0 JUMPI SWAP1 PUSH2 0x8E2 SWAP2 PUSH2 0xE10 JUMP JUMPDEST POP SWAP4 DUP5 SLOAD AND SWAP4 PUSH1 0x1 SWAP4 DUP5 DUP3 ADD SLOAD PUSH1 0x3 PUSH1 0x2 DUP5 ADD SLOAD SWAP4 ADD DUP3 MLOAD DUP1 SWAP8 DUP8 SWAP1 DUP4 SLOAD SWAP4 PUSH2 0x90A DUP6 PUSH2 0xE42 JUMP JUMPDEST SWAP5 DUP6 DUP6 MSTORE DUP10 DUP4 DUP3 AND SWAP2 DUP3 PUSH1 0x0 EQ PUSH2 0x9CE JUMPI POP POP PUSH1 0x1 EQ PUSH2 0x991 JUMPI JUMPDEST POP POP PUSH2 0x939 SWAP3 POP SWAP9 SWAP7 SWAP5 SWAP4 SWAP3 SWAP9 SUB DUP8 PUSH2 0xE7C JUMP JUMPDEST DUP1 MLOAD SWAP7 DUP8 SWAP6 DUP7 MSTORE DUP5 DUP7 ADD MSTORE DUP5 ADD MSTORE PUSH1 0x80 PUSH1 0x60 DUP5 ADD MSTORE DUP4 MLOAD SWAP2 DUP3 PUSH1 0x80 DUP6 ADD MSTORE DUP2 JUMPDEST DUP4 DUP2 LT PUSH2 0x97A JUMPI POP POP PUSH1 0xA0 DUP1 SWAP5 POP DUP3 DUP5 ADD ADD MSTORE PUSH1 0x1F DUP1 NOT SWAP2 ADD AND DUP2 ADD SUB ADD SWAP1 RETURN JUMPDEST DUP1 DUP7 ADD DUP3 ADD MLOAD DUP8 DUP3 ADD PUSH1 0xA0 ADD MSTORE DUP7 SWAP5 POP DUP2 ADD PUSH2 0x959 JUMP JUMPDEST DUP9 SWAP3 POP DUP10 MSTORE DUP2 DUP10 KECCAK256 SWAP1 DUP10 SWAP2 JUMPDEST DUP6 DUP4 LT PUSH2 0x9B5 JUMPI POP POP PUSH2 0x939 SWAP4 POP DUP3 ADD ADD CODESIZE DUP1 PUSH2 0x925 JUMP JUMPDEST DUP2 SWAP5 DUP5 DUP5 DUP4 SWAP7 SWAP6 SWAP7 SLOAD SWAP3 ADD ADD MSTORE ADD SWAP2 ADD DUP10 SWAP3 DUP9 SWAP3 PUSH2 0x99D JUMP JUMPDEST SWAP3 POP SWAP4 POP POP PUSH2 0x939 SWAP5 SWAP2 POP PUSH1 0xFF NOT AND DUP3 DUP5 ADD MSTORE ISZERO ISZERO PUSH1 0x5 SHL DUP3 ADD ADD CODESIZE DUP1 PUSH2 0x925 JUMP JUMPDEST DUP4 DUP1 REVERT JUMPDEST SWAP2 SWAP1 POP CALLVALUE PUSH2 0x145 JUMPI PUSH1 0x20 CALLDATASIZE PUSH1 0x3 NOT ADD SLT PUSH2 0x145 JUMPI PUSH1 0x1 SLOAD PUSH1 0x1 PUSH1 0x1 PUSH1 0xA0 SHL SUB AND CALLER SUB PUSH2 0xA22 JUMPI POP DUP1 CALLDATALOAD SWAP1 SSTORE DUP1 RETURN JUMPDEST SWAP1 PUSH1 0x20 PUSH1 0x84 SWAP3 MLOAD SWAP2 PUSH3 0x461BCD PUSH1 0xE5 SHL DUP4 MSTORE DUP3 ADD MSTORE PUSH1 0x21 PUSH1 0x24 DUP3 ADD MSTORE PUSH32 0x4F6E6C79206F776E65722063616E2063616C6C20746869732066756E6374696F PUSH1 0x44 DUP3 ADD MSTORE PUSH1 0x37 PUSH1 0xF9 SHL PUSH1 0x64 DUP3 ADD MSTORE REVERT JUMPDEST DUP3 DUP5 CALLVALUE PUSH2 0x1CD JUMPI DUP1 PUSH1 0x3 NOT CALLDATASIZE ADD SLT PUSH2 0x1CD JUMPI POP PUSH1 0xB SLOAD PUSH1 0xC SLOAD SWAP2 MLOAD PUSH1 0x1 PUSH1 0x1 PUSH1 0xA0 SHL SUB SWAP1 SWAP2 AND DUP2 MSTORE PUSH1 0x20 DUP2 ADD SWAP2 SWAP1 SWAP2 MSTORE PUSH1 0x40 SWAP1 RETURN JUMPDEST POP POP CALLVALUE PUSH2 0x123 JUMPI DUP2 PUSH1 0x3 NOT CALLDATASIZE ADD SLT PUSH2 0x123 JUMPI PUSH1 0x20 SWAP1 PUSH1 0x3 SLOAD SWAP1 MLOAD SWAP1 DUP2 MSTORE RETURN JUMPDEST POP POP CALLVALUE PUSH2 0x123 JUMPI DUP2 PUSH1 0x3 NOT CALLDATASIZE ADD SLT PUSH2 0x123 JUMPI PUSH1 0x20 SWAP1 PUSH1 0x2 SLOAD SWAP1 MLOAD SWAP1 DUP2 MSTORE RETURN JUMPDEST DUP3 DUP5 CALLVALUE PUSH2 0x1CD JUMPI DUP2 PUSH1 0x3 NOT CALLDATASIZE ADD SLT PUSH2 0x1CD JUMPI PUSH2 0xAFC PUSH2 0xDF5 JUMP JUMPDEST SWAP1 PUSH1 0x24 CALLDATALOAD SWAP1 PUSH1 0x1 DUP1 PUSH1 0xA0 SHL SUB DUP1 SWAP4 AND DUP2 MSTORE PUSH1 0xD PUSH1 0x20 MSTORE DUP4 DUP2 KECCAK256 DUP1 SLOAD DUP4 LT ISZERO PUSH2 0x123 JUMPI DUP2 MSTORE PUSH1 0x20 SWAP1 DUP2 SWAP1 KECCAK256 PUSH1 0x1 SWAP3 DUP4 SHL ADD DUP1 SLOAD SWAP3 ADD SLOAD SWAP4 MLOAD SWAP3 SWAP1 SWAP2 AND PUSH1 0x1 PUSH1 0x1 PUSH1 0xA0 SHL SUB AND DUP3 MSTORE DUP2 ADD SWAP2 SWAP1 SWAP2 MSTORE PUSH1 0x40 SWAP1 RETURN JUMPDEST SWAP2 SWAP1 POP CALLVALUE PUSH2 0x145 JUMPI DUP1 PUSH1 0x3 NOT CALLDATASIZE ADD SLT PUSH2 0x145 JUMPI PUSH2 0xB68 PUSH2 0xDF5 JUMP JUMPDEST SWAP1 PUSH1 0x24 CALLDATALOAD SWAP2 DUP3 ISZERO PUSH2 0xCCC JUMPI PUSH1 0x1 PUSH1 0x1 PUSH1 0xA0 SHL SUB AND SWAP3 DUP4 ISZERO PUSH2 0xC92 JUMPI DUP2 MLOAD PUSH4 0x23B872DD PUSH1 0xE0 SHL DUP2 MSTORE CALLER DUP3 DUP3 ADD MSTORE ADDRESS PUSH1 0x24 DUP3 ADD MSTORE PUSH1 0x44 DUP2 ADD DUP5 SWAP1 MSTORE PUSH1 0x20 SWAP2 SWAP1 DUP3 DUP2 PUSH1 0x64 DUP2 DUP11 DUP11 GAS CALL SWAP1 DUP2 ISZERO PUSH2 0xC88 JUMPI DUP8 SWAP2 PUSH2 0xC4E JUMPI JUMPDEST POP ISZERO PUSH2 0xC15 JUMPI POP SWAP1 PUSH32 0x639BF98C5AD51658194AA1402527B789E7421E0B7D3FA528FE342912A465C1B1 SWAP2 CALLER DUP7 MSTORE PUSH1 0x6 DUP2 MSTORE DUP2 DUP7 KECCAK256 DUP6 DUP8 MSTORE DUP2 MSTORE DUP2 DUP7 KECCAK256 PUSH2 0xC03 DUP6 DUP3 SLOAD PUSH2 0xED0 JUMP JUMPDEST SWAP1 SSTORE DUP2 MLOAD SWAP4 DUP5 MSTORE TIMESTAMP SWAP1 DUP5 ADD MSTORE CALLER SWAP3 LOG3 DUP1 RETURN JUMPDEST SWAP2 MLOAD PUSH3 0x461BCD PUSH1 0xE5 SHL DUP2 MSTORE SWAP2 DUP3 ADD MSTORE PUSH1 0x15 PUSH1 0x24 DUP3 ADD MSTORE PUSH21 0x151BDAD95B881D1C985B9CD9995C8819985A5B1959 PUSH1 0x5A SHL PUSH1 0x44 DUP3 ADD MSTORE PUSH1 0x64 SWAP1 REVERT JUMPDEST SWAP1 POP DUP3 DUP2 DUP2 RETURNDATASIZE DUP4 GT PUSH2 0xC81 JUMPI JUMPDEST PUSH2 0xC65 DUP2 DUP4 PUSH2 0xE7C JUMP JUMPDEST DUP2 ADD SUB SLT PUSH2 0xC7D JUMPI MLOAD DUP1 ISZERO ISZERO DUP2 SUB PUSH2 0xC7D JUMPI CODESIZE PUSH2 0xBBC JUMP JUMPDEST DUP7 DUP1 REVERT JUMPDEST POP RETURNDATASIZE PUSH2 0xC5B JUMP JUMPDEST DUP5 MLOAD RETURNDATASIZE DUP10 DUP3 RETURNDATACOPY RETURNDATASIZE SWAP1 REVERT JUMPDEST PUSH1 0x20 PUSH1 0x64 SWAP3 MLOAD SWAP2 PUSH3 0x461BCD PUSH1 0xE5 SHL DUP4 MSTORE DUP3 ADD MSTORE PUSH1 0x15 PUSH1 0x24 DUP3 ADD MSTORE PUSH21 0x496E76616C696420746F6B656E2061646472657373 PUSH1 0x58 SHL PUSH1 0x44 DUP3 ADD MSTORE REVERT JUMPDEST DUP2 MLOAD PUSH3 0x461BCD PUSH1 0xE5 SHL DUP2 MSTORE PUSH1 0x20 DUP2 DUP7 ADD DUP2 SWAP1 MSTORE PUSH1 0x24 DUP3 ADD MSTORE PUSH32 0x416D6F756E74206D7573742062652067726561746572207468616E207A65726F PUSH1 0x44 DUP3 ADD MSTORE PUSH1 0x64 SWAP1 REVERT JUMPDEST SWAP2 POP CALLVALUE PUSH2 0x123 JUMPI PUSH1 0x20 CALLDATASIZE PUSH1 0x3 NOT ADD SLT PUSH2 0x123 JUMPI DUP2 DUP1 DUP1 SWAP3 CALLDATALOAD PUSH2 0xD2F PUSH2 0xF43 JUMP JUMPDEST CALLER DUP3 MSTORE PUSH1 0x5 PUSH1 0x20 MSTORE PUSH2 0xD46 DUP2 DUP8 DUP5 KECCAK256 SLOAD LT ISZERO PUSH2 0xEF3 JUMP JUMPDEST CALLER DUP3 MSTORE PUSH1 0x5 PUSH1 0x20 MSTORE DUP6 DUP3 KECCAK256 PUSH2 0xD5C DUP3 DUP3 SLOAD PUSH2 0xF36 JUMP JUMPDEST SWAP1 SSTORE DUP2 DUP2 ISZERO PUSH2 0xD80 JUMPI JUMPDEST CALLER SWAP1 CALL ISZERO PUSH2 0xD76 JUMPI POP PUSH1 0x1 DUP2 SSTORE DUP1 RETURN JUMPDEST MLOAD SWAP1 RETURNDATASIZE SWAP1 DUP3 RETURNDATACOPY RETURNDATASIZE SWAP1 REVERT JUMPDEST POP PUSH2 0x8FC PUSH2 0xD66 JUMP JUMPDEST POP POP CALLVALUE PUSH2 0x123 JUMPI PUSH1 0x20 CALLDATASIZE PUSH1 0x3 NOT ADD SLT PUSH2 0x123 JUMPI PUSH1 0x20 SWAP2 DUP2 SWAP1 PUSH1 0x1 PUSH1 0x1 PUSH1 0xA0 SHL SUB PUSH2 0xDB1 PUSH2 0xDF5 JUMP JUMPDEST AND DUP2 MSTORE PUSH1 0x7 DUP5 MSTORE KECCAK256 SLOAD SWAP1 MLOAD SWAP1 DUP2 MSTORE RETURN JUMPDEST DUP5 SWAP1 DUP5 CALLVALUE PUSH2 0x145 JUMPI PUSH1 0x20 CALLDATASIZE PUSH1 0x3 NOT ADD SLT PUSH2 0x145 JUMPI PUSH1 0x20 SWAP3 PUSH1 0x1 PUSH1 0x1 PUSH1 0xA0 SHL SUB PUSH2 0xDE8 PUSH2 0xDF5 JUMP JUMPDEST AND DUP2 MSTORE PUSH1 0x8 DUP5 MSTORE KECCAK256 SLOAD DUP2 MSTORE RETURN JUMPDEST PUSH1 0x4 CALLDATALOAD SWAP1 PUSH1 0x1 PUSH1 0x1 PUSH1 0xA0 SHL SUB DUP3 AND DUP3 SUB PUSH2 0xE0B JUMPI JUMP JUMPDEST PUSH1 0x0 DUP1 REVERT JUMPDEST DUP1 SLOAD DUP3 LT ISZERO PUSH2 0xE2C JUMPI PUSH1 0x0 MSTORE PUSH1 0x20 PUSH1 0x0 KECCAK256 SWAP1 PUSH1 0x2 SHL ADD SWAP1 PUSH1 0x0 SWAP1 JUMP JUMPDEST PUSH4 0x4E487B71 PUSH1 0xE0 SHL PUSH1 0x0 MSTORE PUSH1 0x32 PUSH1 0x4 MSTORE PUSH1 0x24 PUSH1 0x0 REVERT JUMPDEST SWAP1 PUSH1 0x1 DUP3 DUP2 SHR SWAP3 AND DUP1 ISZERO PUSH2 0xE72 JUMPI JUMPDEST PUSH1 0x20 DUP4 LT EQ PUSH2 0xE5C JUMPI JUMP JUMPDEST PUSH4 0x4E487B71 PUSH1 0xE0 SHL PUSH1 0x0 MSTORE PUSH1 0x22 PUSH1 0x4 MSTORE PUSH1 0x24 PUSH1 0x0 REVERT JUMPDEST SWAP2 PUSH1 0x7F AND SWAP2 PUSH2 0xE51 JUMP JUMPDEST SWAP1 PUSH1 0x1F DUP1 NOT SWAP2 ADD AND DUP2 ADD SWAP1 DUP2 LT PUSH8 0xFFFFFFFFFFFFFFFF DUP3 GT OR PUSH2 0xE9E JUMPI PUSH1 0x40 MSTORE JUMP JUMPDEST PUSH4 0x4E487B71 PUSH1 0xE0 SHL PUSH1 0x0 MSTORE PUSH1 0x41 PUSH1 0x4 MSTORE PUSH1 0x24 PUSH1 0x0 REVERT JUMPDEST DUP1 SLOAD DUP3 LT ISZERO PUSH2 0xE2C JUMPI PUSH1 0x0 MSTORE PUSH1 0x5 PUSH1 0x20 PUSH1 0x0 KECCAK256 SWAP2 MUL ADD SWAP1 PUSH1 0x0 SWAP1 JUMP JUMPDEST SWAP2 SWAP1 DUP3 ADD DUP1 SWAP3 GT PUSH2 0xEDD JUMPI JUMP JUMPDEST PUSH4 0x4E487B71 PUSH1 0xE0 SHL PUSH1 0x0 MSTORE PUSH1 0x11 PUSH1 0x4 MSTORE PUSH1 0x24 PUSH1 0x0 REVERT JUMPDEST ISZERO PUSH2 0xEFA JUMPI JUMP JUMPDEST PUSH1 0x40 MLOAD PUSH3 0x461BCD PUSH1 0xE5 SHL DUP2 MSTORE PUSH1 0x20 PUSH1 0x4 DUP3 ADD MSTORE PUSH1 0x14 PUSH1 0x24 DUP3 ADD MSTORE PUSH20 0x496E73756666696369656E742062616C616E6365 PUSH1 0x60 SHL PUSH1 0x44 DUP3 ADD MSTORE PUSH1 0x64 SWAP1 REVERT JUMPDEST SWAP2 SWAP1 DUP3 SUB SWAP2 DUP3 GT PUSH2 0xEDD JUMPI JUMP JUMPDEST PUSH1 0x2 PUSH1 0x0 SLOAD EQ PUSH2 0xF54 JUMPI PUSH1 0x2 PUSH1 0x0 SSTORE JUMP JUMPDEST PUSH1 0x40 MLOAD PUSH4 0x3EE5AEB5 PUSH1 0xE0 SHL DUP2 MSTORE PUSH1 0x4 SWAP1 REVERT INVALID LOG2 PUSH5 0x6970667358 0x22 SLT KECCAK256 SHL TIMESTAMP NOT CALLVALUE PUSH17 0xE0524854B60157C0FFC4BDD21F8B57330F DUP16 0xF7 PUSH9 0x78AB1ACF19394B6473 PUSH16 0x6C634300081400330000000000000000 "},"methodIdentifiers":{"deposit()":"d0e30db0","depositHistory(address,uint256)":"715a6e9a","depositToken(address,uint256)":"338b5dea","fee()":"ddca3f43","getBalance(address)":"f8b2cb4f","getDailyTransfer(address)":"1ddf264e","getLastTransferDay(address)":"0fe59312","getTokenDeposit(address,address)":"cfe6a2a5","maxDeposit()":"6083e59a","minDeposit()":"41b3d185","owner()":"8da5cb5b","setFee(uint256)":"69fe0e2d","transfer(address,uint256)":"a9059cbb","transferDailyLimit()":"b981fb7a","transferHistory(address,uint256)":"d1fb4454","treasuries(address,uint256)":"4133d168","treasury()":"61d027b3","withdraw(uint256)":"2e1a7d4d"}}}}}