{"contracts/TradingGame.sol":{"TradingGame":{"abi":[{"inputs":[{"internalType":"contract IERC20","name":"_token","type":"address"}],"stateMutability":"nonpayable","type":"constructor"},{"anonymous":false,"inputs":[{"indexed":true,"internalType":"address","name":"player","type":"address"}],"name":"AllTasksBonusClaimed","type":"event"},{"anonymous":false,"inputs":[{"indexed":true,"internalType":"address","name":"player","type":"address"}],"name":"DailyRewardClaimed","type":"event"},{"anonymous":false,"inputs":[{"indexed":true,"internalType":"address","name":"player","type":"address"},{"indexed":true,"internalType":"uint256","name":"petId","type":"uint256"}],"name":"PetBought","type":"event"},{"anonymous":false,"inputs":[{"indexed":true,"internalType":"address","name":"player","type":"address"},{"indexed":true,"internalType":"uint256","name":"petId","type":"uint256"}],"name":"PetCanceledForSale","type":"event"},{"anonymous":false,"inputs":[{"indexed":true,"internalType":"address","name":"player","type":"address"},{"indexed":true,"internalType":"uint256","name":"petId","type":"uint256"}],"name":"PetFed","type":"event"},{"anonymous":false,"inputs":[{"indexed":true,"internalType":"address","name":"player","type":"address"},{"indexed":true,"internalType":"uint256","name":"petId","type":"uint256"},{"indexed":false,"internalType":"uint256","name":"price","type":"uint256"}],"name":"PetForSale","type":"event"},{"anonymous":false,"inputs":[{"indexed":true,"internalType":"address","name":"player","type":"address"},{"indexed":true,"internalType":"uint256","name":"petId","type":"uint256"}],"name":"PetLiked","type":"event"},{"anonymous":false,"inputs":[{"indexed":true,"internalType":"address","name":"player","type":"address"},{"indexed":true,"internalType":"uint256","name":"petId","type":"uint256"},{"indexed":false,"internalType":"uint256","name":"price","type":"uint256"}],"name":"PetSold","type":"event"},{"anonymous":false,"inputs":[{"indexed":true,"internalType":"address","name":"player","type":"address"}],"name":"PlayerJoined","type":"event"},{"anonymous":false,"inputs":[{"indexed":true,"internalType":"uint256","name":"taskId","type":"uint256"},{"indexed":false,"internalType":"string","name":"name","type":"string"},{"indexed":false,"internalType":"uint256","name":"reward","type":"uint256"}],"name":"TaskAdded","type":"event"},{"anonymous":false,"inputs":[{"indexed":true,"internalType":"address","name":"player","type":"address"},{"indexed":true,"internalType":"uint256","name":"taskId","type":"uint256"},{"indexed":false,"internalType":"uint256","name":"reward","type":"uint256"}],"name":"TaskCompleted","type":"event"},{"inputs":[{"internalType":"uint256","name":"_id","type":"uint256"},{"internalType":"string","name":"_name","type":"string"},{"internalType":"string","name":"_gender","type":"string"},{"internalType":"uint256","name":"_level","type":"uint256"},{"internalType":"string","name":"_types","type":"string"},{"internalType":"uint256","name":"_hunger","type":"uint256"},{"internalType":"uint256","name":"_hapiness","type":"uint256"},{"internalType":"uint256","name":"_health","type":"uint256"},{"internalType":"address","name":"_owner","type":"address"},{"internalType":"uint256","name":"_price","type":"uint256"},{"internalType":"bool","name":"_isForSale","type":"bool"},{"internalType":"uint256","name":"_likes","type":"uint256"}],"name":"addPet","outputs":[],"stateMutability":"nonpayable","type":"function"},{"inputs":[{"internalType":"string","name":"_name","type":"string"},{"internalType":"string","name":"_description","type":"string"},{"internalType":"uint256","name":"_reward","type":"uint256"},{"internalType":"enum TradingGame.TaskType","name":"_taskType","type":"uint8"}],"name":"addTask","outputs":[],"stateMutability":"nonpayable","type":"function"},{"inputs":[{"internalType":"uint256","name":"_petId","type":"uint256"}],"name":"buyPet","outputs":[],"stateMutability":"nonpayable","type":"function"},{"inputs":[{"internalType":"uint256","name":"_petId","type":"uint256"}],"name":"cancelPetSale","outputs":[],"stateMutability":"nonpayable","type":"function"},{"inputs":[{"internalType":"address","name":"_player","type":"address"}],"name":"checkAllTasksCompleted","outputs":[{"internalType":"bool","name":"","type":"bool"}],"stateMutability":"view","type":"function"},{"inputs":[{"internalType":"uint256","name":"_taskId","type":"uint256"}],"name":"completeTask","outputs":[],"stateMutability":"nonpayable","type":"function"},{"inputs":[{"internalType":"address","name":"","type":"address"},{"internalType":"uint256","name":"","type":"uint256"}],"name":"completedTasks","outputs":[{"internalType":"bool","name":"","type":"bool"}],"stateMutability":"view","type":"function"},{"inputs":[],"name":"dailyReward","outputs":[],"stateMutability":"nonpayable","type":"function"},{"inputs":[],"name":"defaultPets","outputs":[],"stateMutability":"nonpayable","type":"function"},{"inputs":[],"name":"defaultTasks","outputs":[],"stateMutability":"nonpayable","type":"function"},{"inputs":[],"name":"entryFee","outputs":[{"internalType":"uint256","name":"","type":"uint256"}],"stateMutability":"view","type":"function"},{"inputs":[{"internalType":"uint256","name":"_petId","type":"uint256"}],"name":"feedPet","outputs":[],"stateMutability":"nonpayable","type":"function"},{"inputs":[],"name":"gameFee","outputs":[{"internalType":"uint256","name":"","type":"uint256"}],"stateMutability":"view","type":"function"},{"inputs":[],"name":"getAllPets","outputs":[{"components":[{"internalType":"uint256","name":"id","type":"uint256"},{"internalType":"string","name":"name","type":"string"},{"internalType":"string","name":"gender","type":"string"},{"internalType":"uint256","name":"level","type":"uint256"},{"internalType":"string","name":"types","type":"string"},{"internalType":"uint256","name":"hunger","type":"uint256"},{"internalType":"uint256","name":"hapiness","type":"uint256"},{"internalType":"uint256","name":"health","type":"uint256"},{"internalType":"address","name":"owner","type":"address"},{"internalType":"uint256","name":"price","type":"uint256"},{"internalType":"bool","name":"isForSale","type":"bool"},{"internalType":"uint256","name":"likes","type":"uint256"}],"internalType":"struct TradingGame.Pet[]","name":"","type":"tuple[]"}],"stateMutability":"view","type":"function"},{"inputs":[{"internalType":"address","name":"_player","type":"address"}],"name":"getCompletedTasks","outputs":[{"internalType":"uint256[]","name":"","type":"uint256[]"}],"stateMutability":"view","type":"function"},{"inputs":[{"internalType":"address","name":"_playerAddress","type":"address"},{"internalType":"uint256","name":"_petId","type":"uint256"}],"name":"getPlayerPetBalance","outputs":[{"internalType":"uint256","name":"","type":"uint256"}],"stateMutability":"view","type":"function"},{"inputs":[{"internalType":"address","name":"","type":"address"}],"name":"hasJoined","outputs":[{"internalType":"bool","name":"","type":"bool"}],"stateMutability":"view","type":"function"},{"inputs":[],"name":"joinGame","outputs":[],"stateMutability":"payable","type":"function"},{"inputs":[{"internalType":"uint256","name":"_petId","type":"uint256"}],"name":"likePet","outputs":[],"stateMutability":"payable","type":"function"},{"inputs":[],"name":"owner","outputs":[{"internalType":"address","name":"","type":"address"}],"stateMutability":"view","type":"function"},{"inputs":[{"internalType":"uint256","name":"_petId","type":"uint256"},{"internalType":"uint256","name":"_price","type":"uint256"}],"name":"petForSale","outputs":[],"stateMutability":"nonpayable","type":"function"},{"inputs":[{"internalType":"uint256","name":"","type":"uint256"}],"name":"pets","outputs":[{"internalType":"uint256","name":"id","type":"uint256"},{"internalType":"string","name":"name","type":"string"},{"internalType":"string","name":"gender","type":"string"},{"internalType":"uint256","name":"level","type":"uint256"},{"internalType":"string","name":"types","type":"string"},{"internalType":"uint256","name":"hunger","type":"uint256"},{"internalType":"uint256","name":"hapiness","type":"uint256"},{"internalType":"uint256","name":"health","type":"uint256"},{"internalType":"address","name":"owner","type":"address"},{"internalType":"uint256","name":"price","type":"uint256"},{"internalType":"bool","name":"isForSale","type":"bool"},{"internalType":"uint256","name":"likes","type":"uint256"}],"stateMutability":"view","type":"function"},{"inputs":[{"internalType":"address","name":"","type":"address"}],"name":"playerInfo","outputs":[{"internalType":"address","name":"playerAddress","type":"address"},{"internalType":"string","name":"name","type":"string"},{"internalType":"uint256","name":"balance","type":"uint256"},{"internalType":"bool","name":"isActive","type":"bool"},{"internalType":"uint256","name":"lastClaimed","type":"uint256"},{"internalType":"uint256","name":"completedTaskCount","type":"uint256"}],"stateMutability":"view","type":"function"},{"inputs":[{"internalType":"address","name":"","type":"address"},{"internalType":"uint256","name":"","type":"uint256"}],"name":"playerPet","outputs":[{"internalType":"uint256","name":"","type":"uint256"}],"stateMutability":"view","type":"function"},{"inputs":[{"internalType":"address","name":"","type":"address"},{"internalType":"uint256","name":"","type":"uint256"}],"name":"playerPetIds","outputs":[{"internalType":"uint256","name":"","type":"uint256"}],"stateMutability":"view","type":"function"},{"inputs":[{"internalType":"address","name":"","type":"address"},{"internalType":"uint256","name":"","type":"uint256"}],"name":"playerTask","outputs":[{"internalType":"bool","name":"","type":"bool"}],"stateMutability":"view","type":"function"},{"inputs":[{"internalType":"address","name":"","type":"address"}],"name":"playerTaskCount","outputs":[{"internalType":"uint256","name":"","type":"uint256"}],"stateMutability":"view","type":"function"},{"inputs":[{"internalType":"uint256","name":"","type":"uint256"}],"name":"players","outputs":[{"internalType":"address","name":"playerAddress","type":"address"},{"internalType":"string","name":"name","type":"string"},{"internalType":"uint256","name":"balance","type":"uint256"},{"internalType":"bool","name":"isActive","type":"bool"},{"internalType":"uint256","name":"lastClaimed","type":"uint256"},{"internalType":"uint256","name":"completedTaskCount","type":"uint256"}],"stateMutability":"view","type":"function"},{"inputs":[{"internalType":"uint256","name":"_petId","type":"uint256"},{"internalType":"uint256","name":"_price","type":"uint256"}],"name":"sellPet","outputs":[],"stateMutability":"nonpayable","type":"function"},{"inputs":[{"internalType":"uint256","name":"_fee","type":"uint256"}],"name":"setFee","outputs":[],"stateMutability":"nonpayable","type":"function"},{"inputs":[{"internalType":"uint256","name":"","type":"uint256"}],"name":"tasks","outputs":[{"internalType":"uint256","name":"id","type":"uint256"},{"internalType":"string","name":"name","type":"string"},{"internalType":"string","name":"description","type":"string"},{"internalType":"uint256","name":"reward","type":"uint256"},{"internalType":"bool","name":"isCompleted","type":"bool"},{"internalType":"enum TradingGame.TaskType","name":"taskType","type":"uint8"}],"stateMutability":"view","type":"function"},{"inputs":[{"internalType":"uint256","name":"","type":"uint256"}],"name":"tasksById","outputs":[{"internalType":"uint256","name":"id","type":"uint256"},{"internalType":"string","name":"name","type":"string"},{"internalType":"string","name":"description","type":"string"},{"internalType":"uint256","name":"reward","type":"uint256"},{"internalType":"bool","name":"isCompleted","type":"bool"},{"internalType":"enum TradingGame.TaskType","name":"taskType","type":"uint8"}],"stateMutability":"view","type":"function"},{"inputs":[],"name":"token","outputs":[{"internalType":"contract IERC20","name":"","type":"address"}],"stateMutability":"view","type":"function"}],"evm":{"bytecode":{"linkReferences":{},"object":"6080346200009057601f6200544938819003918201601f19168301916001600160401b0383118484101762000095578084926020946040528339810103126200009057516001600160a01b038116908190036200009057662386f26fc10000600155600a60025560018060a01b031933816000541617600055600354161760035560405161539d9081620000ac8239f35b600080fd5b634e487b7160e01b600052604160045260246000fdfe608080604052600436101561001357600080fd5b60003560e01c908163072ea61c14614c72575080630b2237ed14614c255780630c596d911461473c5780631080d30f146131a157806317e837941461470257806325277a5a146146c157806342bbcd69146134f35780634b114691146134b05780635604d1a91461347d57806357187415146134305780635b236d971461321757806369fe0e2d146131e95780637781b86b146131a1578063877f4e12146131625780638d977672146130f85780638da5cb5b146130cf578063983c00de14612fb05780639edded1114612cf1578063c8c9bd2814611020578063c927522014610fb1578063c964ad4514610e77578063cf7deee514610ddc578063cfb869bf14610ce1578063d43bb72d146108ee578063d4f77b1c14610781578063de440fe91461068c578063e1e29558146104dc578063ea777eec146104be578063f3cd7add14610448578063f6a1cf91146103f0578063f71d96cb14610384578063fbfabac4146101b85763fc0c546a1461018a57600080fd5b346101b35760003660031901126101b3576003546040516001600160a01b039091168152602090f35b600080fd5b346101b35760203660031901126101b3576004356101ed6101d882614f65565b50600801546001600160a01b0316331461514c565b60056101f882614f65565b5060649182910154101561035357600361021183614f65565b5001548060011b908082046002149015171561033d573360005260056020526102448160026040600020015410156150f0565b3360005260056020526102606002604060002001918254615132565b9055600561026d83614f65565b5001805460091981019190821161033d5755600761028a83614f65565b5001805490600a820180921161033d575560066102a683614f65565b5001805490600a820180921161033d57556102c082614f65565b50508060076102ce84614f65565b50015411610329575b8060066102e384614f65565b50015411610315575b50337f9ef3ef96a69917dbd3b0809769d9f6728750e08ab778d8fbf3ea05b2ac7a9438600080a3005b600661032083614f65565b500155816102ec565b80600761033584614f65565b5001556102d7565b634e487b7160e01b600052601160045260246000fd5b60405162461bcd60e51b815260206004820152600c60248201526b5065742069732066756c6c2160a01b6044820152fd5b346101b35760203660031901126101b3576004356004548110156101b3576103ab90614fb7565b5080546001600160a01b03166103ec6103c660018401614da6565b9260028101549060ff600382015416600560048301549201549260405196879687614e8c565b0390f35b346101b35760403660031901126101b357610409614c8d565b6001600160a01b03166000908152600e60205260409020805460243591908210156101b35760209161043a91614f9f565b90546040519160031b1c8152f35b346101b35760203660031901126101b3576004356104686101d882614f65565b61048160ff600a61047884614f65565b500154166150ad565b600a61048c82614f65565b5001805460ff19169055337f1f76122ceba009bc563ff10d1bb29fcd3211e178931624d631121a877dd7fde4600080a3005b346101b35760003660031901126101b3576020600254604051908152f35b346101b3576020806003193601126101b35760043590600754821015610651573360005260098152604060002082600052815260ff6040600020541661060d57600361052783614f14565b50019182543360005260058352610547600260406000200191825461513f565b9055336000526009825260406000208160005282526040600020600160ff19825416179055336000526005825260056040600020019283546001810180911161033d5760059455546040519081527f50c83292cbed2e0e82c326c455870ed0cfe292eb185581159265e76147d205ea833392a3336000525260406000206005810154600754146105d357005b600201805490600f820180921161033d5755337ff0fd5bf81278bc1314a43ac7a3f0567ac69298193d24afc78f4509fffaac94b5600080a2005b6064906040519062461bcd60e51b82526004820152601760248201527f5461736b20616c726561647920636f6d706c65746564210000000000000000006044820152fd5b6064906040519062461bcd60e51b8252600482015260146024820152735461736b20646f6573206e6f742065786973742160601b6044820152fd5b60203660031901126101b3576004356106a481614f65565b50600801546001600160a01b0316331461073c57600c5481101561070657600b6106cd82614f65565b50018054906001820180921161033d5755337f608b673d19f28498e8e55664ba7500d0b17e731a244de245f1cd25a32eec2e4f600080a3005b60405162461bcd60e51b815260206004820152600e60248201526d506574206e6f7420666f756e642160901b6044820152606490fd5b60405162461bcd60e51b815260206004820152601e60248201527f596f752063616e206e6f74206c696b6520796f7572206f776e207065742100006044820152606490fd5b60003660031901126101b35761079b6001543410156150f0565b3360005260206006815260ff604060002054166108aa57600254604051906107c282614cbf565b3382526040516107d181614cda565b6006815265283630bcb2b960d11b8482015283830152604082015260016060820152426080820152600060a0820152600454600160401b8110156108945780600161081f9201600455614fb7565b61087e5761085692610833836005936151c9565b33600052600681526040600020600160ff198254161790555260406000206151c9565b337f31e760aa525306aba638a784082a013b6a1cc0a9a1789f3f22281c0453b10b1f600080a2005b634e487b7160e01b600052600060045260246000fd5b634e487b7160e01b600052604160045260246000fd5b6064906040519062461bcd60e51b82526004820152601c60248201527f596f7520616c7265616479206a6f696e6564207468652067616d6521000000006044820152fd5b346101b35760803660031901126101b3576004356001600160401b0381116101b35761091e903690600401614d16565b60249081356001600160401b0381116101b35761093f903690600401614d16565b916064359060058210156101b35761096260018060a01b03600054163314614ff2565b600754936040519261097384614cbf565b8584526020840191858352604085015260443560608501526000608085015260a0840152600160401b851015610ccc57600185016007556109b385614f14565b919091610cb75783518255518051906001600160401b038211610bd25781906109df6001850154614d6c565b601f8111610c64575b50602090601f8311600114610bf257600092610be7575b50508160011b916000199060031b1c19161760018201555b60408301518051906001600160401b038211610bd257610a3a6002840154614d6c565b601f8111610b8b575b50602090601f8311600114610b1857918060a09492600494600092610b0d575b50508160011b916000199060031b1c19161760028201555b606085015160038201550192610aa360808201511515859060ff801983541691151516179055565b0151906005821015610af9575091816000805160206153488339815191529361ff00610aec94549160081b169061ff001916179055604051918291604083526040830190614e4c565b60443560208301520390a2005b634e487b7160e01b60009081526021600452fd5b015190508980610a63565b90601f198316916002850160005260206000209260005b818110610b73575092600192859260049660a0989610610b5a575b505050811b016002820155610a7b565b015160001960f88460031b161c19169055898080610b4a565b92936020600181928786015181550195019301610b2f565b600284016000526020600020601f840160051c810160208510610bcb575b601f830160051c82018110610bbf575050610a43565b60008155600101610ba9565b5080610ba9565b83634e487b7160e01b60005260416004526000fd5b0151905087806109ff565b9250600184016000526020600020906000935b601f1984168510610c49576001945083601f19811610610c30575b505050811b016001820155610a17565b015160001960f88460031b161c19169055878080610c20565b81810151835560209485019460019093019290910190610c05565b909150600184016000526020600020601f840160051c810160208510610cb0575b90849392915b601f830160051c82018110610ca15750506109e8565b60008155859450600101610c8b565b5080610c85565b82634e487b7160e01b60005260006004526000fd5b50634e487b7160e01b60009081526041600452fd5b346101b35760203660031901126101b357600435600c548110156101b357610d0890614f65565b508054610d1760018301614da6565b91610d2460028201614da6565b600382015491610d3660048201614da6565b6005820154936006830154600784015490610dae60018060a01b0360088701541693600987015495610d9b600b60ff600a8b01541699015499610d8d6040519e8f9e8f908152610180908160208201520190614e4c565b8d810360408f015290614e4c565b9160608c01528a820360808c0152614e4c565b9660a089015260c088015260e087015261010086015261012085015215156101408401526101608301520390f35b346101b357610dea36614f4f565b610df66101d883614f65565b610e0660ff600a61047885614f65565b600a610e1183614f65565b5001805460ff19169055806009610e2784614f65565b5001556008610e3583614f65565b5001336001600160601b0360a01b8254161790556040519081527f2c6f4a5d663a61e7c390abca958862a538b7a9bdd4360b68b30862aefc9ea6e860203392a3005b346101b35760003660031901126101b3573360005260206005815260ff6003604060002001541615610f7757336000526005815262015180610ec160046040600020015442615132565b10610f1f5733600052600581526002604060002001908154600a810180911161033d5760059255336000525242600460406000200155337f6fe284d782e841b99f2a56d6a1564b2c222d1b259694856db9721519659326f1600080a2005b6084906040519062461bcd60e51b82526004820152602b60248201527f596f75206861766520616c726561647920636c61696d656420796f757220646160448201526a696c79207265776172642160a81b6064820152fd5b6064906040519062461bcd60e51b825260048201526013602482015272596f7520617265206e6f74206163746976652160681b6044820152fd5b346101b357610fbf36614f4f565b610fcb6101d883614f65565b600a610fd683614f65565b5001805460ff19166001179055806009610fef84614f65565b5001556040519081527f3f90625203379813fb9623a1de60ef53b769232ed539a1673d0ce181eea593bb60203392a3005b346101b35760003660031901126101b357600c5480612cac576040519061104682614cda565b600382526210d85d60ea1b602083015261105e615049565b6040519061106b82614cda565b60098252684c6567656e6461727960b81b602083015261109660018060a01b03600054163314614ff2565b604051936110a385614ca3565b6001855260208501526040840152606460608401526080830152606460a0830152606460c0830152606460e0830152600061010083015260646101208301526000610140830152620186a0610160830152600160401b811015610894578060016111109201600c55614f65565b91909161087e578051825560208101519182516001600160401b0381116108945761113e6001830154614d6c565b601f8111612c65575b506020601f8211600114612bf75781929394600092612bec575b50508160011b916000199060031b1c19161760018201555b60408201519182516001600160401b0381116108945761119c6002840154614d6c565b601f8111612ba5575b506020601f8211600114612b375781929394600092612b2c575b50508160011b916000199060031b1c19161760028301555b6060810151600383015560808101518051906001600160401b038211610894576112046004850154614d6c565b601f8111612ae5575b50602090601f8311600114612a6f579180600b949261016094600092612a64575b50508160011b916000199060031b1c19161760048501555b60a0810151600585015560c0810151600685015560e0810151600785015560018060a01b03610100820151166001600160601b0360a01b60088601541617600885015561012081015160098501556112b46101408201511515600a86019060ff801983541691151516179055565b01519101556040516112c581614cda565b6005815264446f67677960d81b60208201526112df615069565b604051906112ec82614cda565b60048252634570696360e01b602083015261131260018060a01b03600054163314614ff2565b6040519261131f84614ca3565b6002845260208401526040830152603260608301526080820152606460a0820152606460c0820152606460e08201526000610100820152605a61012082015260016101408201526103e8610160820152600c54600160401b8110156108945780600161138e9201600c55614f65565b91909161087e578051825560208101519182516001600160401b038111610894576113bc6001830154614d6c565b601f8111612a1d575b506020601f82116001146129af57819293946000926129a4575b50508160011b916000199060031b1c19161760018201555b60408201519182516001600160401b0381116108945761141a6002840154614d6c565b601f811161295d575b506020601f82116001146128ef57819293946000926128e4575b50508160011b916000199060031b1c19161760028301555b6060810151600383015560808101518051906001600160401b038211610894576114826004850154614d6c565b601f811161289d575b50602090601f8311600114612827579180600b94926101609460009261281c575b50508160011b916000199060031b1c19161760048501555b60a0810151600585015560c0810151600685015560e081015160078501556008840160018060a01b03610100830151166001600160601b0360a01b82541617905561012081015160098501556115306101408201511515600a86019060ff801983541691151516179055565b015191015560405161154181614cda565b600481526308cd2e6d60e31b602082015261155a615049565b61156261508b565b9061157860018060a01b03600054163314614ff2565b6040519261158584614ca3565b6003845260208401526040830152600a60608301526080820152606460a0820152606460c0820152606460e0820152600061010082015260326101208201526001610140820152600a610160820152600c54600160401b811015610894578060016115f39201600c55614f65565b91909161087e578051825560208101519182516001600160401b038111610894576116216001830154614d6c565b601f81116127d5575b506020601f8211600114612767578192939460009261275c575b50508160011b916000199060031b1c19161760018201555b60408201519182516001600160401b0381116108945761167f6002840154614d6c565b601f8111612715575b506020601f82116001146126a7578192939460009261269c575b50508160011b916000199060031b1c19161760028301555b6060810151600383015560808101518051906001600160401b038211610894576116e76004850154614d6c565b601f8111612655575b50602090601f83116001146125df579180600b9492610160946000926125d4575b50508160011b916000199060031b1c19161760048501555b60a0810151600585015560c0810151600685015560e081015160078501556008840160018060a01b03610100830151166001600160601b0360a01b82541617905561012081015160098501556117956101408201511515600a86019060ff801983541691151516179055565b01519101556040516117a681614cda565b6006815265149858989a5d60d21b60208201526117c1615069565b6117c961508b565b906117df60018060a01b03600054163314614ff2565b604051926117ec84614ca3565b6004845260208401526040830152600f60608301526080820152606460a0820152606460c0820152606460e08201526000610100820152603761012082015260016101408201526014610160820152600c54600160401b8110156108945780600161185a9201600c55614f65565b91909161087e578051825560208101519182516001600160401b038111610894576118886001830154614d6c565b601f811161258d575b506020601f821160011461251f5781929394600092612514575b50508160011b916000199060031b1c19161760018201555b60408201519182516001600160401b038111610894576118e66002840154614d6c565b601f81116124cd575b506020601f821160011461245f5781929394600092612454575b50508160011b916000199060031b1c19161760028301555b6060810151600383015560808101518051906001600160401b0382116108945761194e6004850154614d6c565b601f811161240d575b50602090601f8311600114612397579180600b94926101609460009261238c575b50508160011b916000199060031b1c19161760048501555b60a0810151600585015560c0810151600685015560e081015160078501556008840160018060a01b03610100830151166001600160601b0360a01b82541617905561012081015160098501556119fc6101408201511515600a86019060ff801983541691151516179055565b0151910155604051611a0d81614cda565b6004815263109a5c9960e21b6020820152611a26615049565b60405190611a3382614cda565b60048252635261726560e01b6020830152611a5960018060a01b03600054163314614ff2565b60405192611a6684614ca3565b6005845260208401526040830152601e60608301526080820152606460a0820152606460c0820152606460e08201526000610100820152602861012082015260016101408201526032610160820152600c54600160401b81101561089457806001611ad49201600c55614f65565b91909161087e578051825560208101519182516001600160401b03811161089457611b026001830154614d6c565b601f8111612345575b506020601f82116001146122d757819293946000926122cc575b50508160011b916000199060031b1c19161760018201555b60408201519182516001600160401b03811161089457611b606002840154614d6c565b601f8111612285575b506020601f8211600114612217578192939460009261220c575b50508160011b916000199060031b1c19161760028301555b6060810151600383015560808101518051906001600160401b03821161089457611bc86004850154614d6c565b601f81116121c5575b50602090601f831160011461214f579180600b949261016094600092612144575b50508160011b916000199060031b1c19161760048501555b60a0810151600585015560c0810151600685015560e081015160078501556008840160018060a01b03610100830151166001600160601b0360a01b8254161790556101208101516009850155611c766101408201511515600a86019060ff801983541691151516179055565b0151910155604051611c8781614cda565b600881526723babb32b931b4b760c11b6020820152611ca4615049565b60405190611cb182614cda565b600782526654616b6c61636960c81b6020830152611cda60018060a01b03600054163314614ff2565b60405192611ce784614ca3565b6006845260208401526040830152600160608301526080820152606460a0820152606460c0820152606460e08201526000610100820152600161012082015260016101408201526001610160820152600c54600160401b81101561089457806001611d559201600c55614f65565b91909161087e578051825560208101519182516001600160401b03811161089457611d836001830154614d6c565b601f81116120fd575b506020601f82116001146120915781929394600092612086575b50508160011b916000199060031b1c19161760018201555b60408201519182516001600160401b03811161089457611de16002840154614d6c565b601f811161203f575b506020601f8211600114611fd15781929394600092611fc6575b50508160011b916000199060031b1c19161760028301555b6060810151600383015560808101518051906001600160401b03821161089457611e496004850154614d6c565b601f8111611f7f575b50602090601f8311600114611f09579180600b949261016094600092611efe575b50508160011b916000199060031b1c19161760048501555b60a0810151600585015560c0810151600685015560e081015160078501556008840160018060a01b03610100830151166001600160601b0360a01b8254161790556101208101516009850155611ef76101408201511515600a86019060ff801983541691151516179055565b0151910155005b015190508680611e73565b906004850160005260206000209160005b601f1985168110611f67575092600b94926001926101609583601f19811610611f4e575b505050811b016004850155611e8b565b015160001960f88460031b161c19169055868080611f3e565b91926020600181928685015181550194019201611f1a565b600485016000526020600020601f840160051c810160208510611fbf575b601f830160051c82018110611fb3575050611e52565b60008155600101611f9d565b5080611f9d565b015190508480611e04565b6002840160005260206000209060005b601f19841681106120275750600193949583601f1981161061200e575b505050811b016002830155611e1c565b015160001960f88460031b161c19169055848080611ffe565b9091602060018192858a015181550193019101611fe1565b600284016000526020600020601f830160051c81016020841061207f575b601f830160051c82018110612073575050611dea565b6000815560010161205d565b508061205d565b015190508480611da6565b600183016000526020600020906000601f198416905b8181106120e5575095836001959697106120cc575b505050811b016001820155611dbe565b015160001960f88460031b161c191690558480806120bc565b9192602060018192868b0151815501940192016120a7565b600183016000526020600020601f830160051c81016020841061213d575b601f830160051c82018110612131575050611d8c565b6000815560010161211b565b508061211b565b015190508680611bf2565b906004850160005260206000209160005b601f19851681106121ad575092600b94926001926101609583601f19811610612194575b505050811b016004850155611c0a565b015160001960f88460031b161c19169055868080612184565b91926020600181928685015181550194019201612160565b600485016000526020600020601f840160051c810160208510612205575b601f830160051c820181106121f9575050611bd1565b600081556001016121e3565b50806121e3565b015190508480611b83565b6002840160005260206000209060005b601f198416811061226d5750600193949583601f19811610612254575b505050811b016002830155611b9b565b015160001960f88460031b161c19169055848080612244565b9091602060018192858a015181550193019101612227565b600284016000526020600020601f830160051c8101602084106122c5575b601f830160051c820181106122b9575050611b69565b600081556001016122a3565b50806122a3565b015190508480611b25565b6001830160005260206000209060005b601f198416811061232d5750600193949583601f19811610612314575b505050811b016001820155611b3d565b015160001960f88460031b161c19169055848080612304565b9091602060018192858a0151815501930191016122e7565b600183016000526020600020601f830160051c810160208410612385575b601f830160051c82018110612379575050611b0b565b60008155600101612363565b5080612363565b015190508680611978565b906004850160005260206000209160005b601f19851681106123f5575092600b94926001926101609583601f198116106123dc575b505050811b016004850155611990565b015160001960f88460031b161c191690558680806123cc565b919260206001819286850151815501940192016123a8565b600485016000526020600020601f840160051c81016020851061244d575b601f830160051c82018110612441575050611957565b6000815560010161242b565b508061242b565b015190508480611909565b6002840160005260206000209060005b601f19841681106124b55750600193949583601f1981161061249c575b505050811b016002830155611921565b015160001960f88460031b161c1916905584808061248c565b9091602060018192858a01518155019301910161246f565b600284016000526020600020601f830160051c81016020841061250d575b601f830160051c820181106125015750506118ef565b600081556001016124eb565b50806124eb565b0151905084806118ab565b6001830160005260206000209060005b601f19841681106125755750600193949583601f1981161061255c575b505050811b0160018201556118c3565b015160001960f88460031b161c1916905584808061254c565b9091602060018192858a01518155019301910161252f565b600183016000526020600020601f830160051c8101602084106125cd575b601f830160051c820181106125c1575050611891565b600081556001016125ab565b50806125ab565b015190508680611711565b906004850160005260206000209160005b601f198516811061263d575092600b94926001926101609583601f19811610612624575b505050811b016004850155611729565b015160001960f88460031b161c19169055868080612614565b919260206001819286850151815501940192016125f0565b600485016000526020600020601f840160051c810160208510612695575b601f830160051c820181106126895750506116f0565b60008155600101612673565b5080612673565b0151905084806116a2565b6002840160005260206000209060005b601f19841681106126fd5750600193949583601f198116106126e4575b505050811b0160028301556116ba565b015160001960f88460031b161c191690558480806126d4565b9091602060018192858a0151815501930191016126b7565b600284016000526020600020601f830160051c810160208410612755575b601f830160051c82018110612749575050611688565b60008155600101612733565b5080612733565b015190508480611644565b6001830160005260206000209060005b601f19841681106127bd5750600193949583601f198116106127a4575b505050811b01600182015561165c565b015160001960f88460031b161c19169055848080612794565b9091602060018192858a015181550193019101612777565b600183016000526020600020601f830160051c810160208410612815575b601f830160051c8201811061280957505061162a565b600081556001016127f3565b50806127f3565b0151905086806114ac565b906004850160005260206000209160005b601f1985168110612885575092600b94926001926101609583601f1981161061286c575b505050811b0160048501556114c4565b015160001960f88460031b161c1916905586808061285c565b91926020600181928685015181550194019201612838565b600485016000526020600020601f840160051c8101602085106128dd575b601f830160051c820181106128d157505061148b565b600081556001016128bb565b50806128bb565b01519050848061143d565b6002840160005260206000209060005b601f19841681106129455750600193949583601f1981161061292c575b505050811b016002830155611455565b015160001960f88460031b161c1916905584808061291c565b9091602060018192858a0151815501930191016128ff565b600284016000526020600020601f830160051c81016020841061299d575b601f830160051c82018110612991575050611423565b6000815560010161297b565b508061297b565b0151905084806113df565b6001830160005260206000209060005b601f1984168110612a055750600193949583601f198116106129ec575b505050811b0160018201556113f7565b015160001960f88460031b161c191690558480806129dc565b9091602060018192858a0151815501930191016129bf565b600183016000526020600020601f830160051c810160208410612a5d575b601f830160051c82018110612a515750506113c5565b60008155600101612a3b565b5080612a3b565b01519050868061122e565b906004850160005260206000209160005b601f1985168110612acd575092600b94926001926101609583601f19811610612ab4575b505050811b016004850155611246565b015160001960f88460031b161c19169055868080612aa4565b91926020600181928685015181550194019201612a80565b600485016000526020600020601f840160051c810160208510612b25575b601f830160051c82018110612b1957505061120d565b60008155600101612b03565b5080612b03565b0151905084806111bf565b6002840160005260206000209060005b601f1984168110612b8d5750600193949583601f19811610612b74575b505050811b0160028301556111d7565b015160001960f88460031b161c19169055848080612b64565b9091602060018192858a015181550193019101612b47565b600284016000526020600020601f830160051c810160208410612be5575b601f830160051c82018110612bd95750506111a5565b60008155600101612bc3565b5080612bc3565b015190508480611161565b6001830160005260206000209060005b601f1984168110612c4d5750600193949583601f19811610612c34575b505050811b016001820155611179565b015160001960f88460031b161c19169055848080612c24565b9091602060018192858a015181550193019101612c07565b600183016000526020600020601f830160051c810160208410612ca5575b601f830160051c82018110612c99575050611147565b60008155600101612c83565b5080612c83565b60405162461bcd60e51b815260206004820152601b60248201527f44656661756c74207065747320616c72656164792065786973742100000000006044820152606490fd5b346101b3576020806003193601126101b35760043590612d1760ff600a61047885614f65565b3360005260058152612d406002604060002001546009612d3685614f65565b50015411156150f0565b612d4982614f65565b50600801546001600160a01b039081163314612f6b576008612d6a84614f65565b500154166009612d7984614f65565b5001543360005260058352612d976002604060002001918254615132565b90556009612da484614f65565b5001548160005260058352612dc2600260406000200191825461513f565b90556008612dcf84614f65565b500180546001600160a01b03191633179055600a612dec84614f65565b500160ff19815416905580600052600d825260406000208360005282526000604081205533600052600d82526040600020836000528252600191829182604060002055600052600e8152836040600020836000905b612eba575b505050600e915033600052526040600020805491600160401b83101561089457828492612e7992612e9295018155614f9f565b90919082549060031b91821b91600019901b1916179055565b337f87b964eb5a2c9bec2a555f2dab828a37bf9c62ed6d24158233c27783ad6484d3600080a3005b815480821015612f65578390612ed08385614f9f565b929054600393841b1c14612eef575050612ee9906151ba565b84612e41565b60001996509093508581019190821161033d57612e79612f12612f1f9385614f9f565b905490861b1c9184614f9f565b8054938415612f4f5780600e950192612f388484614f9f565b81939154921b1b1916905555829150838580612e46565b634e487b7160e01b600052603160045260246000fd5b50612e46565b60405162461bcd60e51b815260048101839052601960248201527f596f7520616c7265616479206f776e20746869732070657421000000000000006044820152606490fd5b346101b3576020806003193601126101b3576001600160a01b03612fd2614c8d565b1680600052600b8252604060002054613003612fed826151a3565b91612ffb6040519384614cf5565b8083526151a3565b8184019290601f190136843760008091600754925b83811061306257868587604051928392818401908285525180915260408401929160005b82811061304b57505050500390f35b83518552869550938101939281019260010161303c565b8160005260098752604060002081600052875260ff60406000205416613091575b61308c906151ba565b613018565b9184518110156130b9576130b181848961308c9460051b890101526151ba565b929050613083565b634e487b7160e01b600052603260045260246000fd5b346101b35760003660031901126101b3576000546040516001600160a01b039091168152602090f35b346101b35760203660031901126101b3576004356007548110156101b35761311f90614f14565b508054906103ec61313260018301614da6565b9161313f60028201614da6565b93600460038301549201549160405195869560ff808660081c1695169387614ec9565b346101b35760203660031901126101b3576001600160a01b03613183614c8d565b166000526006602052602060ff604060002054166040519015158152f35b346101b35760403660031901126101b3576001600160a01b036131c2614c8d565b16600052600d60205260406000206024356000526020526020604060002054604051908152f35b346101b35760203660031901126101b35761320f60018060a01b03600054163314614ff2565b600435600155005b346101b35760003660031901126101b357600c8054613235816151a3565b916132436040519384614cf5565b8183526020918284019182816000527fdf6966c971051c3d54ec59162606531493a51404a002842f56009d7e5cf4a8c76000915b84831061337657604080518881528951818a01819052600092600582901b83018101918a918c9085015b8287106132ae5785850386f35b909192938280600192603f19898203018552875190815181526133136132f66132e4858501516101808088870152850190614e4c565b60408501518482036040860152614e4c565b606080850151908401526080808501519084830390850152614e4c565b9160a0808201519083015260c0808201519083015260e081015160e0830152610100868060a01b038183015116908301526101208082015190830152610140808201511515908301526101608091015191015296019201960195929190926132a1565b838760019260409a999a5161338a81614ca3565b85548152613399858701614da6565b838201526133a960028701614da6565b6040820152600386015460608201526133c460048701614da6565b6080820152600586015460a0820152600686015460c0820152600786015460e0820152848060a01b03600887015416610100820152600986015461012082015260ff600a870154161515610140820152600b860154610160820152815201920192019190969596613277565b346101b35760403660031901126101b3576001600160a01b03613451614c8d565b1660005260086020526040600020602435600052602052602060ff604060002054166040519015158152f35b346101b35760203660031901126101b357600435600052600a60205260406000208054906103ec61313260018301614da6565b346101b35760203660031901126101b3576001600160a01b03806134d2614c8d565b1660005260056020526040600020908154166103ec6103c660018401614da6565b346101b35760003660031901126101b3576000546001600160a01b0316331461351b81614ff2565b6040519061352882614cda565b6007825266109d5e4814195d60ca1b60208301526135676040519161354c83614cda565b6009835268109d5e4818481c195d60ba1b6020840152614ff2565b6007549160405161357781614cbf565b83815260208101928284526040820152600f606082015260006080820152600060a0820152600160401b84101561089457600184016007556135b884614f14565b93909361087e5781518455518051906001600160401b0382116108945781906135e46001870154614d6c565b601f811161466e575b50602090601f83116001146145fc576000926145f1575b50508160011b916000199060031b1c19161760018401555b60408101518051906001600160401b0382116108945761363f6002860154614d6c565b601f81116145aa575b50602090601f83116001146145375760a09392916000918361452c575b50508160011b916000199060031b1c19161760028501555b606081015160038501556136a660808201511515600486019060ff801983541691151516179055565b0151906005821015613ec0578260046136f29361ff00826000805160206153488339815191529701549160081b169061ff00191617910155604051918291604083526040830190614e4c565b600f60208301520390a260405161370881614cda565b6008815267119959590814195d60c21b602082015260405161372981614cda565b600a815269119959590818481c195d60b21b602082015261375560018060a01b03600054163314614ff2565b600754916040519161376683614cbf565b83835281602084015260408301526005606083015260006080830152600160a0830152600160401b83101561089457600183016007556137a583614f14565b92909261087e578051835560208101518051906001600160401b0382116108945781906137d56001870154614d6c565b601f81116144d9575b50602090601f83116001146144675760009261445c575b50508160011b916000199060031b1c19161760018401555b60408101518051906001600160401b038211610894576138306002860154614d6c565b601f8111614415575b50602090601f83116001146143a25760a093929160009183614397575b50508160011b916000199060031b1c19161760028501555b6060810151600385015561389760808201511515600486019060ff801983541691151516179055565b0151906005821015613ec0578260046138e39361ff00826000805160206153488339815191529701549160081b169061ff00191617910155604051918291604083526040830190614e4c565b600560208301520390a26040516138f981614cda565b6008815267131a5ad94814195d60c21b602082015260405161391a81614cda565b600a815269131a5ad94818481c195d60b21b602082015261394660018060a01b03600054163314614ff2565b600754916040519161395783614cbf565b83835281602084015260408301526002606083015260006080830152600260a0830152600160401b831015610894576001830160075561399683614f14565b92909261087e578051835560208101518051906001600160401b0382116108945781906139c66001870154614d6c565b601f8111614344575b50602090601f83116001146142d2576000926142c7575b50508160011b916000199060031b1c19161760018401555b60408101518051906001600160401b03821161089457613a216002860154614d6c565b601f8111614280575b50602090601f831160011461420d5760a093929160009183614202575b50508160011b916000199060031b1c19161760028501555b60608101516003850155613a8860808201511515600486019060ff801983541691151516179055565b0151906005821015613ec057826004613ad49361ff00826000805160206153488339815191529701549160081b169061ff00191617910155604051918291604083526040830190614e4c565b600260208301520390a2604051613aea81614cda565b600881526714d95b1b0814195d60c21b6020820152604051613b0b81614cda565b600a81526914d95b1b0818481c195d60b21b6020820152613b3760018060a01b03600054163314614ff2565b6007549160405191613b4883614cbf565b8383528160208401526040830152600f606083015260006080830152600360a0830152600160401b8310156108945760018301600755613b8783614f14565b92909261087e578051835560208101518051906001600160401b038211610894578190613bb76001870154614d6c565b601f81116141af575b50602090601f831160011461413d57600092614132575b50508160011b916000199060031b1c19161760018401555b60408101518051906001600160401b03821161089457613c126002860154614d6c565b601f81116140eb575b50602090601f83116001146140785760a09392916000918361406d575b50508160011b916000199060031b1c19161760028501555b60608101516003850155613c7960808201511515600486019060ff801983541691151516179055565b0151906005821015613ec057826004613cc59361ff00826000805160206153488339815191529701549160081b169061ff00191617910155604051918291604083526040830190614e4c565b600f60208301520390a2604051613cdb81614cda565b600b81526a2230b4b63c902637b3b4b760a91b6020820152604051613cff81614cda565b600b81526a4c6f67696e206461696c7960a81b6020820152613d2c60018060a01b03600054163314614ff2565b6007549160405191613d3d83614cbf565b8383528160208401526040830152600a606083015260006080830152600460a0830152600160401b8310156108945760018301600755613d7c83614f14565b61087e578251815560208301518051906001600160401b038211610894578190613da96001850154614d6c565b601f811161401a575b50602090601f8311600114613fa857600092613f9d575b50508160011b916000199060031b1c19161760018201555b60408301518051906001600160401b03821161089457613e046002840154614d6c565b601f8111613f56575b50602090601f8311600114613ee157918060a09492600494600092613ed6575b50508160011b916000199060031b1c19161760028201555b606085015160038201550192613e6d60808201511515859060ff801983541691151516179055565b0151906005821015613ec05782613eb49261ff0060008051602061534883398151915295549160081b169061ff001916179055604051918291604083526040830190614e4c565b600a60208301520390a2005b634e487b7160e01b600052602160045260246000fd5b015190508880613e2d565b906002840160005260206000209160005b601f1985168110613f3e57509260a0949260019260049583601f19811610613f25575b505050811b016002820155613e45565b015160001960f88460031b161c19169055888080613f15565b91926020600181928685015181550194019201613ef2565b600284016000526020600020601f840160051c810160208510613f96575b601f830160051c82018110613f8a575050613e0d565b60008155600101613f74565b5080613f74565b015190508680613dc9565b9250600184016000526020600020906000935b601f1984168510613fff576001945083601f19811610613fe6575b505050811b016001820155613de1565b015160001960f88460031b161c19169055868080613fd6565b81810151835560209485019460019093019290910190613fbb565b909150600184016000526020600020601f840160051c810160208510614066575b90849392915b601f830160051c82018110614057575050613db2565b60008155859450600101614041565b508061403b565b015190508780613c38565b906002860160005260206000209160005b601f19851681106140d3575091839160019360a09695601f198116106140ba575b505050811b016002850155613c50565b015160001960f88460031b161c191690558780806140aa565b91926020600181928685015181550194019201614089565b600286016000526020600020601f840160051c81016020851061412b575b601f830160051c8201811061411f575050613c1b565b60008155600101614109565b5080614109565b015190508680613bd7565b9250600186016000526020600020906000935b601f1984168510614194576001945083601f1981161061417b575b505050811b016001840155613bef565b015160001960f88460031b161c1916905586808061416b565b81810151835560209485019460019093019290910190614150565b909150600186016000526020600020601f840160051c8101602085106141fb575b90849392915b601f830160051c820181106141ec575050613bc0565b600081558594506001016141d6565b50806141d0565b015190508780613a47565b906002860160005260206000209160005b601f1985168110614268575091839160019360a09695601f1981161061424f575b505050811b016002850155613a5f565b015160001960f88460031b161c1916905587808061423f565b9192602060018192868501518155019401920161421e565b600286016000526020600020601f840160051c8101602085106142c0575b601f830160051c820181106142b4575050613a2a565b6000815560010161429e565b508061429e565b0151905086806139e6565b9250600186016000526020600020906000935b601f1984168510614329576001945083601f19811610614310575b505050811b0160018401556139fe565b015160001960f88460031b161c19169055868080614300565b818101518355602094850194600190930192909101906142e5565b909150600186016000526020600020601f840160051c810160208510614390575b90849392915b601f830160051c820181106143815750506139cf565b6000815585945060010161436b565b5080614365565b015190508780613856565b906002860160005260206000209160005b601f19851681106143fd575091839160019360a09695601f198116106143e4575b505050811b01600285015561386e565b015160001960f88460031b161c191690558780806143d4565b919260206001819286850151815501940192016143b3565b600286016000526020600020601f840160051c810160208510614455575b601f830160051c82018110614449575050613839565b60008155600101614433565b5080614433565b0151905086806137f5565b9250600186016000526020600020906000935b601f19841685106144be576001945083601f198116106144a5575b505050811b01600184015561380d565b015160001960f88460031b161c19169055868080614495565b8181015183556020948501946001909301929091019061447a565b909150600186016000526020600020601f840160051c810160208510614525575b90849392915b601f830160051c820181106145165750506137de565b60008155859450600101614500565b50806144fa565b015190508780613665565b906002860160005260206000209160005b601f1985168110614592575091839160019360a09695601f19811610614579575b505050811b01600285015561367d565b015160001960f88460031b161c19169055878080614569565b91926020600181928685015181550194019201614548565b600286016000526020600020601f840160051c8101602085106145ea575b601f830160051c820181106145de575050613648565b600081556001016145c8565b50806145c8565b015190508680613604565b9250600186016000526020600020906000935b601f1984168510614653576001945083601f1981161061463a575b505050811b01600184015561361c565b015160001960f88460031b161c1916905586808061462a565b8181015183556020948501946001909301929091019061460f565b909150600186016000526020600020601f840160051c8101602085106146ba575b90849392915b601f830160051c820181106146ab5750506135ed565b60008155859450600101614695565b508061468f565b346101b35760203660031901126101b3576001600160a01b036146e2614c8d565b166000526005602052602060056040600020015460075414604051908152f35b346101b35760203660031901126101b3576001600160a01b03614723614c8d565b16600052600b6020526020604060002054604051908152f35b346101b3576101803660031901126101b3576024356001600160401b0381116101b35761476d903690600401614d16565b6044356001600160401b0381116101b35761478c903690600401614d16565b6084356001600160401b0381116101b3576147ab903690600401614d16565b610104356001600160a01b03811691908290036101b35761014435928315158094036101b3576147e660018060a01b03600054163314614ff2565b604051946147f386614ca3565b6004358652602086015260408501526064356060850152608084015260a43560a084015260c43560c084015260e43560e08401526101008301526101243561012083015261014082015261016435610160820152600c54600160401b811015610894578060016148669201600c55614f65565b91909161087e578051825560208101519182516001600160401b038111610894576148946001830154614d6c565b601f8111614bde575b506020601f8211600114614b725781929394600092614b67575b50508160011b916000199060031b1c19161760018201555b60408201519182516001600160401b038111610894576148f26002840154614d6c565b601f8111614b20575b506020601f8211600114614ab25781929394600092614aa7575b50508160011b916000199060031b1c19161760028301555b6060810151600383015560808101518051906001600160401b0382116108945761495a6004850154614d6c565b601f8111614a60575b50602090601f8311600114614a06579180600b949261016094600092611efe5750508160011b916000199060031b1c191617600485015560a0810151600585015560c0810151600685015560e081015160078501556008840160018060a01b03610100830151166001600160601b0360a01b8254161790556101208101516009850155611ef76101408201511515600a86019060ff801983541691151516179055565b90601f198316916004860160005260206000209260005b818110614a48575092600192859261016096600b989610611f4e57505050811b016004850155611e8b565b92936020600181928786015181550195019301614a1d565b600485016000526020600020601f840160051c810160208510614aa0575b601f830160051c82018110614a94575050614963565b60008155600101614a7e565b5080614a7e565b015190508480614915565b6002840160005260206000209060005b601f1984168110614b085750600193949583601f19811610614aef575b505050811b01600283015561492d565b015160001960f88460031b161c19169055848080614adf565b9091602060018192858a015181550193019101614ac2565b600284016000526020600020601f830160051c810160208410614b60575b601f830160051c82018110614b545750506148fb565b60008155600101614b3e565b5080614b3e565b0151905084806148b7565b600183016000526020600020906000601f198416905b818110614bc657509583600195969710614bad575b505050811b0160018201556148cf565b015160001960f88460031b161c19169055848080614b9d565b9192602060018192868b015181550194019201614b88565b600183016000526020600020601f830160051c810160208410614c1e575b601f830160051c82018110614c1257505061489d565b60008155600101614bfc565b5080614bfc565b346101b35760403660031901126101b3576001600160a01b03614c46614c8d565b1660005260096020526040600020602435600052602052602060ff604060002054166040519015158152f35b346101b35760003660031901126101b3576020906001548152f35b600435906001600160a01b03821682036101b357565b61018081019081106001600160401b0382111761089457604052565b60c081019081106001600160401b0382111761089457604052565b604081019081106001600160401b0382111761089457604052565b90601f801991011681019081106001600160401b0382111761089457604052565b81601f820112156101b3578035906001600160401b0382116108945760405192614d4a601f8401601f191660200185614cf5565b828452602083830101116101b357816000926020809301838601378301015290565b90600182811c92168015614d9c575b6020831014614d8657565b634e487b7160e01b600052602260045260246000fd5b91607f1691614d7b565b9060405191826000825492614dba84614d6c565b908184526001948581169081600014614e295750600114614de6575b5050614de492500383614cf5565b565b9093915060005260209081600020936000915b818310614e11575050614de493508201013880614dd6565b85548884018501529485019487945091830191614df9565b915050614de494506020925060ff191682840152151560051b8201013880614dd6565b919082519283825260005b848110614e78575050826000602080949584010152601f8019910116010190565b602081830181015184830182015201614e57565b9296959491614eb39060a09592600180881b0316855260c0602086015260c0850190614e4c565b9660408401521515606083015260808201520152565b939695949290614ef892614eea91865260c0602087015260c0860190614e4c565b908482036040860152614e4c565b946060830152151560808201526005821015613ec05760a00152565b6007548110156130b9576005906007600052027fa66cc928b5edb82af9bd49922954155ab7b0942694bea4ce44661d9a8736c6880190600090565b60409060031901126101b3576004359060243590565b600c548110156130b957600c9081600052027fdf6966c971051c3d54ec59162606531493a51404a002842f56009d7e5cf4a8c70190600090565b80548210156130b95760005260206000200190600090565b6004548110156130b9576006906004600052027f8a35acfbc15ff81a39ae7d344fd709f28e8600b4aa8c65c6b64bfe7fe36bd19b0190600090565b15614ff957565b60405162461bcd60e51b815260206004820152602260248201527f4f6e6c79206f776e65722063616e2063616c6c20746869732066756e6374696f6044820152616e2160f01b6064820152608490fd5b6040519061505682614cda565b60048252634d616c6560e01b6020830152565b6040519061507682614cda565b600682526546656d616c6560d01b6020830152565b6040519061509882614cda565b600682526521b7b6b6b7b760d11b6020830152565b156150b457565b60405162461bcd60e51b8152602060048201526014602482015273506574206973206e6f7420666f722073616c652160601b6044820152606490fd5b156150f757565b60405162461bcd60e51b81526020600482015260136024820152724e6f7420656e6f7567682062616c616e63652160681b6044820152606490fd5b9190820391821161033d57565b9190820180921161033d57565b1561515357565b60405162461bcd60e51b815260206004820152602260248201527f596f7520617265206e6f7420746865206f776e6572206f662074686973207065604482015261742160f01b6064820152608490fd5b6001600160401b0381116108945760051b60200190565b600019811461033d5760010190565b9060018060a01b038151166001600160601b0360a01b835416178255600190818301602080830151938451916001600160401b0383116108945761520d8454614d6c565b601f81116152fe575b5080601f841160011461528f57509180809260a0969594600598600094615284575b50501b916000199060031b1c19161790555b6040810151600285015561527360608201511515600386019060ff801983541691151516179055565b608081015160048501550151910155565b015192503880615238565b91939495601f1984168660005283600020936000905b8282106152e7575050916005979593918560a0989694106152ce575b505050811b01905561524a565b015160001960f88460031b161c191690553880806152c1565b8088869782949787015181550196019401906152a5565b6000858152828120601f860160051c81019284871061533d575b601f0160051c019184905b83811061533257505050615216565b828155018490615323565b909250829061531856fee1aae1cb4745fccc4315dc70504babb014a5b3de0fc5a1b47b1b7cbc03d6d035a2646970667358221220303677f2416cbabb4b87abf0bc02e28e2f6d0cab95a65746bbc72d11685b018564736f6c63430008140033","opcodes":"PUSH1 0x80 CALLVALUE PUSH3 0x90 JUMPI PUSH1 0x1F PUSH3 0x5449 CODESIZE DUP2 SWAP1 SUB SWAP2 DUP3 ADD PUSH1 0x1F NOT AND DUP4 ADD SWAP2 PUSH1 0x1 PUSH1 0x1 PUSH1 0x40 SHL SUB DUP4 GT DUP5 DUP5 LT OR PUSH3 0x95 JUMPI DUP1 DUP5 SWAP3 PUSH1 0x20 SWAP5 PUSH1 0x40 MSTORE DUP4 CODECOPY DUP2 ADD SUB SLT PUSH3 0x90 JUMPI MLOAD PUSH1 0x1 PUSH1 0x1 PUSH1 0xA0 SHL SUB DUP2 AND SWAP1 DUP2 SWAP1 SUB PUSH3 0x90 JUMPI PUSH7 0x2386F26FC10000 PUSH1 0x1 SSTORE PUSH1 0xA PUSH1 0x2 SSTORE PUSH1 0x1 DUP1 PUSH1 0xA0 SHL SUB NOT CALLER DUP2 PUSH1 0x0 SLOAD AND OR PUSH1 0x0 SSTORE PUSH1 0x3 SLOAD AND OR PUSH1 0x3 SSTORE PUSH1 0x40 MLOAD PUSH2 0x539D SWAP1 DUP2 PUSH3 0xAC DUP3 CODECOPY RETURN JUMPDEST PUSH1 0x0 DUP1 REVERT JUMPDEST PUSH4 0x4E487B71 PUSH1 0xE0 SHL PUSH1 0x0 MSTORE PUSH1 0x41 PUSH1 0x4 MSTORE PUSH1 0x24 PUSH1 0x0 REVERT INVALID PUSH1 0x80 DUP1 PUSH1 0x40 MSTORE PUSH1 0x4 CALLDATASIZE LT ISZERO PUSH2 0x13 JUMPI PUSH1 0x0 DUP1 REVERT JUMPDEST PUSH1 0x0 CALLDATALOAD PUSH1 0xE0 SHR SWAP1 DUP2 PUSH4 0x72EA61C EQ PUSH2 0x4C72 JUMPI POP DUP1 PUSH4 0xB2237ED EQ PUSH2 0x4C25 JUMPI DUP1 PUSH4 0xC596D91 EQ PUSH2 0x473C JUMPI DUP1 PUSH4 0x1080D30F EQ PUSH2 0x31A1 JUMPI DUP1 PUSH4 0x17E83794 EQ PUSH2 0x4702 JUMPI DUP1 PUSH4 0x25277A5A EQ PUSH2 0x46C1 JUMPI DUP1 PUSH4 0x42BBCD69 EQ PUSH2 0x34F3 JUMPI DUP1 PUSH4 0x4B114691 EQ PUSH2 0x34B0 JUMPI DUP1 PUSH4 0x5604D1A9 EQ PUSH2 0x347D JUMPI DUP1 PUSH4 0x57187415 EQ PUSH2 0x3430 JUMPI DUP1 PUSH4 0x5B236D97 EQ PUSH2 0x3217 JUMPI DUP1 PUSH4 0x69FE0E2D EQ PUSH2 0x31E9 JUMPI DUP1 PUSH4 0x7781B86B EQ PUSH2 0x31A1 JUMPI DUP1 PUSH4 0x877F4E12 EQ PUSH2 0x3162 JUMPI DUP1 PUSH4 0x8D977672 EQ PUSH2 0x30F8 JUMPI DUP1 PUSH4 0x8DA5CB5B EQ PUSH2 0x30CF JUMPI DUP1 PUSH4 0x983C00DE EQ PUSH2 0x2FB0 JUMPI DUP1 PUSH4 0x9EDDED11 EQ PUSH2 0x2CF1 JUMPI DUP1 PUSH4 0xC8C9BD28 EQ PUSH2 0x1020 JUMPI DUP1 PUSH4 0xC9275220 EQ PUSH2 0xFB1 JUMPI DUP1 PUSH4 0xC964AD45 EQ PUSH2 0xE77 JUMPI DUP1 PUSH4 0xCF7DEEE5 EQ PUSH2 0xDDC JUMPI DUP1 PUSH4 0xCFB869BF EQ PUSH2 0xCE1 JUMPI DUP1 PUSH4 0xD43BB72D EQ PUSH2 0x8EE JUMPI DUP1 PUSH4 0xD4F77B1C EQ PUSH2 0x781 JUMPI DUP1 PUSH4 0xDE440FE9 EQ PUSH2 0x68C JUMPI DUP1 PUSH4 0xE1E29558 EQ PUSH2 0x4DC JUMPI DUP1 PUSH4 0xEA777EEC EQ PUSH2 0x4BE JUMPI DUP1 PUSH4 0xF3CD7ADD EQ PUSH2 0x448 JUMPI DUP1 PUSH4 0xF6A1CF91 EQ PUSH2 0x3F0 JUMPI DUP1 PUSH4 0xF71D96CB EQ PUSH2 0x384 JUMPI DUP1 PUSH4 0xFBFABAC4 EQ PUSH2 0x1B8 JUMPI PUSH4 0xFC0C546A EQ PUSH2 0x18A JUMPI PUSH1 0x0 DUP1 REVERT JUMPDEST CALLVALUE PUSH2 0x1B3 JUMPI PUSH1 0x0 CALLDATASIZE PUSH1 0x3 NOT ADD SLT PUSH2 0x1B3 JUMPI PUSH1 0x3 SLOAD PUSH1 0x40 MLOAD PUSH1 0x1 PUSH1 0x1 PUSH1 0xA0 SHL SUB SWAP1 SWAP2 AND DUP2 MSTORE PUSH1 0x20 SWAP1 RETURN JUMPDEST PUSH1 0x0 DUP1 REVERT JUMPDEST CALLVALUE PUSH2 0x1B3 JUMPI PUSH1 0x20 CALLDATASIZE PUSH1 0x3 NOT ADD SLT PUSH2 0x1B3 JUMPI PUSH1 0x4 CALLDATALOAD PUSH2 0x1ED PUSH2 0x1D8 DUP3 PUSH2 0x4F65 JUMP JUMPDEST POP PUSH1 0x8 ADD SLOAD PUSH1 0x1 PUSH1 0x1 PUSH1 0xA0 SHL SUB AND CALLER EQ PUSH2 0x514C JUMP JUMPDEST PUSH1 0x5 PUSH2 0x1F8 DUP3 PUSH2 0x4F65 JUMP JUMPDEST POP PUSH1 0x64 SWAP2 DUP3 SWAP2 ADD SLOAD LT ISZERO PUSH2 0x353 JUMPI PUSH1 0x3 PUSH2 0x211 DUP4 PUSH2 0x4F65 JUMP JUMPDEST POP ADD SLOAD DUP1 PUSH1 0x1 SHL SWAP1 DUP1 DUP3 DIV PUSH1 0x2 EQ SWAP1 ISZERO OR ISZERO PUSH2 0x33D JUMPI CALLER PUSH1 0x0 MSTORE PUSH1 0x5 PUSH1 0x20 MSTORE PUSH2 0x244 DUP2 PUSH1 0x2 PUSH1 0x40 PUSH1 0x0 KECCAK256 ADD SLOAD LT ISZERO PUSH2 0x50F0 JUMP JUMPDEST CALLER PUSH1 0x0 MSTORE PUSH1 0x5 PUSH1 0x20 MSTORE PUSH2 0x260 PUSH1 0x2 PUSH1 0x40 PUSH1 0x0 KECCAK256 ADD SWAP2 DUP3 SLOAD PUSH2 0x5132 JUMP JUMPDEST SWAP1 SSTORE PUSH1 0x5 PUSH2 0x26D DUP4 PUSH2 0x4F65 JUMP JUMPDEST POP ADD DUP1 SLOAD PUSH1 0x9 NOT DUP2 ADD SWAP2 SWAP1 DUP3 GT PUSH2 0x33D JUMPI SSTORE PUSH1 0x7 PUSH2 0x28A DUP4 PUSH2 0x4F65 JUMP JUMPDEST POP ADD DUP1 SLOAD SWAP1 PUSH1 0xA DUP3 ADD DUP1 SWAP3 GT PUSH2 0x33D JUMPI SSTORE PUSH1 0x6 PUSH2 0x2A6 DUP4 PUSH2 0x4F65 JUMP JUMPDEST POP ADD DUP1 SLOAD SWAP1 PUSH1 0xA DUP3 ADD DUP1 SWAP3 GT PUSH2 0x33D JUMPI SSTORE PUSH2 0x2C0 DUP3 PUSH2 0x4F65 JUMP JUMPDEST POP POP DUP1 PUSH1 0x7 PUSH2 0x2CE DUP5 PUSH2 0x4F65 JUMP JUMPDEST POP ADD SLOAD GT PUSH2 0x329 JUMPI JUMPDEST DUP1 PUSH1 0x6 PUSH2 0x2E3 DUP5 PUSH2 0x4F65 JUMP JUMPDEST POP ADD SLOAD GT PUSH2 0x315 JUMPI JUMPDEST POP CALLER PUSH32 0x9EF3EF96A69917DBD3B0809769D9F6728750E08AB778D8FBF3EA05B2AC7A9438 PUSH1 0x0 DUP1 LOG3 STOP JUMPDEST PUSH1 0x6 PUSH2 0x320 DUP4 PUSH2 0x4F65 JUMP JUMPDEST POP ADD SSTORE DUP2 PUSH2 0x2EC JUMP JUMPDEST DUP1 PUSH1 0x7 PUSH2 0x335 DUP5 PUSH2 0x4F65 JUMP JUMPDEST POP ADD SSTORE PUSH2 0x2D7 JUMP JUMPDEST PUSH4 0x4E487B71 PUSH1 0xE0 SHL PUSH1 0x0 MSTORE PUSH1 0x11 PUSH1 0x4 MSTORE PUSH1 0x24 PUSH1 0x0 REVERT JUMPDEST PUSH1 0x40 MLOAD PUSH3 0x461BCD PUSH1 0xE5 SHL DUP2 MSTORE PUSH1 0x20 PUSH1 0x4 DUP3 ADD MSTORE PUSH1 0xC PUSH1 0x24 DUP3 ADD MSTORE PUSH12 0x5065742069732066756C6C21 PUSH1 0xA0 SHL PUSH1 0x44 DUP3 ADD MSTORE REVERT JUMPDEST CALLVALUE PUSH2 0x1B3 JUMPI PUSH1 0x20 CALLDATASIZE PUSH1 0x3 NOT ADD SLT PUSH2 0x1B3 JUMPI PUSH1 0x4 CALLDATALOAD PUSH1 0x4 SLOAD DUP2 LT ISZERO PUSH2 0x1B3 JUMPI PUSH2 0x3AB SWAP1 PUSH2 0x4FB7 JUMP JUMPDEST POP DUP1 SLOAD PUSH1 0x1 PUSH1 0x1 PUSH1 0xA0 SHL SUB AND PUSH2 0x3EC PUSH2 0x3C6 PUSH1 0x1 DUP5 ADD PUSH2 0x4DA6 JUMP JUMPDEST SWAP3 PUSH1 0x2 DUP2 ADD SLOAD SWAP1 PUSH1 0xFF PUSH1 0x3 DUP3 ADD SLOAD AND PUSH1 0x5 PUSH1 0x4 DUP4 ADD SLOAD SWAP3 ADD SLOAD SWAP3 PUSH1 0x40 MLOAD SWAP7 DUP8 SWAP7 DUP8 PUSH2 0x4E8C JUMP JUMPDEST SUB SWAP1 RETURN JUMPDEST CALLVALUE PUSH2 0x1B3 JUMPI PUSH1 0x40 CALLDATASIZE PUSH1 0x3 NOT ADD SLT PUSH2 0x1B3 JUMPI PUSH2 0x409 PUSH2 0x4C8D JUMP JUMPDEST PUSH1 0x1 PUSH1 0x1 PUSH1 0xA0 SHL SUB AND PUSH1 0x0 SWAP1 DUP2 MSTORE PUSH1 0xE PUSH1 0x20 MSTORE PUSH1 0x40 SWAP1 KECCAK256 DUP1 SLOAD PUSH1 0x24 CALLDATALOAD SWAP2 SWAP1 DUP3 LT ISZERO PUSH2 0x1B3 JUMPI PUSH1 0x20 SWAP2 PUSH2 0x43A SWAP2 PUSH2 0x4F9F JUMP JUMPDEST SWAP1 SLOAD PUSH1 0x40 MLOAD SWAP2 PUSH1 0x3 SHL SHR DUP2 MSTORE RETURN JUMPDEST CALLVALUE PUSH2 0x1B3 JUMPI PUSH1 0x20 CALLDATASIZE PUSH1 0x3 NOT ADD SLT PUSH2 0x1B3 JUMPI PUSH1 0x4 CALLDATALOAD PUSH2 0x468 PUSH2 0x1D8 DUP3 PUSH2 0x4F65 JUMP JUMPDEST PUSH2 0x481 PUSH1 0xFF PUSH1 0xA PUSH2 0x478 DUP5 PUSH2 0x4F65 JUMP JUMPDEST POP ADD SLOAD AND PUSH2 0x50AD JUMP JUMPDEST PUSH1 0xA PUSH2 0x48C DUP3 PUSH2 0x4F65 JUMP JUMPDEST POP ADD DUP1 SLOAD PUSH1 0xFF NOT AND SWAP1 SSTORE CALLER PUSH32 0x1F76122CEBA009BC563FF10D1BB29FCD3211E178931624D631121A877DD7FDE4 PUSH1 0x0 DUP1 LOG3 STOP JUMPDEST CALLVALUE PUSH2 0x1B3 JUMPI PUSH1 0x0 CALLDATASIZE PUSH1 0x3 NOT ADD SLT PUSH2 0x1B3 JUMPI PUSH1 0x20 PUSH1 0x2 SLOAD PUSH1 0x40 MLOAD SWAP1 DUP2 MSTORE RETURN JUMPDEST CALLVALUE PUSH2 0x1B3 JUMPI PUSH1 0x20 DUP1 PUSH1 0x3 NOT CALLDATASIZE ADD SLT PUSH2 0x1B3 JUMPI PUSH1 0x4 CALLDATALOAD SWAP1 PUSH1 0x7 SLOAD DUP3 LT ISZERO PUSH2 0x651 JUMPI CALLER PUSH1 0x0 MSTORE PUSH1 0x9 DUP2 MSTORE PUSH1 0x40 PUSH1 0x0 KECCAK256 DUP3 PUSH1 0x0 MSTORE DUP2 MSTORE PUSH1 0xFF PUSH1 0x40 PUSH1 0x0 KECCAK256 SLOAD AND PUSH2 0x60D JUMPI PUSH1 0x3 PUSH2 0x527 DUP4 PUSH2 0x4F14 JUMP JUMPDEST POP ADD SWAP2 DUP3 SLOAD CALLER PUSH1 0x0 MSTORE PUSH1 0x5 DUP4 MSTORE PUSH2 0x547 PUSH1 0x2 PUSH1 0x40 PUSH1 0x0 KECCAK256 ADD SWAP2 DUP3 SLOAD PUSH2 0x513F JUMP JUMPDEST SWAP1 SSTORE CALLER PUSH1 0x0 MSTORE PUSH1 0x9 DUP3 MSTORE PUSH1 0x40 PUSH1 0x0 KECCAK256 DUP2 PUSH1 0x0 MSTORE DUP3 MSTORE PUSH1 0x40 PUSH1 0x0 KECCAK256 PUSH1 0x1 PUSH1 0xFF NOT DUP3 SLOAD AND OR SWAP1 SSTORE CALLER PUSH1 0x0 MSTORE PUSH1 0x5 DUP3 MSTORE PUSH1 0x5 PUSH1 0x40 PUSH1 0x0 KECCAK256 ADD SWAP3 DUP4 SLOAD PUSH1 0x1 DUP2 ADD DUP1 SWAP2 GT PUSH2 0x33D JUMPI PUSH1 0x5 SWAP5 SSTORE SLOAD PUSH1 0x40 MLOAD SWAP1 DUP2 MSTORE PUSH32 0x50C83292CBED2E0E82C326C455870ED0CFE292EB185581159265E76147D205EA DUP4 CALLER SWAP3 LOG3 CALLER PUSH1 0x0 MSTORE MSTORE PUSH1 0x40 PUSH1 0x0 KECCAK256 PUSH1 0x5 DUP2 ADD SLOAD PUSH1 0x7 SLOAD EQ PUSH2 0x5D3 JUMPI STOP JUMPDEST PUSH1 0x2 ADD DUP1 SLOAD SWAP1 PUSH1 0xF DUP3 ADD DUP1 SWAP3 GT PUSH2 0x33D JUMPI SSTORE CALLER PUSH32 0xF0FD5BF81278BC1314A43AC7A3F0567AC69298193D24AFC78F4509FFFAAC94B5 PUSH1 0x0 DUP1 LOG2 STOP JUMPDEST PUSH1 0x64 SWAP1 PUSH1 0x40 MLOAD SWAP1 PUSH3 0x461BCD PUSH1 0xE5 SHL DUP3 MSTORE PUSH1 0x4 DUP3 ADD MSTORE PUSH1 0x17 PUSH1 0x24 DUP3 ADD MSTORE PUSH32 0x5461736B20616C726561647920636F6D706C6574656421000000000000000000 PUSH1 0x44 DUP3 ADD MSTORE REVERT JUMPDEST PUSH1 0x64 SWAP1 PUSH1 0x40 MLOAD SWAP1 PUSH3 0x461BCD PUSH1 0xE5 SHL DUP3 MSTORE PUSH1 0x4 DUP3 ADD MSTORE PUSH1 0x14 PUSH1 0x24 DUP3 ADD MSTORE PUSH20 0x5461736B20646F6573206E6F7420657869737421 PUSH1 0x60 SHL PUSH1 0x44 DUP3 ADD MSTORE REVERT JUMPDEST PUSH1 0x20 CALLDATASIZE PUSH1 0x3 NOT ADD SLT PUSH2 0x1B3 JUMPI PUSH1 0x4 CALLDATALOAD PUSH2 0x6A4 DUP2 PUSH2 0x4F65 JUMP JUMPDEST POP PUSH1 0x8 ADD SLOAD PUSH1 0x1 PUSH1 0x1 PUSH1 0xA0 SHL SUB AND CALLER EQ PUSH2 0x73C JUMPI PUSH1 0xC SLOAD DUP2 LT ISZERO PUSH2 0x706 JUMPI PUSH1 0xB PUSH2 0x6CD DUP3 PUSH2 0x4F65 JUMP JUMPDEST POP ADD DUP1 SLOAD SWAP1 PUSH1 0x1 DUP3 ADD DUP1 SWAP3 GT PUSH2 0x33D JUMPI SSTORE CALLER PUSH32 0x608B673D19F28498E8E55664BA7500D0B17E731A244DE245F1CD25A32EEC2E4F PUSH1 0x0 DUP1 LOG3 STOP JUMPDEST PUSH1 0x40 MLOAD PUSH3 0x461BCD PUSH1 0xE5 SHL DUP2 MSTORE PUSH1 0x20 PUSH1 0x4 DUP3 ADD MSTORE PUSH1 0xE PUSH1 0x24 DUP3 ADD MSTORE PUSH14 0x506574206E6F7420666F756E6421 PUSH1 0x90 SHL PUSH1 0x44 DUP3 ADD MSTORE PUSH1 0x64 SWAP1 REVERT JUMPDEST PUSH1 0x40 MLOAD PUSH3 0x461BCD PUSH1 0xE5 SHL DUP2 MSTORE PUSH1 0x20 PUSH1 0x4 DUP3 ADD MSTORE PUSH1 0x1E PUSH1 0x24 DUP3 ADD MSTORE PUSH32 0x596F752063616E206E6F74206C696B6520796F7572206F776E20706574210000 PUSH1 0x44 DUP3 ADD MSTORE PUSH1 0x64 SWAP1 REVERT JUMPDEST PUSH1 0x0 CALLDATASIZE PUSH1 0x3 NOT ADD SLT PUSH2 0x1B3 JUMPI PUSH2 0x79B PUSH1 0x1 SLOAD CALLVALUE LT ISZERO PUSH2 0x50F0 JUMP JUMPDEST CALLER PUSH1 0x0 MSTORE PUSH1 0x20 PUSH1 0x6 DUP2 MSTORE PUSH1 0xFF PUSH1 0x40 PUSH1 0x0 KECCAK256 SLOAD AND PUSH2 0x8AA JUMPI PUSH1 0x2 SLOAD PUSH1 0x40 MLOAD SWAP1 PUSH2 0x7C2 DUP3 PUSH2 0x4CBF JUMP JUMPDEST CALLER DUP3 MSTORE PUSH1 0x40 MLOAD PUSH2 0x7D1 DUP2 PUSH2 0x4CDA JUMP JUMPDEST PUSH1 0x6 DUP2 MSTORE PUSH6 0x283630BCB2B9 PUSH1 0xD1 SHL DUP5 DUP3 ADD MSTORE DUP4 DUP4 ADD MSTORE PUSH1 0x40 DUP3 ADD MSTORE PUSH1 0x1 PUSH1 0x60 DUP3 ADD MSTORE TIMESTAMP PUSH1 0x80 DUP3 ADD MSTORE PUSH1 0x0 PUSH1 0xA0 DUP3 ADD MSTORE PUSH1 0x4 SLOAD PUSH1 0x1 PUSH1 0x40 SHL DUP2 LT ISZERO PUSH2 0x894 JUMPI DUP1 PUSH1 0x1 PUSH2 0x81F SWAP3 ADD PUSH1 0x4 SSTORE PUSH2 0x4FB7 JUMP JUMPDEST PUSH2 0x87E JUMPI PUSH2 0x856 SWAP3 PUSH2 0x833 DUP4 PUSH1 0x5 SWAP4 PUSH2 0x51C9 JUMP JUMPDEST CALLER PUSH1 0x0 MSTORE PUSH1 0x6 DUP2 MSTORE PUSH1 0x40 PUSH1 0x0 KECCAK256 PUSH1 0x1 PUSH1 0xFF NOT DUP3 SLOAD AND OR SWAP1 SSTORE MSTORE PUSH1 0x40 PUSH1 0x0 KECCAK256 PUSH2 0x51C9 JUMP JUMPDEST CALLER PUSH32 0x31E760AA525306ABA638A784082A013B6A1CC0A9A1789F3F22281C0453B10B1F PUSH1 0x0 DUP1 LOG2 STOP JUMPDEST PUSH4 0x4E487B71 PUSH1 0xE0 SHL PUSH1 0x0 MSTORE PUSH1 0x0 PUSH1 0x4 MSTORE PUSH1 0x24 PUSH1 0x0 REVERT JUMPDEST PUSH4 0x4E487B71 PUSH1 0xE0 SHL PUSH1 0x0 MSTORE PUSH1 0x41 PUSH1 0x4 MSTORE PUSH1 0x24 PUSH1 0x0 REVERT JUMPDEST PUSH1 0x64 SWAP1 PUSH1 0x40 MLOAD SWAP1 PUSH3 0x461BCD PUSH1 0xE5 SHL DUP3 MSTORE PUSH1 0x4 DUP3 ADD MSTORE PUSH1 0x1C PUSH1 0x24 DUP3 ADD MSTORE PUSH32 0x596F7520616C7265616479206A6F696E6564207468652067616D652100000000 PUSH1 0x44 DUP3 ADD MSTORE REVERT JUMPDEST CALLVALUE PUSH2 0x1B3 JUMPI PUSH1 0x80 CALLDATASIZE PUSH1 0x3 NOT ADD SLT PUSH2 0x1B3 JUMPI PUSH1 0x4 CALLDATALOAD PUSH1 0x1 PUSH1 0x1 PUSH1 0x40 SHL SUB DUP2 GT PUSH2 0x1B3 JUMPI PUSH2 0x91E SWAP1 CALLDATASIZE SWAP1 PUSH1 0x4 ADD PUSH2 0x4D16 JUMP JUMPDEST PUSH1 0x24 SWAP1 DUP2 CALLDATALOAD PUSH1 0x1 PUSH1 0x1 PUSH1 0x40 SHL SUB DUP2 GT PUSH2 0x1B3 JUMPI PUSH2 0x93F SWAP1 CALLDATASIZE SWAP1 PUSH1 0x4 ADD PUSH2 0x4D16 JUMP JUMPDEST SWAP2 PUSH1 0x64 CALLDATALOAD SWAP1 PUSH1 0x5 DUP3 LT ISZERO PUSH2 0x1B3 JUMPI PUSH2 0x962 PUSH1 0x1 DUP1 PUSH1 0xA0 SHL SUB PUSH1 0x0 SLOAD AND CALLER EQ PUSH2 0x4FF2 JUMP JUMPDEST PUSH1 0x7 SLOAD SWAP4 PUSH1 0x40 MLOAD SWAP3 PUSH2 0x973 DUP5 PUSH2 0x4CBF JUMP JUMPDEST DUP6 DUP5 MSTORE PUSH1 0x20 DUP5 ADD SWAP2 DUP6 DUP4 MSTORE PUSH1 0x40 DUP6 ADD MSTORE PUSH1 0x44 CALLDATALOAD PUSH1 0x60 DUP6 ADD MSTORE PUSH1 0x0 PUSH1 0x80 DUP6 ADD MSTORE PUSH1 0xA0 DUP5 ADD MSTORE PUSH1 0x1 PUSH1 0x40 SHL DUP6 LT ISZERO PUSH2 0xCCC JUMPI PUSH1 0x1 DUP6 ADD PUSH1 0x7 SSTORE PUSH2 0x9B3 DUP6 PUSH2 0x4F14 JUMP JUMPDEST SWAP2 SWAP1 SWAP2 PUSH2 0xCB7 JUMPI DUP4 MLOAD DUP3 SSTORE MLOAD DUP1 MLOAD SWAP1 PUSH1 0x1 PUSH1 0x1 PUSH1 0x40 SHL SUB DUP3 GT PUSH2 0xBD2 JUMPI DUP2 SWAP1 PUSH2 0x9DF PUSH1 0x1 DUP6 ADD SLOAD PUSH2 0x4D6C JUMP JUMPDEST PUSH1 0x1F DUP2 GT PUSH2 0xC64 JUMPI JUMPDEST POP PUSH1 0x20 SWAP1 PUSH1 0x1F DUP4 GT PUSH1 0x1 EQ PUSH2 0xBF2 JUMPI PUSH1 0x0 SWAP3 PUSH2 0xBE7 JUMPI JUMPDEST POP POP DUP2 PUSH1 0x1 SHL SWAP2 PUSH1 0x0 NOT SWAP1 PUSH1 0x3 SHL SHR NOT AND OR PUSH1 0x1 DUP3 ADD SSTORE JUMPDEST PUSH1 0x40 DUP4 ADD MLOAD DUP1 MLOAD SWAP1 PUSH1 0x1 PUSH1 0x1 PUSH1 0x40 SHL SUB DUP3 GT PUSH2 0xBD2 JUMPI PUSH2 0xA3A PUSH1 0x2 DUP5 ADD SLOAD PUSH2 0x4D6C JUMP JUMPDEST PUSH1 0x1F DUP2 GT PUSH2 0xB8B JUMPI JUMPDEST POP PUSH1 0x20 SWAP1 PUSH1 0x1F DUP4 GT PUSH1 0x1 EQ PUSH2 0xB18 JUMPI SWAP2 DUP1 PUSH1 0xA0 SWAP5 SWAP3 PUSH1 0x4 SWAP5 PUSH1 0x0 SWAP3 PUSH2 0xB0D JUMPI JUMPDEST POP POP DUP2 PUSH1 0x1 SHL SWAP2 PUSH1 0x0 NOT SWAP1 PUSH1 0x3 SHL SHR NOT AND OR PUSH1 0x2 DUP3 ADD SSTORE JUMPDEST PUSH1 0x60 DUP6 ADD MLOAD PUSH1 0x3 DUP3 ADD SSTORE ADD SWAP3 PUSH2 0xAA3 PUSH1 0x80 DUP3 ADD MLOAD ISZERO ISZERO DUP6 SWAP1 PUSH1 0xFF DUP1 NOT DUP4 SLOAD AND SWAP2 ISZERO ISZERO AND OR SWAP1 SSTORE JUMP JUMPDEST ADD MLOAD SWAP1 PUSH1 0x5 DUP3 LT ISZERO PUSH2 0xAF9 JUMPI POP SWAP2 DUP2 PUSH1 0x0 DUP1 MLOAD PUSH1 0x20 PUSH2 0x5348 DUP4 CODECOPY DUP2 MLOAD SWAP2 MSTORE SWAP4 PUSH2 0xFF00 PUSH2 0xAEC SWAP5 SLOAD SWAP2 PUSH1 0x8 SHL AND SWAP1 PUSH2 0xFF00 NOT AND OR SWAP1 SSTORE PUSH1 0x40 MLOAD SWAP2 DUP3 SWAP2 PUSH1 0x40 DUP4 MSTORE PUSH1 0x40 DUP4 ADD SWAP1 PUSH2 0x4E4C JUMP JUMPDEST PUSH1 0x44 CALLDATALOAD PUSH1 0x20 DUP4 ADD MSTORE SUB SWAP1 LOG2 STOP JUMPDEST PUSH4 0x4E487B71 PUSH1 0xE0 SHL PUSH1 0x0 SWAP1 DUP2 MSTORE PUSH1 0x21 PUSH1 0x4 MSTORE REVERT JUMPDEST ADD MLOAD SWAP1 POP DUP10 DUP1 PUSH2 0xA63 JUMP JUMPDEST SWAP1 PUSH1 0x1F NOT DUP4 AND SWAP2 PUSH1 0x2 DUP6 ADD PUSH1 0x0 MSTORE PUSH1 0x20 PUSH1 0x0 KECCAK256 SWAP3 PUSH1 0x0 JUMPDEST DUP2 DUP2 LT PUSH2 0xB73 JUMPI POP SWAP3 PUSH1 0x1 SWAP3 DUP6 SWAP3 PUSH1 0x4 SWAP7 PUSH1 0xA0 SWAP9 SWAP7 LT PUSH2 0xB5A JUMPI JUMPDEST POP POP POP DUP2 SHL ADD PUSH1 0x2 DUP3 ADD SSTORE PUSH2 0xA7B JUMP JUMPDEST ADD MLOAD PUSH1 0x0 NOT PUSH1 0xF8 DUP5 PUSH1 0x3 SHL AND SHR NOT AND SWAP1 SSTORE DUP10 DUP1 DUP1 PUSH2 0xB4A JUMP JUMPDEST SWAP3 SWAP4 PUSH1 0x20 PUSH1 0x1 DUP2 SWAP3 DUP8 DUP7 ADD MLOAD DUP2 SSTORE ADD SWAP6 ADD SWAP4 ADD PUSH2 0xB2F JUMP JUMPDEST PUSH1 0x2 DUP5 ADD PUSH1 0x0 MSTORE PUSH1 0x20 PUSH1 0x0 KECCAK256 PUSH1 0x1F DUP5 ADD PUSH1 0x5 SHR DUP2 ADD PUSH1 0x20 DUP6 LT PUSH2 0xBCB JUMPI JUMPDEST PUSH1 0x1F DUP4 ADD PUSH1 0x5 SHR DUP3 ADD DUP2 LT PUSH2 0xBBF JUMPI POP POP PUSH2 0xA43 JUMP JUMPDEST PUSH1 0x0 DUP2 SSTORE PUSH1 0x1 ADD PUSH2 0xBA9 JUMP JUMPDEST POP DUP1 PUSH2 0xBA9 JUMP JUMPDEST DUP4 PUSH4 0x4E487B71 PUSH1 0xE0 SHL PUSH1 0x0 MSTORE PUSH1 0x41 PUSH1 0x4 MSTORE PUSH1 0x0 REVERT JUMPDEST ADD MLOAD SWAP1 POP DUP8 DUP1 PUSH2 0x9FF JUMP JUMPDEST SWAP3 POP PUSH1 0x1 DUP5 ADD PUSH1 0x0 MSTORE PUSH1 0x20 PUSH1 0x0 KECCAK256 SWAP1 PUSH1 0x0 SWAP4 JUMPDEST PUSH1 0x1F NOT DUP5 AND DUP6 LT PUSH2 0xC49 JUMPI PUSH1 0x1 SWAP5 POP DUP4 PUSH1 0x1F NOT DUP2 AND LT PUSH2 0xC30 JUMPI JUMPDEST POP POP POP DUP2 SHL ADD PUSH1 0x1 DUP3 ADD SSTORE PUSH2 0xA17 JUMP JUMPDEST ADD MLOAD PUSH1 0x0 NOT PUSH1 0xF8 DUP5 PUSH1 0x3 SHL AND SHR NOT AND SWAP1 SSTORE DUP8 DUP1 DUP1 PUSH2 0xC20 JUMP JUMPDEST DUP2 DUP2 ADD MLOAD DUP4 SSTORE PUSH1 0x20 SWAP5 DUP6 ADD SWAP5 PUSH1 0x1 SWAP1 SWAP4 ADD SWAP3 SWAP1 SWAP2 ADD SWAP1 PUSH2 0xC05 JUMP JUMPDEST SWAP1 SWAP2 POP PUSH1 0x1 DUP5 ADD PUSH1 0x0 MSTORE PUSH1 0x20 PUSH1 0x0 KECCAK256 PUSH1 0x1F DUP5 ADD PUSH1 0x5 SHR DUP2 ADD PUSH1 0x20 DUP6 LT PUSH2 0xCB0 JUMPI JUMPDEST SWAP1 DUP5 SWAP4 SWAP3 SWAP2 JUMPDEST PUSH1 0x1F DUP4 ADD PUSH1 0x5 SHR DUP3 ADD DUP2 LT PUSH2 0xCA1 JUMPI POP POP PUSH2 0x9E8 JUMP JUMPDEST PUSH1 0x0 DUP2 SSTORE DUP6 SWAP5 POP PUSH1 0x1 ADD PUSH2 0xC8B JUMP JUMPDEST POP DUP1 PUSH2 0xC85 JUMP JUMPDEST DUP3 PUSH4 0x4E487B71 PUSH1 0xE0 SHL PUSH1 0x0 MSTORE PUSH1 0x0 PUSH1 0x4 MSTORE PUSH1 0x0 REVERT JUMPDEST POP PUSH4 0x4E487B71 PUSH1 0xE0 SHL PUSH1 0x0 SWAP1 DUP2 MSTORE PUSH1 0x41 PUSH1 0x4 MSTORE REVERT JUMPDEST CALLVALUE PUSH2 0x1B3 JUMPI PUSH1 0x20 CALLDATASIZE PUSH1 0x3 NOT ADD SLT PUSH2 0x1B3 JUMPI PUSH1 0x4 CALLDATALOAD PUSH1 0xC SLOAD DUP2 LT ISZERO PUSH2 0x1B3 JUMPI PUSH2 0xD08 SWAP1 PUSH2 0x4F65 JUMP JUMPDEST POP DUP1 SLOAD PUSH2 0xD17 PUSH1 0x1 DUP4 ADD PUSH2 0x4DA6 JUMP JUMPDEST SWAP2 PUSH2 0xD24 PUSH1 0x2 DUP3 ADD PUSH2 0x4DA6 JUMP JUMPDEST PUSH1 0x3 DUP3 ADD SLOAD SWAP2 PUSH2 0xD36 PUSH1 0x4 DUP3 ADD PUSH2 0x4DA6 JUMP JUMPDEST PUSH1 0x5 DUP3 ADD SLOAD SWAP4 PUSH1 0x6 DUP4 ADD SLOAD PUSH1 0x7 DUP5 ADD SLOAD SWAP1 PUSH2 0xDAE PUSH1 0x1 DUP1 PUSH1 0xA0 SHL SUB PUSH1 0x8 DUP8 ADD SLOAD AND SWAP4 PUSH1 0x9 DUP8 ADD SLOAD SWAP6 PUSH2 0xD9B PUSH1 0xB PUSH1 0xFF PUSH1 0xA DUP12 ADD SLOAD AND SWAP10 ADD SLOAD SWAP10 PUSH2 0xD8D PUSH1 0x40 MLOAD SWAP15 DUP16 SWAP15 DUP16 SWAP1 DUP2 MSTORE PUSH2 0x180 SWAP1 DUP2 PUSH1 0x20 DUP3 ADD MSTORE ADD SWAP1 PUSH2 0x4E4C JUMP JUMPDEST DUP14 DUP2 SUB PUSH1 0x40 DUP16 ADD MSTORE SWAP1 PUSH2 0x4E4C JUMP JUMPDEST SWAP2 PUSH1 0x60 DUP13 ADD MSTORE DUP11 DUP3 SUB PUSH1 0x80 DUP13 ADD MSTORE PUSH2 0x4E4C JUMP JUMPDEST SWAP7 PUSH1 0xA0 DUP10 ADD MSTORE PUSH1 0xC0 DUP9 ADD MSTORE PUSH1 0xE0 DUP8 ADD MSTORE PUSH2 0x100 DUP7 ADD MSTORE PUSH2 0x120 DUP6 ADD MSTORE ISZERO ISZERO PUSH2 0x140 DUP5 ADD MSTORE PUSH2 0x160 DUP4 ADD MSTORE SUB SWAP1 RETURN JUMPDEST CALLVALUE PUSH2 0x1B3 JUMPI PUSH2 0xDEA CALLDATASIZE PUSH2 0x4F4F JUMP JUMPDEST PUSH2 0xDF6 PUSH2 0x1D8 DUP4 PUSH2 0x4F65 JUMP JUMPDEST PUSH2 0xE06 PUSH1 0xFF PUSH1 0xA PUSH2 0x478 DUP6 PUSH2 0x4F65 JUMP JUMPDEST PUSH1 0xA PUSH2 0xE11 DUP4 PUSH2 0x4F65 JUMP JUMPDEST POP ADD DUP1 SLOAD PUSH1 0xFF NOT AND SWAP1 SSTORE DUP1 PUSH1 0x9 PUSH2 0xE27 DUP5 PUSH2 0x4F65 JUMP JUMPDEST POP ADD SSTORE PUSH1 0x8 PUSH2 0xE35 DUP4 PUSH2 0x4F65 JUMP JUMPDEST POP ADD CALLER PUSH1 0x1 PUSH1 0x1 PUSH1 0x60 SHL SUB PUSH1 0xA0 SHL DUP3 SLOAD AND OR SWAP1 SSTORE PUSH1 0x40 MLOAD SWAP1 DUP2 MSTORE PUSH32 0x2C6F4A5D663A61E7C390ABCA958862A538B7A9BDD4360B68B30862AEFC9EA6E8 PUSH1 0x20 CALLER SWAP3 LOG3 STOP JUMPDEST CALLVALUE PUSH2 0x1B3 JUMPI PUSH1 0x0 CALLDATASIZE PUSH1 0x3 NOT ADD SLT PUSH2 0x1B3 JUMPI CALLER PUSH1 0x0 MSTORE PUSH1 0x20 PUSH1 0x5 DUP2 MSTORE PUSH1 0xFF PUSH1 0x3 PUSH1 0x40 PUSH1 0x0 KECCAK256 ADD SLOAD AND ISZERO PUSH2 0xF77 JUMPI CALLER PUSH1 0x0 MSTORE PUSH1 0x5 DUP2 MSTORE PUSH3 0x15180 PUSH2 0xEC1 PUSH1 0x4 PUSH1 0x40 PUSH1 0x0 KECCAK256 ADD SLOAD TIMESTAMP PUSH2 0x5132 JUMP JUMPDEST LT PUSH2 0xF1F JUMPI CALLER PUSH1 0x0 MSTORE PUSH1 0x5 DUP2 MSTORE PUSH1 0x2 PUSH1 0x40 PUSH1 0x0 KECCAK256 ADD SWAP1 DUP2 SLOAD PUSH1 0xA DUP2 ADD DUP1 SWAP2 GT PUSH2 0x33D JUMPI PUSH1 0x5 SWAP3 SSTORE CALLER PUSH1 0x0 MSTORE MSTORE TIMESTAMP PUSH1 0x4 PUSH1 0x40 PUSH1 0x0 KECCAK256 ADD SSTORE CALLER PUSH32 0x6FE284D782E841B99F2A56D6A1564B2C222D1B259694856DB9721519659326F1 PUSH1 0x0 DUP1 LOG2 STOP JUMPDEST PUSH1 0x84 SWAP1 PUSH1 0x40 MLOAD SWAP1 PUSH3 0x461BCD PUSH1 0xE5 SHL DUP3 MSTORE PUSH1 0x4 DUP3 ADD MSTORE PUSH1 0x2B PUSH1 0x24 DUP3 ADD MSTORE PUSH32 0x596F75206861766520616C726561647920636C61696D656420796F7572206461 PUSH1 0x44 DUP3 ADD MSTORE PUSH11 0x696C792072657761726421 PUSH1 0xA8 SHL PUSH1 0x64 DUP3 ADD MSTORE REVERT JUMPDEST PUSH1 0x64 SWAP1 PUSH1 0x40 MLOAD SWAP1 PUSH3 0x461BCD PUSH1 0xE5 SHL DUP3 MSTORE PUSH1 0x4 DUP3 ADD MSTORE PUSH1 0x13 PUSH1 0x24 DUP3 ADD MSTORE PUSH19 0x596F7520617265206E6F742061637469766521 PUSH1 0x68 SHL PUSH1 0x44 DUP3 ADD MSTORE REVERT JUMPDEST CALLVALUE PUSH2 0x1B3 JUMPI PUSH2 0xFBF CALLDATASIZE PUSH2 0x4F4F JUMP JUMPDEST PUSH2 0xFCB PUSH2 0x1D8 DUP4 PUSH2 0x4F65 JUMP JUMPDEST PUSH1 0xA PUSH2 0xFD6 DUP4 PUSH2 0x4F65 JUMP JUMPDEST POP ADD DUP1 SLOAD PUSH1 0xFF NOT AND PUSH1 0x1 OR SWAP1 SSTORE DUP1 PUSH1 0x9 PUSH2 0xFEF DUP5 PUSH2 0x4F65 JUMP JUMPDEST POP ADD SSTORE PUSH1 0x40 MLOAD SWAP1 DUP2 MSTORE PUSH32 0x3F90625203379813FB9623A1DE60EF53B769232ED539A1673D0CE181EEA593BB PUSH1 0x20 CALLER SWAP3 LOG3 STOP JUMPDEST CALLVALUE PUSH2 0x1B3 JUMPI PUSH1 0x0 CALLDATASIZE PUSH1 0x3 NOT ADD SLT PUSH2 0x1B3 JUMPI PUSH1 0xC SLOAD DUP1 PUSH2 0x2CAC JUMPI PUSH1 0x40 MLOAD SWAP1 PUSH2 0x1046 DUP3 PUSH2 0x4CDA JUMP JUMPDEST PUSH1 0x3 DUP3 MSTORE PUSH3 0x10D85D PUSH1 0xEA SHL PUSH1 0x20 DUP4 ADD MSTORE PUSH2 0x105E PUSH2 0x5049 JUMP JUMPDEST PUSH1 0x40 MLOAD SWAP1 PUSH2 0x106B DUP3 PUSH2 0x4CDA JUMP JUMPDEST PUSH1 0x9 DUP3 MSTORE PUSH9 0x4C6567656E64617279 PUSH1 0xB8 SHL PUSH1 0x20 DUP4 ADD MSTORE PUSH2 0x1096 PUSH1 0x1 DUP1 PUSH1 0xA0 SHL SUB PUSH1 0x0 SLOAD AND CALLER EQ PUSH2 0x4FF2 JUMP JUMPDEST PUSH1 0x40 MLOAD SWAP4 PUSH2 0x10A3 DUP6 PUSH2 0x4CA3 JUMP JUMPDEST PUSH1 0x1 DUP6 MSTORE PUSH1 0x20 DUP6 ADD MSTORE PUSH1 0x40 DUP5 ADD MSTORE PUSH1 0x64 PUSH1 0x60 DUP5 ADD MSTORE PUSH1 0x80 DUP4 ADD MSTORE PUSH1 0x64 PUSH1 0xA0 DUP4 ADD MSTORE PUSH1 0x64 PUSH1 0xC0 DUP4 ADD MSTORE PUSH1 0x64 PUSH1 0xE0 DUP4 ADD MSTORE PUSH1 0x0 PUSH2 0x100 DUP4 ADD MSTORE PUSH1 0x64 PUSH2 0x120 DUP4 ADD MSTORE PUSH1 0x0 PUSH2 0x140 DUP4 ADD MSTORE PUSH3 0x186A0 PUSH2 0x160 DUP4 ADD MSTORE PUSH1 0x1 PUSH1 0x40 SHL DUP2 LT ISZERO PUSH2 0x894 JUMPI DUP1 PUSH1 0x1 PUSH2 0x1110 SWAP3 ADD PUSH1 0xC SSTORE PUSH2 0x4F65 JUMP JUMPDEST SWAP2 SWAP1 SWAP2 PUSH2 0x87E JUMPI DUP1 MLOAD DUP3 SSTORE PUSH1 0x20 DUP2 ADD MLOAD SWAP2 DUP3 MLOAD PUSH1 0x1 PUSH1 0x1 PUSH1 0x40 SHL SUB DUP2 GT PUSH2 0x894 JUMPI PUSH2 0x113E PUSH1 0x1 DUP4 ADD SLOAD PUSH2 0x4D6C JUMP JUMPDEST PUSH1 0x1F DUP2 GT PUSH2 0x2C65 JUMPI JUMPDEST POP PUSH1 0x20 PUSH1 0x1F DUP3 GT PUSH1 0x1 EQ PUSH2 0x2BF7 JUMPI DUP2 SWAP3 SWAP4 SWAP5 PUSH1 0x0 SWAP3 PUSH2 0x2BEC JUMPI JUMPDEST POP POP DUP2 PUSH1 0x1 SHL SWAP2 PUSH1 0x0 NOT SWAP1 PUSH1 0x3 SHL SHR NOT AND OR PUSH1 0x1 DUP3 ADD SSTORE JUMPDEST PUSH1 0x40 DUP3 ADD MLOAD SWAP2 DUP3 MLOAD PUSH1 0x1 PUSH1 0x1 PUSH1 0x40 SHL SUB DUP2 GT PUSH2 0x894 JUMPI PUSH2 0x119C PUSH1 0x2 DUP5 ADD SLOAD PUSH2 0x4D6C JUMP JUMPDEST PUSH1 0x1F DUP2 GT PUSH2 0x2BA5 JUMPI JUMPDEST POP PUSH1 0x20 PUSH1 0x1F DUP3 GT PUSH1 0x1 EQ PUSH2 0x2B37 JUMPI DUP2 SWAP3 SWAP4 SWAP5 PUSH1 0x0 SWAP3 PUSH2 0x2B2C JUMPI JUMPDEST POP POP DUP2 PUSH1 0x1 SHL SWAP2 PUSH1 0x0 NOT SWAP1 PUSH1 0x3 SHL SHR NOT AND OR PUSH1 0x2 DUP4 ADD SSTORE JUMPDEST PUSH1 0x60 DUP2 ADD MLOAD PUSH1 0x3 DUP4 ADD SSTORE PUSH1 0x80 DUP2 ADD MLOAD DUP1 MLOAD SWAP1 PUSH1 0x1 PUSH1 0x1 PUSH1 0x40 SHL SUB DUP3 GT PUSH2 0x894 JUMPI PUSH2 0x1204 PUSH1 0x4 DUP6 ADD SLOAD PUSH2 0x4D6C JUMP JUMPDEST PUSH1 0x1F DUP2 GT PUSH2 0x2AE5 JUMPI JUMPDEST POP PUSH1 0x20 SWAP1 PUSH1 0x1F DUP4 GT PUSH1 0x1 EQ PUSH2 0x2A6F JUMPI SWAP2 DUP1 PUSH1 0xB SWAP5 SWAP3 PUSH2 0x160 SWAP5 PUSH1 0x0 SWAP3 PUSH2 0x2A64 JUMPI JUMPDEST POP POP DUP2 PUSH1 0x1 SHL SWAP2 PUSH1 0x0 NOT SWAP1 PUSH1 0x3 SHL SHR NOT AND OR PUSH1 0x4 DUP6 ADD SSTORE JUMPDEST PUSH1 0xA0 DUP2 ADD MLOAD PUSH1 0x5 DUP6 ADD SSTORE PUSH1 0xC0 DUP2 ADD MLOAD PUSH1 0x6 DUP6 ADD SSTORE PUSH1 0xE0 DUP2 ADD MLOAD PUSH1 0x7 DUP6 ADD SSTORE PUSH1 0x1 DUP1 PUSH1 0xA0 SHL SUB PUSH2 0x100 DUP3 ADD MLOAD AND PUSH1 0x1 PUSH1 0x1 PUSH1 0x60 SHL SUB PUSH1 0xA0 SHL PUSH1 0x8 DUP7 ADD SLOAD AND OR PUSH1 0x8 DUP6 ADD SSTORE PUSH2 0x120 DUP2 ADD MLOAD PUSH1 0x9 DUP6 ADD SSTORE PUSH2 0x12B4 PUSH2 0x140 DUP3 ADD MLOAD ISZERO ISZERO PUSH1 0xA DUP7 ADD SWAP1 PUSH1 0xFF DUP1 NOT DUP4 SLOAD AND SWAP2 ISZERO ISZERO AND OR SWAP1 SSTORE JUMP JUMPDEST ADD MLOAD SWAP2 ADD SSTORE PUSH1 0x40 MLOAD PUSH2 0x12C5 DUP2 PUSH2 0x4CDA JUMP JUMPDEST PUSH1 0x5 DUP2 MSTORE PUSH5 0x446F676779 PUSH1 0xD8 SHL PUSH1 0x20 DUP3 ADD MSTORE PUSH2 0x12DF PUSH2 0x5069 JUMP JUMPDEST PUSH1 0x40 MLOAD SWAP1 PUSH2 0x12EC DUP3 PUSH2 0x4CDA JUMP JUMPDEST PUSH1 0x4 DUP3 MSTORE PUSH4 0x45706963 PUSH1 0xE0 SHL PUSH1 0x20 DUP4 ADD MSTORE PUSH2 0x1312 PUSH1 0x1 DUP1 PUSH1 0xA0 SHL SUB PUSH1 0x0 SLOAD AND CALLER EQ PUSH2 0x4FF2 JUMP JUMPDEST PUSH1 0x40 MLOAD SWAP3 PUSH2 0x131F DUP5 PUSH2 0x4CA3 JUMP JUMPDEST PUSH1 0x2 DUP5 MSTORE PUSH1 0x20 DUP5 ADD MSTORE PUSH1 0x40 DUP4 ADD MSTORE PUSH1 0x32 PUSH1 0x60 DUP4 ADD MSTORE PUSH1 0x80 DUP3 ADD MSTORE PUSH1 0x64 PUSH1 0xA0 DUP3 ADD MSTORE PUSH1 0x64 PUSH1 0xC0 DUP3 ADD MSTORE PUSH1 0x64 PUSH1 0xE0 DUP3 ADD MSTORE PUSH1 0x0 PUSH2 0x100 DUP3 ADD MSTORE PUSH1 0x5A PUSH2 0x120 DUP3 ADD MSTORE PUSH1 0x1 PUSH2 0x140 DUP3 ADD MSTORE PUSH2 0x3E8 PUSH2 0x160 DUP3 ADD MSTORE PUSH1 0xC SLOAD PUSH1 0x1 PUSH1 0x40 SHL DUP2 LT ISZERO PUSH2 0x894 JUMPI DUP1 PUSH1 0x1 PUSH2 0x138E SWAP3 ADD PUSH1 0xC SSTORE PUSH2 0x4F65 JUMP JUMPDEST SWAP2 SWAP1 SWAP2 PUSH2 0x87E JUMPI DUP1 MLOAD DUP3 SSTORE PUSH1 0x20 DUP2 ADD MLOAD SWAP2 DUP3 MLOAD PUSH1 0x1 PUSH1 0x1 PUSH1 0x40 SHL SUB DUP2 GT PUSH2 0x894 JUMPI PUSH2 0x13BC PUSH1 0x1 DUP4 ADD SLOAD PUSH2 0x4D6C JUMP JUMPDEST PUSH1 0x1F DUP2 GT PUSH2 0x2A1D JUMPI JUMPDEST POP PUSH1 0x20 PUSH1 0x1F DUP3 GT PUSH1 0x1 EQ PUSH2 0x29AF JUMPI DUP2 SWAP3 SWAP4 SWAP5 PUSH1 0x0 SWAP3 PUSH2 0x29A4 JUMPI JUMPDEST POP POP DUP2 PUSH1 0x1 SHL SWAP2 PUSH1 0x0 NOT SWAP1 PUSH1 0x3 SHL SHR NOT AND OR PUSH1 0x1 DUP3 ADD SSTORE JUMPDEST PUSH1 0x40 DUP3 ADD MLOAD SWAP2 DUP3 MLOAD PUSH1 0x1 PUSH1 0x1 PUSH1 0x40 SHL SUB DUP2 GT PUSH2 0x894 JUMPI PUSH2 0x141A PUSH1 0x2 DUP5 ADD SLOAD PUSH2 0x4D6C JUMP JUMPDEST PUSH1 0x1F DUP2 GT PUSH2 0x295D JUMPI JUMPDEST POP PUSH1 0x20 PUSH1 0x1F DUP3 GT PUSH1 0x1 EQ PUSH2 0x28EF JUMPI DUP2 SWAP3 SWAP4 SWAP5 PUSH1 0x0 SWAP3 PUSH2 0x28E4 JUMPI JUMPDEST POP POP DUP2 PUSH1 0x1 SHL SWAP2 PUSH1 0x0 NOT SWAP1 PUSH1 0x3 SHL SHR NOT AND OR PUSH1 0x2 DUP4 ADD SSTORE JUMPDEST PUSH1 0x60 DUP2 ADD MLOAD PUSH1 0x3 DUP4 ADD SSTORE PUSH1 0x80 DUP2 ADD MLOAD DUP1 MLOAD SWAP1 PUSH1 0x1 PUSH1 0x1 PUSH1 0x40 SHL SUB DUP3 GT PUSH2 0x894 JUMPI PUSH2 0x1482 PUSH1 0x4 DUP6 ADD SLOAD PUSH2 0x4D6C JUMP JUMPDEST PUSH1 0x1F DUP2 GT PUSH2 0x289D JUMPI JUMPDEST POP PUSH1 0x20 SWAP1 PUSH1 0x1F DUP4 GT PUSH1 0x1 EQ PUSH2 0x2827 JUMPI SWAP2 DUP1 PUSH1 0xB SWAP5 SWAP3 PUSH2 0x160 SWAP5 PUSH1 0x0 SWAP3 PUSH2 0x281C JUMPI JUMPDEST POP POP DUP2 PUSH1 0x1 SHL SWAP2 PUSH1 0x0 NOT SWAP1 PUSH1 0x3 SHL SHR NOT AND OR PUSH1 0x4 DUP6 ADD SSTORE JUMPDEST PUSH1 0xA0 DUP2 ADD MLOAD PUSH1 0x5 DUP6 ADD SSTORE PUSH1 0xC0 DUP2 ADD MLOAD PUSH1 0x6 DUP6 ADD SSTORE PUSH1 0xE0 DUP2 ADD MLOAD PUSH1 0x7 DUP6 ADD SSTORE PUSH1 0x8 DUP5 ADD PUSH1 0x1 DUP1 PUSH1 0xA0 SHL SUB PUSH2 0x100 DUP4 ADD MLOAD AND PUSH1 0x1 PUSH1 0x1 PUSH1 0x60 SHL SUB PUSH1 0xA0 SHL DUP3 SLOAD AND OR SWAP1 SSTORE PUSH2 0x120 DUP2 ADD MLOAD PUSH1 0x9 DUP6 ADD SSTORE PUSH2 0x1530 PUSH2 0x140 DUP3 ADD MLOAD ISZERO ISZERO PUSH1 0xA DUP7 ADD SWAP1 PUSH1 0xFF DUP1 NOT DUP4 SLOAD AND SWAP2 ISZERO ISZERO AND OR SWAP1 SSTORE JUMP JUMPDEST ADD MLOAD SWAP2 ADD SSTORE PUSH1 0x40 MLOAD PUSH2 0x1541 DUP2 PUSH2 0x4CDA JUMP JUMPDEST PUSH1 0x4 DUP2 MSTORE PUSH4 0x8CD2E6D PUSH1 0xE3 SHL PUSH1 0x20 DUP3 ADD MSTORE PUSH2 0x155A PUSH2 0x5049 JUMP JUMPDEST PUSH2 0x1562 PUSH2 0x508B JUMP JUMPDEST SWAP1 PUSH2 0x1578 PUSH1 0x1 DUP1 PUSH1 0xA0 SHL SUB PUSH1 0x0 SLOAD AND CALLER EQ PUSH2 0x4FF2 JUMP JUMPDEST PUSH1 0x40 MLOAD SWAP3 PUSH2 0x1585 DUP5 PUSH2 0x4CA3 JUMP JUMPDEST PUSH1 0x3 DUP5 MSTORE PUSH1 0x20 DUP5 ADD MSTORE PUSH1 0x40 DUP4 ADD MSTORE PUSH1 0xA PUSH1 0x60 DUP4 ADD MSTORE PUSH1 0x80 DUP3 ADD MSTORE PUSH1 0x64 PUSH1 0xA0 DUP3 ADD MSTORE PUSH1 0x64 PUSH1 0xC0 DUP3 ADD MSTORE PUSH1 0x64 PUSH1 0xE0 DUP3 ADD MSTORE PUSH1 0x0 PUSH2 0x100 DUP3 ADD MSTORE PUSH1 0x32 PUSH2 0x120 DUP3 ADD MSTORE PUSH1 0x1 PUSH2 0x140 DUP3 ADD MSTORE PUSH1 0xA PUSH2 0x160 DUP3 ADD MSTORE PUSH1 0xC SLOAD PUSH1 0x1 PUSH1 0x40 SHL DUP2 LT ISZERO PUSH2 0x894 JUMPI DUP1 PUSH1 0x1 PUSH2 0x15F3 SWAP3 ADD PUSH1 0xC SSTORE PUSH2 0x4F65 JUMP JUMPDEST SWAP2 SWAP1 SWAP2 PUSH2 0x87E JUMPI DUP1 MLOAD DUP3 SSTORE PUSH1 0x20 DUP2 ADD MLOAD SWAP2 DUP3 MLOAD PUSH1 0x1 PUSH1 0x1 PUSH1 0x40 SHL SUB DUP2 GT PUSH2 0x894 JUMPI PUSH2 0x1621 PUSH1 0x1 DUP4 ADD SLOAD PUSH2 0x4D6C JUMP JUMPDEST PUSH1 0x1F DUP2 GT PUSH2 0x27D5 JUMPI JUMPDEST POP PUSH1 0x20 PUSH1 0x1F DUP3 GT PUSH1 0x1 EQ PUSH2 0x2767 JUMPI DUP2 SWAP3 SWAP4 SWAP5 PUSH1 0x0 SWAP3 PUSH2 0x275C JUMPI JUMPDEST POP POP DUP2 PUSH1 0x1 SHL SWAP2 PUSH1 0x0 NOT SWAP1 PUSH1 0x3 SHL SHR NOT AND OR PUSH1 0x1 DUP3 ADD SSTORE JUMPDEST PUSH1 0x40 DUP3 ADD MLOAD SWAP2 DUP3 MLOAD PUSH1 0x1 PUSH1 0x1 PUSH1 0x40 SHL SUB DUP2 GT PUSH2 0x894 JUMPI PUSH2 0x167F PUSH1 0x2 DUP5 ADD SLOAD PUSH2 0x4D6C JUMP JUMPDEST PUSH1 0x1F DUP2 GT PUSH2 0x2715 JUMPI JUMPDEST POP PUSH1 0x20 PUSH1 0x1F DUP3 GT PUSH1 0x1 EQ PUSH2 0x26A7 JUMPI DUP2 SWAP3 SWAP4 SWAP5 PUSH1 0x0 SWAP3 PUSH2 0x269C JUMPI JUMPDEST POP POP DUP2 PUSH1 0x1 SHL SWAP2 PUSH1 0x0 NOT SWAP1 PUSH1 0x3 SHL SHR NOT AND OR PUSH1 0x2 DUP4 ADD SSTORE JUMPDEST PUSH1 0x60 DUP2 ADD MLOAD PUSH1 0x3 DUP4 ADD SSTORE PUSH1 0x80 DUP2 ADD MLOAD DUP1 MLOAD SWAP1 PUSH1 0x1 PUSH1 0x1 PUSH1 0x40 SHL SUB DUP3 GT PUSH2 0x894 JUMPI PUSH2 0x16E7 PUSH1 0x4 DUP6 ADD SLOAD PUSH2 0x4D6C JUMP JUMPDEST PUSH1 0x1F DUP2 GT PUSH2 0x2655 JUMPI JUMPDEST POP PUSH1 0x20 SWAP1 PUSH1 0x1F DUP4 GT PUSH1 0x1 EQ PUSH2 0x25DF JUMPI SWAP2 DUP1 PUSH1 0xB SWAP5 SWAP3 PUSH2 0x160 SWAP5 PUSH1 0x0 SWAP3 PUSH2 0x25D4 JUMPI JUMPDEST POP POP DUP2 PUSH1 0x1 SHL SWAP2 PUSH1 0x0 NOT SWAP1 PUSH1 0x3 SHL SHR NOT AND OR PUSH1 0x4 DUP6 ADD SSTORE JUMPDEST PUSH1 0xA0 DUP2 ADD MLOAD PUSH1 0x5 DUP6 ADD SSTORE PUSH1 0xC0 DUP2 ADD MLOAD PUSH1 0x6 DUP6 ADD SSTORE PUSH1 0xE0 DUP2 ADD MLOAD PUSH1 0x7 DUP6 ADD SSTORE PUSH1 0x8 DUP5 ADD PUSH1 0x1 DUP1 PUSH1 0xA0 SHL SUB PUSH2 0x100 DUP4 ADD MLOAD AND PUSH1 0x1 PUSH1 0x1 PUSH1 0x60 SHL SUB PUSH1 0xA0 SHL DUP3 SLOAD AND OR SWAP1 SSTORE PUSH2 0x120 DUP2 ADD MLOAD PUSH1 0x9 DUP6 ADD SSTORE PUSH2 0x1795 PUSH2 0x140 DUP3 ADD MLOAD ISZERO ISZERO PUSH1 0xA DUP7 ADD SWAP1 PUSH1 0xFF DUP1 NOT DUP4 SLOAD AND SWAP2 ISZERO ISZERO AND OR SWAP1 SSTORE JUMP JUMPDEST ADD MLOAD SWAP2 ADD SSTORE PUSH1 0x40 MLOAD PUSH2 0x17A6 DUP2 PUSH2 0x4CDA JUMP JUMPDEST PUSH1 0x6 DUP2 MSTORE PUSH6 0x149858989A5D PUSH1 0xD2 SHL PUSH1 0x20 DUP3 ADD MSTORE PUSH2 0x17C1 PUSH2 0x5069 JUMP JUMPDEST PUSH2 0x17C9 PUSH2 0x508B JUMP JUMPDEST SWAP1 PUSH2 0x17DF PUSH1 0x1 DUP1 PUSH1 0xA0 SHL SUB PUSH1 0x0 SLOAD AND CALLER EQ PUSH2 0x4FF2 JUMP JUMPDEST PUSH1 0x40 MLOAD SWAP3 PUSH2 0x17EC DUP5 PUSH2 0x4CA3 JUMP JUMPDEST PUSH1 0x4 DUP5 MSTORE PUSH1 0x20 DUP5 ADD MSTORE PUSH1 0x40 DUP4 ADD MSTORE PUSH1 0xF PUSH1 0x60 DUP4 ADD MSTORE PUSH1 0x80 DUP3 ADD MSTORE PUSH1 0x64 PUSH1 0xA0 DUP3 ADD MSTORE PUSH1 0x64 PUSH1 0xC0 DUP3 ADD MSTORE PUSH1 0x64 PUSH1 0xE0 DUP3 ADD MSTORE PUSH1 0x0 PUSH2 0x100 DUP3 ADD MSTORE PUSH1 0x37 PUSH2 0x120 DUP3 ADD MSTORE PUSH1 0x1 PUSH2 0x140 DUP3 ADD MSTORE PUSH1 0x14 PUSH2 0x160 DUP3 ADD MSTORE PUSH1 0xC SLOAD PUSH1 0x1 PUSH1 0x40 SHL DUP2 LT ISZERO PUSH2 0x894 JUMPI DUP1 PUSH1 0x1 PUSH2 0x185A SWAP3 ADD PUSH1 0xC SSTORE PUSH2 0x4F65 JUMP JUMPDEST SWAP2 SWAP1 SWAP2 PUSH2 0x87E JUMPI DUP1 MLOAD DUP3 SSTORE PUSH1 0x20 DUP2 ADD MLOAD SWAP2 DUP3 MLOAD PUSH1 0x1 PUSH1 0x1 PUSH1 0x40 SHL SUB DUP2 GT PUSH2 0x894 JUMPI PUSH2 0x1888 PUSH1 0x1 DUP4 ADD SLOAD PUSH2 0x4D6C JUMP JUMPDEST PUSH1 0x1F DUP2 GT PUSH2 0x258D JUMPI JUMPDEST POP PUSH1 0x20 PUSH1 0x1F DUP3 GT PUSH1 0x1 EQ PUSH2 0x251F JUMPI DUP2 SWAP3 SWAP4 SWAP5 PUSH1 0x0 SWAP3 PUSH2 0x2514 JUMPI JUMPDEST POP POP DUP2 PUSH1 0x1 SHL SWAP2 PUSH1 0x0 NOT SWAP1 PUSH1 0x3 SHL SHR NOT AND OR PUSH1 0x1 DUP3 ADD SSTORE JUMPDEST PUSH1 0x40 DUP3 ADD MLOAD SWAP2 DUP3 MLOAD PUSH1 0x1 PUSH1 0x1 PUSH1 0x40 SHL SUB DUP2 GT PUSH2 0x894 JUMPI PUSH2 0x18E6 PUSH1 0x2 DUP5 ADD SLOAD PUSH2 0x4D6C JUMP JUMPDEST PUSH1 0x1F DUP2 GT PUSH2 0x24CD JUMPI JUMPDEST POP PUSH1 0x20 PUSH1 0x1F DUP3 GT PUSH1 0x1 EQ PUSH2 0x245F JUMPI DUP2 SWAP3 SWAP4 SWAP5 PUSH1 0x0 SWAP3 PUSH2 0x2454 JUMPI JUMPDEST POP POP DUP2 PUSH1 0x1 SHL SWAP2 PUSH1 0x0 NOT SWAP1 PUSH1 0x3 SHL SHR NOT AND OR PUSH1 0x2 DUP4 ADD SSTORE JUMPDEST PUSH1 0x60 DUP2 ADD MLOAD PUSH1 0x3 DUP4 ADD SSTORE PUSH1 0x80 DUP2 ADD MLOAD DUP1 MLOAD SWAP1 PUSH1 0x1 PUSH1 0x1 PUSH1 0x40 SHL SUB DUP3 GT PUSH2 0x894 JUMPI PUSH2 0x194E PUSH1 0x4 DUP6 ADD SLOAD PUSH2 0x4D6C JUMP JUMPDEST PUSH1 0x1F DUP2 GT PUSH2 0x240D JUMPI JUMPDEST POP PUSH1 0x20 SWAP1 PUSH1 0x1F DUP4 GT PUSH1 0x1 EQ PUSH2 0x2397 JUMPI SWAP2 DUP1 PUSH1 0xB SWAP5 SWAP3 PUSH2 0x160 SWAP5 PUSH1 0x0 SWAP3 PUSH2 0x238C JUMPI JUMPDEST POP POP DUP2 PUSH1 0x1 SHL SWAP2 PUSH1 0x0 NOT SWAP1 PUSH1 0x3 SHL SHR NOT AND OR PUSH1 0x4 DUP6 ADD SSTORE JUMPDEST PUSH1 0xA0 DUP2 ADD MLOAD PUSH1 0x5 DUP6 ADD SSTORE PUSH1 0xC0 DUP2 ADD MLOAD PUSH1 0x6 DUP6 ADD SSTORE PUSH1 0xE0 DUP2 ADD MLOAD PUSH1 0x7 DUP6 ADD SSTORE PUSH1 0x8 DUP5 ADD PUSH1 0x1 DUP1 PUSH1 0xA0 SHL SUB PUSH2 0x100 DUP4 ADD MLOAD AND PUSH1 0x1 PUSH1 0x1 PUSH1 0x60 SHL SUB PUSH1 0xA0 SHL DUP3 SLOAD AND OR SWAP1 SSTORE PUSH2 0x120 DUP2 ADD MLOAD PUSH1 0x9 DUP6 ADD SSTORE PUSH2 0x19FC PUSH2 0x140 DUP3 ADD MLOAD ISZERO ISZERO PUSH1 0xA DUP7 ADD SWAP1 PUSH1 0xFF DUP1 NOT DUP4 SLOAD AND SWAP2 ISZERO ISZERO AND OR SWAP1 SSTORE JUMP JUMPDEST ADD MLOAD SWAP2 ADD SSTORE PUSH1 0x40 MLOAD PUSH2 0x1A0D DUP2 PUSH2 0x4CDA JUMP JUMPDEST PUSH1 0x4 DUP2 MSTORE PUSH4 0x109A5C99 PUSH1 0xE2 SHL PUSH1 0x20 DUP3 ADD MSTORE PUSH2 0x1A26 PUSH2 0x5049 JUMP JUMPDEST PUSH1 0x40 MLOAD SWAP1 PUSH2 0x1A33 DUP3 PUSH2 0x4CDA JUMP JUMPDEST PUSH1 0x4 DUP3 MSTORE PUSH4 0x52617265 PUSH1 0xE0 SHL PUSH1 0x20 DUP4 ADD MSTORE PUSH2 0x1A59 PUSH1 0x1 DUP1 PUSH1 0xA0 SHL SUB PUSH1 0x0 SLOAD AND CALLER EQ PUSH2 0x4FF2 JUMP JUMPDEST PUSH1 0x40 MLOAD SWAP3 PUSH2 0x1A66 DUP5 PUSH2 0x4CA3 JUMP JUMPDEST PUSH1 0x5 DUP5 MSTORE PUSH1 0x20 DUP5 ADD MSTORE PUSH1 0x40 DUP4 ADD MSTORE PUSH1 0x1E PUSH1 0x60 DUP4 ADD MSTORE PUSH1 0x80 DUP3 ADD MSTORE PUSH1 0x64 PUSH1 0xA0 DUP3 ADD MSTORE PUSH1 0x64 PUSH1 0xC0 DUP3 ADD MSTORE PUSH1 0x64 PUSH1 0xE0 DUP3 ADD MSTORE PUSH1 0x0 PUSH2 0x100 DUP3 ADD MSTORE PUSH1 0x28 PUSH2 0x120 DUP3 ADD MSTORE PUSH1 0x1 PUSH2 0x140 DUP3 ADD MSTORE PUSH1 0x32 PUSH2 0x160 DUP3 ADD MSTORE PUSH1 0xC SLOAD PUSH1 0x1 PUSH1 0x40 SHL DUP2 LT ISZERO PUSH2 0x894 JUMPI DUP1 PUSH1 0x1 PUSH2 0x1AD4 SWAP3 ADD PUSH1 0xC SSTORE PUSH2 0x4F65 JUMP JUMPDEST SWAP2 SWAP1 SWAP2 PUSH2 0x87E JUMPI DUP1 MLOAD DUP3 SSTORE PUSH1 0x20 DUP2 ADD MLOAD SWAP2 DUP3 MLOAD PUSH1 0x1 PUSH1 0x1 PUSH1 0x40 SHL SUB DUP2 GT PUSH2 0x894 JUMPI PUSH2 0x1B02 PUSH1 0x1 DUP4 ADD SLOAD PUSH2 0x4D6C JUMP JUMPDEST PUSH1 0x1F DUP2 GT PUSH2 0x2345 JUMPI JUMPDEST POP PUSH1 0x20 PUSH1 0x1F DUP3 GT PUSH1 0x1 EQ PUSH2 0x22D7 JUMPI DUP2 SWAP3 SWAP4 SWAP5 PUSH1 0x0 SWAP3 PUSH2 0x22CC JUMPI JUMPDEST POP POP DUP2 PUSH1 0x1 SHL SWAP2 PUSH1 0x0 NOT SWAP1 PUSH1 0x3 SHL SHR NOT AND OR PUSH1 0x1 DUP3 ADD SSTORE JUMPDEST PUSH1 0x40 DUP3 ADD MLOAD SWAP2 DUP3 MLOAD PUSH1 0x1 PUSH1 0x1 PUSH1 0x40 SHL SUB DUP2 GT PUSH2 0x894 JUMPI PUSH2 0x1B60 PUSH1 0x2 DUP5 ADD SLOAD PUSH2 0x4D6C JUMP JUMPDEST PUSH1 0x1F DUP2 GT PUSH2 0x2285 JUMPI JUMPDEST POP PUSH1 0x20 PUSH1 0x1F DUP3 GT PUSH1 0x1 EQ PUSH2 0x2217 JUMPI DUP2 SWAP3 SWAP4 SWAP5 PUSH1 0x0 SWAP3 PUSH2 0x220C JUMPI JUMPDEST POP POP DUP2 PUSH1 0x1 SHL SWAP2 PUSH1 0x0 NOT SWAP1 PUSH1 0x3 SHL SHR NOT AND OR PUSH1 0x2 DUP4 ADD SSTORE JUMPDEST PUSH1 0x60 DUP2 ADD MLOAD PUSH1 0x3 DUP4 ADD SSTORE PUSH1 0x80 DUP2 ADD MLOAD DUP1 MLOAD SWAP1 PUSH1 0x1 PUSH1 0x1 PUSH1 0x40 SHL SUB DUP3 GT PUSH2 0x894 JUMPI PUSH2 0x1BC8 PUSH1 0x4 DUP6 ADD SLOAD PUSH2 0x4D6C JUMP JUMPDEST PUSH1 0x1F DUP2 GT PUSH2 0x21C5 JUMPI JUMPDEST POP PUSH1 0x20 SWAP1 PUSH1 0x1F DUP4 GT PUSH1 0x1 EQ PUSH2 0x214F JUMPI SWAP2 DUP1 PUSH1 0xB SWAP5 SWAP3 PUSH2 0x160 SWAP5 PUSH1 0x0 SWAP3 PUSH2 0x2144 JUMPI JUMPDEST POP POP DUP2 PUSH1 0x1 SHL SWAP2 PUSH1 0x0 NOT SWAP1 PUSH1 0x3 SHL SHR NOT AND OR PUSH1 0x4 DUP6 ADD SSTORE JUMPDEST PUSH1 0xA0 DUP2 ADD MLOAD PUSH1 0x5 DUP6 ADD SSTORE PUSH1 0xC0 DUP2 ADD MLOAD PUSH1 0x6 DUP6 ADD SSTORE PUSH1 0xE0 DUP2 ADD MLOAD PUSH1 0x7 DUP6 ADD SSTORE PUSH1 0x8 DUP5 ADD PUSH1 0x1 DUP1 PUSH1 0xA0 SHL SUB PUSH2 0x100 DUP4 ADD MLOAD AND PUSH1 0x1 PUSH1 0x1 PUSH1 0x60 SHL SUB PUSH1 0xA0 SHL DUP3 SLOAD AND OR SWAP1 SSTORE PUSH2 0x120 DUP2 ADD MLOAD PUSH1 0x9 DUP6 ADD SSTORE PUSH2 0x1C76 PUSH2 0x140 DUP3 ADD MLOAD ISZERO ISZERO PUSH1 0xA DUP7 ADD SWAP1 PUSH1 0xFF DUP1 NOT DUP4 SLOAD AND SWAP2 ISZERO ISZERO AND OR SWAP1 SSTORE JUMP JUMPDEST ADD MLOAD SWAP2 ADD SSTORE PUSH1 0x40 MLOAD PUSH2 0x1C87 DUP2 PUSH2 0x4CDA JUMP JUMPDEST PUSH1 0x8 DUP2 MSTORE PUSH8 0x23BABB32B931B4B7 PUSH1 0xC1 SHL PUSH1 0x20 DUP3 ADD MSTORE PUSH2 0x1CA4 PUSH2 0x5049 JUMP JUMPDEST PUSH1 0x40 MLOAD SWAP1 PUSH2 0x1CB1 DUP3 PUSH2 0x4CDA JUMP JUMPDEST PUSH1 0x7 DUP3 MSTORE PUSH7 0x54616B6C616369 PUSH1 0xC8 SHL PUSH1 0x20 DUP4 ADD MSTORE PUSH2 0x1CDA PUSH1 0x1 DUP1 PUSH1 0xA0 SHL SUB PUSH1 0x0 SLOAD AND CALLER EQ PUSH2 0x4FF2 JUMP JUMPDEST PUSH1 0x40 MLOAD SWAP3 PUSH2 0x1CE7 DUP5 PUSH2 0x4CA3 JUMP JUMPDEST PUSH1 0x6 DUP5 MSTORE PUSH1 0x20 DUP5 ADD MSTORE PUSH1 0x40 DUP4 ADD MSTORE PUSH1 0x1 PUSH1 0x60 DUP4 ADD MSTORE PUSH1 0x80 DUP3 ADD MSTORE PUSH1 0x64 PUSH1 0xA0 DUP3 ADD MSTORE PUSH1 0x64 PUSH1 0xC0 DUP3 ADD MSTORE PUSH1 0x64 PUSH1 0xE0 DUP3 ADD MSTORE PUSH1 0x0 PUSH2 0x100 DUP3 ADD MSTORE PUSH1 0x1 PUSH2 0x120 DUP3 ADD MSTORE PUSH1 0x1 PUSH2 0x140 DUP3 ADD MSTORE PUSH1 0x1 PUSH2 0x160 DUP3 ADD MSTORE PUSH1 0xC SLOAD PUSH1 0x1 PUSH1 0x40 SHL DUP2 LT ISZERO PUSH2 0x894 JUMPI DUP1 PUSH1 0x1 PUSH2 0x1D55 SWAP3 ADD PUSH1 0xC SSTORE PUSH2 0x4F65 JUMP JUMPDEST SWAP2 SWAP1 SWAP2 PUSH2 0x87E JUMPI DUP1 MLOAD DUP3 SSTORE PUSH1 0x20 DUP2 ADD MLOAD SWAP2 DUP3 MLOAD PUSH1 0x1 PUSH1 0x1 PUSH1 0x40 SHL SUB DUP2 GT PUSH2 0x894 JUMPI PUSH2 0x1D83 PUSH1 0x1 DUP4 ADD SLOAD PUSH2 0x4D6C JUMP JUMPDEST PUSH1 0x1F DUP2 GT PUSH2 0x20FD JUMPI JUMPDEST POP PUSH1 0x20 PUSH1 0x1F DUP3 GT PUSH1 0x1 EQ PUSH2 0x2091 JUMPI DUP2 SWAP3 SWAP4 SWAP5 PUSH1 0x0 SWAP3 PUSH2 0x2086 JUMPI JUMPDEST POP POP DUP2 PUSH1 0x1 SHL SWAP2 PUSH1 0x0 NOT SWAP1 PUSH1 0x3 SHL SHR NOT AND OR PUSH1 0x1 DUP3 ADD SSTORE JUMPDEST PUSH1 0x40 DUP3 ADD MLOAD SWAP2 DUP3 MLOAD PUSH1 0x1 PUSH1 0x1 PUSH1 0x40 SHL SUB DUP2 GT PUSH2 0x894 JUMPI PUSH2 0x1DE1 PUSH1 0x2 DUP5 ADD SLOAD PUSH2 0x4D6C JUMP JUMPDEST PUSH1 0x1F DUP2 GT PUSH2 0x203F JUMPI JUMPDEST POP PUSH1 0x20 PUSH1 0x1F DUP3 GT PUSH1 0x1 EQ PUSH2 0x1FD1 JUMPI DUP2 SWAP3 SWAP4 SWAP5 PUSH1 0x0 SWAP3 PUSH2 0x1FC6 JUMPI JUMPDEST POP POP DUP2 PUSH1 0x1 SHL SWAP2 PUSH1 0x0 NOT SWAP1 PUSH1 0x3 SHL SHR NOT AND OR PUSH1 0x2 DUP4 ADD SSTORE JUMPDEST PUSH1 0x60 DUP2 ADD MLOAD PUSH1 0x3 DUP4 ADD SSTORE PUSH1 0x80 DUP2 ADD MLOAD DUP1 MLOAD SWAP1 PUSH1 0x1 PUSH1 0x1 PUSH1 0x40 SHL SUB DUP3 GT PUSH2 0x894 JUMPI PUSH2 0x1E49 PUSH1 0x4 DUP6 ADD SLOAD PUSH2 0x4D6C JUMP JUMPDEST PUSH1 0x1F DUP2 GT PUSH2 0x1F7F JUMPI JUMPDEST POP PUSH1 0x20 SWAP1 PUSH1 0x1F DUP4 GT PUSH1 0x1 EQ PUSH2 0x1F09 JUMPI SWAP2 DUP1 PUSH1 0xB SWAP5 SWAP3 PUSH2 0x160 SWAP5 PUSH1 0x0 SWAP3 PUSH2 0x1EFE JUMPI JUMPDEST POP POP DUP2 PUSH1 0x1 SHL SWAP2 PUSH1 0x0 NOT SWAP1 PUSH1 0x3 SHL SHR NOT AND OR PUSH1 0x4 DUP6 ADD SSTORE JUMPDEST PUSH1 0xA0 DUP2 ADD MLOAD PUSH1 0x5 DUP6 ADD SSTORE PUSH1 0xC0 DUP2 ADD MLOAD PUSH1 0x6 DUP6 ADD SSTORE PUSH1 0xE0 DUP2 ADD MLOAD PUSH1 0x7 DUP6 ADD SSTORE PUSH1 0x8 DUP5 ADD PUSH1 0x1 DUP1 PUSH1 0xA0 SHL SUB PUSH2 0x100 DUP4 ADD MLOAD AND PUSH1 0x1 PUSH1 0x1 PUSH1 0x60 SHL SUB PUSH1 0xA0 SHL DUP3 SLOAD AND OR SWAP1 SSTORE PUSH2 0x120 DUP2 ADD MLOAD PUSH1 0x9 DUP6 ADD SSTORE PUSH2 0x1EF7 PUSH2 0x140 DUP3 ADD MLOAD ISZERO ISZERO PUSH1 0xA DUP7 ADD SWAP1 PUSH1 0xFF DUP1 NOT DUP4 SLOAD AND SWAP2 ISZERO ISZERO AND OR SWAP1 SSTORE JUMP JUMPDEST ADD MLOAD SWAP2 ADD SSTORE STOP JUMPDEST ADD MLOAD SWAP1 POP DUP7 DUP1 PUSH2 0x1E73 JUMP JUMPDEST SWAP1 PUSH1 0x4 DUP6 ADD PUSH1 0x0 MSTORE PUSH1 0x20 PUSH1 0x0 KECCAK256 SWAP2 PUSH1 0x0 JUMPDEST PUSH1 0x1F NOT DUP6 AND DUP2 LT PUSH2 0x1F67 JUMPI POP SWAP3 PUSH1 0xB SWAP5 SWAP3 PUSH1 0x1 SWAP3 PUSH2 0x160 SWAP6 DUP4 PUSH1 0x1F NOT DUP2 AND LT PUSH2 0x1F4E JUMPI JUMPDEST POP POP POP DUP2 SHL ADD PUSH1 0x4 DUP6 ADD SSTORE PUSH2 0x1E8B JUMP JUMPDEST ADD MLOAD PUSH1 0x0 NOT PUSH1 0xF8 DUP5 PUSH1 0x3 SHL AND SHR NOT AND SWAP1 SSTORE DUP7 DUP1 DUP1 PUSH2 0x1F3E JUMP JUMPDEST SWAP2 SWAP3 PUSH1 0x20 PUSH1 0x1 DUP2 SWAP3 DUP7 DUP6 ADD MLOAD DUP2 SSTORE ADD SWAP5 ADD SWAP3 ADD PUSH2 0x1F1A JUMP JUMPDEST PUSH1 0x4 DUP6 ADD PUSH1 0x0 MSTORE PUSH1 0x20 PUSH1 0x0 KECCAK256 PUSH1 0x1F DUP5 ADD PUSH1 0x5 SHR DUP2 ADD PUSH1 0x20 DUP6 LT PUSH2 0x1FBF JUMPI JUMPDEST PUSH1 0x1F DUP4 ADD PUSH1 0x5 SHR DUP3 ADD DUP2 LT PUSH2 0x1FB3 JUMPI POP POP PUSH2 0x1E52 JUMP JUMPDEST PUSH1 0x0 DUP2 SSTORE PUSH1 0x1 ADD PUSH2 0x1F9D JUMP JUMPDEST POP DUP1 PUSH2 0x1F9D JUMP JUMPDEST ADD MLOAD SWAP1 POP DUP5 DUP1 PUSH2 0x1E04 JUMP JUMPDEST PUSH1 0x2 DUP5 ADD PUSH1 0x0 MSTORE PUSH1 0x20 PUSH1 0x0 KECCAK256 SWAP1 PUSH1 0x0 JUMPDEST PUSH1 0x1F NOT DUP5 AND DUP2 LT PUSH2 0x2027 JUMPI POP PUSH1 0x1 SWAP4 SWAP5 SWAP6 DUP4 PUSH1 0x1F NOT DUP2 AND LT PUSH2 0x200E JUMPI JUMPDEST POP POP POP DUP2 SHL ADD PUSH1 0x2 DUP4 ADD SSTORE PUSH2 0x1E1C JUMP JUMPDEST ADD MLOAD PUSH1 0x0 NOT PUSH1 0xF8 DUP5 PUSH1 0x3 SHL AND SHR NOT AND SWAP1 SSTORE DUP5 DUP1 DUP1 PUSH2 0x1FFE JUMP JUMPDEST SWAP1 SWAP2 PUSH1 0x20 PUSH1 0x1 DUP2 SWAP3 DUP6 DUP11 ADD MLOAD DUP2 SSTORE ADD SWAP4 ADD SWAP2 ADD PUSH2 0x1FE1 JUMP JUMPDEST PUSH1 0x2 DUP5 ADD PUSH1 0x0 MSTORE PUSH1 0x20 PUSH1 0x0 KECCAK256 PUSH1 0x1F DUP4 ADD PUSH1 0x5 SHR DUP2 ADD PUSH1 0x20 DUP5 LT PUSH2 0x207F JUMPI JUMPDEST PUSH1 0x1F DUP4 ADD PUSH1 0x5 SHR DUP3 ADD DUP2 LT PUSH2 0x2073 JUMPI POP POP PUSH2 0x1DEA JUMP JUMPDEST PUSH1 0x0 DUP2 SSTORE PUSH1 0x1 ADD PUSH2 0x205D JUMP JUMPDEST POP DUP1 PUSH2 0x205D JUMP JUMPDEST ADD MLOAD SWAP1 POP DUP5 DUP1 PUSH2 0x1DA6 JUMP JUMPDEST PUSH1 0x1 DUP4 ADD PUSH1 0x0 MSTORE PUSH1 0x20 PUSH1 0x0 KECCAK256 SWAP1 PUSH1 0x0 PUSH1 0x1F NOT DUP5 AND SWAP1 JUMPDEST DUP2 DUP2 LT PUSH2 0x20E5 JUMPI POP SWAP6 DUP4 PUSH1 0x1 SWAP6 SWAP7 SWAP8 LT PUSH2 0x20CC JUMPI JUMPDEST POP POP POP DUP2 SHL ADD PUSH1 0x1 DUP3 ADD SSTORE PUSH2 0x1DBE JUMP JUMPDEST ADD MLOAD PUSH1 0x0 NOT PUSH1 0xF8 DUP5 PUSH1 0x3 SHL AND SHR NOT AND SWAP1 SSTORE DUP5 DUP1 DUP1 PUSH2 0x20BC JUMP JUMPDEST SWAP2 SWAP3 PUSH1 0x20 PUSH1 0x1 DUP2 SWAP3 DUP7 DUP12 ADD MLOAD DUP2 SSTORE ADD SWAP5 ADD SWAP3 ADD PUSH2 0x20A7 JUMP JUMPDEST PUSH1 0x1 DUP4 ADD PUSH1 0x0 MSTORE PUSH1 0x20 PUSH1 0x0 KECCAK256 PUSH1 0x1F DUP4 ADD PUSH1 0x5 SHR DUP2 ADD PUSH1 0x20 DUP5 LT PUSH2 0x213D JUMPI JUMPDEST PUSH1 0x1F DUP4 ADD PUSH1 0x5 SHR DUP3 ADD DUP2 LT PUSH2 0x2131 JUMPI POP POP PUSH2 0x1D8C JUMP JUMPDEST PUSH1 0x0 DUP2 SSTORE PUSH1 0x1 ADD PUSH2 0x211B JUMP JUMPDEST POP DUP1 PUSH2 0x211B JUMP JUMPDEST ADD MLOAD SWAP1 POP DUP7 DUP1 PUSH2 0x1BF2 JUMP JUMPDEST SWAP1 PUSH1 0x4 DUP6 ADD PUSH1 0x0 MSTORE PUSH1 0x20 PUSH1 0x0 KECCAK256 SWAP2 PUSH1 0x0 JUMPDEST PUSH1 0x1F NOT DUP6 AND DUP2 LT PUSH2 0x21AD JUMPI POP SWAP3 PUSH1 0xB SWAP5 SWAP3 PUSH1 0x1 SWAP3 PUSH2 0x160 SWAP6 DUP4 PUSH1 0x1F NOT DUP2 AND LT PUSH2 0x2194 JUMPI JUMPDEST POP POP POP DUP2 SHL ADD PUSH1 0x4 DUP6 ADD SSTORE PUSH2 0x1C0A JUMP JUMPDEST ADD MLOAD PUSH1 0x0 NOT PUSH1 0xF8 DUP5 PUSH1 0x3 SHL AND SHR NOT AND SWAP1 SSTORE DUP7 DUP1 DUP1 PUSH2 0x2184 JUMP JUMPDEST SWAP2 SWAP3 PUSH1 0x20 PUSH1 0x1 DUP2 SWAP3 DUP7 DUP6 ADD MLOAD DUP2 SSTORE ADD SWAP5 ADD SWAP3 ADD PUSH2 0x2160 JUMP JUMPDEST PUSH1 0x4 DUP6 ADD PUSH1 0x0 MSTORE PUSH1 0x20 PUSH1 0x0 KECCAK256 PUSH1 0x1F DUP5 ADD PUSH1 0x5 SHR DUP2 ADD PUSH1 0x20 DUP6 LT PUSH2 0x2205 JUMPI JUMPDEST PUSH1 0x1F DUP4 ADD PUSH1 0x5 SHR DUP3 ADD DUP2 LT PUSH2 0x21F9 JUMPI POP POP PUSH2 0x1BD1 JUMP JUMPDEST PUSH1 0x0 DUP2 SSTORE PUSH1 0x1 ADD PUSH2 0x21E3 JUMP JUMPDEST POP DUP1 PUSH2 0x21E3 JUMP JUMPDEST ADD MLOAD SWAP1 POP DUP5 DUP1 PUSH2 0x1B83 JUMP JUMPDEST PUSH1 0x2 DUP5 ADD PUSH1 0x0 MSTORE PUSH1 0x20 PUSH1 0x0 KECCAK256 SWAP1 PUSH1 0x0 JUMPDEST PUSH1 0x1F NOT DUP5 AND DUP2 LT PUSH2 0x226D JUMPI POP PUSH1 0x1 SWAP4 SWAP5 SWAP6 DUP4 PUSH1 0x1F NOT DUP2 AND LT PUSH2 0x2254 JUMPI JUMPDEST POP POP POP DUP2 SHL ADD PUSH1 0x2 DUP4 ADD SSTORE PUSH2 0x1B9B JUMP JUMPDEST ADD MLOAD PUSH1 0x0 NOT PUSH1 0xF8 DUP5 PUSH1 0x3 SHL AND SHR NOT AND SWAP1 SSTORE DUP5 DUP1 DUP1 PUSH2 0x2244 JUMP JUMPDEST SWAP1 SWAP2 PUSH1 0x20 PUSH1 0x1 DUP2 SWAP3 DUP6 DUP11 ADD MLOAD DUP2 SSTORE ADD SWAP4 ADD SWAP2 ADD PUSH2 0x2227 JUMP JUMPDEST PUSH1 0x2 DUP5 ADD PUSH1 0x0 MSTORE PUSH1 0x20 PUSH1 0x0 KECCAK256 PUSH1 0x1F DUP4 ADD PUSH1 0x5 SHR DUP2 ADD PUSH1 0x20 DUP5 LT PUSH2 0x22C5 JUMPI JUMPDEST PUSH1 0x1F DUP4 ADD PUSH1 0x5 SHR DUP3 ADD DUP2 LT PUSH2 0x22B9 JUMPI POP POP PUSH2 0x1B69 JUMP JUMPDEST PUSH1 0x0 DUP2 SSTORE PUSH1 0x1 ADD PUSH2 0x22A3 JUMP JUMPDEST POP DUP1 PUSH2 0x22A3 JUMP JUMPDEST ADD MLOAD SWAP1 POP DUP5 DUP1 PUSH2 0x1B25 JUMP JUMPDEST PUSH1 0x1 DUP4 ADD PUSH1 0x0 MSTORE PUSH1 0x20 PUSH1 0x0 KECCAK256 SWAP1 PUSH1 0x0 JUMPDEST PUSH1 0x1F NOT DUP5 AND DUP2 LT PUSH2 0x232D JUMPI POP PUSH1 0x1 SWAP4 SWAP5 SWAP6 DUP4 PUSH1 0x1F NOT DUP2 AND LT PUSH2 0x2314 JUMPI JUMPDEST POP POP POP DUP2 SHL ADD PUSH1 0x1 DUP3 ADD SSTORE PUSH2 0x1B3D JUMP JUMPDEST ADD MLOAD PUSH1 0x0 NOT PUSH1 0xF8 DUP5 PUSH1 0x3 SHL AND SHR NOT AND SWAP1 SSTORE DUP5 DUP1 DUP1 PUSH2 0x2304 JUMP JUMPDEST SWAP1 SWAP2 PUSH1 0x20 PUSH1 0x1 DUP2 SWAP3 DUP6 DUP11 ADD MLOAD DUP2 SSTORE ADD SWAP4 ADD SWAP2 ADD PUSH2 0x22E7 JUMP JUMPDEST PUSH1 0x1 DUP4 ADD PUSH1 0x0 MSTORE PUSH1 0x20 PUSH1 0x0 KECCAK256 PUSH1 0x1F DUP4 ADD PUSH1 0x5 SHR DUP2 ADD PUSH1 0x20 DUP5 LT PUSH2 0x2385 JUMPI JUMPDEST PUSH1 0x1F DUP4 ADD PUSH1 0x5 SHR DUP3 ADD DUP2 LT PUSH2 0x2379 JUMPI POP POP PUSH2 0x1B0B JUMP JUMPDEST PUSH1 0x0 DUP2 SSTORE PUSH1 0x1 ADD PUSH2 0x2363 JUMP JUMPDEST POP DUP1 PUSH2 0x2363 JUMP JUMPDEST ADD MLOAD SWAP1 POP DUP7 DUP1 PUSH2 0x1978 JUMP JUMPDEST SWAP1 PUSH1 0x4 DUP6 ADD PUSH1 0x0 MSTORE PUSH1 0x20 PUSH1 0x0 KECCAK256 SWAP2 PUSH1 0x0 JUMPDEST PUSH1 0x1F NOT DUP6 AND DUP2 LT PUSH2 0x23F5 JUMPI POP SWAP3 PUSH1 0xB SWAP5 SWAP3 PUSH1 0x1 SWAP3 PUSH2 0x160 SWAP6 DUP4 PUSH1 0x1F NOT DUP2 AND LT PUSH2 0x23DC JUMPI JUMPDEST POP POP POP DUP2 SHL ADD PUSH1 0x4 DUP6 ADD SSTORE PUSH2 0x1990 JUMP JUMPDEST ADD MLOAD PUSH1 0x0 NOT PUSH1 0xF8 DUP5 PUSH1 0x3 SHL AND SHR NOT AND SWAP1 SSTORE DUP7 DUP1 DUP1 PUSH2 0x23CC JUMP JUMPDEST SWAP2 SWAP3 PUSH1 0x20 PUSH1 0x1 DUP2 SWAP3 DUP7 DUP6 ADD MLOAD DUP2 SSTORE ADD SWAP5 ADD SWAP3 ADD PUSH2 0x23A8 JUMP JUMPDEST PUSH1 0x4 DUP6 ADD PUSH1 0x0 MSTORE PUSH1 0x20 PUSH1 0x0 KECCAK256 PUSH1 0x1F DUP5 ADD PUSH1 0x5 SHR DUP2 ADD PUSH1 0x20 DUP6 LT PUSH2 0x244D JUMPI JUMPDEST PUSH1 0x1F DUP4 ADD PUSH1 0x5 SHR DUP3 ADD DUP2 LT PUSH2 0x2441 JUMPI POP POP PUSH2 0x1957 JUMP JUMPDEST PUSH1 0x0 DUP2 SSTORE PUSH1 0x1 ADD PUSH2 0x242B JUMP JUMPDEST POP DUP1 PUSH2 0x242B JUMP JUMPDEST ADD MLOAD SWAP1 POP DUP5 DUP1 PUSH2 0x1909 JUMP JUMPDEST PUSH1 0x2 DUP5 ADD PUSH1 0x0 MSTORE PUSH1 0x20 PUSH1 0x0 KECCAK256 SWAP1 PUSH1 0x0 JUMPDEST PUSH1 0x1F NOT DUP5 AND DUP2 LT PUSH2 0x24B5 JUMPI POP PUSH1 0x1 SWAP4 SWAP5 SWAP6 DUP4 PUSH1 0x1F NOT DUP2 AND LT PUSH2 0x249C JUMPI JUMPDEST POP POP POP DUP2 SHL ADD PUSH1 0x2 DUP4 ADD SSTORE PUSH2 0x1921 JUMP JUMPDEST ADD MLOAD PUSH1 0x0 NOT PUSH1 0xF8 DUP5 PUSH1 0x3 SHL AND SHR NOT AND SWAP1 SSTORE DUP5 DUP1 DUP1 PUSH2 0x248C JUMP JUMPDEST SWAP1 SWAP2 PUSH1 0x20 PUSH1 0x1 DUP2 SWAP3 DUP6 DUP11 ADD MLOAD DUP2 SSTORE ADD SWAP4 ADD SWAP2 ADD PUSH2 0x246F JUMP JUMPDEST PUSH1 0x2 DUP5 ADD PUSH1 0x0 MSTORE PUSH1 0x20 PUSH1 0x0 KECCAK256 PUSH1 0x1F DUP4 ADD PUSH1 0x5 SHR DUP2 ADD PUSH1 0x20 DUP5 LT PUSH2 0x250D JUMPI JUMPDEST PUSH1 0x1F DUP4 ADD PUSH1 0x5 SHR DUP3 ADD DUP2 LT PUSH2 0x2501 JUMPI POP POP PUSH2 0x18EF JUMP JUMPDEST PUSH1 0x0 DUP2 SSTORE PUSH1 0x1 ADD PUSH2 0x24EB JUMP JUMPDEST POP DUP1 PUSH2 0x24EB JUMP JUMPDEST ADD MLOAD SWAP1 POP DUP5 DUP1 PUSH2 0x18AB JUMP JUMPDEST PUSH1 0x1 DUP4 ADD PUSH1 0x0 MSTORE PUSH1 0x20 PUSH1 0x0 KECCAK256 SWAP1 PUSH1 0x0 JUMPDEST PUSH1 0x1F NOT DUP5 AND DUP2 LT PUSH2 0x2575 JUMPI POP PUSH1 0x1 SWAP4 SWAP5 SWAP6 DUP4 PUSH1 0x1F NOT DUP2 AND LT PUSH2 0x255C JUMPI JUMPDEST POP POP POP DUP2 SHL ADD PUSH1 0x1 DUP3 ADD SSTORE PUSH2 0x18C3 JUMP JUMPDEST ADD MLOAD PUSH1 0x0 NOT PUSH1 0xF8 DUP5 PUSH1 0x3 SHL AND SHR NOT AND SWAP1 SSTORE DUP5 DUP1 DUP1 PUSH2 0x254C JUMP JUMPDEST SWAP1 SWAP2 PUSH1 0x20 PUSH1 0x1 DUP2 SWAP3 DUP6 DUP11 ADD MLOAD DUP2 SSTORE ADD SWAP4 ADD SWAP2 ADD PUSH2 0x252F JUMP JUMPDEST PUSH1 0x1 DUP4 ADD PUSH1 0x0 MSTORE PUSH1 0x20 PUSH1 0x0 KECCAK256 PUSH1 0x1F DUP4 ADD PUSH1 0x5 SHR DUP2 ADD PUSH1 0x20 DUP5 LT PUSH2 0x25CD JUMPI JUMPDEST PUSH1 0x1F DUP4 ADD PUSH1 0x5 SHR DUP3 ADD DUP2 LT PUSH2 0x25C1 JUMPI POP POP PUSH2 0x1891 JUMP JUMPDEST PUSH1 0x0 DUP2 SSTORE PUSH1 0x1 ADD PUSH2 0x25AB JUMP JUMPDEST POP DUP1 PUSH2 0x25AB JUMP JUMPDEST ADD MLOAD SWAP1 POP DUP7 DUP1 PUSH2 0x1711 JUMP JUMPDEST SWAP1 PUSH1 0x4 DUP6 ADD PUSH1 0x0 MSTORE PUSH1 0x20 PUSH1 0x0 KECCAK256 SWAP2 PUSH1 0x0 JUMPDEST PUSH1 0x1F NOT DUP6 AND DUP2 LT PUSH2 0x263D JUMPI POP SWAP3 PUSH1 0xB SWAP5 SWAP3 PUSH1 0x1 SWAP3 PUSH2 0x160 SWAP6 DUP4 PUSH1 0x1F NOT DUP2 AND LT PUSH2 0x2624 JUMPI JUMPDEST POP POP POP DUP2 SHL ADD PUSH1 0x4 DUP6 ADD SSTORE PUSH2 0x1729 JUMP JUMPDEST ADD MLOAD PUSH1 0x0 NOT PUSH1 0xF8 DUP5 PUSH1 0x3 SHL AND SHR NOT AND SWAP1 SSTORE DUP7 DUP1 DUP1 PUSH2 0x2614 JUMP JUMPDEST SWAP2 SWAP3 PUSH1 0x20 PUSH1 0x1 DUP2 SWAP3 DUP7 DUP6 ADD MLOAD DUP2 SSTORE ADD SWAP5 ADD SWAP3 ADD PUSH2 0x25F0 JUMP JUMPDEST PUSH1 0x4 DUP6 ADD PUSH1 0x0 MSTORE PUSH1 0x20 PUSH1 0x0 KECCAK256 PUSH1 0x1F DUP5 ADD PUSH1 0x5 SHR DUP2 ADD PUSH1 0x20 DUP6 LT PUSH2 0x2695 JUMPI JUMPDEST PUSH1 0x1F DUP4 ADD PUSH1 0x5 SHR DUP3 ADD DUP2 LT PUSH2 0x2689 JUMPI POP POP PUSH2 0x16F0 JUMP JUMPDEST PUSH1 0x0 DUP2 SSTORE PUSH1 0x1 ADD PUSH2 0x2673 JUMP JUMPDEST POP DUP1 PUSH2 0x2673 JUMP JUMPDEST ADD MLOAD SWAP1 POP DUP5 DUP1 PUSH2 0x16A2 JUMP JUMPDEST PUSH1 0x2 DUP5 ADD PUSH1 0x0 MSTORE PUSH1 0x20 PUSH1 0x0 KECCAK256 SWAP1 PUSH1 0x0 JUMPDEST PUSH1 0x1F NOT DUP5 AND DUP2 LT PUSH2 0x26FD JUMPI POP PUSH1 0x1 SWAP4 SWAP5 SWAP6 DUP4 PUSH1 0x1F NOT DUP2 AND LT PUSH2 0x26E4 JUMPI JUMPDEST POP POP POP DUP2 SHL ADD PUSH1 0x2 DUP4 ADD SSTORE PUSH2 0x16BA JUMP JUMPDEST ADD MLOAD PUSH1 0x0 NOT PUSH1 0xF8 DUP5 PUSH1 0x3 SHL AND SHR NOT AND SWAP1 SSTORE DUP5 DUP1 DUP1 PUSH2 0x26D4 JUMP JUMPDEST SWAP1 SWAP2 PUSH1 0x20 PUSH1 0x1 DUP2 SWAP3 DUP6 DUP11 ADD MLOAD DUP2 SSTORE ADD SWAP4 ADD SWAP2 ADD PUSH2 0x26B7 JUMP JUMPDEST PUSH1 0x2 DUP5 ADD PUSH1 0x0 MSTORE PUSH1 0x20 PUSH1 0x0 KECCAK256 PUSH1 0x1F DUP4 ADD PUSH1 0x5 SHR DUP2 ADD PUSH1 0x20 DUP5 LT PUSH2 0x2755 JUMPI JUMPDEST PUSH1 0x1F DUP4 ADD PUSH1 0x5 SHR DUP3 ADD DUP2 LT PUSH2 0x2749 JUMPI POP POP PUSH2 0x1688 JUMP JUMPDEST PUSH1 0x0 DUP2 SSTORE PUSH1 0x1 ADD PUSH2 0x2733 JUMP JUMPDEST POP DUP1 PUSH2 0x2733 JUMP JUMPDEST ADD MLOAD SWAP1 POP DUP5 DUP1 PUSH2 0x1644 JUMP JUMPDEST PUSH1 0x1 DUP4 ADD PUSH1 0x0 MSTORE PUSH1 0x20 PUSH1 0x0 KECCAK256 SWAP1 PUSH1 0x0 JUMPDEST PUSH1 0x1F NOT DUP5 AND DUP2 LT PUSH2 0x27BD JUMPI POP PUSH1 0x1 SWAP4 SWAP5 SWAP6 DUP4 PUSH1 0x1F NOT DUP2 AND LT PUSH2 0x27A4 JUMPI JUMPDEST POP POP POP DUP2 SHL ADD PUSH1 0x1 DUP3 ADD SSTORE PUSH2 0x165C JUMP JUMPDEST ADD MLOAD PUSH1 0x0 NOT PUSH1 0xF8 DUP5 PUSH1 0x3 SHL AND SHR NOT AND SWAP1 SSTORE DUP5 DUP1 DUP1 PUSH2 0x2794 JUMP JUMPDEST SWAP1 SWAP2 PUSH1 0x20 PUSH1 0x1 DUP2 SWAP3 DUP6 DUP11 ADD MLOAD DUP2 SSTORE ADD SWAP4 ADD SWAP2 ADD PUSH2 0x2777 JUMP JUMPDEST PUSH1 0x1 DUP4 ADD PUSH1 0x0 MSTORE PUSH1 0x20 PUSH1 0x0 KECCAK256 PUSH1 0x1F DUP4 ADD PUSH1 0x5 SHR DUP2 ADD PUSH1 0x20 DUP5 LT PUSH2 0x2815 JUMPI JUMPDEST PUSH1 0x1F DUP4 ADD PUSH1 0x5 SHR DUP3 ADD DUP2 LT PUSH2 0x2809 JUMPI POP POP PUSH2 0x162A JUMP JUMPDEST PUSH1 0x0 DUP2 SSTORE PUSH1 0x1 ADD PUSH2 0x27F3 JUMP JUMPDEST POP DUP1 PUSH2 0x27F3 JUMP JUMPDEST ADD MLOAD SWAP1 POP DUP7 DUP1 PUSH2 0x14AC JUMP JUMPDEST SWAP1 PUSH1 0x4 DUP6 ADD PUSH1 0x0 MSTORE PUSH1 0x20 PUSH1 0x0 KECCAK256 SWAP2 PUSH1 0x0 JUMPDEST PUSH1 0x1F NOT DUP6 AND DUP2 LT PUSH2 0x2885 JUMPI POP SWAP3 PUSH1 0xB SWAP5 SWAP3 PUSH1 0x1 SWAP3 PUSH2 0x160 SWAP6 DUP4 PUSH1 0x1F NOT DUP2 AND LT PUSH2 0x286C JUMPI JUMPDEST POP POP POP DUP2 SHL ADD PUSH1 0x4 DUP6 ADD SSTORE PUSH2 0x14C4 JUMP JUMPDEST ADD MLOAD PUSH1 0x0 NOT PUSH1 0xF8 DUP5 PUSH1 0x3 SHL AND SHR NOT AND SWAP1 SSTORE DUP7 DUP1 DUP1 PUSH2 0x285C JUMP JUMPDEST SWAP2 SWAP3 PUSH1 0x20 PUSH1 0x1 DUP2 SWAP3 DUP7 DUP6 ADD MLOAD DUP2 SSTORE ADD SWAP5 ADD SWAP3 ADD PUSH2 0x2838 JUMP JUMPDEST PUSH1 0x4 DUP6 ADD PUSH1 0x0 MSTORE PUSH1 0x20 PUSH1 0x0 KECCAK256 PUSH1 0x1F DUP5 ADD PUSH1 0x5 SHR DUP2 ADD PUSH1 0x20 DUP6 LT PUSH2 0x28DD JUMPI JUMPDEST PUSH1 0x1F DUP4 ADD PUSH1 0x5 SHR DUP3 ADD DUP2 LT PUSH2 0x28D1 JUMPI POP POP PUSH2 0x148B JUMP JUMPDEST PUSH1 0x0 DUP2 SSTORE PUSH1 0x1 ADD PUSH2 0x28BB JUMP JUMPDEST POP DUP1 PUSH2 0x28BB JUMP JUMPDEST ADD MLOAD SWAP1 POP DUP5 DUP1 PUSH2 0x143D JUMP JUMPDEST PUSH1 0x2 DUP5 ADD PUSH1 0x0 MSTORE PUSH1 0x20 PUSH1 0x0 KECCAK256 SWAP1 PUSH1 0x0 JUMPDEST PUSH1 0x1F NOT DUP5 AND DUP2 LT PUSH2 0x2945 JUMPI POP PUSH1 0x1 SWAP4 SWAP5 SWAP6 DUP4 PUSH1 0x1F NOT DUP2 AND LT PUSH2 0x292C JUMPI JUMPDEST POP POP POP DUP2 SHL ADD PUSH1 0x2 DUP4 ADD SSTORE PUSH2 0x1455 JUMP JUMPDEST ADD MLOAD PUSH1 0x0 NOT PUSH1 0xF8 DUP5 PUSH1 0x3 SHL AND SHR NOT AND SWAP1 SSTORE DUP5 DUP1 DUP1 PUSH2 0x291C JUMP JUMPDEST SWAP1 SWAP2 PUSH1 0x20 PUSH1 0x1 DUP2 SWAP3 DUP6 DUP11 ADD MLOAD DUP2 SSTORE ADD SWAP4 ADD SWAP2 ADD PUSH2 0x28FF JUMP JUMPDEST PUSH1 0x2 DUP5 ADD PUSH1 0x0 MSTORE PUSH1 0x20 PUSH1 0x0 KECCAK256 PUSH1 0x1F DUP4 ADD PUSH1 0x5 SHR DUP2 ADD PUSH1 0x20 DUP5 LT PUSH2 0x299D JUMPI JUMPDEST PUSH1 0x1F DUP4 ADD PUSH1 0x5 SHR DUP3 ADD DUP2 LT PUSH2 0x2991 JUMPI POP POP PUSH2 0x1423 JUMP JUMPDEST PUSH1 0x0 DUP2 SSTORE PUSH1 0x1 ADD PUSH2 0x297B JUMP JUMPDEST POP DUP1 PUSH2 0x297B JUMP JUMPDEST ADD MLOAD SWAP1 POP DUP5 DUP1 PUSH2 0x13DF JUMP JUMPDEST PUSH1 0x1 DUP4 ADD PUSH1 0x0 MSTORE PUSH1 0x20 PUSH1 0x0 KECCAK256 SWAP1 PUSH1 0x0 JUMPDEST PUSH1 0x1F NOT DUP5 AND DUP2 LT PUSH2 0x2A05 JUMPI POP PUSH1 0x1 SWAP4 SWAP5 SWAP6 DUP4 PUSH1 0x1F NOT DUP2 AND LT PUSH2 0x29EC JUMPI JUMPDEST POP POP POP DUP2 SHL ADD PUSH1 0x1 DUP3 ADD SSTORE PUSH2 0x13F7 JUMP JUMPDEST ADD MLOAD PUSH1 0x0 NOT PUSH1 0xF8 DUP5 PUSH1 0x3 SHL AND SHR NOT AND SWAP1 SSTORE DUP5 DUP1 DUP1 PUSH2 0x29DC JUMP JUMPDEST SWAP1 SWAP2 PUSH1 0x20 PUSH1 0x1 DUP2 SWAP3 DUP6 DUP11 ADD MLOAD DUP2 SSTORE ADD SWAP4 ADD SWAP2 ADD PUSH2 0x29BF JUMP JUMPDEST PUSH1 0x1 DUP4 ADD PUSH1 0x0 MSTORE PUSH1 0x20 PUSH1 0x0 KECCAK256 PUSH1 0x1F DUP4 ADD PUSH1 0x5 SHR DUP2 ADD PUSH1 0x20 DUP5 LT PUSH2 0x2A5D JUMPI JUMPDEST PUSH1 0x1F DUP4 ADD PUSH1 0x5 SHR DUP3 ADD DUP2 LT PUSH2 0x2A51 JUMPI POP POP PUSH2 0x13C5 JUMP JUMPDEST PUSH1 0x0 DUP2 SSTORE PUSH1 0x1 ADD PUSH2 0x2A3B JUMP JUMPDEST POP DUP1 PUSH2 0x2A3B JUMP JUMPDEST ADD MLOAD SWAP1 POP DUP7 DUP1 PUSH2 0x122E JUMP JUMPDEST SWAP1 PUSH1 0x4 DUP6 ADD PUSH1 0x0 MSTORE PUSH1 0x20 PUSH1 0x0 KECCAK256 SWAP2 PUSH1 0x0 JUMPDEST PUSH1 0x1F NOT DUP6 AND DUP2 LT PUSH2 0x2ACD JUMPI POP SWAP3 PUSH1 0xB SWAP5 SWAP3 PUSH1 0x1 SWAP3 PUSH2 0x160 SWAP6 DUP4 PUSH1 0x1F NOT DUP2 AND LT PUSH2 0x2AB4 JUMPI JUMPDEST POP POP POP DUP2 SHL ADD PUSH1 0x4 DUP6 ADD SSTORE PUSH2 0x1246 JUMP JUMPDEST ADD MLOAD PUSH1 0x0 NOT PUSH1 0xF8 DUP5 PUSH1 0x3 SHL AND SHR NOT AND SWAP1 SSTORE DUP7 DUP1 DUP1 PUSH2 0x2AA4 JUMP JUMPDEST SWAP2 SWAP3 PUSH1 0x20 PUSH1 0x1 DUP2 SWAP3 DUP7 DUP6 ADD MLOAD DUP2 SSTORE ADD SWAP5 ADD SWAP3 ADD PUSH2 0x2A80 JUMP JUMPDEST PUSH1 0x4 DUP6 ADD PUSH1 0x0 MSTORE PUSH1 0x20 PUSH1 0x0 KECCAK256 PUSH1 0x1F DUP5 ADD PUSH1 0x5 SHR DUP2 ADD PUSH1 0x20 DUP6 LT PUSH2 0x2B25 JUMPI JUMPDEST PUSH1 0x1F DUP4 ADD PUSH1 0x5 SHR DUP3 ADD DUP2 LT PUSH2 0x2B19 JUMPI POP POP PUSH2 0x120D JUMP JUMPDEST PUSH1 0x0 DUP2 SSTORE PUSH1 0x1 ADD PUSH2 0x2B03 JUMP JUMPDEST POP DUP1 PUSH2 0x2B03 JUMP JUMPDEST ADD MLOAD SWAP1 POP DUP5 DUP1 PUSH2 0x11BF JUMP JUMPDEST PUSH1 0x2 DUP5 ADD PUSH1 0x0 MSTORE PUSH1 0x20 PUSH1 0x0 KECCAK256 SWAP1 PUSH1 0x0 JUMPDEST PUSH1 0x1F NOT DUP5 AND DUP2 LT PUSH2 0x2B8D JUMPI POP PUSH1 0x1 SWAP4 SWAP5 SWAP6 DUP4 PUSH1 0x1F NOT DUP2 AND LT PUSH2 0x2B74 JUMPI JUMPDEST POP POP POP DUP2 SHL ADD PUSH1 0x2 DUP4 ADD SSTORE PUSH2 0x11D7 JUMP JUMPDEST ADD MLOAD PUSH1 0x0 NOT PUSH1 0xF8 DUP5 PUSH1 0x3 SHL AND SHR NOT AND SWAP1 SSTORE DUP5 DUP1 DUP1 PUSH2 0x2B64 JUMP JUMPDEST SWAP1 SWAP2 PUSH1 0x20 PUSH1 0x1 DUP2 SWAP3 DUP6 DUP11 ADD MLOAD DUP2 SSTORE ADD SWAP4 ADD SWAP2 ADD PUSH2 0x2B47 JUMP JUMPDEST PUSH1 0x2 DUP5 ADD PUSH1 0x0 MSTORE PUSH1 0x20 PUSH1 0x0 KECCAK256 PUSH1 0x1F DUP4 ADD PUSH1 0x5 SHR DUP2 ADD PUSH1 0x20 DUP5 LT PUSH2 0x2BE5 JUMPI JUMPDEST PUSH1 0x1F DUP4 ADD PUSH1 0x5 SHR DUP3 ADD DUP2 LT PUSH2 0x2BD9 JUMPI POP POP PUSH2 0x11A5 JUMP JUMPDEST PUSH1 0x0 DUP2 SSTORE PUSH1 0x1 ADD PUSH2 0x2BC3 JUMP JUMPDEST POP DUP1 PUSH2 0x2BC3 JUMP JUMPDEST ADD MLOAD SWAP1 POP DUP5 DUP1 PUSH2 0x1161 JUMP JUMPDEST PUSH1 0x1 DUP4 ADD PUSH1 0x0 MSTORE PUSH1 0x20 PUSH1 0x0 KECCAK256 SWAP1 PUSH1 0x0 JUMPDEST PUSH1 0x1F NOT DUP5 AND DUP2 LT PUSH2 0x2C4D JUMPI POP PUSH1 0x1 SWAP4 SWAP5 SWAP6 DUP4 PUSH1 0x1F NOT DUP2 AND LT PUSH2 0x2C34 JUMPI JUMPDEST POP POP POP DUP2 SHL ADD PUSH1 0x1 DUP3 ADD SSTORE PUSH2 0x1179 JUMP JUMPDEST ADD MLOAD PUSH1 0x0 NOT PUSH1 0xF8 DUP5 PUSH1 0x3 SHL AND SHR NOT AND SWAP1 SSTORE DUP5 DUP1 DUP1 PUSH2 0x2C24 JUMP JUMPDEST SWAP1 SWAP2 PUSH1 0x20 PUSH1 0x1 DUP2 SWAP3 DUP6 DUP11 ADD MLOAD DUP2 SSTORE ADD SWAP4 ADD SWAP2 ADD PUSH2 0x2C07 JUMP JUMPDEST PUSH1 0x1 DUP4 ADD PUSH1 0x0 MSTORE PUSH1 0x20 PUSH1 0x0 KECCAK256 PUSH1 0x1F DUP4 ADD PUSH1 0x5 SHR DUP2 ADD PUSH1 0x20 DUP5 LT PUSH2 0x2CA5 JUMPI JUMPDEST PUSH1 0x1F DUP4 ADD PUSH1 0x5 SHR DUP3 ADD DUP2 LT PUSH2 0x2C99 JUMPI POP POP PUSH2 0x1147 JUMP JUMPDEST PUSH1 0x0 DUP2 SSTORE PUSH1 0x1 ADD PUSH2 0x2C83 JUMP JUMPDEST POP DUP1 PUSH2 0x2C83 JUMP JUMPDEST PUSH1 0x40 MLOAD PUSH3 0x461BCD PUSH1 0xE5 SHL DUP2 MSTORE PUSH1 0x20 PUSH1 0x4 DUP3 ADD MSTORE PUSH1 0x1B PUSH1 0x24 DUP3 ADD MSTORE PUSH32 0x44656661756C74207065747320616C7265616479206578697374210000000000 PUSH1 0x44 DUP3 ADD MSTORE PUSH1 0x64 SWAP1 REVERT JUMPDEST CALLVALUE PUSH2 0x1B3 JUMPI PUSH1 0x20 DUP1 PUSH1 0x3 NOT CALLDATASIZE ADD SLT PUSH2 0x1B3 JUMPI PUSH1 0x4 CALLDATALOAD SWAP1 PUSH2 0x2D17 PUSH1 0xFF PUSH1 0xA PUSH2 0x478 DUP6 PUSH2 0x4F65 JUMP JUMPDEST CALLER PUSH1 0x0 MSTORE PUSH1 0x5 DUP2 MSTORE PUSH2 0x2D40 PUSH1 0x2 PUSH1 0x40 PUSH1 0x0 KECCAK256 ADD SLOAD PUSH1 0x9 PUSH2 0x2D36 DUP6 PUSH2 0x4F65 JUMP JUMPDEST POP ADD SLOAD GT ISZERO PUSH2 0x50F0 JUMP JUMPDEST PUSH2 0x2D49 DUP3 PUSH2 0x4F65 JUMP JUMPDEST POP PUSH1 0x8 ADD SLOAD PUSH1 0x1 PUSH1 0x1 PUSH1 0xA0 SHL SUB SWAP1 DUP2 AND CALLER EQ PUSH2 0x2F6B JUMPI PUSH1 0x8 PUSH2 0x2D6A DUP5 PUSH2 0x4F65 JUMP JUMPDEST POP ADD SLOAD AND PUSH1 0x9 PUSH2 0x2D79 DUP5 PUSH2 0x4F65 JUMP JUMPDEST POP ADD SLOAD CALLER PUSH1 0x0 MSTORE PUSH1 0x5 DUP4 MSTORE PUSH2 0x2D97 PUSH1 0x2 PUSH1 0x40 PUSH1 0x0 KECCAK256 ADD SWAP2 DUP3 SLOAD PUSH2 0x5132 JUMP JUMPDEST SWAP1 SSTORE PUSH1 0x9 PUSH2 0x2DA4 DUP5 PUSH2 0x4F65 JUMP JUMPDEST POP ADD SLOAD DUP2 PUSH1 0x0 MSTORE PUSH1 0x5 DUP4 MSTORE PUSH2 0x2DC2 PUSH1 0x2 PUSH1 0x40 PUSH1 0x0 KECCAK256 ADD SWAP2 DUP3 SLOAD PUSH2 0x513F JUMP JUMPDEST SWAP1 SSTORE PUSH1 0x8 PUSH2 0x2DCF DUP5 PUSH2 0x4F65 JUMP JUMPDEST POP ADD DUP1 SLOAD PUSH1 0x1 PUSH1 0x1 PUSH1 0xA0 SHL SUB NOT AND CALLER OR SWAP1 SSTORE PUSH1 0xA PUSH2 0x2DEC DUP5 PUSH2 0x4F65 JUMP JUMPDEST POP ADD PUSH1 0xFF NOT DUP2 SLOAD AND SWAP1 SSTORE DUP1 PUSH1 0x0 MSTORE PUSH1 0xD DUP3 MSTORE PUSH1 0x40 PUSH1 0x0 KECCAK256 DUP4 PUSH1 0x0 MSTORE DUP3 MSTORE PUSH1 0x0 PUSH1 0x40 DUP2 KECCAK256 SSTORE CALLER PUSH1 0x0 MSTORE PUSH1 0xD DUP3 MSTORE PUSH1 0x40 PUSH1 0x0 KECCAK256 DUP4 PUSH1 0x0 MSTORE DUP3 MSTORE PUSH1 0x1 SWAP2 DUP3 SWAP2 DUP3 PUSH1 0x40 PUSH1 0x0 KECCAK256 SSTORE PUSH1 0x0 MSTORE PUSH1 0xE DUP2 MSTORE DUP4 PUSH1 0x40 PUSH1 0x0 KECCAK256 DUP4 PUSH1 0x0 SWAP1 JUMPDEST PUSH2 0x2EBA JUMPI JUMPDEST POP POP POP PUSH1 0xE SWAP2 POP CALLER PUSH1 0x0 MSTORE MSTORE PUSH1 0x40 PUSH1 0x0 KECCAK256 DUP1 SLOAD SWAP2 PUSH1 0x1 PUSH1 0x40 SHL DUP4 LT ISZERO PUSH2 0x894 JUMPI DUP3 DUP5 SWAP3 PUSH2 0x2E79 SWAP3 PUSH2 0x2E92 SWAP6 ADD DUP2 SSTORE PUSH2 0x4F9F JUMP JUMPDEST SWAP1 SWAP2 SWAP1 DUP3 SLOAD SWAP1 PUSH1 0x3 SHL SWAP2 DUP3 SHL SWAP2 PUSH1 0x0 NOT SWAP1 SHL NOT AND OR SWAP1 SSTORE JUMP JUMPDEST CALLER PUSH32 0x87B964EB5A2C9BEC2A555F2DAB828A37BF9C62ED6D24158233C27783AD6484D3 PUSH1 0x0 DUP1 LOG3 STOP JUMPDEST DUP2 SLOAD DUP1 DUP3 LT ISZERO PUSH2 0x2F65 JUMPI DUP4 SWAP1 PUSH2 0x2ED0 DUP4 DUP6 PUSH2 0x4F9F JUMP JUMPDEST SWAP3 SWAP1 SLOAD PUSH1 0x3 SWAP4 DUP5 SHL SHR EQ PUSH2 0x2EEF JUMPI POP POP PUSH2 0x2EE9 SWAP1 PUSH2 0x51BA JUMP JUMPDEST DUP5 PUSH2 0x2E41 JUMP JUMPDEST PUSH1 0x0 NOT SWAP7 POP SWAP1 SWAP4 POP DUP6 DUP2 ADD SWAP2 SWAP1 DUP3 GT PUSH2 0x33D JUMPI PUSH2 0x2E79 PUSH2 0x2F12 PUSH2 0x2F1F SWAP4 DUP6 PUSH2 0x4F9F JUMP JUMPDEST SWAP1 SLOAD SWAP1 DUP7 SHL SHR SWAP2 DUP5 PUSH2 0x4F9F JUMP JUMPDEST DUP1 SLOAD SWAP4 DUP5 ISZERO PUSH2 0x2F4F JUMPI DUP1 PUSH1 0xE SWAP6 ADD SWAP3 PUSH2 0x2F38 DUP5 DUP5 PUSH2 0x4F9F JUMP JUMPDEST DUP2 SWAP4 SWAP2 SLOAD SWAP3 SHL SHL NOT AND SWAP1 SSTORE SSTORE DUP3 SWAP2 POP DUP4 DUP6 DUP1 PUSH2 0x2E46 JUMP JUMPDEST PUSH4 0x4E487B71 PUSH1 0xE0 SHL PUSH1 0x0 MSTORE PUSH1 0x31 PUSH1 0x4 MSTORE PUSH1 0x24 PUSH1 0x0 REVERT JUMPDEST POP PUSH2 0x2E46 JUMP JUMPDEST PUSH1 0x40 MLOAD PUSH3 0x461BCD PUSH1 0xE5 SHL DUP2 MSTORE PUSH1 0x4 DUP2 ADD DUP4 SWAP1 MSTORE PUSH1 0x19 PUSH1 0x24 DUP3 ADD MSTORE PUSH32 0x596F7520616C7265616479206F776E2074686973207065742100000000000000 PUSH1 0x44 DUP3 ADD MSTORE PUSH1 0x64 SWAP1 REVERT JUMPDEST CALLVALUE PUSH2 0x1B3 JUMPI PUSH1 0x20 DUP1 PUSH1 0x3 NOT CALLDATASIZE ADD SLT PUSH2 0x1B3 JUMPI PUSH1 0x1 PUSH1 0x1 PUSH1 0xA0 SHL SUB PUSH2 0x2FD2 PUSH2 0x4C8D JUMP JUMPDEST AND DUP1 PUSH1 0x0 MSTORE PUSH1 0xB DUP3 MSTORE PUSH1 0x40 PUSH1 0x0 KECCAK256 SLOAD PUSH2 0x3003 PUSH2 0x2FED DUP3 PUSH2 0x51A3 JUMP JUMPDEST SWAP2 PUSH2 0x2FFB PUSH1 0x40 MLOAD SWAP4 DUP5 PUSH2 0x4CF5 JUMP JUMPDEST DUP1 DUP4 MSTORE PUSH2 0x51A3 JUMP JUMPDEST DUP2 DUP5 ADD SWAP3 SWAP1 PUSH1 0x1F NOT ADD CALLDATASIZE DUP5 CALLDATACOPY PUSH1 0x0 DUP1 SWAP2 PUSH1 0x7 SLOAD SWAP3 JUMPDEST DUP4 DUP2 LT PUSH2 0x3062 JUMPI DUP7 DUP6 DUP8 PUSH1 0x40 MLOAD SWAP3 DUP4 SWAP3 DUP2 DUP5 ADD SWAP1 DUP3 DUP6 MSTORE MLOAD DUP1 SWAP2 MSTORE PUSH1 0x40 DUP5 ADD SWAP3 SWAP2 PUSH1 0x0 JUMPDEST DUP3 DUP2 LT PUSH2 0x304B JUMPI POP POP POP POP SUB SWAP1 RETURN JUMPDEST DUP4 MLOAD DUP6 MSTORE DUP7 SWAP6 POP SWAP4 DUP2 ADD SWAP4 SWAP3 DUP2 ADD SWAP3 PUSH1 0x1 ADD PUSH2 0x303C JUMP JUMPDEST DUP2 PUSH1 0x0 MSTORE PUSH1 0x9 DUP8 MSTORE PUSH1 0x40 PUSH1 0x0 KECCAK256 DUP2 PUSH1 0x0 MSTORE DUP8 MSTORE PUSH1 0xFF PUSH1 0x40 PUSH1 0x0 KECCAK256 SLOAD AND PUSH2 0x3091 JUMPI JUMPDEST PUSH2 0x308C SWAP1 PUSH2 0x51BA JUMP JUMPDEST PUSH2 0x3018 JUMP JUMPDEST SWAP2 DUP5 MLOAD DUP2 LT ISZERO PUSH2 0x30B9 JUMPI PUSH2 0x30B1 DUP2 DUP5 DUP10 PUSH2 0x308C SWAP5 PUSH1 0x5 SHL DUP10 ADD ADD MSTORE PUSH2 0x51BA JUMP JUMPDEST SWAP3 SWAP1 POP PUSH2 0x3083 JUMP JUMPDEST PUSH4 0x4E487B71 PUSH1 0xE0 SHL PUSH1 0x0 MSTORE PUSH1 0x32 PUSH1 0x4 MSTORE PUSH1 0x24 PUSH1 0x0 REVERT JUMPDEST CALLVALUE PUSH2 0x1B3 JUMPI PUSH1 0x0 CALLDATASIZE PUSH1 0x3 NOT ADD SLT PUSH2 0x1B3 JUMPI PUSH1 0x0 SLOAD PUSH1 0x40 MLOAD PUSH1 0x1 PUSH1 0x1 PUSH1 0xA0 SHL SUB SWAP1 SWAP2 AND DUP2 MSTORE PUSH1 0x20 SWAP1 RETURN JUMPDEST CALLVALUE PUSH2 0x1B3 JUMPI PUSH1 0x20 CALLDATASIZE PUSH1 0x3 NOT ADD SLT PUSH2 0x1B3 JUMPI PUSH1 0x4 CALLDATALOAD PUSH1 0x7 SLOAD DUP2 LT ISZERO PUSH2 0x1B3 JUMPI PUSH2 0x311F SWAP1 PUSH2 0x4F14 JUMP JUMPDEST POP DUP1 SLOAD SWAP1 PUSH2 0x3EC PUSH2 0x3132 PUSH1 0x1 DUP4 ADD PUSH2 0x4DA6 JUMP JUMPDEST SWAP2 PUSH2 0x313F PUSH1 0x2 DUP3 ADD PUSH2 0x4DA6 JUMP JUMPDEST SWAP4 PUSH1 0x4 PUSH1 0x3 DUP4 ADD SLOAD SWAP3 ADD SLOAD SWAP2 PUSH1 0x40 MLOAD SWAP6 DUP7 SWAP6 PUSH1 0xFF DUP1 DUP7 PUSH1 0x8 SHR AND SWAP6 AND SWAP4 DUP8 PUSH2 0x4EC9 JUMP JUMPDEST CALLVALUE PUSH2 0x1B3 JUMPI PUSH1 0x20 CALLDATASIZE PUSH1 0x3 NOT ADD SLT PUSH2 0x1B3 JUMPI PUSH1 0x1 PUSH1 0x1 PUSH1 0xA0 SHL SUB PUSH2 0x3183 PUSH2 0x4C8D JUMP JUMPDEST AND PUSH1 0x0 MSTORE PUSH1 0x6 PUSH1 0x20 MSTORE PUSH1 0x20 PUSH1 0xFF PUSH1 0x40 PUSH1 0x0 KECCAK256 SLOAD AND PUSH1 0x40 MLOAD SWAP1 ISZERO ISZERO DUP2 MSTORE RETURN JUMPDEST CALLVALUE PUSH2 0x1B3 JUMPI PUSH1 0x40 CALLDATASIZE PUSH1 0x3 NOT ADD SLT PUSH2 0x1B3 JUMPI PUSH1 0x1 PUSH1 0x1 PUSH1 0xA0 SHL SUB PUSH2 0x31C2 PUSH2 0x4C8D JUMP JUMPDEST AND PUSH1 0x0 MSTORE PUSH1 0xD PUSH1 0x20 MSTORE PUSH1 0x40 PUSH1 0x0 KECCAK256 PUSH1 0x24 CALLDATALOAD PUSH1 0x0 MSTORE PUSH1 0x20 MSTORE PUSH1 0x20 PUSH1 0x40 PUSH1 0x0 KECCAK256 SLOAD PUSH1 0x40 MLOAD SWAP1 DUP2 MSTORE RETURN JUMPDEST CALLVALUE PUSH2 0x1B3 JUMPI PUSH1 0x20 CALLDATASIZE PUSH1 0x3 NOT ADD SLT PUSH2 0x1B3 JUMPI PUSH2 0x320F PUSH1 0x1 DUP1 PUSH1 0xA0 SHL SUB PUSH1 0x0 SLOAD AND CALLER EQ PUSH2 0x4FF2 JUMP JUMPDEST PUSH1 0x4 CALLDATALOAD PUSH1 0x1 SSTORE STOP JUMPDEST CALLVALUE PUSH2 0x1B3 JUMPI PUSH1 0x0 CALLDATASIZE PUSH1 0x3 NOT ADD SLT PUSH2 0x1B3 JUMPI PUSH1 0xC DUP1 SLOAD PUSH2 0x3235 DUP2 PUSH2 0x51A3 JUMP JUMPDEST SWAP2 PUSH2 0x3243 PUSH1 0x40 MLOAD SWAP4 DUP5 PUSH2 0x4CF5 JUMP JUMPDEST DUP2 DUP4 MSTORE PUSH1 0x20 SWAP2 DUP3 DUP5 ADD SWAP2 DUP3 DUP2 PUSH1 0x0 MSTORE PUSH32 0xDF6966C971051C3D54EC59162606531493A51404A002842F56009D7E5CF4A8C7 PUSH1 0x0 SWAP2 JUMPDEST DUP5 DUP4 LT PUSH2 0x3376 JUMPI PUSH1 0x40 DUP1 MLOAD DUP9 DUP2 MSTORE DUP10 MLOAD DUP2 DUP11 ADD DUP2 SWAP1 MSTORE PUSH1 0x0 SWAP3 PUSH1 0x5 DUP3 SWAP1 SHL DUP4 ADD DUP2 ADD SWAP2 DUP11 SWAP2 DUP13 SWAP1 DUP6 ADD JUMPDEST DUP3 DUP8 LT PUSH2 0x32AE JUMPI DUP6 DUP6 SUB DUP7 RETURN JUMPDEST SWAP1 SWAP2 SWAP3 SWAP4 DUP3 DUP1 PUSH1 0x1 SWAP3 PUSH1 0x3F NOT DUP10 DUP3 SUB ADD DUP6 MSTORE DUP8 MLOAD SWAP1 DUP2 MLOAD DUP2 MSTORE PUSH2 0x3313 PUSH2 0x32F6 PUSH2 0x32E4 DUP6 DUP6 ADD MLOAD PUSH2 0x180 DUP1 DUP9 DUP8 ADD MSTORE DUP6 ADD SWAP1 PUSH2 0x4E4C JUMP JUMPDEST PUSH1 0x40 DUP6 ADD MLOAD DUP5 DUP3 SUB PUSH1 0x40 DUP7 ADD MSTORE PUSH2 0x4E4C JUMP JUMPDEST PUSH1 0x60 DUP1 DUP6 ADD MLOAD SWAP1 DUP5 ADD MSTORE PUSH1 0x80 DUP1 DUP6 ADD MLOAD SWAP1 DUP5 DUP4 SUB SWAP1 DUP6 ADD MSTORE PUSH2 0x4E4C JUMP JUMPDEST SWAP2 PUSH1 0xA0 DUP1 DUP3 ADD MLOAD SWAP1 DUP4 ADD MSTORE PUSH1 0xC0 DUP1 DUP3 ADD MLOAD SWAP1 DUP4 ADD MSTORE PUSH1 0xE0 DUP2 ADD MLOAD PUSH1 0xE0 DUP4 ADD MSTORE PUSH2 0x100 DUP7 DUP1 PUSH1 0xA0 SHL SUB DUP2 DUP4 ADD MLOAD AND SWAP1 DUP4 ADD MSTORE PUSH2 0x120 DUP1 DUP3 ADD MLOAD SWAP1 DUP4 ADD MSTORE PUSH2 0x140 DUP1 DUP3 ADD MLOAD ISZERO ISZERO SWAP1 DUP4 ADD MSTORE PUSH2 0x160 DUP1 SWAP2 ADD MLOAD SWAP2 ADD MSTORE SWAP7 ADD SWAP3 ADD SWAP7 ADD SWAP6 SWAP3 SWAP2 SWAP1 SWAP3 PUSH2 0x32A1 JUMP JUMPDEST DUP4 DUP8 PUSH1 0x1 SWAP3 PUSH1 0x40 SWAP11 SWAP10 SWAP11 MLOAD PUSH2 0x338A DUP2 PUSH2 0x4CA3 JUMP JUMPDEST DUP6 SLOAD DUP2 MSTORE PUSH2 0x3399 DUP6 DUP8 ADD PUSH2 0x4DA6 JUMP JUMPDEST DUP4 DUP3 ADD MSTORE PUSH2 0x33A9 PUSH1 0x2 DUP8 ADD PUSH2 0x4DA6 JUMP JUMPDEST PUSH1 0x40 DUP3 ADD MSTORE PUSH1 0x3 DUP7 ADD SLOAD PUSH1 0x60 DUP3 ADD MSTORE PUSH2 0x33C4 PUSH1 0x4 DUP8 ADD PUSH2 0x4DA6 JUMP JUMPDEST PUSH1 0x80 DUP3 ADD MSTORE PUSH1 0x5 DUP7 ADD SLOAD PUSH1 0xA0 DUP3 ADD MSTORE PUSH1 0x6 DUP7 ADD SLOAD PUSH1 0xC0 DUP3 ADD MSTORE PUSH1 0x7 DUP7 ADD SLOAD PUSH1 0xE0 DUP3 ADD MSTORE DUP5 DUP1 PUSH1 0xA0 SHL SUB PUSH1 0x8 DUP8 ADD SLOAD AND PUSH2 0x100 DUP3 ADD MSTORE PUSH1 0x9 DUP7 ADD SLOAD PUSH2 0x120 DUP3 ADD MSTORE PUSH1 0xFF PUSH1 0xA DUP8 ADD SLOAD AND ISZERO ISZERO PUSH2 0x140 DUP3 ADD MSTORE PUSH1 0xB DUP7 ADD SLOAD PUSH2 0x160 DUP3 ADD MSTORE DUP2 MSTORE ADD SWAP3 ADD SWAP3 ADD SWAP2 SWAP1 SWAP7 SWAP6 SWAP7 PUSH2 0x3277 JUMP JUMPDEST CALLVALUE PUSH2 0x1B3 JUMPI PUSH1 0x40 CALLDATASIZE PUSH1 0x3 NOT ADD SLT PUSH2 0x1B3 JUMPI PUSH1 0x1 PUSH1 0x1 PUSH1 0xA0 SHL SUB PUSH2 0x3451 PUSH2 0x4C8D JUMP JUMPDEST AND PUSH1 0x0 MSTORE PUSH1 0x8 PUSH1 0x20 MSTORE PUSH1 0x40 PUSH1 0x0 KECCAK256 PUSH1 0x24 CALLDATALOAD PUSH1 0x0 MSTORE PUSH1 0x20 MSTORE PUSH1 0x20 PUSH1 0xFF PUSH1 0x40 PUSH1 0x0 KECCAK256 SLOAD AND PUSH1 0x40 MLOAD SWAP1 ISZERO ISZERO DUP2 MSTORE RETURN JUMPDEST CALLVALUE PUSH2 0x1B3 JUMPI PUSH1 0x20 CALLDATASIZE PUSH1 0x3 NOT ADD SLT PUSH2 0x1B3 JUMPI PUSH1 0x4 CALLDATALOAD PUSH1 0x0 MSTORE PUSH1 0xA PUSH1 0x20 MSTORE PUSH1 0x40 PUSH1 0x0 KECCAK256 DUP1 SLOAD SWAP1 PUSH2 0x3EC PUSH2 0x3132 PUSH1 0x1 DUP4 ADD PUSH2 0x4DA6 JUMP JUMPDEST CALLVALUE PUSH2 0x1B3 JUMPI PUSH1 0x20 CALLDATASIZE PUSH1 0x3 NOT ADD SLT PUSH2 0x1B3 JUMPI PUSH1 0x1 PUSH1 0x1 PUSH1 0xA0 SHL SUB DUP1 PUSH2 0x34D2 PUSH2 0x4C8D JUMP JUMPDEST AND PUSH1 0x0 MSTORE PUSH1 0x5 PUSH1 0x20 MSTORE PUSH1 0x40 PUSH1 0x0 KECCAK256 SWAP1 DUP2 SLOAD AND PUSH2 0x3EC PUSH2 0x3C6 PUSH1 0x1 DUP5 ADD PUSH2 0x4DA6 JUMP JUMPDEST CALLVALUE PUSH2 0x1B3 JUMPI PUSH1 0x0 CALLDATASIZE PUSH1 0x3 NOT ADD SLT PUSH2 0x1B3 JUMPI PUSH1 0x0 SLOAD PUSH1 0x1 PUSH1 0x1 PUSH1 0xA0 SHL SUB AND CALLER EQ PUSH2 0x351B DUP2 PUSH2 0x4FF2 JUMP JUMPDEST PUSH1 0x40 MLOAD SWAP1 PUSH2 0x3528 DUP3 PUSH2 0x4CDA JUMP JUMPDEST PUSH1 0x7 DUP3 MSTORE PUSH7 0x109D5E4814195D PUSH1 0xCA SHL PUSH1 0x20 DUP4 ADD MSTORE PUSH2 0x3567 PUSH1 0x40 MLOAD SWAP2 PUSH2 0x354C DUP4 PUSH2 0x4CDA JUMP JUMPDEST PUSH1 0x9 DUP4 MSTORE PUSH9 0x109D5E4818481C195D PUSH1 0xBA SHL PUSH1 0x20 DUP5 ADD MSTORE PUSH2 0x4FF2 JUMP JUMPDEST PUSH1 0x7 SLOAD SWAP2 PUSH1 0x40 MLOAD PUSH2 0x3577 DUP2 PUSH2 0x4CBF JUMP JUMPDEST DUP4 DUP2 MSTORE PUSH1 0x20 DUP2 ADD SWAP3 DUP3 DUP5 MSTORE PUSH1 0x40 DUP3 ADD MSTORE PUSH1 0xF PUSH1 0x60 DUP3 ADD MSTORE PUSH1 0x0 PUSH1 0x80 DUP3 ADD MSTORE PUSH1 0x0 PUSH1 0xA0 DUP3 ADD MSTORE PUSH1 0x1 PUSH1 0x40 SHL DUP5 LT ISZERO PUSH2 0x894 JUMPI PUSH1 0x1 DUP5 ADD PUSH1 0x7 SSTORE PUSH2 0x35B8 DUP5 PUSH2 0x4F14 JUMP JUMPDEST SWAP4 SWAP1 SWAP4 PUSH2 0x87E JUMPI DUP2 MLOAD DUP5 SSTORE MLOAD DUP1 MLOAD SWAP1 PUSH1 0x1 PUSH1 0x1 PUSH1 0x40 SHL SUB DUP3 GT PUSH2 0x894 JUMPI DUP2 SWAP1 PUSH2 0x35E4 PUSH1 0x1 DUP8 ADD SLOAD PUSH2 0x4D6C JUMP JUMPDEST PUSH1 0x1F DUP2 GT PUSH2 0x466E JUMPI JUMPDEST POP PUSH1 0x20 SWAP1 PUSH1 0x1F DUP4 GT PUSH1 0x1 EQ PUSH2 0x45FC JUMPI PUSH1 0x0 SWAP3 PUSH2 0x45F1 JUMPI JUMPDEST POP POP DUP2 PUSH1 0x1 SHL SWAP2 PUSH1 0x0 NOT SWAP1 PUSH1 0x3 SHL SHR NOT AND OR PUSH1 0x1 DUP5 ADD SSTORE JUMPDEST PUSH1 0x40 DUP2 ADD MLOAD DUP1 MLOAD SWAP1 PUSH1 0x1 PUSH1 0x1 PUSH1 0x40 SHL SUB DUP3 GT PUSH2 0x894 JUMPI PUSH2 0x363F PUSH1 0x2 DUP7 ADD SLOAD PUSH2 0x4D6C JUMP JUMPDEST PUSH1 0x1F DUP2 GT PUSH2 0x45AA JUMPI JUMPDEST POP PUSH1 0x20 SWAP1 PUSH1 0x1F DUP4 GT PUSH1 0x1 EQ PUSH2 0x4537 JUMPI PUSH1 0xA0 SWAP4 SWAP3 SWAP2 PUSH1 0x0 SWAP2 DUP4 PUSH2 0x452C JUMPI JUMPDEST POP POP DUP2 PUSH1 0x1 SHL SWAP2 PUSH1 0x0 NOT SWAP1 PUSH1 0x3 SHL SHR NOT AND OR PUSH1 0x2 DUP6 ADD SSTORE JUMPDEST PUSH1 0x60 DUP2 ADD MLOAD PUSH1 0x3 DUP6 ADD SSTORE PUSH2 0x36A6 PUSH1 0x80 DUP3 ADD MLOAD ISZERO ISZERO PUSH1 0x4 DUP7 ADD SWAP1 PUSH1 0xFF DUP1 NOT DUP4 SLOAD AND SWAP2 ISZERO ISZERO AND OR SWAP1 SSTORE JUMP JUMPDEST ADD MLOAD SWAP1 PUSH1 0x5 DUP3 LT ISZERO PUSH2 0x3EC0 JUMPI DUP3 PUSH1 0x4 PUSH2 0x36F2 SWAP4 PUSH2 0xFF00 DUP3 PUSH1 0x0 DUP1 MLOAD PUSH1 0x20 PUSH2 0x5348 DUP4 CODECOPY DUP2 MLOAD SWAP2 MSTORE SWAP8 ADD SLOAD SWAP2 PUSH1 0x8 SHL AND SWAP1 PUSH2 0xFF00 NOT AND OR SWAP2 ADD SSTORE PUSH1 0x40 MLOAD SWAP2 DUP3 SWAP2 PUSH1 0x40 DUP4 MSTORE PUSH1 0x40 DUP4 ADD SWAP1 PUSH2 0x4E4C JUMP JUMPDEST PUSH1 0xF PUSH1 0x20 DUP4 ADD MSTORE SUB SWAP1 LOG2 PUSH1 0x40 MLOAD PUSH2 0x3708 DUP2 PUSH2 0x4CDA JUMP JUMPDEST PUSH1 0x8 DUP2 MSTORE PUSH8 0x119959590814195D PUSH1 0xC2 SHL PUSH1 0x20 DUP3 ADD MSTORE PUSH1 0x40 MLOAD PUSH2 0x3729 DUP2 PUSH2 0x4CDA JUMP JUMPDEST PUSH1 0xA DUP2 MSTORE PUSH10 0x119959590818481C195D PUSH1 0xB2 SHL PUSH1 0x20 DUP3 ADD MSTORE PUSH2 0x3755 PUSH1 0x1 DUP1 PUSH1 0xA0 SHL SUB PUSH1 0x0 SLOAD AND CALLER EQ PUSH2 0x4FF2 JUMP JUMPDEST PUSH1 0x7 SLOAD SWAP2 PUSH1 0x40 MLOAD SWAP2 PUSH2 0x3766 DUP4 PUSH2 0x4CBF JUMP JUMPDEST DUP4 DUP4 MSTORE DUP2 PUSH1 0x20 DUP5 ADD MSTORE PUSH1 0x40 DUP4 ADD MSTORE PUSH1 0x5 PUSH1 0x60 DUP4 ADD MSTORE PUSH1 0x0 PUSH1 0x80 DUP4 ADD MSTORE PUSH1 0x1 PUSH1 0xA0 DUP4 ADD MSTORE PUSH1 0x1 PUSH1 0x40 SHL DUP4 LT ISZERO PUSH2 0x894 JUMPI PUSH1 0x1 DUP4 ADD PUSH1 0x7 SSTORE PUSH2 0x37A5 DUP4 PUSH2 0x4F14 JUMP JUMPDEST SWAP3 SWAP1 SWAP3 PUSH2 0x87E JUMPI DUP1 MLOAD DUP4 SSTORE PUSH1 0x20 DUP2 ADD MLOAD DUP1 MLOAD SWAP1 PUSH1 0x1 PUSH1 0x1 PUSH1 0x40 SHL SUB DUP3 GT PUSH2 0x894 JUMPI DUP2 SWAP1 PUSH2 0x37D5 PUSH1 0x1 DUP8 ADD SLOAD PUSH2 0x4D6C JUMP JUMPDEST PUSH1 0x1F DUP2 GT PUSH2 0x44D9 JUMPI JUMPDEST POP PUSH1 0x20 SWAP1 PUSH1 0x1F DUP4 GT PUSH1 0x1 EQ PUSH2 0x4467 JUMPI PUSH1 0x0 SWAP3 PUSH2 0x445C JUMPI JUMPDEST POP POP DUP2 PUSH1 0x1 SHL SWAP2 PUSH1 0x0 NOT SWAP1 PUSH1 0x3 SHL SHR NOT AND OR PUSH1 0x1 DUP5 ADD SSTORE JUMPDEST PUSH1 0x40 DUP2 ADD MLOAD DUP1 MLOAD SWAP1 PUSH1 0x1 PUSH1 0x1 PUSH1 0x40 SHL SUB DUP3 GT PUSH2 0x894 JUMPI PUSH2 0x3830 PUSH1 0x2 DUP7 ADD SLOAD PUSH2 0x4D6C JUMP JUMPDEST PUSH1 0x1F DUP2 GT PUSH2 0x4415 JUMPI JUMPDEST POP PUSH1 0x20 SWAP1 PUSH1 0x1F DUP4 GT PUSH1 0x1 EQ PUSH2 0x43A2 JUMPI PUSH1 0xA0 SWAP4 SWAP3 SWAP2 PUSH1 0x0 SWAP2 DUP4 PUSH2 0x4397 JUMPI JUMPDEST POP POP DUP2 PUSH1 0x1 SHL SWAP2 PUSH1 0x0 NOT SWAP1 PUSH1 0x3 SHL SHR NOT AND OR PUSH1 0x2 DUP6 ADD SSTORE JUMPDEST PUSH1 0x60 DUP2 ADD MLOAD PUSH1 0x3 DUP6 ADD SSTORE PUSH2 0x3897 PUSH1 0x80 DUP3 ADD MLOAD ISZERO ISZERO PUSH1 0x4 DUP7 ADD SWAP1 PUSH1 0xFF DUP1 NOT DUP4 SLOAD AND SWAP2 ISZERO ISZERO AND OR SWAP1 SSTORE JUMP JUMPDEST ADD MLOAD SWAP1 PUSH1 0x5 DUP3 LT ISZERO PUSH2 0x3EC0 JUMPI DUP3 PUSH1 0x4 PUSH2 0x38E3 SWAP4 PUSH2 0xFF00 DUP3 PUSH1 0x0 DUP1 MLOAD PUSH1 0x20 PUSH2 0x5348 DUP4 CODECOPY DUP2 MLOAD SWAP2 MSTORE SWAP8 ADD SLOAD SWAP2 PUSH1 0x8 SHL AND SWAP1 PUSH2 0xFF00 NOT AND OR SWAP2 ADD SSTORE PUSH1 0x40 MLOAD SWAP2 DUP3 SWAP2 PUSH1 0x40 DUP4 MSTORE PUSH1 0x40 DUP4 ADD SWAP1 PUSH2 0x4E4C JUMP JUMPDEST PUSH1 0x5 PUSH1 0x20 DUP4 ADD MSTORE SUB SWAP1 LOG2 PUSH1 0x40 MLOAD PUSH2 0x38F9 DUP2 PUSH2 0x4CDA JUMP JUMPDEST PUSH1 0x8 DUP2 MSTORE PUSH8 0x131A5AD94814195D PUSH1 0xC2 SHL PUSH1 0x20 DUP3 ADD MSTORE PUSH1 0x40 MLOAD PUSH2 0x391A DUP2 PUSH2 0x4CDA JUMP JUMPDEST PUSH1 0xA DUP2 MSTORE PUSH10 0x131A5AD94818481C195D PUSH1 0xB2 SHL PUSH1 0x20 DUP3 ADD MSTORE PUSH2 0x3946 PUSH1 0x1 DUP1 PUSH1 0xA0 SHL SUB PUSH1 0x0 SLOAD AND CALLER EQ PUSH2 0x4FF2 JUMP JUMPDEST PUSH1 0x7 SLOAD SWAP2 PUSH1 0x40 MLOAD SWAP2 PUSH2 0x3957 DUP4 PUSH2 0x4CBF JUMP JUMPDEST DUP4 DUP4 MSTORE DUP2 PUSH1 0x20 DUP5 ADD MSTORE PUSH1 0x40 DUP4 ADD MSTORE PUSH1 0x2 PUSH1 0x60 DUP4 ADD MSTORE PUSH1 0x0 PUSH1 0x80 DUP4 ADD MSTORE PUSH1 0x2 PUSH1 0xA0 DUP4 ADD MSTORE PUSH1 0x1 PUSH1 0x40 SHL DUP4 LT ISZERO PUSH2 0x894 JUMPI PUSH1 0x1 DUP4 ADD PUSH1 0x7 SSTORE PUSH2 0x3996 DUP4 PUSH2 0x4F14 JUMP JUMPDEST SWAP3 SWAP1 SWAP3 PUSH2 0x87E JUMPI DUP1 MLOAD DUP4 SSTORE PUSH1 0x20 DUP2 ADD MLOAD DUP1 MLOAD SWAP1 PUSH1 0x1 PUSH1 0x1 PUSH1 0x40 SHL SUB DUP3 GT PUSH2 0x894 JUMPI DUP2 SWAP1 PUSH2 0x39C6 PUSH1 0x1 DUP8 ADD SLOAD PUSH2 0x4D6C JUMP JUMPDEST PUSH1 0x1F DUP2 GT PUSH2 0x4344 JUMPI JUMPDEST POP PUSH1 0x20 SWAP1 PUSH1 0x1F DUP4 GT PUSH1 0x1 EQ PUSH2 0x42D2 JUMPI PUSH1 0x0 SWAP3 PUSH2 0x42C7 JUMPI JUMPDEST POP POP DUP2 PUSH1 0x1 SHL SWAP2 PUSH1 0x0 NOT SWAP1 PUSH1 0x3 SHL SHR NOT AND OR PUSH1 0x1 DUP5 ADD SSTORE JUMPDEST PUSH1 0x40 DUP2 ADD MLOAD DUP1 MLOAD SWAP1 PUSH1 0x1 PUSH1 0x1 PUSH1 0x40 SHL SUB DUP3 GT PUSH2 0x894 JUMPI PUSH2 0x3A21 PUSH1 0x2 DUP7 ADD SLOAD PUSH2 0x4D6C JUMP JUMPDEST PUSH1 0x1F DUP2 GT PUSH2 0x4280 JUMPI JUMPDEST POP PUSH1 0x20 SWAP1 PUSH1 0x1F DUP4 GT PUSH1 0x1 EQ PUSH2 0x420D JUMPI PUSH1 0xA0 SWAP4 SWAP3 SWAP2 PUSH1 0x0 SWAP2 DUP4 PUSH2 0x4202 JUMPI JUMPDEST POP POP DUP2 PUSH1 0x1 SHL SWAP2 PUSH1 0x0 NOT SWAP1 PUSH1 0x3 SHL SHR NOT AND OR PUSH1 0x2 DUP6 ADD SSTORE JUMPDEST PUSH1 0x60 DUP2 ADD MLOAD PUSH1 0x3 DUP6 ADD SSTORE PUSH2 0x3A88 PUSH1 0x80 DUP3 ADD MLOAD ISZERO ISZERO PUSH1 0x4 DUP7 ADD SWAP1 PUSH1 0xFF DUP1 NOT DUP4 SLOAD AND SWAP2 ISZERO ISZERO AND OR SWAP1 SSTORE JUMP JUMPDEST ADD MLOAD SWAP1 PUSH1 0x5 DUP3 LT ISZERO PUSH2 0x3EC0 JUMPI DUP3 PUSH1 0x4 PUSH2 0x3AD4 SWAP4 PUSH2 0xFF00 DUP3 PUSH1 0x0 DUP1 MLOAD PUSH1 0x20 PUSH2 0x5348 DUP4 CODECOPY DUP2 MLOAD SWAP2 MSTORE SWAP8 ADD SLOAD SWAP2 PUSH1 0x8 SHL AND SWAP1 PUSH2 0xFF00 NOT AND OR SWAP2 ADD SSTORE PUSH1 0x40 MLOAD SWAP2 DUP3 SWAP2 PUSH1 0x40 DUP4 MSTORE PUSH1 0x40 DUP4 ADD SWAP1 PUSH2 0x4E4C JUMP JUMPDEST PUSH1 0x2 PUSH1 0x20 DUP4 ADD MSTORE SUB SWAP1 LOG2 PUSH1 0x40 MLOAD PUSH2 0x3AEA DUP2 PUSH2 0x4CDA JUMP JUMPDEST PUSH1 0x8 DUP2 MSTORE PUSH8 0x14D95B1B0814195D PUSH1 0xC2 SHL PUSH1 0x20 DUP3 ADD MSTORE PUSH1 0x40 MLOAD PUSH2 0x3B0B DUP2 PUSH2 0x4CDA JUMP JUMPDEST PUSH1 0xA DUP2 MSTORE PUSH10 0x14D95B1B0818481C195D PUSH1 0xB2 SHL PUSH1 0x20 DUP3 ADD MSTORE PUSH2 0x3B37 PUSH1 0x1 DUP1 PUSH1 0xA0 SHL SUB PUSH1 0x0 SLOAD AND CALLER EQ PUSH2 0x4FF2 JUMP JUMPDEST PUSH1 0x7 SLOAD SWAP2 PUSH1 0x40 MLOAD SWAP2 PUSH2 0x3B48 DUP4 PUSH2 0x4CBF JUMP JUMPDEST DUP4 DUP4 MSTORE DUP2 PUSH1 0x20 DUP5 ADD MSTORE PUSH1 0x40 DUP4 ADD MSTORE PUSH1 0xF PUSH1 0x60 DUP4 ADD MSTORE PUSH1 0x0 PUSH1 0x80 DUP4 ADD MSTORE PUSH1 0x3 PUSH1 0xA0 DUP4 ADD MSTORE PUSH1 0x1 PUSH1 0x40 SHL DUP4 LT ISZERO PUSH2 0x894 JUMPI PUSH1 0x1 DUP4 ADD PUSH1 0x7 SSTORE PUSH2 0x3B87 DUP4 PUSH2 0x4F14 JUMP JUMPDEST SWAP3 SWAP1 SWAP3 PUSH2 0x87E JUMPI DUP1 MLOAD DUP4 SSTORE PUSH1 0x20 DUP2 ADD MLOAD DUP1 MLOAD SWAP1 PUSH1 0x1 PUSH1 0x1 PUSH1 0x40 SHL SUB DUP3 GT PUSH2 0x894 JUMPI DUP2 SWAP1 PUSH2 0x3BB7 PUSH1 0x1 DUP8 ADD SLOAD PUSH2 0x4D6C JUMP JUMPDEST PUSH1 0x1F DUP2 GT PUSH2 0x41AF JUMPI JUMPDEST POP PUSH1 0x20 SWAP1 PUSH1 0x1F DUP4 GT PUSH1 0x1 EQ PUSH2 0x413D JUMPI PUSH1 0x0 SWAP3 PUSH2 0x4132 JUMPI JUMPDEST POP POP DUP2 PUSH1 0x1 SHL SWAP2 PUSH1 0x0 NOT SWAP1 PUSH1 0x3 SHL SHR NOT AND OR PUSH1 0x1 DUP5 ADD SSTORE JUMPDEST PUSH1 0x40 DUP2 ADD MLOAD DUP1 MLOAD SWAP1 PUSH1 0x1 PUSH1 0x1 PUSH1 0x40 SHL SUB DUP3 GT PUSH2 0x894 JUMPI PUSH2 0x3C12 PUSH1 0x2 DUP7 ADD SLOAD PUSH2 0x4D6C JUMP JUMPDEST PUSH1 0x1F DUP2 GT PUSH2 0x40EB JUMPI JUMPDEST POP PUSH1 0x20 SWAP1 PUSH1 0x1F DUP4 GT PUSH1 0x1 EQ PUSH2 0x4078 JUMPI PUSH1 0xA0 SWAP4 SWAP3 SWAP2 PUSH1 0x0 SWAP2 DUP4 PUSH2 0x406D JUMPI JUMPDEST POP POP DUP2 PUSH1 0x1 SHL SWAP2 PUSH1 0x0 NOT SWAP1 PUSH1 0x3 SHL SHR NOT AND OR PUSH1 0x2 DUP6 ADD SSTORE JUMPDEST PUSH1 0x60 DUP2 ADD MLOAD PUSH1 0x3 DUP6 ADD SSTORE PUSH2 0x3C79 PUSH1 0x80 DUP3 ADD MLOAD ISZERO ISZERO PUSH1 0x4 DUP7 ADD SWAP1 PUSH1 0xFF DUP1 NOT DUP4 SLOAD AND SWAP2 ISZERO ISZERO AND OR SWAP1 SSTORE JUMP JUMPDEST ADD MLOAD SWAP1 PUSH1 0x5 DUP3 LT ISZERO PUSH2 0x3EC0 JUMPI DUP3 PUSH1 0x4 PUSH2 0x3CC5 SWAP4 PUSH2 0xFF00 DUP3 PUSH1 0x0 DUP1 MLOAD PUSH1 0x20 PUSH2 0x5348 DUP4 CODECOPY DUP2 MLOAD SWAP2 MSTORE SWAP8 ADD SLOAD SWAP2 PUSH1 0x8 SHL AND SWAP1 PUSH2 0xFF00 NOT AND OR SWAP2 ADD SSTORE PUSH1 0x40 MLOAD SWAP2 DUP3 SWAP2 PUSH1 0x40 DUP4 MSTORE PUSH1 0x40 DUP4 ADD SWAP1 PUSH2 0x4E4C JUMP JUMPDEST PUSH1 0xF PUSH1 0x20 DUP4 ADD MSTORE SUB SWAP1 LOG2 PUSH1 0x40 MLOAD PUSH2 0x3CDB DUP2 PUSH2 0x4CDA JUMP JUMPDEST PUSH1 0xB DUP2 MSTORE PUSH11 0x2230B4B63C902637B3B4B7 PUSH1 0xA9 SHL PUSH1 0x20 DUP3 ADD MSTORE PUSH1 0x40 MLOAD PUSH2 0x3CFF DUP2 PUSH2 0x4CDA JUMP JUMPDEST PUSH1 0xB DUP2 MSTORE PUSH11 0x4C6F67696E206461696C79 PUSH1 0xA8 SHL PUSH1 0x20 DUP3 ADD MSTORE PUSH2 0x3D2C PUSH1 0x1 DUP1 PUSH1 0xA0 SHL SUB PUSH1 0x0 SLOAD AND CALLER EQ PUSH2 0x4FF2 JUMP JUMPDEST PUSH1 0x7 SLOAD SWAP2 PUSH1 0x40 MLOAD SWAP2 PUSH2 0x3D3D DUP4 PUSH2 0x4CBF JUMP JUMPDEST DUP4 DUP4 MSTORE DUP2 PUSH1 0x20 DUP5 ADD MSTORE PUSH1 0x40 DUP4 ADD MSTORE PUSH1 0xA PUSH1 0x60 DUP4 ADD MSTORE PUSH1 0x0 PUSH1 0x80 DUP4 ADD MSTORE PUSH1 0x4 PUSH1 0xA0 DUP4 ADD MSTORE PUSH1 0x1 PUSH1 0x40 SHL DUP4 LT ISZERO PUSH2 0x894 JUMPI PUSH1 0x1 DUP4 ADD PUSH1 0x7 SSTORE PUSH2 0x3D7C DUP4 PUSH2 0x4F14 JUMP JUMPDEST PUSH2 0x87E JUMPI DUP3 MLOAD DUP2 SSTORE PUSH1 0x20 DUP4 ADD MLOAD DUP1 MLOAD SWAP1 PUSH1 0x1 PUSH1 0x1 PUSH1 0x40 SHL SUB DUP3 GT PUSH2 0x894 JUMPI DUP2 SWAP1 PUSH2 0x3DA9 PUSH1 0x1 DUP6 ADD SLOAD PUSH2 0x4D6C JUMP JUMPDEST PUSH1 0x1F DUP2 GT PUSH2 0x401A JUMPI JUMPDEST POP PUSH1 0x20 SWAP1 PUSH1 0x1F DUP4 GT PUSH1 0x1 EQ PUSH2 0x3FA8 JUMPI PUSH1 0x0 SWAP3 PUSH2 0x3F9D JUMPI JUMPDEST POP POP DUP2 PUSH1 0x1 SHL SWAP2 PUSH1 0x0 NOT SWAP1 PUSH1 0x3 SHL SHR NOT AND OR PUSH1 0x1 DUP3 ADD SSTORE JUMPDEST PUSH1 0x40 DUP4 ADD MLOAD DUP1 MLOAD SWAP1 PUSH1 0x1 PUSH1 0x1 PUSH1 0x40 SHL SUB DUP3 GT PUSH2 0x894 JUMPI PUSH2 0x3E04 PUSH1 0x2 DUP5 ADD SLOAD PUSH2 0x4D6C JUMP JUMPDEST PUSH1 0x1F DUP2 GT PUSH2 0x3F56 JUMPI JUMPDEST POP PUSH1 0x20 SWAP1 PUSH1 0x1F DUP4 GT PUSH1 0x1 EQ PUSH2 0x3EE1 JUMPI SWAP2 DUP1 PUSH1 0xA0 SWAP5 SWAP3 PUSH1 0x4 SWAP5 PUSH1 0x0 SWAP3 PUSH2 0x3ED6 JUMPI JUMPDEST POP POP DUP2 PUSH1 0x1 SHL SWAP2 PUSH1 0x0 NOT SWAP1 PUSH1 0x3 SHL SHR NOT AND OR PUSH1 0x2 DUP3 ADD SSTORE JUMPDEST PUSH1 0x60 DUP6 ADD MLOAD PUSH1 0x3 DUP3 ADD SSTORE ADD SWAP3 PUSH2 0x3E6D PUSH1 0x80 DUP3 ADD MLOAD ISZERO ISZERO DUP6 SWAP1 PUSH1 0xFF DUP1 NOT DUP4 SLOAD AND SWAP2 ISZERO ISZERO AND OR SWAP1 SSTORE JUMP JUMPDEST ADD MLOAD SWAP1 PUSH1 0x5 DUP3 LT ISZERO PUSH2 0x3EC0 JUMPI DUP3 PUSH2 0x3EB4 SWAP3 PUSH2 0xFF00 PUSH1 0x0 DUP1 MLOAD PUSH1 0x20 PUSH2 0x5348 DUP4 CODECOPY DUP2 MLOAD SWAP2 MSTORE SWAP6 SLOAD SWAP2 PUSH1 0x8 SHL AND SWAP1 PUSH2 0xFF00 NOT AND OR SWAP1 SSTORE PUSH1 0x40 MLOAD SWAP2 DUP3 SWAP2 PUSH1 0x40 DUP4 MSTORE PUSH1 0x40 DUP4 ADD SWAP1 PUSH2 0x4E4C JUMP JUMPDEST PUSH1 0xA PUSH1 0x20 DUP4 ADD MSTORE SUB SWAP1 LOG2 STOP JUMPDEST PUSH4 0x4E487B71 PUSH1 0xE0 SHL PUSH1 0x0 MSTORE PUSH1 0x21 PUSH1 0x4 MSTORE PUSH1 0x24 PUSH1 0x0 REVERT JUMPDEST ADD MLOAD SWAP1 POP DUP9 DUP1 PUSH2 0x3E2D JUMP JUMPDEST SWAP1 PUSH1 0x2 DUP5 ADD PUSH1 0x0 MSTORE PUSH1 0x20 PUSH1 0x0 KECCAK256 SWAP2 PUSH1 0x0 JUMPDEST PUSH1 0x1F NOT DUP6 AND DUP2 LT PUSH2 0x3F3E JUMPI POP SWAP3 PUSH1 0xA0 SWAP5 SWAP3 PUSH1 0x1 SWAP3 PUSH1 0x4 SWAP6 DUP4 PUSH1 0x1F NOT DUP2 AND LT PUSH2 0x3F25 JUMPI JUMPDEST POP POP POP DUP2 SHL ADD PUSH1 0x2 DUP3 ADD SSTORE PUSH2 0x3E45 JUMP JUMPDEST ADD MLOAD PUSH1 0x0 NOT PUSH1 0xF8 DUP5 PUSH1 0x3 SHL AND SHR NOT AND SWAP1 SSTORE DUP9 DUP1 DUP1 PUSH2 0x3F15 JUMP JUMPDEST SWAP2 SWAP3 PUSH1 0x20 PUSH1 0x1 DUP2 SWAP3 DUP7 DUP6 ADD MLOAD DUP2 SSTORE ADD SWAP5 ADD SWAP3 ADD PUSH2 0x3EF2 JUMP JUMPDEST PUSH1 0x2 DUP5 ADD PUSH1 0x0 MSTORE PUSH1 0x20 PUSH1 0x0 KECCAK256 PUSH1 0x1F DUP5 ADD PUSH1 0x5 SHR DUP2 ADD PUSH1 0x20 DUP6 LT PUSH2 0x3F96 JUMPI JUMPDEST PUSH1 0x1F DUP4 ADD PUSH1 0x5 SHR DUP3 ADD DUP2 LT PUSH2 0x3F8A JUMPI POP POP PUSH2 0x3E0D JUMP JUMPDEST PUSH1 0x0 DUP2 SSTORE PUSH1 0x1 ADD PUSH2 0x3F74 JUMP JUMPDEST POP DUP1 PUSH2 0x3F74 JUMP JUMPDEST ADD MLOAD SWAP1 POP DUP7 DUP1 PUSH2 0x3DC9 JUMP JUMPDEST SWAP3 POP PUSH1 0x1 DUP5 ADD PUSH1 0x0 MSTORE PUSH1 0x20 PUSH1 0x0 KECCAK256 SWAP1 PUSH1 0x0 SWAP4 JUMPDEST PUSH1 0x1F NOT DUP5 AND DUP6 LT PUSH2 0x3FFF JUMPI PUSH1 0x1 SWAP5 POP DUP4 PUSH1 0x1F NOT DUP2 AND LT PUSH2 0x3FE6 JUMPI JUMPDEST POP POP POP DUP2 SHL ADD PUSH1 0x1 DUP3 ADD SSTORE PUSH2 0x3DE1 JUMP JUMPDEST ADD MLOAD PUSH1 0x0 NOT PUSH1 0xF8 DUP5 PUSH1 0x3 SHL AND SHR NOT AND SWAP1 SSTORE DUP7 DUP1 DUP1 PUSH2 0x3FD6 JUMP JUMPDEST DUP2 DUP2 ADD MLOAD DUP4 SSTORE PUSH1 0x20 SWAP5 DUP6 ADD SWAP5 PUSH1 0x1 SWAP1 SWAP4 ADD SWAP3 SWAP1 SWAP2 ADD SWAP1 PUSH2 0x3FBB JUMP JUMPDEST SWAP1 SWAP2 POP PUSH1 0x1 DUP5 ADD PUSH1 0x0 MSTORE PUSH1 0x20 PUSH1 0x0 KECCAK256 PUSH1 0x1F DUP5 ADD PUSH1 0x5 SHR DUP2 ADD PUSH1 0x20 DUP6 LT PUSH2 0x4066 JUMPI JUMPDEST SWAP1 DUP5 SWAP4 SWAP3 SWAP2 JUMPDEST PUSH1 0x1F DUP4 ADD PUSH1 0x5 SHR DUP3 ADD DUP2 LT PUSH2 0x4057 JUMPI POP POP PUSH2 0x3DB2 JUMP JUMPDEST PUSH1 0x0 DUP2 SSTORE DUP6 SWAP5 POP PUSH1 0x1 ADD PUSH2 0x4041 JUMP JUMPDEST POP DUP1 PUSH2 0x403B JUMP JUMPDEST ADD MLOAD SWAP1 POP DUP8 DUP1 PUSH2 0x3C38 JUMP JUMPDEST SWAP1 PUSH1 0x2 DUP7 ADD PUSH1 0x0 MSTORE PUSH1 0x20 PUSH1 0x0 KECCAK256 SWAP2 PUSH1 0x0 JUMPDEST PUSH1 0x1F NOT DUP6 AND DUP2 LT PUSH2 0x40D3 JUMPI POP SWAP2 DUP4 SWAP2 PUSH1 0x1 SWAP4 PUSH1 0xA0 SWAP7 SWAP6 PUSH1 0x1F NOT DUP2 AND LT PUSH2 0x40BA JUMPI JUMPDEST POP POP POP DUP2 SHL ADD PUSH1 0x2 DUP6 ADD SSTORE PUSH2 0x3C50 JUMP JUMPDEST ADD MLOAD PUSH1 0x0 NOT PUSH1 0xF8 DUP5 PUSH1 0x3 SHL AND SHR NOT AND SWAP1 SSTORE DUP8 DUP1 DUP1 PUSH2 0x40AA JUMP JUMPDEST SWAP2 SWAP3 PUSH1 0x20 PUSH1 0x1 DUP2 SWAP3 DUP7 DUP6 ADD MLOAD DUP2 SSTORE ADD SWAP5 ADD SWAP3 ADD PUSH2 0x4089 JUMP JUMPDEST PUSH1 0x2 DUP7 ADD PUSH1 0x0 MSTORE PUSH1 0x20 PUSH1 0x0 KECCAK256 PUSH1 0x1F DUP5 ADD PUSH1 0x5 SHR DUP2 ADD PUSH1 0x20 DUP6 LT PUSH2 0x412B JUMPI JUMPDEST PUSH1 0x1F DUP4 ADD PUSH1 0x5 SHR DUP3 ADD DUP2 LT PUSH2 0x411F JUMPI POP POP PUSH2 0x3C1B JUMP JUMPDEST PUSH1 0x0 DUP2 SSTORE PUSH1 0x1 ADD PUSH2 0x4109 JUMP JUMPDEST POP DUP1 PUSH2 0x4109 JUMP JUMPDEST ADD MLOAD SWAP1 POP DUP7 DUP1 PUSH2 0x3BD7 JUMP JUMPDEST SWAP3 POP PUSH1 0x1 DUP7 ADD PUSH1 0x0 MSTORE PUSH1 0x20 PUSH1 0x0 KECCAK256 SWAP1 PUSH1 0x0 SWAP4 JUMPDEST PUSH1 0x1F NOT DUP5 AND DUP6 LT PUSH2 0x4194 JUMPI PUSH1 0x1 SWAP5 POP DUP4 PUSH1 0x1F NOT DUP2 AND LT PUSH2 0x417B JUMPI JUMPDEST POP POP POP DUP2 SHL ADD PUSH1 0x1 DUP5 ADD SSTORE PUSH2 0x3BEF JUMP JUMPDEST ADD MLOAD PUSH1 0x0 NOT PUSH1 0xF8 DUP5 PUSH1 0x3 SHL AND SHR NOT AND SWAP1 SSTORE DUP7 DUP1 DUP1 PUSH2 0x416B JUMP JUMPDEST DUP2 DUP2 ADD MLOAD DUP4 SSTORE PUSH1 0x20 SWAP5 DUP6 ADD SWAP5 PUSH1 0x1 SWAP1 SWAP4 ADD SWAP3 SWAP1 SWAP2 ADD SWAP1 PUSH2 0x4150 JUMP JUMPDEST SWAP1 SWAP2 POP PUSH1 0x1 DUP7 ADD PUSH1 0x0 MSTORE PUSH1 0x20 PUSH1 0x0 KECCAK256 PUSH1 0x1F DUP5 ADD PUSH1 0x5 SHR DUP2 ADD PUSH1 0x20 DUP6 LT PUSH2 0x41FB JUMPI JUMPDEST SWAP1 DUP5 SWAP4 SWAP3 SWAP2 JUMPDEST PUSH1 0x1F DUP4 ADD PUSH1 0x5 SHR DUP3 ADD DUP2 LT PUSH2 0x41EC JUMPI POP POP PUSH2 0x3BC0 JUMP JUMPDEST PUSH1 0x0 DUP2 SSTORE DUP6 SWAP5 POP PUSH1 0x1 ADD PUSH2 0x41D6 JUMP JUMPDEST POP DUP1 PUSH2 0x41D0 JUMP JUMPDEST ADD MLOAD SWAP1 POP DUP8 DUP1 PUSH2 0x3A47 JUMP JUMPDEST SWAP1 PUSH1 0x2 DUP7 ADD PUSH1 0x0 MSTORE PUSH1 0x20 PUSH1 0x0 KECCAK256 SWAP2 PUSH1 0x0 JUMPDEST PUSH1 0x1F NOT DUP6 AND DUP2 LT PUSH2 0x4268 JUMPI POP SWAP2 DUP4 SWAP2 PUSH1 0x1 SWAP4 PUSH1 0xA0 SWAP7 SWAP6 PUSH1 0x1F NOT DUP2 AND LT PUSH2 0x424F JUMPI JUMPDEST POP POP POP DUP2 SHL ADD PUSH1 0x2 DUP6 ADD SSTORE PUSH2 0x3A5F JUMP JUMPDEST ADD MLOAD PUSH1 0x0 NOT PUSH1 0xF8 DUP5 PUSH1 0x3 SHL AND SHR NOT AND SWAP1 SSTORE DUP8 DUP1 DUP1 PUSH2 0x423F JUMP JUMPDEST SWAP2 SWAP3 PUSH1 0x20 PUSH1 0x1 DUP2 SWAP3 DUP7 DUP6 ADD MLOAD DUP2 SSTORE ADD SWAP5 ADD SWAP3 ADD PUSH2 0x421E JUMP JUMPDEST PUSH1 0x2 DUP7 ADD PUSH1 0x0 MSTORE PUSH1 0x20 PUSH1 0x0 KECCAK256 PUSH1 0x1F DUP5 ADD PUSH1 0x5 SHR DUP2 ADD PUSH1 0x20 DUP6 LT PUSH2 0x42C0 JUMPI JUMPDEST PUSH1 0x1F DUP4 ADD PUSH1 0x5 SHR DUP3 ADD DUP2 LT PUSH2 0x42B4 JUMPI POP POP PUSH2 0x3A2A JUMP JUMPDEST PUSH1 0x0 DUP2 SSTORE PUSH1 0x1 ADD PUSH2 0x429E JUMP JUMPDEST POP DUP1 PUSH2 0x429E JUMP JUMPDEST ADD MLOAD SWAP1 POP DUP7 DUP1 PUSH2 0x39E6 JUMP JUMPDEST SWAP3 POP PUSH1 0x1 DUP7 ADD PUSH1 0x0 MSTORE PUSH1 0x20 PUSH1 0x0 KECCAK256 SWAP1 PUSH1 0x0 SWAP4 JUMPDEST PUSH1 0x1F NOT DUP5 AND DUP6 LT PUSH2 0x4329 JUMPI PUSH1 0x1 SWAP5 POP DUP4 PUSH1 0x1F NOT DUP2 AND LT PUSH2 0x4310 JUMPI JUMPDEST POP POP POP DUP2 SHL ADD PUSH1 0x1 DUP5 ADD SSTORE PUSH2 0x39FE JUMP JUMPDEST ADD MLOAD PUSH1 0x0 NOT PUSH1 0xF8 DUP5 PUSH1 0x3 SHL AND SHR NOT AND SWAP1 SSTORE DUP7 DUP1 DUP1 PUSH2 0x4300 JUMP JUMPDEST DUP2 DUP2 ADD MLOAD DUP4 SSTORE PUSH1 0x20 SWAP5 DUP6 ADD SWAP5 PUSH1 0x1 SWAP1 SWAP4 ADD SWAP3 SWAP1 SWAP2 ADD SWAP1 PUSH2 0x42E5 JUMP JUMPDEST SWAP1 SWAP2 POP PUSH1 0x1 DUP7 ADD PUSH1 0x0 MSTORE PUSH1 0x20 PUSH1 0x0 KECCAK256 PUSH1 0x1F DUP5 ADD PUSH1 0x5 SHR DUP2 ADD PUSH1 0x20 DUP6 LT PUSH2 0x4390 JUMPI JUMPDEST SWAP1 DUP5 SWAP4 SWAP3 SWAP2 JUMPDEST PUSH1 0x1F DUP4 ADD PUSH1 0x5 SHR DUP3 ADD DUP2 LT PUSH2 0x4381 JUMPI POP POP PUSH2 0x39CF JUMP JUMPDEST PUSH1 0x0 DUP2 SSTORE DUP6 SWAP5 POP PUSH1 0x1 ADD PUSH2 0x436B JUMP JUMPDEST POP DUP1 PUSH2 0x4365 JUMP JUMPDEST ADD MLOAD SWAP1 POP DUP8 DUP1 PUSH2 0x3856 JUMP JUMPDEST SWAP1 PUSH1 0x2 DUP7 ADD PUSH1 0x0 MSTORE PUSH1 0x20 PUSH1 0x0 KECCAK256 SWAP2 PUSH1 0x0 JUMPDEST PUSH1 0x1F NOT DUP6 AND DUP2 LT PUSH2 0x43FD JUMPI POP SWAP2 DUP4 SWAP2 PUSH1 0x1 SWAP4 PUSH1 0xA0 SWAP7 SWAP6 PUSH1 0x1F NOT DUP2 AND LT PUSH2 0x43E4 JUMPI JUMPDEST POP POP POP DUP2 SHL ADD PUSH1 0x2 DUP6 ADD SSTORE PUSH2 0x386E JUMP JUMPDEST ADD MLOAD PUSH1 0x0 NOT PUSH1 0xF8 DUP5 PUSH1 0x3 SHL AND SHR NOT AND SWAP1 SSTORE DUP8 DUP1 DUP1 PUSH2 0x43D4 JUMP JUMPDEST SWAP2 SWAP3 PUSH1 0x20 PUSH1 0x1 DUP2 SWAP3 DUP7 DUP6 ADD MLOAD DUP2 SSTORE ADD SWAP5 ADD SWAP3 ADD PUSH2 0x43B3 JUMP JUMPDEST PUSH1 0x2 DUP7 ADD PUSH1 0x0 MSTORE PUSH1 0x20 PUSH1 0x0 KECCAK256 PUSH1 0x1F DUP5 ADD PUSH1 0x5 SHR DUP2 ADD PUSH1 0x20 DUP6 LT PUSH2 0x4455 JUMPI JUMPDEST PUSH1 0x1F DUP4 ADD PUSH1 0x5 SHR DUP3 ADD DUP2 LT PUSH2 0x4449 JUMPI POP POP PUSH2 0x3839 JUMP JUMPDEST PUSH1 0x0 DUP2 SSTORE PUSH1 0x1 ADD PUSH2 0x4433 JUMP JUMPDEST POP DUP1 PUSH2 0x4433 JUMP JUMPDEST ADD MLOAD SWAP1 POP DUP7 DUP1 PUSH2 0x37F5 JUMP JUMPDEST SWAP3 POP PUSH1 0x1 DUP7 ADD PUSH1 0x0 MSTORE PUSH1 0x20 PUSH1 0x0 KECCAK256 SWAP1 PUSH1 0x0 SWAP4 JUMPDEST PUSH1 0x1F NOT DUP5 AND DUP6 LT PUSH2 0x44BE JUMPI PUSH1 0x1 SWAP5 POP DUP4 PUSH1 0x1F NOT DUP2 AND LT PUSH2 0x44A5 JUMPI JUMPDEST POP POP POP DUP2 SHL ADD PUSH1 0x1 DUP5 ADD SSTORE PUSH2 0x380D JUMP JUMPDEST ADD MLOAD PUSH1 0x0 NOT PUSH1 0xF8 DUP5 PUSH1 0x3 SHL AND SHR NOT AND SWAP1 SSTORE DUP7 DUP1 DUP1 PUSH2 0x4495 JUMP JUMPDEST DUP2 DUP2 ADD MLOAD DUP4 SSTORE PUSH1 0x20 SWAP5 DUP6 ADD SWAP5 PUSH1 0x1 SWAP1 SWAP4 ADD SWAP3 SWAP1 SWAP2 ADD SWAP1 PUSH2 0x447A JUMP JUMPDEST SWAP1 SWAP2 POP PUSH1 0x1 DUP7 ADD PUSH1 0x0 MSTORE PUSH1 0x20 PUSH1 0x0 KECCAK256 PUSH1 0x1F DUP5 ADD PUSH1 0x5 SHR DUP2 ADD PUSH1 0x20 DUP6 LT PUSH2 0x4525 JUMPI JUMPDEST SWAP1 DUP5 SWAP4 SWAP3 SWAP2 JUMPDEST PUSH1 0x1F DUP4 ADD PUSH1 0x5 SHR DUP3 ADD DUP2 LT PUSH2 0x4516 JUMPI POP POP PUSH2 0x37DE JUMP JUMPDEST PUSH1 0x0 DUP2 SSTORE DUP6 SWAP5 POP PUSH1 0x1 ADD PUSH2 0x4500 JUMP JUMPDEST POP DUP1 PUSH2 0x44FA JUMP JUMPDEST ADD MLOAD SWAP1 POP DUP8 DUP1 PUSH2 0x3665 JUMP JUMPDEST SWAP1 PUSH1 0x2 DUP7 ADD PUSH1 0x0 MSTORE PUSH1 0x20 PUSH1 0x0 KECCAK256 SWAP2 PUSH1 0x0 JUMPDEST PUSH1 0x1F NOT DUP6 AND DUP2 LT PUSH2 0x4592 JUMPI POP SWAP2 DUP4 SWAP2 PUSH1 0x1 SWAP4 PUSH1 0xA0 SWAP7 SWAP6 PUSH1 0x1F NOT DUP2 AND LT PUSH2 0x4579 JUMPI JUMPDEST POP POP POP DUP2 SHL ADD PUSH1 0x2 DUP6 ADD SSTORE PUSH2 0x367D JUMP JUMPDEST ADD MLOAD PUSH1 0x0 NOT PUSH1 0xF8 DUP5 PUSH1 0x3 SHL AND SHR NOT AND SWAP1 SSTORE DUP8 DUP1 DUP1 PUSH2 0x4569 JUMP JUMPDEST SWAP2 SWAP3 PUSH1 0x20 PUSH1 0x1 DUP2 SWAP3 DUP7 DUP6 ADD MLOAD DUP2 SSTORE ADD SWAP5 ADD SWAP3 ADD PUSH2 0x4548 JUMP JUMPDEST PUSH1 0x2 DUP7 ADD PUSH1 0x0 MSTORE PUSH1 0x20 PUSH1 0x0 KECCAK256 PUSH1 0x1F DUP5 ADD PUSH1 0x5 SHR DUP2 ADD PUSH1 0x20 DUP6 LT PUSH2 0x45EA JUMPI JUMPDEST PUSH1 0x1F DUP4 ADD PUSH1 0x5 SHR DUP3 ADD DUP2 LT PUSH2 0x45DE JUMPI POP POP PUSH2 0x3648 JUMP JUMPDEST PUSH1 0x0 DUP2 SSTORE PUSH1 0x1 ADD PUSH2 0x45C8 JUMP JUMPDEST POP DUP1 PUSH2 0x45C8 JUMP JUMPDEST ADD MLOAD SWAP1 POP DUP7 DUP1 PUSH2 0x3604 JUMP JUMPDEST SWAP3 POP PUSH1 0x1 DUP7 ADD PUSH1 0x0 MSTORE PUSH1 0x20 PUSH1 0x0 KECCAK256 SWAP1 PUSH1 0x0 SWAP4 JUMPDEST PUSH1 0x1F NOT DUP5 AND DUP6 LT PUSH2 0x4653 JUMPI PUSH1 0x1 SWAP5 POP DUP4 PUSH1 0x1F NOT DUP2 AND LT PUSH2 0x463A JUMPI JUMPDEST POP POP POP DUP2 SHL ADD PUSH1 0x1 DUP5 ADD SSTORE PUSH2 0x361C JUMP JUMPDEST ADD MLOAD PUSH1 0x0 NOT PUSH1 0xF8 DUP5 PUSH1 0x3 SHL AND SHR NOT AND SWAP1 SSTORE DUP7 DUP1 DUP1 PUSH2 0x462A JUMP JUMPDEST DUP2 DUP2 ADD MLOAD DUP4 SSTORE PUSH1 0x20 SWAP5 DUP6 ADD SWAP5 PUSH1 0x1 SWAP1 SWAP4 ADD SWAP3 SWAP1 SWAP2 ADD SWAP1 PUSH2 0x460F JUMP JUMPDEST SWAP1 SWAP2 POP PUSH1 0x1 DUP7 ADD PUSH1 0x0 MSTORE PUSH1 0x20 PUSH1 0x0 KECCAK256 PUSH1 0x1F DUP5 ADD PUSH1 0x5 SHR DUP2 ADD PUSH1 0x20 DUP6 LT PUSH2 0x46BA JUMPI JUMPDEST SWAP1 DUP5 SWAP4 SWAP3 SWAP2 JUMPDEST PUSH1 0x1F DUP4 ADD PUSH1 0x5 SHR DUP3 ADD DUP2 LT PUSH2 0x46AB JUMPI POP POP PUSH2 0x35ED JUMP JUMPDEST PUSH1 0x0 DUP2 SSTORE DUP6 SWAP5 POP PUSH1 0x1 ADD PUSH2 0x4695 JUMP JUMPDEST POP DUP1 PUSH2 0x468F JUMP JUMPDEST CALLVALUE PUSH2 0x1B3 JUMPI PUSH1 0x20 CALLDATASIZE PUSH1 0x3 NOT ADD SLT PUSH2 0x1B3 JUMPI PUSH1 0x1 PUSH1 0x1 PUSH1 0xA0 SHL SUB PUSH2 0x46E2 PUSH2 0x4C8D JUMP JUMPDEST AND PUSH1 0x0 MSTORE PUSH1 0x5 PUSH1 0x20 MSTORE PUSH1 0x20 PUSH1 0x5 PUSH1 0x40 PUSH1 0x0 KECCAK256 ADD SLOAD PUSH1 0x7 SLOAD EQ PUSH1 0x40 MLOAD SWAP1 DUP2 MSTORE RETURN JUMPDEST CALLVALUE PUSH2 0x1B3 JUMPI PUSH1 0x20 CALLDATASIZE PUSH1 0x3 NOT ADD SLT PUSH2 0x1B3 JUMPI PUSH1 0x1 PUSH1 0x1 PUSH1 0xA0 SHL SUB PUSH2 0x4723 PUSH2 0x4C8D JUMP JUMPDEST AND PUSH1 0x0 MSTORE PUSH1 0xB PUSH1 0x20 MSTORE PUSH1 0x20 PUSH1 0x40 PUSH1 0x0 KECCAK256 SLOAD PUSH1 0x40 MLOAD SWAP1 DUP2 MSTORE RETURN JUMPDEST CALLVALUE PUSH2 0x1B3 JUMPI PUSH2 0x180 CALLDATASIZE PUSH1 0x3 NOT ADD SLT PUSH2 0x1B3 JUMPI PUSH1 0x24 CALLDATALOAD PUSH1 0x1 PUSH1 0x1 PUSH1 0x40 SHL SUB DUP2 GT PUSH2 0x1B3 JUMPI PUSH2 0x476D SWAP1 CALLDATASIZE SWAP1 PUSH1 0x4 ADD PUSH2 0x4D16 JUMP JUMPDEST PUSH1 0x44 CALLDATALOAD PUSH1 0x1 PUSH1 0x1 PUSH1 0x40 SHL SUB DUP2 GT PUSH2 0x1B3 JUMPI PUSH2 0x478C SWAP1 CALLDATASIZE SWAP1 PUSH1 0x4 ADD PUSH2 0x4D16 JUMP JUMPDEST PUSH1 0x84 CALLDATALOAD PUSH1 0x1 PUSH1 0x1 PUSH1 0x40 SHL SUB DUP2 GT PUSH2 0x1B3 JUMPI PUSH2 0x47AB SWAP1 CALLDATASIZE SWAP1 PUSH1 0x4 ADD PUSH2 0x4D16 JUMP JUMPDEST PUSH2 0x104 CALLDATALOAD PUSH1 0x1 PUSH1 0x1 PUSH1 0xA0 SHL SUB DUP2 AND SWAP2 SWAP1 DUP3 SWAP1 SUB PUSH2 0x1B3 JUMPI PUSH2 0x144 CALLDATALOAD SWAP3 DUP4 ISZERO ISZERO DUP1 SWAP5 SUB PUSH2 0x1B3 JUMPI PUSH2 0x47E6 PUSH1 0x1 DUP1 PUSH1 0xA0 SHL SUB PUSH1 0x0 SLOAD AND CALLER EQ PUSH2 0x4FF2 JUMP JUMPDEST PUSH1 0x40 MLOAD SWAP5 PUSH2 0x47F3 DUP7 PUSH2 0x4CA3 JUMP JUMPDEST PUSH1 0x4 CALLDATALOAD DUP7 MSTORE PUSH1 0x20 DUP7 ADD MSTORE PUSH1 0x40 DUP6 ADD MSTORE PUSH1 0x64 CALLDATALOAD PUSH1 0x60 DUP6 ADD MSTORE PUSH1 0x80 DUP5 ADD MSTORE PUSH1 0xA4 CALLDATALOAD PUSH1 0xA0 DUP5 ADD MSTORE PUSH1 0xC4 CALLDATALOAD PUSH1 0xC0 DUP5 ADD MSTORE PUSH1 0xE4 CALLDATALOAD PUSH1 0xE0 DUP5 ADD MSTORE PUSH2 0x100 DUP4 ADD MSTORE PUSH2 0x124 CALLDATALOAD PUSH2 0x120 DUP4 ADD MSTORE PUSH2 0x140 DUP3 ADD MSTORE PUSH2 0x164 CALLDATALOAD PUSH2 0x160 DUP3 ADD MSTORE PUSH1 0xC SLOAD PUSH1 0x1 PUSH1 0x40 SHL DUP2 LT ISZERO PUSH2 0x894 JUMPI DUP1 PUSH1 0x1 PUSH2 0x4866 SWAP3 ADD PUSH1 0xC SSTORE PUSH2 0x4F65 JUMP JUMPDEST SWAP2 SWAP1 SWAP2 PUSH2 0x87E JUMPI DUP1 MLOAD DUP3 SSTORE PUSH1 0x20 DUP2 ADD MLOAD SWAP2 DUP3 MLOAD PUSH1 0x1 PUSH1 0x1 PUSH1 0x40 SHL SUB DUP2 GT PUSH2 0x894 JUMPI PUSH2 0x4894 PUSH1 0x1 DUP4 ADD SLOAD PUSH2 0x4D6C JUMP JUMPDEST PUSH1 0x1F DUP2 GT PUSH2 0x4BDE JUMPI JUMPDEST POP PUSH1 0x20 PUSH1 0x1F DUP3 GT PUSH1 0x1 EQ PUSH2 0x4B72 JUMPI DUP2 SWAP3 SWAP4 SWAP5 PUSH1 0x0 SWAP3 PUSH2 0x4B67 JUMPI JUMPDEST POP POP DUP2 PUSH1 0x1 SHL SWAP2 PUSH1 0x0 NOT SWAP1 PUSH1 0x3 SHL SHR NOT AND OR PUSH1 0x1 DUP3 ADD SSTORE JUMPDEST PUSH1 0x40 DUP3 ADD MLOAD SWAP2 DUP3 MLOAD PUSH1 0x1 PUSH1 0x1 PUSH1 0x40 SHL SUB DUP2 GT PUSH2 0x894 JUMPI PUSH2 0x48F2 PUSH1 0x2 DUP5 ADD SLOAD PUSH2 0x4D6C JUMP JUMPDEST PUSH1 0x1F DUP2 GT PUSH2 0x4B20 JUMPI JUMPDEST POP PUSH1 0x20 PUSH1 0x1F DUP3 GT PUSH1 0x1 EQ PUSH2 0x4AB2 JUMPI DUP2 SWAP3 SWAP4 SWAP5 PUSH1 0x0 SWAP3 PUSH2 0x4AA7 JUMPI JUMPDEST POP POP DUP2 PUSH1 0x1 SHL SWAP2 PUSH1 0x0 NOT SWAP1 PUSH1 0x3 SHL SHR NOT AND OR PUSH1 0x2 DUP4 ADD SSTORE JUMPDEST PUSH1 0x60 DUP2 ADD MLOAD PUSH1 0x3 DUP4 ADD SSTORE PUSH1 0x80 DUP2 ADD MLOAD DUP1 MLOAD SWAP1 PUSH1 0x1 PUSH1 0x1 PUSH1 0x40 SHL SUB DUP3 GT PUSH2 0x894 JUMPI PUSH2 0x495A PUSH1 0x4 DUP6 ADD SLOAD PUSH2 0x4D6C JUMP JUMPDEST PUSH1 0x1F DUP2 GT PUSH2 0x4A60 JUMPI JUMPDEST POP PUSH1 0x20 SWAP1 PUSH1 0x1F DUP4 GT PUSH1 0x1 EQ PUSH2 0x4A06 JUMPI SWAP2 DUP1 PUSH1 0xB SWAP5 SWAP3 PUSH2 0x160 SWAP5 PUSH1 0x0 SWAP3 PUSH2 0x1EFE JUMPI POP POP DUP2 PUSH1 0x1 SHL SWAP2 PUSH1 0x0 NOT SWAP1 PUSH1 0x3 SHL SHR NOT AND OR PUSH1 0x4 DUP6 ADD SSTORE PUSH1 0xA0 DUP2 ADD MLOAD PUSH1 0x5 DUP6 ADD SSTORE PUSH1 0xC0 DUP2 ADD MLOAD PUSH1 0x6 DUP6 ADD SSTORE PUSH1 0xE0 DUP2 ADD MLOAD PUSH1 0x7 DUP6 ADD SSTORE PUSH1 0x8 DUP5 ADD PUSH1 0x1 DUP1 PUSH1 0xA0 SHL SUB PUSH2 0x100 DUP4 ADD MLOAD AND PUSH1 0x1 PUSH1 0x1 PUSH1 0x60 SHL SUB PUSH1 0xA0 SHL DUP3 SLOAD AND OR SWAP1 SSTORE PUSH2 0x120 DUP2 ADD MLOAD PUSH1 0x9 DUP6 ADD SSTORE PUSH2 0x1EF7 PUSH2 0x140 DUP3 ADD MLOAD ISZERO ISZERO PUSH1 0xA DUP7 ADD SWAP1 PUSH1 0xFF DUP1 NOT DUP4 SLOAD AND SWAP2 ISZERO ISZERO AND OR SWAP1 SSTORE JUMP JUMPDEST SWAP1 PUSH1 0x1F NOT DUP4 AND SWAP2 PUSH1 0x4 DUP7 ADD PUSH1 0x0 MSTORE PUSH1 0x20 PUSH1 0x0 KECCAK256 SWAP3 PUSH1 0x0 JUMPDEST DUP2 DUP2 LT PUSH2 0x4A48 JUMPI POP SWAP3 PUSH1 0x1 SWAP3 DUP6 SWAP3 PUSH2 0x160 SWAP7 PUSH1 0xB SWAP9 SWAP7 LT PUSH2 0x1F4E JUMPI POP POP POP DUP2 SHL ADD PUSH1 0x4 DUP6 ADD SSTORE PUSH2 0x1E8B JUMP JUMPDEST SWAP3 SWAP4 PUSH1 0x20 PUSH1 0x1 DUP2 SWAP3 DUP8 DUP7 ADD MLOAD DUP2 SSTORE ADD SWAP6 ADD SWAP4 ADD PUSH2 0x4A1D JUMP JUMPDEST PUSH1 0x4 DUP6 ADD PUSH1 0x0 MSTORE PUSH1 0x20 PUSH1 0x0 KECCAK256 PUSH1 0x1F DUP5 ADD PUSH1 0x5 SHR DUP2 ADD PUSH1 0x20 DUP6 LT PUSH2 0x4AA0 JUMPI JUMPDEST PUSH1 0x1F DUP4 ADD PUSH1 0x5 SHR DUP3 ADD DUP2 LT PUSH2 0x4A94 JUMPI POP POP PUSH2 0x4963 JUMP JUMPDEST PUSH1 0x0 DUP2 SSTORE PUSH1 0x1 ADD PUSH2 0x4A7E JUMP JUMPDEST POP DUP1 PUSH2 0x4A7E JUMP JUMPDEST ADD MLOAD SWAP1 POP DUP5 DUP1 PUSH2 0x4915 JUMP JUMPDEST PUSH1 0x2 DUP5 ADD PUSH1 0x0 MSTORE PUSH1 0x20 PUSH1 0x0 KECCAK256 SWAP1 PUSH1 0x0 JUMPDEST PUSH1 0x1F NOT DUP5 AND DUP2 LT PUSH2 0x4B08 JUMPI POP PUSH1 0x1 SWAP4 SWAP5 SWAP6 DUP4 PUSH1 0x1F NOT DUP2 AND LT PUSH2 0x4AEF JUMPI JUMPDEST POP POP POP DUP2 SHL ADD PUSH1 0x2 DUP4 ADD SSTORE PUSH2 0x492D JUMP JUMPDEST ADD MLOAD PUSH1 0x0 NOT PUSH1 0xF8 DUP5 PUSH1 0x3 SHL AND SHR NOT AND SWAP1 SSTORE DUP5 DUP1 DUP1 PUSH2 0x4ADF JUMP JUMPDEST SWAP1 SWAP2 PUSH1 0x20 PUSH1 0x1 DUP2 SWAP3 DUP6 DUP11 ADD MLOAD DUP2 SSTORE ADD SWAP4 ADD SWAP2 ADD PUSH2 0x4AC2 JUMP JUMPDEST PUSH1 0x2 DUP5 ADD PUSH1 0x0 MSTORE PUSH1 0x20 PUSH1 0x0 KECCAK256 PUSH1 0x1F DUP4 ADD PUSH1 0x5 SHR DUP2 ADD PUSH1 0x20 DUP5 LT PUSH2 0x4B60 JUMPI JUMPDEST PUSH1 0x1F DUP4 ADD PUSH1 0x5 SHR DUP3 ADD DUP2 LT PUSH2 0x4B54 JUMPI POP POP PUSH2 0x48FB JUMP JUMPDEST PUSH1 0x0 DUP2 SSTORE PUSH1 0x1 ADD PUSH2 0x4B3E JUMP JUMPDEST POP DUP1 PUSH2 0x4B3E JUMP JUMPDEST ADD MLOAD SWAP1 POP DUP5 DUP1 PUSH2 0x48B7 JUMP JUMPDEST PUSH1 0x1 DUP4 ADD PUSH1 0x0 MSTORE PUSH1 0x20 PUSH1 0x0 KECCAK256 SWAP1 PUSH1 0x0 PUSH1 0x1F NOT DUP5 AND SWAP1 JUMPDEST DUP2 DUP2 LT PUSH2 0x4BC6 JUMPI POP SWAP6 DUP4 PUSH1 0x1 SWAP6 SWAP7 SWAP8 LT PUSH2 0x4BAD JUMPI JUMPDEST POP POP POP DUP2 SHL ADD PUSH1 0x1 DUP3 ADD SSTORE PUSH2 0x48CF JUMP JUMPDEST ADD MLOAD PUSH1 0x0 NOT PUSH1 0xF8 DUP5 PUSH1 0x3 SHL AND SHR NOT AND SWAP1 SSTORE DUP5 DUP1 DUP1 PUSH2 0x4B9D JUMP JUMPDEST SWAP2 SWAP3 PUSH1 0x20 PUSH1 0x1 DUP2 SWAP3 DUP7 DUP12 ADD MLOAD DUP2 SSTORE ADD SWAP5 ADD SWAP3 ADD PUSH2 0x4B88 JUMP JUMPDEST PUSH1 0x1 DUP4 ADD PUSH1 0x0 MSTORE PUSH1 0x20 PUSH1 0x0 KECCAK256 PUSH1 0x1F DUP4 ADD PUSH1 0x5 SHR DUP2 ADD PUSH1 0x20 DUP5 LT PUSH2 0x4C1E JUMPI JUMPDEST PUSH1 0x1F DUP4 ADD PUSH1 0x5 SHR DUP3 ADD DUP2 LT PUSH2 0x4C12 JUMPI POP POP PUSH2 0x489D JUMP JUMPDEST PUSH1 0x0 DUP2 SSTORE PUSH1 0x1 ADD PUSH2 0x4BFC JUMP JUMPDEST POP DUP1 PUSH2 0x4BFC JUMP JUMPDEST CALLVALUE PUSH2 0x1B3 JUMPI PUSH1 0x40 CALLDATASIZE PUSH1 0x3 NOT ADD SLT PUSH2 0x1B3 JUMPI PUSH1 0x1 PUSH1 0x1 PUSH1 0xA0 SHL SUB PUSH2 0x4C46 PUSH2 0x4C8D JUMP JUMPDEST AND PUSH1 0x0 MSTORE PUSH1 0x9 PUSH1 0x20 MSTORE PUSH1 0x40 PUSH1 0x0 KECCAK256 PUSH1 0x24 CALLDATALOAD PUSH1 0x0 MSTORE PUSH1 0x20 MSTORE PUSH1 0x20 PUSH1 0xFF PUSH1 0x40 PUSH1 0x0 KECCAK256 SLOAD AND PUSH1 0x40 MLOAD SWAP1 ISZERO ISZERO DUP2 MSTORE RETURN JUMPDEST CALLVALUE PUSH2 0x1B3 JUMPI PUSH1 0x0 CALLDATASIZE PUSH1 0x3 NOT ADD SLT PUSH2 0x1B3 JUMPI PUSH1 0x20 SWAP1 PUSH1 0x1 SLOAD DUP2 MSTORE RETURN JUMPDEST PUSH1 0x4 CALLDATALOAD SWAP1 PUSH1 0x1 PUSH1 0x1 PUSH1 0xA0 SHL SUB DUP3 AND DUP3 SUB PUSH2 0x1B3 JUMPI JUMP JUMPDEST PUSH2 0x180 DUP2 ADD SWAP1 DUP2 LT PUSH1 0x1 PUSH1 0x1 PUSH1 0x40 SHL SUB DUP3 GT OR PUSH2 0x894 JUMPI PUSH1 0x40 MSTORE JUMP JUMPDEST PUSH1 0xC0 DUP2 ADD SWAP1 DUP2 LT PUSH1 0x1 PUSH1 0x1 PUSH1 0x40 SHL SUB DUP3 GT OR PUSH2 0x894 JUMPI PUSH1 0x40 MSTORE JUMP JUMPDEST PUSH1 0x40 DUP2 ADD SWAP1 DUP2 LT PUSH1 0x1 PUSH1 0x1 PUSH1 0x40 SHL SUB DUP3 GT OR PUSH2 0x894 JUMPI PUSH1 0x40 MSTORE JUMP JUMPDEST SWAP1 PUSH1 0x1F DUP1 NOT SWAP2 ADD AND DUP2 ADD SWAP1 DUP2 LT PUSH1 0x1 PUSH1 0x1 PUSH1 0x40 SHL SUB DUP3 GT OR PUSH2 0x894 JUMPI PUSH1 0x40 MSTORE JUMP JUMPDEST DUP2 PUSH1 0x1F DUP3 ADD SLT ISZERO PUSH2 0x1B3 JUMPI DUP1 CALLDATALOAD SWAP1 PUSH1 0x1 PUSH1 0x1 PUSH1 0x40 SHL SUB DUP3 GT PUSH2 0x894 JUMPI PUSH1 0x40 MLOAD SWAP3 PUSH2 0x4D4A PUSH1 0x1F DUP5 ADD PUSH1 0x1F NOT AND PUSH1 0x20 ADD DUP6 PUSH2 0x4CF5 JUMP JUMPDEST DUP3 DUP5 MSTORE PUSH1 0x20 DUP4 DUP4 ADD ADD GT PUSH2 0x1B3 JUMPI DUP2 PUSH1 0x0 SWAP3 PUSH1 0x20 DUP1 SWAP4 ADD DUP4 DUP7 ADD CALLDATACOPY DUP4 ADD ADD MSTORE SWAP1 JUMP JUMPDEST SWAP1 PUSH1 0x1 DUP3 DUP2 SHR SWAP3 AND DUP1 ISZERO PUSH2 0x4D9C JUMPI JUMPDEST PUSH1 0x20 DUP4 LT EQ PUSH2 0x4D86 JUMPI JUMP JUMPDEST PUSH4 0x4E487B71 PUSH1 0xE0 SHL PUSH1 0x0 MSTORE PUSH1 0x22 PUSH1 0x4 MSTORE PUSH1 0x24 PUSH1 0x0 REVERT JUMPDEST SWAP2 PUSH1 0x7F AND SWAP2 PUSH2 0x4D7B JUMP JUMPDEST SWAP1 PUSH1 0x40 MLOAD SWAP2 DUP3 PUSH1 0x0 DUP3 SLOAD SWAP3 PUSH2 0x4DBA DUP5 PUSH2 0x4D6C JUMP JUMPDEST SWAP1 DUP2 DUP5 MSTORE PUSH1 0x1 SWAP5 DUP6 DUP2 AND SWAP1 DUP2 PUSH1 0x0 EQ PUSH2 0x4E29 JUMPI POP PUSH1 0x1 EQ PUSH2 0x4DE6 JUMPI JUMPDEST POP POP PUSH2 0x4DE4 SWAP3 POP SUB DUP4 PUSH2 0x4CF5 JUMP JUMPDEST JUMP JUMPDEST SWAP1 SWAP4 SWAP2 POP PUSH1 0x0 MSTORE PUSH1 0x20 SWAP1 DUP2 PUSH1 0x0 KECCAK256 SWAP4 PUSH1 0x0 SWAP2 JUMPDEST DUP2 DUP4 LT PUSH2 0x4E11 JUMPI POP POP PUSH2 0x4DE4 SWAP4 POP DUP3 ADD ADD CODESIZE DUP1 PUSH2 0x4DD6 JUMP JUMPDEST DUP6 SLOAD DUP9 DUP5 ADD DUP6 ADD MSTORE SWAP5 DUP6 ADD SWAP5 DUP8 SWAP5 POP SWAP2 DUP4 ADD SWAP2 PUSH2 0x4DF9 JUMP JUMPDEST SWAP2 POP POP PUSH2 0x4DE4 SWAP5 POP PUSH1 0x20 SWAP3 POP PUSH1 0xFF NOT AND DUP3 DUP5 ADD MSTORE ISZERO ISZERO PUSH1 0x5 SHL DUP3 ADD ADD CODESIZE DUP1 PUSH2 0x4DD6 JUMP JUMPDEST SWAP2 SWAP1 DUP3 MLOAD SWAP3 DUP4 DUP3 MSTORE PUSH1 0x0 JUMPDEST DUP5 DUP2 LT PUSH2 0x4E78 JUMPI POP POP DUP3 PUSH1 0x0 PUSH1 0x20 DUP1 SWAP5 SWAP6 DUP5 ADD ADD MSTORE PUSH1 0x1F DUP1 NOT SWAP2 ADD AND ADD ADD SWAP1 JUMP JUMPDEST PUSH1 0x20 DUP2 DUP4 ADD DUP2 ADD MLOAD DUP5 DUP4 ADD DUP3 ADD MSTORE ADD PUSH2 0x4E57 JUMP JUMPDEST SWAP3 SWAP7 SWAP6 SWAP5 SWAP2 PUSH2 0x4EB3 SWAP1 PUSH1 0xA0 SWAP6 SWAP3 PUSH1 0x1 DUP1 DUP9 SHL SUB AND DUP6 MSTORE PUSH1 0xC0 PUSH1 0x20 DUP7 ADD MSTORE PUSH1 0xC0 DUP6 ADD SWAP1 PUSH2 0x4E4C JUMP JUMPDEST SWAP7 PUSH1 0x40 DUP5 ADD MSTORE ISZERO ISZERO PUSH1 0x60 DUP4 ADD MSTORE PUSH1 0x80 DUP3 ADD MSTORE ADD MSTORE JUMP JUMPDEST SWAP4 SWAP7 SWAP6 SWAP5 SWAP3 SWAP1 PUSH2 0x4EF8 SWAP3 PUSH2 0x4EEA SWAP2 DUP7 MSTORE PUSH1 0xC0 PUSH1 0x20 DUP8 ADD MSTORE PUSH1 0xC0 DUP7 ADD SWAP1 PUSH2 0x4E4C JUMP JUMPDEST SWAP1 DUP5 DUP3 SUB PUSH1 0x40 DUP7 ADD MSTORE PUSH2 0x4E4C JUMP JUMPDEST SWAP5 PUSH1 0x60 DUP4 ADD MSTORE ISZERO ISZERO PUSH1 0x80 DUP3 ADD MSTORE PUSH1 0x5 DUP3 LT ISZERO PUSH2 0x3EC0 JUMPI PUSH1 0xA0 ADD MSTORE JUMP JUMPDEST PUSH1 0x7 SLOAD DUP2 LT ISZERO PUSH2 0x30B9 JUMPI PUSH1 0x5 SWAP1 PUSH1 0x7 PUSH1 0x0 MSTORE MUL PUSH32 0xA66CC928B5EDB82AF9BD49922954155AB7B0942694BEA4CE44661D9A8736C688 ADD SWAP1 PUSH1 0x0 SWAP1 JUMP JUMPDEST PUSH1 0x40 SWAP1 PUSH1 0x3 NOT ADD SLT PUSH2 0x1B3 JUMPI PUSH1 0x4 CALLDATALOAD SWAP1 PUSH1 0x24 CALLDATALOAD SWAP1 JUMP JUMPDEST PUSH1 0xC SLOAD DUP2 LT ISZERO PUSH2 0x30B9 JUMPI PUSH1 0xC SWAP1 DUP2 PUSH1 0x0 MSTORE MUL PUSH32 0xDF6966C971051C3D54EC59162606531493A51404A002842F56009D7E5CF4A8C7 ADD SWAP1 PUSH1 0x0 SWAP1 JUMP JUMPDEST DUP1 SLOAD DUP3 LT ISZERO PUSH2 0x30B9 JUMPI PUSH1 0x0 MSTORE PUSH1 0x20 PUSH1 0x0 KECCAK256 ADD SWAP1 PUSH1 0x0 SWAP1 JUMP JUMPDEST PUSH1 0x4 SLOAD DUP2 LT ISZERO PUSH2 0x30B9 JUMPI PUSH1 0x6 SWAP1 PUSH1 0x4 PUSH1 0x0 MSTORE MUL PUSH32 0x8A35ACFBC15FF81A39AE7D344FD709F28E8600B4AA8C65C6B64BFE7FE36BD19B ADD SWAP1 PUSH1 0x0 SWAP1 JUMP JUMPDEST ISZERO PUSH2 0x4FF9 JUMPI JUMP JUMPDEST PUSH1 0x40 MLOAD PUSH3 0x461BCD PUSH1 0xE5 SHL DUP2 MSTORE PUSH1 0x20 PUSH1 0x4 DUP3 ADD MSTORE PUSH1 0x22 PUSH1 0x24 DUP3 ADD MSTORE PUSH32 0x4F6E6C79206F776E65722063616E2063616C6C20746869732066756E6374696F PUSH1 0x44 DUP3 ADD MSTORE PUSH2 0x6E21 PUSH1 0xF0 SHL PUSH1 0x64 DUP3 ADD MSTORE PUSH1 0x84 SWAP1 REVERT JUMPDEST PUSH1 0x40 MLOAD SWAP1 PUSH2 0x5056 DUP3 PUSH2 0x4CDA JUMP JUMPDEST PUSH1 0x4 DUP3 MSTORE PUSH4 0x4D616C65 PUSH1 0xE0 SHL PUSH1 0x20 DUP4 ADD MSTORE JUMP JUMPDEST PUSH1 0x40 MLOAD SWAP1 PUSH2 0x5076 DUP3 PUSH2 0x4CDA JUMP JUMPDEST PUSH1 0x6 DUP3 MSTORE PUSH6 0x46656D616C65 PUSH1 0xD0 SHL PUSH1 0x20 DUP4 ADD MSTORE JUMP JUMPDEST PUSH1 0x40 MLOAD SWAP1 PUSH2 0x5098 DUP3 PUSH2 0x4CDA JUMP JUMPDEST PUSH1 0x6 DUP3 MSTORE PUSH6 0x21B7B6B6B7B7 PUSH1 0xD1 SHL PUSH1 0x20 DUP4 ADD MSTORE JUMP JUMPDEST ISZERO PUSH2 0x50B4 JUMPI JUMP JUMPDEST PUSH1 0x40 MLOAD PUSH3 0x461BCD PUSH1 0xE5 SHL DUP2 MSTORE PUSH1 0x20 PUSH1 0x4 DUP3 ADD MSTORE PUSH1 0x14 PUSH1 0x24 DUP3 ADD MSTORE PUSH20 0x506574206973206E6F7420666F722073616C6521 PUSH1 0x60 SHL PUSH1 0x44 DUP3 ADD MSTORE PUSH1 0x64 SWAP1 REVERT JUMPDEST ISZERO PUSH2 0x50F7 JUMPI JUMP JUMPDEST PUSH1 0x40 MLOAD PUSH3 0x461BCD PUSH1 0xE5 SHL DUP2 MSTORE PUSH1 0x20 PUSH1 0x4 DUP3 ADD MSTORE PUSH1 0x13 PUSH1 0x24 DUP3 ADD MSTORE PUSH19 0x4E6F7420656E6F7567682062616C616E636521 PUSH1 0x68 SHL PUSH1 0x44 DUP3 ADD MSTORE PUSH1 0x64 SWAP1 REVERT JUMPDEST SWAP2 SWAP1 DUP3 SUB SWAP2 DUP3 GT PUSH2 0x33D JUMPI JUMP JUMPDEST SWAP2 SWAP1 DUP3 ADD DUP1 SWAP3 GT PUSH2 0x33D JUMPI JUMP JUMPDEST ISZERO PUSH2 0x5153 JUMPI JUMP JUMPDEST PUSH1 0x40 MLOAD PUSH3 0x461BCD PUSH1 0xE5 SHL DUP2 MSTORE PUSH1 0x20 PUSH1 0x4 DUP3 ADD MSTORE PUSH1 0x22 PUSH1 0x24 DUP3 ADD MSTORE PUSH32 0x596F7520617265206E6F7420746865206F776E6572206F662074686973207065 PUSH1 0x44 DUP3 ADD MSTORE PUSH2 0x7421 PUSH1 0xF0 SHL PUSH1 0x64 DUP3 ADD MSTORE PUSH1 0x84 SWAP1 REVERT JUMPDEST PUSH1 0x1 PUSH1 0x1 PUSH1 0x40 SHL SUB DUP2 GT PUSH2 0x894 JUMPI PUSH1 0x5 SHL PUSH1 0x20 ADD SWAP1 JUMP JUMPDEST PUSH1 0x0 NOT DUP2 EQ PUSH2 0x33D JUMPI PUSH1 0x1 ADD SWAP1 JUMP JUMPDEST SWAP1 PUSH1 0x1 DUP1 PUSH1 0xA0 SHL SUB DUP2 MLOAD AND PUSH1 0x1 PUSH1 0x1 PUSH1 0x60 SHL SUB PUSH1 0xA0 SHL DUP4 SLOAD AND OR DUP3 SSTORE PUSH1 0x1 SWAP1 DUP2 DUP4 ADD PUSH1 0x20 DUP1 DUP4 ADD MLOAD SWAP4 DUP5 MLOAD SWAP2 PUSH1 0x1 PUSH1 0x1 PUSH1 0x40 SHL SUB DUP4 GT PUSH2 0x894 JUMPI PUSH2 0x520D DUP5 SLOAD PUSH2 0x4D6C JUMP JUMPDEST PUSH1 0x1F DUP2 GT PUSH2 0x52FE JUMPI JUMPDEST POP DUP1 PUSH1 0x1F DUP5 GT PUSH1 0x1 EQ PUSH2 0x528F JUMPI POP SWAP2 DUP1 DUP1 SWAP3 PUSH1 0xA0 SWAP7 SWAP6 SWAP5 PUSH1 0x5 SWAP9 PUSH1 0x0 SWAP5 PUSH2 0x5284 JUMPI JUMPDEST POP POP SHL SWAP2 PUSH1 0x0 NOT SWAP1 PUSH1 0x3 SHL SHR NOT AND OR SWAP1 SSTORE JUMPDEST PUSH1 0x40 DUP2 ADD MLOAD PUSH1 0x2 DUP6 ADD SSTORE PUSH2 0x5273 PUSH1 0x60 DUP3 ADD MLOAD ISZERO ISZERO PUSH1 0x3 DUP7 ADD SWAP1 PUSH1 0xFF DUP1 NOT DUP4 SLOAD AND SWAP2 ISZERO ISZERO AND OR SWAP1 SSTORE JUMP JUMPDEST PUSH1 0x80 DUP2 ADD MLOAD PUSH1 0x4 DUP6 ADD SSTORE ADD MLOAD SWAP2 ADD SSTORE JUMP JUMPDEST ADD MLOAD SWAP3 POP CODESIZE DUP1 PUSH2 0x5238 JUMP JUMPDEST SWAP2 SWAP4 SWAP5 SWAP6 PUSH1 0x1F NOT DUP5 AND DUP7 PUSH1 0x0 MSTORE DUP4 PUSH1 0x0 KECCAK256 SWAP4 PUSH1 0x0 SWAP1 JUMPDEST DUP3 DUP3 LT PUSH2 0x52E7 JUMPI POP POP SWAP2 PUSH1 0x5 SWAP8 SWAP6 SWAP4 SWAP2 DUP6 PUSH1 0xA0 SWAP9 SWAP7 SWAP5 LT PUSH2 0x52CE JUMPI JUMPDEST POP POP POP DUP2 SHL ADD SWAP1 SSTORE PUSH2 0x524A JUMP JUMPDEST ADD MLOAD PUSH1 0x0 NOT PUSH1 0xF8 DUP5 PUSH1 0x3 SHL AND SHR NOT AND SWAP1 SSTORE CODESIZE DUP1 DUP1 PUSH2 0x52C1 JUMP JUMPDEST DUP1 DUP9 DUP7 SWAP8 DUP3 SWAP5 SWAP8 DUP8 ADD MLOAD DUP2 SSTORE ADD SWAP7 ADD SWAP5 ADD SWAP1 PUSH2 0x52A5 JUMP JUMPDEST PUSH1 0x0 DUP6 DUP2 MSTORE DUP3 DUP2 KECCAK256 PUSH1 0x1F DUP7 ADD PUSH1 0x5 SHR DUP2 ADD SWAP3 DUP5 DUP8 LT PUSH2 0x533D JUMPI JUMPDEST PUSH1 0x1F ADD PUSH1 0x5 SHR ADD SWAP2 DUP5 SWAP1 JUMPDEST DUP4 DUP2 LT PUSH2 0x5332 JUMPI POP POP POP PUSH2 0x5216 JUMP JUMPDEST DUP3 DUP2 SSTORE ADD DUP5 SWAP1 PUSH2 0x5323 JUMP JUMPDEST SWAP1 SWAP3 POP DUP3 SWAP1 PUSH2 0x5318 JUMP INVALID 0xE1 0xAA 0xE1 0xCB SELFBALANCE GASLIMIT 0xFC 0xCC NUMBER ISZERO 0xDC PUSH17 0x504BABB014A5B3DE0FC5A1B47B1B7CBC03 0xD6 0xD0 CALLDATALOAD LOG2 PUSH5 0x6970667358 0x22 SLT KECCAK256 ADDRESS CALLDATASIZE PUSH24 0xF2416CBABB4B87ABF0BC02E28E2F6D0CAB95A65746BBC72D GT PUSH9 0x5B018564736F6C6343 STOP ADDMOD EQ STOP CALLER "},"methodIdentifiers":{"addPet(uint256,string,string,uint256,string,uint256,uint256,uint256,address,uint256,bool,uint256)":"0c596d91","addTask(string,string,uint256,uint8)":"d43bb72d","buyPet(uint256)":"9edded11","cancelPetSale(uint256)":"f3cd7add","checkAllTasksCompleted(address)":"25277a5a","completeTask(uint256)":"e1e29558","completedTasks(address,uint256)":"0b2237ed","dailyReward()":"c964ad45","defaultPets()":"c8c9bd28","defaultTasks()":"42bbcd69","entryFee()":"072ea61c","feedPet(uint256)":"fbfabac4","gameFee()":"ea777eec","getAllPets()":"5b236d97","getCompletedTasks(address)":"983c00de","getPlayerPetBalance(address,uint256)":"7781b86b","hasJoined(address)":"877f4e12","joinGame()":"d4f77b1c","likePet(uint256)":"de440fe9","owner()":"8da5cb5b","petForSale(uint256,uint256)":"c9275220","pets(uint256)":"cfb869bf","playerInfo(address)":"4b114691","playerPet(address,uint256)":"1080d30f","playerPetIds(address,uint256)":"f6a1cf91","playerTask(address,uint256)":"57187415","playerTaskCount(address)":"17e83794","players(uint256)":"f71d96cb","sellPet(uint256,uint256)":"cf7deee5","setFee(uint256)":"69fe0e2d","tasks(uint256)":"8d977672","tasksById(uint256)":"5604d1a9","token()":"fc0c546a"}}}}}