{
  "_format": "hh-sol-artifact-1",
  "contractName": "TradingGame",
  "sourceName": "contracts/TradingGame.sol",
  "abi": [
    {
      "inputs": [
        {
          "internalType": "contract IERC20",
          "name": "_token",
          "type": "address"
        }
      ],
      "stateMutability": "nonpayable",
      "type": "constructor"
    },
    {
      "anonymous": false,
      "inputs": [
        {
          "indexed": true,
          "internalType": "address",
          "name": "player",
          "type": "address"
        }
      ],
      "name": "DailyRewardClaimed",
      "type": "event"
    },
    {
      "anonymous": false,
      "inputs": [
        {
          "indexed": true,
          "internalType": "address",
          "name": "player",
          "type": "address"
        },
        {
          "indexed": true,
          "internalType": "uint256",
          "name": "petId",
          "type": "uint256"
        }
      ],
      "name": "PetBought",
      "type": "event"
    },
    {
      "anonymous": false,
      "inputs": [
        {
          "indexed": true,
          "internalType": "address",
          "name": "player",
          "type": "address"
        },
        {
          "indexed": true,
          "internalType": "uint256",
          "name": "petId",
          "type": "uint256"
        }
      ],
      "name": "PetCanceledForSale",
      "type": "event"
    },
    {
      "anonymous": false,
      "inputs": [
        {
          "indexed": true,
          "internalType": "address",
          "name": "player",
          "type": "address"
        },
        {
          "indexed": true,
          "internalType": "uint256",
          "name": "petId",
          "type": "uint256"
        }
      ],
      "name": "PetFed",
      "type": "event"
    },
    {
      "anonymous": false,
      "inputs": [
        {
          "indexed": true,
          "internalType": "address",
          "name": "player",
          "type": "address"
        },
        {
          "indexed": true,
          "internalType": "uint256",
          "name": "petId",
          "type": "uint256"
        },
        {
          "indexed": false,
          "internalType": "uint256",
          "name": "price",
          "type": "uint256"
        }
      ],
      "name": "PetForSale",
      "type": "event"
    },
    {
      "anonymous": false,
      "inputs": [
        {
          "indexed": true,
          "internalType": "address",
          "name": "player",
          "type": "address"
        },
        {
          "indexed": true,
          "internalType": "uint256",
          "name": "petId",
          "type": "uint256"
        }
      ],
      "name": "PetLiked",
      "type": "event"
    },
    {
      "anonymous": false,
      "inputs": [
        {
          "indexed": true,
          "internalType": "address",
          "name": "player",
          "type": "address"
        },
        {
          "indexed": true,
          "internalType": "uint256",
          "name": "petId",
          "type": "uint256"
        },
        {
          "indexed": false,
          "internalType": "uint256",
          "name": "price",
          "type": "uint256"
        }
      ],
      "name": "PetSold",
      "type": "event"
    },
    {
      "anonymous": false,
      "inputs": [
        {
          "indexed": true,
          "internalType": "address",
          "name": "player",
          "type": "address"
        }
      ],
      "name": "PlayerJoined",
      "type": "event"
    },
    {
      "inputs": [
        {
          "internalType": "uint256",
          "name": "_id",
          "type": "uint256"
        },
        {
          "internalType": "string",
          "name": "_name",
          "type": "string"
        },
        {
          "internalType": "string",
          "name": "_gender",
          "type": "string"
        },
        {
          "internalType": "uint256",
          "name": "_level",
          "type": "uint256"
        },
        {
          "internalType": "string",
          "name": "_types",
          "type": "string"
        },
        {
          "internalType": "uint256",
          "name": "_hunger",
          "type": "uint256"
        },
        {
          "internalType": "uint256",
          "name": "_hapiness",
          "type": "uint256"
        },
        {
          "internalType": "uint256",
          "name": "_health",
          "type": "uint256"
        },
        {
          "internalType": "address",
          "name": "_owner",
          "type": "address"
        },
        {
          "internalType": "uint256",
          "name": "_price",
          "type": "uint256"
        },
        {
          "internalType": "bool",
          "name": "_isForSale",
          "type": "bool"
        },
        {
          "internalType": "uint256",
          "name": "_likes",
          "type": "uint256"
        }
      ],
      "name": "addPet",
      "outputs": [],
      "stateMutability": "nonpayable",
      "type": "function"
    },
    {
      "inputs": [
        {
          "internalType": "uint256",
          "name": "_petId",
          "type": "uint256"
        }
      ],
      "name": "buyPet",
      "outputs": [],
      "stateMutability": "nonpayable",
      "type": "function"
    },
    {
      "inputs": [
        {
          "internalType": "uint256",
          "name": "_petId",
          "type": "uint256"
        }
      ],
      "name": "cancelPetSale",
      "outputs": [],
      "stateMutability": "nonpayable",
      "type": "function"
    },
    {
      "inputs": [],
      "name": "dailyReward",
      "outputs": [],
      "stateMutability": "nonpayable",
      "type": "function"
    },
    {
      "inputs": [],
      "name": "defaultPets",
      "outputs": [],
      "stateMutability": "nonpayable",
      "type": "function"
    },
    {
      "inputs": [],
      "name": "entryFee",
      "outputs": [
        {
          "internalType": "uint256",
          "name": "",
          "type": "uint256"
        }
      ],
      "stateMutability": "view",
      "type": "function"
    },
    {
      "inputs": [
        {
          "internalType": "uint256",
          "name": "_petId",
          "type": "uint256"
        }
      ],
      "name": "feedPet",
      "outputs": [],
      "stateMutability": "nonpayable",
      "type": "function"
    },
    {
      "inputs": [],
      "name": "gameFee",
      "outputs": [
        {
          "internalType": "uint256",
          "name": "",
          "type": "uint256"
        }
      ],
      "stateMutability": "view",
      "type": "function"
    },
    {
      "inputs": [],
      "name": "getAllPets",
      "outputs": [
        {
          "components": [
            {
              "internalType": "uint256",
              "name": "id",
              "type": "uint256"
            },
            {
              "internalType": "string",
              "name": "name",
              "type": "string"
            },
            {
              "internalType": "string",
              "name": "gender",
              "type": "string"
            },
            {
              "internalType": "uint256",
              "name": "level",
              "type": "uint256"
            },
            {
              "internalType": "string",
              "name": "types",
              "type": "string"
            },
            {
              "internalType": "uint256",
              "name": "hunger",
              "type": "uint256"
            },
            {
              "internalType": "uint256",
              "name": "hapiness",
              "type": "uint256"
            },
            {
              "internalType": "uint256",
              "name": "health",
              "type": "uint256"
            },
            {
              "internalType": "address",
              "name": "owner",
              "type": "address"
            },
            {
              "internalType": "uint256",
              "name": "price",
              "type": "uint256"
            },
            {
              "internalType": "bool",
              "name": "isForSale",
              "type": "bool"
            },
            {
              "internalType": "uint256",
              "name": "likes",
              "type": "uint256"
            }
          ],
          "internalType": "struct TradingGame.Pet[]",
          "name": "",
          "type": "tuple[]"
        }
      ],
      "stateMutability": "view",
      "type": "function"
    },
    {
      "inputs": [
        {
          "internalType": "address",
          "name": "_playerAddress",
          "type": "address"
        },
        {
          "internalType": "uint256",
          "name": "_petId",
          "type": "uint256"
        }
      ],
      "name": "getPlayerPetBalance",
      "outputs": [
        {
          "internalType": "uint256",
          "name": "",
          "type": "uint256"
        }
      ],
      "stateMutability": "view",
      "type": "function"
    },
    {
      "inputs": [
        {
          "internalType": "address",
          "name": "",
          "type": "address"
        }
      ],
      "name": "hasJoined",
      "outputs": [
        {
          "internalType": "bool",
          "name": "",
          "type": "bool"
        }
      ],
      "stateMutability": "view",
      "type": "function"
    },
    {
      "inputs": [],
      "name": "joinGame",
      "outputs": [],
      "stateMutability": "payable",
      "type": "function"
    },
    {
      "inputs": [
        {
          "internalType": "uint256",
          "name": "_petId",
          "type": "uint256"
        }
      ],
      "name": "likePet",
      "outputs": [],
      "stateMutability": "payable",
      "type": "function"
    },
    {
      "inputs": [],
      "name": "owner",
      "outputs": [
        {
          "internalType": "address",
          "name": "",
          "type": "address"
        }
      ],
      "stateMutability": "view",
      "type": "function"
    },
    {
      "inputs": [
        {
          "internalType": "uint256",
          "name": "_petId",
          "type": "uint256"
        },
        {
          "internalType": "uint256",
          "name": "_price",
          "type": "uint256"
        }
      ],
      "name": "petForSale",
      "outputs": [],
      "stateMutability": "nonpayable",
      "type": "function"
    },
    {
      "inputs": [
        {
          "internalType": "uint256",
          "name": "",
          "type": "uint256"
        }
      ],
      "name": "pets",
      "outputs": [
        {
          "internalType": "uint256",
          "name": "id",
          "type": "uint256"
        },
        {
          "internalType": "string",
          "name": "name",
          "type": "string"
        },
        {
          "internalType": "string",
          "name": "gender",
          "type": "string"
        },
        {
          "internalType": "uint256",
          "name": "level",
          "type": "uint256"
        },
        {
          "internalType": "string",
          "name": "types",
          "type": "string"
        },
        {
          "internalType": "uint256",
          "name": "hunger",
          "type": "uint256"
        },
        {
          "internalType": "uint256",
          "name": "hapiness",
          "type": "uint256"
        },
        {
          "internalType": "uint256",
          "name": "health",
          "type": "uint256"
        },
        {
          "internalType": "address",
          "name": "owner",
          "type": "address"
        },
        {
          "internalType": "uint256",
          "name": "price",
          "type": "uint256"
        },
        {
          "internalType": "bool",
          "name": "isForSale",
          "type": "bool"
        },
        {
          "internalType": "uint256",
          "name": "likes",
          "type": "uint256"
        }
      ],
      "stateMutability": "view",
      "type": "function"
    },
    {
      "inputs": [
        {
          "internalType": "address",
          "name": "",
          "type": "address"
        }
      ],
      "name": "playerInfo",
      "outputs": [
        {
          "internalType": "address",
          "name": "playerAddress",
          "type": "address"
        },
        {
          "internalType": "string",
          "name": "name",
          "type": "string"
        },
        {
          "internalType": "uint256",
          "name": "balance",
          "type": "uint256"
        },
        {
          "internalType": "bool",
          "name": "isActive",
          "type": "bool"
        },
        {
          "internalType": "uint256",
          "name": "lastClaimed",
          "type": "uint256"
        }
      ],
      "stateMutability": "view",
      "type": "function"
    },
    {
      "inputs": [
        {
          "internalType": "address",
          "name": "",
          "type": "address"
        },
        {
          "internalType": "uint256",
          "name": "",
          "type": "uint256"
        }
      ],
      "name": "playerPet",
      "outputs": [
        {
          "internalType": "uint256",
          "name": "",
          "type": "uint256"
        }
      ],
      "stateMutability": "view",
      "type": "function"
    },
    {
      "inputs": [
        {
          "internalType": "address",
          "name": "",
          "type": "address"
        },
        {
          "internalType": "uint256",
          "name": "",
          "type": "uint256"
        }
      ],
      "name": "playerPetIds",
      "outputs": [
        {
          "internalType": "uint256",
          "name": "",
          "type": "uint256"
        }
      ],
      "stateMutability": "view",
      "type": "function"
    },
    {
      "inputs": [
        {
          "internalType": "uint256",
          "name": "",
          "type": "uint256"
        }
      ],
      "name": "players",
      "outputs": [
        {
          "internalType": "address",
          "name": "playerAddress",
          "type": "address"
        },
        {
          "internalType": "string",
          "name": "name",
          "type": "string"
        },
        {
          "internalType": "uint256",
          "name": "balance",
          "type": "uint256"
        },
        {
          "internalType": "bool",
          "name": "isActive",
          "type": "bool"
        },
        {
          "internalType": "uint256",
          "name": "lastClaimed",
          "type": "uint256"
        }
      ],
      "stateMutability": "view",
      "type": "function"
    },
    {
      "inputs": [
        {
          "internalType": "uint256",
          "name": "_petId",
          "type": "uint256"
        },
        {
          "internalType": "uint256",
          "name": "_price",
          "type": "uint256"
        }
      ],
      "name": "sellPet",
      "outputs": [],
      "stateMutability": "nonpayable",
      "type": "function"
    },
    {
      "inputs": [
        {
          "internalType": "uint256",
          "name": "_fee",
          "type": "uint256"
        }
      ],
      "name": "setFee",
      "outputs": [],
      "stateMutability": "nonpayable",
      "type": "function"
    },
    {
      "inputs": [],
      "name": "token",
      "outputs": [
        {
          "internalType": "contract IERC20",
          "name": "",
          "type": "address"
        }
      ],
      "stateMutability": "view",
      "type": "function"
    }
  ],
  "bytecode": "0x6080346200009357601f6200387638819003918201601f19168301916001600160401b0383118484101762000098578084926020946040528339810103126200009357516001600160a01b038116908190036200009357662386f26fc10000600155633b9aca0060025560018060a01b03193381600054161760005560035416176003556040516137c79081620000af8239f35b600080fd5b634e487b7160e01b600052604160045260246000fdfe608080604052600436101561001357600080fd5b60003560e01c908163072ea61c14613188575080630c596d9114612ca15780631080d30f146129c35780634b11469114612c5e5780635b236d9714612a3957806369fe0e2d14612a0b5780637781b86b146129c3578063877f4e12146129845780638da5cb5b1461295b5780639edded11146126a5578063c8c9bd2814610a17578063c9275220146109a8578063c964ad451461086e578063cf7deee5146107ef578063cfb869bf146106f4578063d4f77b1c1461057e578063de440fe914610469578063ea777eec1461044b578063f3cd7add146103d5578063f6a1cf911461037d578063f71d96cb14610316578063fbfabac41461014a5763fc0c546a1461011c57600080fd5b34610145576000366003190112610145576003546040516001600160a01b039091168152602090f35b600080fd5b346101455760203660031901126101455760043561017f61016a826133d5565b50600801546001600160a01b031633146135c6565b600561018a826133d5565b506064918291015410156102e55760036101a3836133d5565b5001548060011b90808204600214901517156102cf573360005260056020526101d6816002604060002001541015613577565b3360005260056020526101f260026040600020019182546135b9565b905560056101ff836133d5565b500180546009198101919082116102cf5755600761021c836133d5565b5001805490600a82018092116102cf57556006610238836133d5565b5001805490600a82018092116102cf5755610252826133d5565b5050806007610260846133d5565b500154116102bb575b806006610275846133d5565b500154116102a7575b50337f9ef3ef96a69917dbd3b0809769d9f6728750e08ab778d8fbf3ea05b2ac7a9438600080a3005b60066102b2836133d5565b5001558161027e565b8060076102c7846133d5565b500155610269565b634e487b7160e01b600052601160045260246000fd5b60405162461bcd60e51b815260206004820152600c60248201526b5065742069732066756c6c2160a01b6044820152fd5b34610145576020366003190112610145576004356004548110156101455761033d9061343e565b5080546001600160a01b0316610379610358600184016132a1565b92600281015490600460ff6003830154169101549160405195869586613387565b0390f35b3461014557604036600319011261014557610396613251565b6001600160a01b0316600090815260096020526040902080546024359190821015610145576020916103c791613426565b90546040519160031b1c8152f35b34610145576020366003190112610145576004356103f561016a826133d5565b61040e60ff600a610405846133d5565b50015416613534565b600a610419826133d5565b5001805460ff19169055337f1f76122ceba009bc563ff10d1bb29fcd3211e178931624d631121a877dd7fde4600080a3005b34610145576000366003190112610145576020600254604051908152f35b602036600319011261014557600435610481816133d5565b50600801546001600160a01b031633146105395760075481101561050357600b6104aa826133d5565b5001805490600182018092116102cf57553360005260056020526002604060002001805490600582018092116102cf5755337f608b673d19f28498e8e55664ba7500d0b17e731a244de245f1cd25a32eec2e4f600080a3005b60405162461bcd60e51b815260206004820152600e60248201526d506574206e6f7420666f756e642160901b6044820152606490fd5b60405162461bcd60e51b815260206004820152601e60248201527f596f752063616e206e6f74206c696b6520796f7572206f776e207065742100006044820152606490fd5b600036600319011261014557610598600154341015613577565b3360005260206006815260ff604060002054166106b0576002546040519060a082018281106001600160401b0382111761069a576040523382526040516105de816131bf565b6006815265283630bcb2b960d11b8482015283830152604082015260016060820152426080820152600454600160401b81101561069a57806001610625920160045561343e565b6106845761065c926106398360059361361d565b33600052600681526040600020600160ff1982541617905552604060002061361d565b337f31e760aa525306aba638a784082a013b6a1cc0a9a1789f3f22281c0453b10b1f600080a2005b634e487b7160e01b600052600060045260246000fd5b634e487b7160e01b600052604160045260246000fd5b6064906040519062461bcd60e51b82526004820152601c60248201527f596f7520616c7265616479206a6f696e6564207468652067616d6521000000006044820152fd5b34610145576020366003190112610145576004356007548110156101455761071b906133d5565b50805461072a600183016132a1565b91610737600282016132a1565b600382015491610749600482016132a1565b60058201549360068301546007840154906107c160018060a01b03600887015416936009870154956107ae600b60ff600a8b015416990154996107a06040519e8f9e8f908152610180908160208201520190613347565b8d810360408f015290613347565b9160608c01528a820360808c0152613347565b9660a089015260c088015260e087015261010086015261012085015215156101408401526101608301520390f35b3461014557600861085a610802366133bf565b61082261080e836133d5565b508501546001600160a01b031633146135c6565b61083260ff600a610405856133d5565b600a61083d836133d5565b5001805460ff191690556009610852836133d5565b5001556133d5565b500180546001600160a01b03191633179055005b34610145576000366003190112610145573360005260206005815260ff600360406000200154161561096e573360005260058152620151806108b8600460406000200154426135b9565b106109165733600052600581526002604060002001908154600a81018091116102cf5760059255336000525242600460406000200155337f6fe284d782e841b99f2a56d6a1564b2c222d1b259694856db9721519659326f1600080a2005b6084906040519062461bcd60e51b82526004820152602b60248201527f596f75206861766520616c726561647920636c61696d656420796f757220646160448201526a696c79207265776172642160a81b6064820152fd5b6064906040519062461bcd60e51b825260048201526013602482015272596f7520617265206e6f74206163746976652160681b6044820152fd5b34610145576109b6366133bf565b6109c261016a836133d5565b600a6109cd836133d5565b5001805460ff191660011790558060096109e6846133d5565b5001556040519081527f3f90625203379813fb9623a1de60ef53b769232ed539a1673d0ce181eea593bb60203392a3005b34610145576000366003190112610145576000546001600160a01b03163314610a3f81613479565b60405190610a4c826131bf565b600382526210d85d60ea1b6020830152610a646134d0565b610a8f60405192610a74846131bf565b60098452684c6567656e6461727960b81b6020850152613479565b60405192610a9c846131a3565b6001845260208401526040830152606460608301526080820152606460a0820152606460c0820152606460e08201526000610100820152606461012082015260006101408201526000610160820152600754600160401b81101561069a57806001610b0a92016007556133d5565b919091610684578051825560208101519182516001600160401b03811161069a57610b386001830154613267565b601f811161265e575b506020601f82116001146125f057819293946000926125e5575b50508160011b916000199060031b1c19161760018201555b60408201519182516001600160401b03811161069a57610b966002840154613267565b601f811161259e575b506020601f82116001146125305781929394600092612525575b50508160011b916000199060031b1c19161760028301555b6060810151600383015560808101518051906001600160401b03821161069a57610bfe6004850154613267565b601f81116124de575b50602090601f8311600114612468579180600b94926101609460009261245d575b50508160011b916000199060031b1c19161760048501555b60a0810151600585015560c0810151600685015560e0810151600785015560018060a01b03610100820151166001600160601b0360a01b6008860154161760088501556101208101516009850155610cae6101408201511515600a86019060ff801983541691151516179055565b0151910155604051610cbf816131bf565b6005815264446f67677960d81b6020820152610cd96134f0565b60405190610ce6826131bf565b60048252634570696360e01b6020830152610d0c60018060a01b03600054163314613479565b60405192610d19846131a3565b6002845260208401526040830152603260608301526080820152606460a0820152606460c0820152606460e08201526000610100820152605a61012082015260016101408201526000610160820152600754600160401b81101561069a57806001610d8792016007556133d5565b919091610684578051825560208101519182516001600160401b03811161069a57610db56001830154613267565b601f8111612416575b506020601f82116001146123a8578192939460009261239d575b50508160011b916000199060031b1c19161760018201555b60408201519182516001600160401b03811161069a57610e136002840154613267565b601f8111612356575b506020601f82116001146122e857819293946000926122dd575b50508160011b916000199060031b1c19161760028301555b6060810151600383015560808101518051906001600160401b03821161069a57610e7b6004850154613267565b601f8111612296575b50602090601f8311600114612220579180600b949261016094600092612215575b50508160011b916000199060031b1c19161760048501555b60a0810151600585015560c0810151600685015560e081015160078501556008840160018060a01b03610100830151166001600160601b0360a01b8254161790556101208101516009850155610f296101408201511515600a86019060ff801983541691151516179055565b0151910155604051610f3a816131bf565b600481526308cd2e6d60e31b6020820152610f536134d0565b610f5b613512565b90610f7160018060a01b03600054163314613479565b60405192610f7e846131a3565b6003845260208401526040830152600a60608301526080820152606460a0820152606460c0820152606460e08201526000610100820152603261012082015260016101408201526000610160820152600754600160401b81101561069a57806001610fec92016007556133d5565b919091610684578051825560208101519182516001600160401b03811161069a5761101a6001830154613267565b601f81116121ce575b506020601f82116001146121605781929394600092612155575b50508160011b916000199060031b1c19161760018201555b60408201519182516001600160401b03811161069a576110786002840154613267565b601f811161210e575b506020601f82116001146120a05781929394600092612095575b50508160011b916000199060031b1c19161760028301555b6060810151600383015560808101518051906001600160401b03821161069a576110e06004850154613267565b601f811161204e575b50602090601f8311600114611fd8579180600b949261016094600092611fcd575b50508160011b916000199060031b1c19161760048501555b60a0810151600585015560c0810151600685015560e081015160078501556008840160018060a01b03610100830151166001600160601b0360a01b825416179055610120810151600985015561118e6101408201511515600a86019060ff801983541691151516179055565b015191015560405161119f816131bf565b6006815265149858989a5d60d21b60208201526111ba6134f0565b6111c2613512565b906111d860018060a01b03600054163314613479565b604051926111e5846131a3565b6004845260208401526040830152600f60608301526080820152606460a0820152606460c0820152606460e08201526000610100820152603761012082015260016101408201526000610160820152600754600160401b81101561069a5780600161125392016007556133d5565b919091610684578051825560208101519182516001600160401b03811161069a576112816001830154613267565b601f8111611f86575b506020601f8211600114611f185781929394600092611f0d575b50508160011b916000199060031b1c19161760018201555b60408201519182516001600160401b03811161069a576112df6002840154613267565b601f8111611ec6575b506020601f8211600114611e585781929394600092611e4d575b50508160011b916000199060031b1c19161760028301555b6060810151600383015560808101518051906001600160401b03821161069a576113476004850154613267565b601f8111611e06575b50602090601f8311600114611d90579180600b949261016094600092611d85575b50508160011b916000199060031b1c19161760048501555b60a0810151600585015560c0810151600685015560e081015160078501556008840160018060a01b03610100830151166001600160601b0360a01b82541617905561012081015160098501556113f56101408201511515600a86019060ff801983541691151516179055565b0151910155604051611406816131bf565b6004815263109a5c9960e21b602082015261141f6134d0565b6040519061142c826131bf565b60048252635261726560e01b602083015261145260018060a01b03600054163314613479565b6040519261145f846131a3565b6005845260208401526040830152601e60608301526080820152606460a0820152606460c0820152606460e08201526000610100820152602861012082015260016101408201526000610160820152600754600160401b81101561069a578060016114cd92016007556133d5565b919091610684578051825560208101519182516001600160401b03811161069a576114fb6001830154613267565b601f8111611d3e575b506020601f8211600114611cd05781929394600092611cc5575b50508160011b916000199060031b1c19161760018201555b60408201519182516001600160401b03811161069a576115596002840154613267565b601f8111611c7e575b506020601f8211600114611c105781929394600092611c05575b50508160011b916000199060031b1c19161760028301555b6060810151600383015560808101518051906001600160401b03821161069a576115c16004850154613267565b601f8111611bbe575b50602090601f8311600114611b48579180600b949261016094600092611b3d575b50508160011b916000199060031b1c19161760048501555b60a0810151600585015560c0810151600685015560e081015160078501556008840160018060a01b03610100830151166001600160601b0360a01b825416179055610120810151600985015561166f6101408201511515600a86019060ff801983541691151516179055565b0151910155604051611680816131bf565b600881526723babb32b931b4b760c11b602082015261169d6134d0565b604051906116aa826131bf565b600782526654616b6c61636960c81b60208301526116d360018060a01b03600054163314613479565b604051926116e0846131a3565b6006845260208401526040830152600160608301526080820152606460a0820152606460c0820152606460e08201526000610100820152600161012082015260016101408201526000610160820152600754600160401b81101561069a5780600161174e92016007556133d5565b919091610684578051825560208101519182516001600160401b03811161069a5761177c6001830154613267565b601f8111611af6575b506020601f8211600114611a8a5781929394600092611a7f575b50508160011b916000199060031b1c19161760018201555b60408201519182516001600160401b03811161069a576117da6002840154613267565b601f8111611a38575b506020601f82116001146119ca57819293946000926119bf575b50508160011b916000199060031b1c19161760028301555b6060810151600383015560808101518051906001600160401b03821161069a576118426004850154613267565b601f8111611978575b50602090601f8311600114611902579180600b9492610160946000926118f7575b50508160011b916000199060031b1c19161760048501555b60a0810151600585015560c0810151600685015560e081015160078501556008840160018060a01b03610100830151166001600160601b0360a01b82541617905561012081015160098501556118f06101408201511515600a86019060ff801983541691151516179055565b0151910155005b01519050868061186c565b906004850160005260206000209160005b601f1985168110611960575092600b94926001926101609583601f19811610611947575b505050811b016004850155611884565b015160001960f88460031b161c19169055868080611937565b91926020600181928685015181550194019201611913565b600485016000526020600020601f840160051c8101602085106119b8575b601f830160051c820181106119ac57505061184b565b60008155600101611996565b5080611996565b0151905084806117fd565b6002840160005260206000209060005b601f1984168110611a205750600193949583601f19811610611a07575b505050811b016002830155611815565b015160001960f88460031b161c191690558480806119f7565b9091602060018192858a0151815501930191016119da565b600284016000526020600020601f830160051c810160208410611a78575b601f830160051c82018110611a6c5750506117e3565b60008155600101611a56565b5080611a56565b01519050848061179f565b600183016000526020600020906000601f198416905b818110611ade57509583600195969710611ac5575b505050811b0160018201556117b7565b015160001960f88460031b161c19169055848080611ab5565b9192602060018192868b015181550194019201611aa0565b600183016000526020600020601f830160051c810160208410611b36575b601f830160051c82018110611b2a575050611785565b60008155600101611b14565b5080611b14565b0151905086806115eb565b906004850160005260206000209160005b601f1985168110611ba6575092600b94926001926101609583601f19811610611b8d575b505050811b016004850155611603565b015160001960f88460031b161c19169055868080611b7d565b91926020600181928685015181550194019201611b59565b600485016000526020600020601f840160051c810160208510611bfe575b601f830160051c82018110611bf25750506115ca565b60008155600101611bdc565b5080611bdc565b01519050848061157c565b6002840160005260206000209060005b601f1984168110611c665750600193949583601f19811610611c4d575b505050811b016002830155611594565b015160001960f88460031b161c19169055848080611c3d565b9091602060018192858a015181550193019101611c20565b600284016000526020600020601f830160051c810160208410611cbe575b601f830160051c82018110611cb2575050611562565b60008155600101611c9c565b5080611c9c565b01519050848061151e565b6001830160005260206000209060005b601f1984168110611d265750600193949583601f19811610611d0d575b505050811b016001820155611536565b015160001960f88460031b161c19169055848080611cfd565b9091602060018192858a015181550193019101611ce0565b600183016000526020600020601f830160051c810160208410611d7e575b601f830160051c82018110611d72575050611504565b60008155600101611d5c565b5080611d5c565b015190508680611371565b906004850160005260206000209160005b601f1985168110611dee575092600b94926001926101609583601f19811610611dd5575b505050811b016004850155611389565b015160001960f88460031b161c19169055868080611dc5565b91926020600181928685015181550194019201611da1565b600485016000526020600020601f840160051c810160208510611e46575b601f830160051c82018110611e3a575050611350565b60008155600101611e24565b5080611e24565b015190508480611302565b6002840160005260206000209060005b601f1984168110611eae5750600193949583601f19811610611e95575b505050811b01600283015561131a565b015160001960f88460031b161c19169055848080611e85565b9091602060018192858a015181550193019101611e68565b600284016000526020600020601f830160051c810160208410611f06575b601f830160051c82018110611efa5750506112e8565b60008155600101611ee4565b5080611ee4565b0151905084806112a4565b6001830160005260206000209060005b601f1984168110611f6e5750600193949583601f19811610611f55575b505050811b0160018201556112bc565b015160001960f88460031b161c19169055848080611f45565b9091602060018192858a015181550193019101611f28565b600183016000526020600020601f830160051c810160208410611fc6575b601f830160051c82018110611fba57505061128a565b60008155600101611fa4565b5080611fa4565b01519050868061110a565b906004850160005260206000209160005b601f1985168110612036575092600b94926001926101609583601f1981161061201d575b505050811b016004850155611122565b015160001960f88460031b161c1916905586808061200d565b91926020600181928685015181550194019201611fe9565b600485016000526020600020601f840160051c81016020851061208e575b601f830160051c820181106120825750506110e9565b6000815560010161206c565b508061206c565b01519050848061109b565b6002840160005260206000209060005b601f19841681106120f65750600193949583601f198116106120dd575b505050811b0160028301556110b3565b015160001960f88460031b161c191690558480806120cd565b9091602060018192858a0151815501930191016120b0565b600284016000526020600020601f830160051c81016020841061214e575b601f830160051c82018110612142575050611081565b6000815560010161212c565b508061212c565b01519050848061103d565b6001830160005260206000209060005b601f19841681106121b65750600193949583601f1981161061219d575b505050811b016001820155611055565b015160001960f88460031b161c1916905584808061218d565b9091602060018192858a015181550193019101612170565b600183016000526020600020601f830160051c81016020841061220e575b601f830160051c82018110612202575050611023565b600081556001016121ec565b50806121ec565b015190508680610ea5565b906004850160005260206000209160005b601f198516811061227e575092600b94926001926101609583601f19811610612265575b505050811b016004850155610ebd565b015160001960f88460031b161c19169055868080612255565b91926020600181928685015181550194019201612231565b600485016000526020600020601f840160051c8101602085106122d6575b601f830160051c820181106122ca575050610e84565b600081556001016122b4565b50806122b4565b015190508480610e36565b6002840160005260206000209060005b601f198416811061233e5750600193949583601f19811610612325575b505050811b016002830155610e4e565b015160001960f88460031b161c19169055848080612315565b9091602060018192858a0151815501930191016122f8565b600284016000526020600020601f830160051c810160208410612396575b601f830160051c8201811061238a575050610e1c565b60008155600101612374565b5080612374565b015190508480610dd8565b6001830160005260206000209060005b601f19841681106123fe5750600193949583601f198116106123e5575b505050811b016001820155610df0565b015160001960f88460031b161c191690558480806123d5565b9091602060018192858a0151815501930191016123b8565b600183016000526020600020601f830160051c810160208410612456575b601f830160051c8201811061244a575050610dbe565b60008155600101612434565b5080612434565b015190508680610c28565b906004850160005260206000209160005b601f19851681106124c6575092600b94926001926101609583601f198116106124ad575b505050811b016004850155610c40565b015160001960f88460031b161c1916905586808061249d565b91926020600181928685015181550194019201612479565b600485016000526020600020601f840160051c81016020851061251e575b601f830160051c82018110612512575050610c07565b600081556001016124fc565b50806124fc565b015190508480610bb9565b6002840160005260206000209060005b601f19841681106125865750600193949583601f1981161061256d575b505050811b016002830155610bd1565b015160001960f88460031b161c1916905584808061255d565b9091602060018192858a015181550193019101612540565b600284016000526020600020601f830160051c8101602084106125de575b601f830160051c820181106125d2575050610b9f565b600081556001016125bc565b50806125bc565b015190508480610b5b565b6001830160005260206000209060005b601f19841681106126465750600193949583601f1981161061262d575b505050811b016001820155610b73565b015160001960f88460031b161c1916905584808061261d565b9091602060018192858a015181550193019101612600565b600183016000526020600020601f830160051c81016020841061269e575b601f830160051c82018110612692575050610b41565b6000815560010161267c565b508061267c565b346101455760208060031936011261014557600435906126cb60ff600a610405856133d5565b33600052600581526126f460026040600020015460096126ea856133d5565b5001541115613577565b6126fd826133d5565b50600801546001600160a01b03908116331461291657600861271e846133d5565b50015416600961272d846133d5565b500154336000526005835261274b60026040600020019182546135b9565b90556009612758846133d5565b5001548160005260058352600260406000200180549182018092116102cf5755906008612784846133d5565b500180546001600160a01b03191633179055600a6127a1846133d5565b500160ff1981541690558160005260088152604060002083600052815260006040812055336000526008815260406000208360005281526001918260406000205560005260098152604060002090826000905b61286b575b506009915033600052526040600020805491600160401b83101561069a5782849261282a9261284395018155613426565b90919082549060031b91821b91600019901b1916179055565b337f87b964eb5a2c9bec2a555f2dab828a37bf9c62ed6d24158233c27783ad6484d3600080a3005b8483548083101561290f576128808386613426565b929054600393841b1c146128a157505060001981146102cf578301836127f4565b6000199491928186019182116102cf5761282a6128c16128ce9385613426565b905490861b1c9184613426565b80549384156128f9578060099501926128e78484613426565b81939154921b1b1916905555846127f9565b634e487b7160e01b600052603160045260246000fd5b50506127f9565b60405162461bcd60e51b815260048101839052601960248201527f596f7520616c7265616479206f776e20746869732070657421000000000000006044820152606490fd5b34610145576000366003190112610145576000546040516001600160a01b039091168152602090f35b34610145576020366003190112610145576001600160a01b036129a5613251565b166000526006602052602060ff604060002054166040519015158152f35b34610145576040366003190112610145576001600160a01b036129e4613251565b16600052600860205260406000206024356000526020526020604060002054604051908152f35b3461014557602036600319011261014557612a3160018060a01b03600054163314613479565b600435600155005b346101455760003660031901126101455760078054906001600160401b03821161069a57604051906020600593612a748282871b01856131da565b8084526000838152828501937fa66cc928b5edb82af9bd49922954155ab7b0942694bea4ce44661d9a8736c68890855b848410612ba5575050505050604051928184019082855251809152604081818601961b85010192916000955b828710612add5785850386f35b909192938280600192603f1989820301855287519081518152612b42612b25612b13858501516101808088870152850190613347565b60408501518482036040860152613347565b606080850151908401526080808501519084830390850152613347565b9160a0808201519083015260c0808201519083015260e081015160e0830152610100868060a01b03818301511690830152610120808201519083015261014080820151151590830152610160809101519101529601920196019592919092612ad0565b600c8660019260409a989a51612bba816131a3565b86548152612bc98588016132a1565b83820152612bd9600288016132a1565b604082015260038701546060820152612bf4600488016132a1565b60808201528c87015460a0820152600687015460c08201528587015460e0820152848060a01b03600888015416610100820152600987015461012082015260ff600a880154161515610140820152600b870154610160820152815201930193019291969496612aa4565b34610145576020366003190112610145576001600160a01b0380612c80613251565b166000526005602052604060002090815416610379610358600184016132a1565b3461014557610180366003190112610145576024356001600160401b03811161014557612cd29036906004016131fb565b6044356001600160401b03811161014557612cf19036906004016131fb565b6084356001600160401b03811161014557612d109036906004016131fb565b610104356001600160a01b038116919082900361014557610144359283151580940361014557612d4b60018060a01b03600054163314613479565b60405194612d58866131a3565b6004358652602086015260408501526064356060850152608084015260a43560a084015260c43560c084015260e43560e0840152610100830152610124356101208301526101408201526000610160820152600754600160401b81101561069a57806001612dc992016007556133d5565b919091610684578051825560208101519182516001600160401b03811161069a57612df76001830154613267565b601f8111613141575b506020601f82116001146130d557819293946000926130ca575b50508160011b916000199060031b1c19161760018201555b60408201519182516001600160401b03811161069a57612e556002840154613267565b601f8111613083575b506020601f8211600114613015578192939460009261300a575b50508160011b916000199060031b1c19161760028301555b6060810151600383015560808101518051906001600160401b03821161069a57612ebd6004850154613267565b601f8111612fc3575b50602090601f8311600114612f69579180600b9492610160946000926118f75750508160011b916000199060031b1c191617600485015560a0810151600585015560c0810151600685015560e081015160078501556008840160018060a01b03610100830151166001600160601b0360a01b82541617905561012081015160098501556118f06101408201511515600a86019060ff801983541691151516179055565b90601f198316916004860160005260206000209260005b818110612fab575092600192859261016096600b98961061194757505050811b016004850155611884565b92936020600181928786015181550195019301612f80565b600485016000526020600020601f840160051c810160208510613003575b601f830160051c82018110612ff7575050612ec6565b60008155600101612fe1565b5080612fe1565b015190508480612e78565b6002840160005260206000209060005b601f198416811061306b5750600193949583601f19811610613052575b505050811b016002830155612e90565b015160001960f88460031b161c19169055848080613042565b9091602060018192858a015181550193019101613025565b600284016000526020600020601f830160051c8101602084106130c3575b601f830160051c820181106130b7575050612e5e565b600081556001016130a1565b50806130a1565b015190508480612e1a565b600183016000526020600020906000601f198416905b81811061312957509583600195969710613110575b505050811b016001820155612e32565b015160001960f88460031b161c19169055848080613100565b9192602060018192868b0151815501940192016130eb565b600183016000526020600020601f830160051c810160208410613181575b601f830160051c82018110613175575050612e00565b6000815560010161315f565b508061315f565b34610145576000366003190112610145576020906001548152f35b61018081019081106001600160401b0382111761069a57604052565b604081019081106001600160401b0382111761069a57604052565b90601f801991011681019081106001600160401b0382111761069a57604052565b81601f82011215610145578035906001600160401b03821161069a576040519261322f601f8401601f1916602001856131da565b8284526020838301011161014557816000926020809301838601378301015290565b600435906001600160a01b038216820361014557565b90600182811c92168015613297575b602083101461328157565b634e487b7160e01b600052602260045260246000fd5b91607f1691613276565b90604051918260008254926132b584613267565b90818452600194858116908160001461332457506001146132e1575b50506132df925003836131da565b565b9093915060005260209081600020936000915b81831061330c5750506132df935082010138806132d1565b855488840185015294850194879450918301916132f4565b9150506132df94506020925060ff191682840152151560051b82010138806132d1565b919082519283825260005b848110613373575050826000602080949584010152601f8019910116010190565b602081830181015184830182015201613352565b916133ae906080949796959260018060a01b0316845260a0602085015260a0840190613347565b956040830152151560608201520152565b6040906003190112610145576004359060243590565b60075481101561341057600c906007600052027fa66cc928b5edb82af9bd49922954155ab7b0942694bea4ce44661d9a8736c6880190600090565b634e487b7160e01b600052603260045260246000fd5b80548210156134105760005260206000200190600090565b600454811015613410576005906004600052027f8a35acfbc15ff81a39ae7d344fd709f28e8600b4aa8c65c6b64bfe7fe36bd19b0190600090565b1561348057565b60405162461bcd60e51b815260206004820152602260248201527f4f6e6c79206f776e65722063616e2063616c6c20746869732066756e6374696f6044820152616e2160f01b6064820152608490fd5b604051906134dd826131bf565b60048252634d616c6560e01b6020830152565b604051906134fd826131bf565b600682526546656d616c6560d01b6020830152565b6040519061351f826131bf565b600682526521b7b6b6b7b760d11b6020830152565b1561353b57565b60405162461bcd60e51b8152602060048201526014602482015273506574206973206e6f7420666f722073616c652160601b6044820152606490fd5b1561357e57565b60405162461bcd60e51b81526020600482015260136024820152724e6f7420656e6f7567682062616c616e63652160681b6044820152606490fd5b919082039182116102cf57565b156135cd57565b60405162461bcd60e51b815260206004820152602260248201527f596f7520617265206e6f7420746865206f776e6572206f662074686973207065604482015261742160f01b6064820152608490fd5b9060018060a01b038151166001600160601b0360a01b835416178255600190818301602080830151938451916001600160401b03831161069a576136618454613267565b601f8111613748575b5080601f84116001146136d957509180809260809695946004986000946136ce575b50501b916000199060031b1c19161790555b604081015160028501556136c760608201511515600386019060ff801983541691151516179055565b0151910155565b01519250388061368c565b91939495601f1984168660005283600020936000905b8282106137315750509160049795939185608098969410613718575b505050811b01905561369e565b015160001960f88460031b161c1916905538808061370b565b8088869782949787015181550196019401906136ef565b6000858152828120601f860160051c810192848710613787575b601f0160051c019184905b83811061377c5750505061366a565b82815501849061376d565b909250829061376256fea2646970667358221220631111cae3767e76c066639f32fe151feca45a542d021e31894d5f47159a3f0064736f6c63430008140033",
  "linkReferences": {},
  "deployedLinkReferences": {}
}