{
  "_format": "hh-sol-artifact-1",
  "contractName": "TradingGame",
  "sourceName": "contracts/TradingGame.sol",
  "abi": [
    {
      "inputs": [
        {
          "internalType": "contract IERC20",
          "name": "_token",
          "type": "address"
        }
      ],
      "stateMutability": "nonpayable",
      "type": "constructor"
    },
    {
      "anonymous": false,
      "inputs": [
        {
          "indexed": true,
          "internalType": "address",
          "name": "player",
          "type": "address"
        },
        {
          "indexed": true,
          "internalType": "uint256",
          "name": "petId",
          "type": "uint256"
        }
      ],
      "name": "PetBought",
      "type": "event"
    },
    {
      "anonymous": false,
      "inputs": [
        {
          "indexed": true,
          "internalType": "address",
          "name": "player",
          "type": "address"
        },
        {
          "indexed": true,
          "internalType": "uint256",
          "name": "petId",
          "type": "uint256"
        }
      ],
      "name": "PetCanceledForSale",
      "type": "event"
    },
    {
      "anonymous": false,
      "inputs": [
        {
          "indexed": true,
          "internalType": "address",
          "name": "player",
          "type": "address"
        },
        {
          "indexed": true,
          "internalType": "uint256",
          "name": "petId",
          "type": "uint256"
        }
      ],
      "name": "PetFed",
      "type": "event"
    },
    {
      "anonymous": false,
      "inputs": [
        {
          "indexed": true,
          "internalType": "address",
          "name": "player",
          "type": "address"
        },
        {
          "indexed": true,
          "internalType": "uint256",
          "name": "petId",
          "type": "uint256"
        },
        {
          "indexed": false,
          "internalType": "uint256",
          "name": "price",
          "type": "uint256"
        }
      ],
      "name": "PetForSale",
      "type": "event"
    },
    {
      "anonymous": false,
      "inputs": [
        {
          "indexed": true,
          "internalType": "address",
          "name": "player",
          "type": "address"
        },
        {
          "indexed": true,
          "internalType": "uint256",
          "name": "petId",
          "type": "uint256"
        }
      ],
      "name": "PetLiked",
      "type": "event"
    },
    {
      "anonymous": false,
      "inputs": [
        {
          "indexed": true,
          "internalType": "address",
          "name": "player",
          "type": "address"
        },
        {
          "indexed": true,
          "internalType": "uint256",
          "name": "petId",
          "type": "uint256"
        },
        {
          "indexed": false,
          "internalType": "uint256",
          "name": "price",
          "type": "uint256"
        }
      ],
      "name": "PetSold",
      "type": "event"
    },
    {
      "anonymous": false,
      "inputs": [
        {
          "indexed": true,
          "internalType": "address",
          "name": "player",
          "type": "address"
        }
      ],
      "name": "PlayerJoined",
      "type": "event"
    },
    {
      "inputs": [
        {
          "internalType": "uint256",
          "name": "_id",
          "type": "uint256"
        },
        {
          "internalType": "string",
          "name": "_name",
          "type": "string"
        },
        {
          "internalType": "string",
          "name": "_gender",
          "type": "string"
        },
        {
          "internalType": "uint256",
          "name": "_level",
          "type": "uint256"
        },
        {
          "internalType": "string",
          "name": "_types",
          "type": "string"
        },
        {
          "internalType": "uint256",
          "name": "_hunger",
          "type": "uint256"
        },
        {
          "internalType": "uint256",
          "name": "_hapiness",
          "type": "uint256"
        },
        {
          "internalType": "uint256",
          "name": "_health",
          "type": "uint256"
        },
        {
          "internalType": "address",
          "name": "_owner",
          "type": "address"
        },
        {
          "internalType": "uint256",
          "name": "_price",
          "type": "uint256"
        },
        {
          "internalType": "bool",
          "name": "_isForSale",
          "type": "bool"
        },
        {
          "internalType": "uint256",
          "name": "_likes",
          "type": "uint256"
        }
      ],
      "name": "addPet",
      "outputs": [],
      "stateMutability": "nonpayable",
      "type": "function"
    },
    {
      "inputs": [
        {
          "internalType": "uint256",
          "name": "_petId",
          "type": "uint256"
        }
      ],
      "name": "buyPet",
      "outputs": [],
      "stateMutability": "payable",
      "type": "function"
    },
    {
      "inputs": [
        {
          "internalType": "uint256",
          "name": "_petId",
          "type": "uint256"
        }
      ],
      "name": "cancelPetSale",
      "outputs": [],
      "stateMutability": "nonpayable",
      "type": "function"
    },
    {
      "inputs": [],
      "name": "defaultPets",
      "outputs": [],
      "stateMutability": "nonpayable",
      "type": "function"
    },
    {
      "inputs": [],
      "name": "entryFee",
      "outputs": [
        {
          "internalType": "uint256",
          "name": "",
          "type": "uint256"
        }
      ],
      "stateMutability": "view",
      "type": "function"
    },
    {
      "inputs": [
        {
          "internalType": "uint256",
          "name": "_petId",
          "type": "uint256"
        }
      ],
      "name": "feedPet",
      "outputs": [],
      "stateMutability": "nonpayable",
      "type": "function"
    },
    {
      "inputs": [],
      "name": "gameFee",
      "outputs": [
        {
          "internalType": "uint256",
          "name": "",
          "type": "uint256"
        }
      ],
      "stateMutability": "view",
      "type": "function"
    },
    {
      "inputs": [],
      "name": "getAllPets",
      "outputs": [
        {
          "components": [
            {
              "internalType": "uint256",
              "name": "id",
              "type": "uint256"
            },
            {
              "internalType": "string",
              "name": "name",
              "type": "string"
            },
            {
              "internalType": "string",
              "name": "gender",
              "type": "string"
            },
            {
              "internalType": "uint256",
              "name": "level",
              "type": "uint256"
            },
            {
              "internalType": "string",
              "name": "types",
              "type": "string"
            },
            {
              "internalType": "uint256",
              "name": "hunger",
              "type": "uint256"
            },
            {
              "internalType": "uint256",
              "name": "hapiness",
              "type": "uint256"
            },
            {
              "internalType": "uint256",
              "name": "health",
              "type": "uint256"
            },
            {
              "internalType": "address",
              "name": "owner",
              "type": "address"
            },
            {
              "internalType": "uint256",
              "name": "price",
              "type": "uint256"
            },
            {
              "internalType": "bool",
              "name": "isForSale",
              "type": "bool"
            },
            {
              "internalType": "uint256",
              "name": "likes",
              "type": "uint256"
            }
          ],
          "internalType": "struct TradingGame.Pet[]",
          "name": "",
          "type": "tuple[]"
        }
      ],
      "stateMutability": "view",
      "type": "function"
    },
    {
      "inputs": [
        {
          "internalType": "address",
          "name": "_playerAddress",
          "type": "address"
        },
        {
          "internalType": "uint256",
          "name": "_petId",
          "type": "uint256"
        }
      ],
      "name": "getPlayerPetBalance",
      "outputs": [
        {
          "internalType": "uint256",
          "name": "",
          "type": "uint256"
        }
      ],
      "stateMutability": "view",
      "type": "function"
    },
    {
      "inputs": [
        {
          "internalType": "address",
          "name": "",
          "type": "address"
        }
      ],
      "name": "hasJoined",
      "outputs": [
        {
          "internalType": "bool",
          "name": "",
          "type": "bool"
        }
      ],
      "stateMutability": "view",
      "type": "function"
    },
    {
      "inputs": [],
      "name": "joinGame",
      "outputs": [],
      "stateMutability": "payable",
      "type": "function"
    },
    {
      "inputs": [
        {
          "internalType": "uint256",
          "name": "_petId",
          "type": "uint256"
        }
      ],
      "name": "likePet",
      "outputs": [],
      "stateMutability": "payable",
      "type": "function"
    },
    {
      "inputs": [],
      "name": "owner",
      "outputs": [
        {
          "internalType": "address",
          "name": "",
          "type": "address"
        }
      ],
      "stateMutability": "view",
      "type": "function"
    },
    {
      "inputs": [
        {
          "internalType": "uint256",
          "name": "_petId",
          "type": "uint256"
        },
        {
          "internalType": "uint256",
          "name": "_price",
          "type": "uint256"
        }
      ],
      "name": "petForSale",
      "outputs": [],
      "stateMutability": "nonpayable",
      "type": "function"
    },
    {
      "inputs": [
        {
          "internalType": "uint256",
          "name": "",
          "type": "uint256"
        }
      ],
      "name": "pets",
      "outputs": [
        {
          "internalType": "uint256",
          "name": "id",
          "type": "uint256"
        },
        {
          "internalType": "string",
          "name": "name",
          "type": "string"
        },
        {
          "internalType": "string",
          "name": "gender",
          "type": "string"
        },
        {
          "internalType": "uint256",
          "name": "level",
          "type": "uint256"
        },
        {
          "internalType": "string",
          "name": "types",
          "type": "string"
        },
        {
          "internalType": "uint256",
          "name": "hunger",
          "type": "uint256"
        },
        {
          "internalType": "uint256",
          "name": "hapiness",
          "type": "uint256"
        },
        {
          "internalType": "uint256",
          "name": "health",
          "type": "uint256"
        },
        {
          "internalType": "address",
          "name": "owner",
          "type": "address"
        },
        {
          "internalType": "uint256",
          "name": "price",
          "type": "uint256"
        },
        {
          "internalType": "bool",
          "name": "isForSale",
          "type": "bool"
        },
        {
          "internalType": "uint256",
          "name": "likes",
          "type": "uint256"
        }
      ],
      "stateMutability": "view",
      "type": "function"
    },
    {
      "inputs": [
        {
          "internalType": "address",
          "name": "",
          "type": "address"
        }
      ],
      "name": "playerInfo",
      "outputs": [
        {
          "internalType": "address",
          "name": "playerAddress",
          "type": "address"
        },
        {
          "internalType": "string",
          "name": "name",
          "type": "string"
        },
        {
          "internalType": "uint256",
          "name": "balance",
          "type": "uint256"
        },
        {
          "internalType": "bool",
          "name": "isActive",
          "type": "bool"
        }
      ],
      "stateMutability": "view",
      "type": "function"
    },
    {
      "inputs": [
        {
          "internalType": "address",
          "name": "",
          "type": "address"
        },
        {
          "internalType": "uint256",
          "name": "",
          "type": "uint256"
        }
      ],
      "name": "playerPet",
      "outputs": [
        {
          "internalType": "uint256",
          "name": "",
          "type": "uint256"
        }
      ],
      "stateMutability": "view",
      "type": "function"
    },
    {
      "inputs": [
        {
          "internalType": "address",
          "name": "",
          "type": "address"
        },
        {
          "internalType": "uint256",
          "name": "",
          "type": "uint256"
        }
      ],
      "name": "playerPetIds",
      "outputs": [
        {
          "internalType": "uint256",
          "name": "",
          "type": "uint256"
        }
      ],
      "stateMutability": "view",
      "type": "function"
    },
    {
      "inputs": [
        {
          "internalType": "uint256",
          "name": "",
          "type": "uint256"
        }
      ],
      "name": "players",
      "outputs": [
        {
          "internalType": "address",
          "name": "playerAddress",
          "type": "address"
        },
        {
          "internalType": "string",
          "name": "name",
          "type": "string"
        },
        {
          "internalType": "uint256",
          "name": "balance",
          "type": "uint256"
        },
        {
          "internalType": "bool",
          "name": "isActive",
          "type": "bool"
        }
      ],
      "stateMutability": "view",
      "type": "function"
    },
    {
      "inputs": [
        {
          "internalType": "uint256",
          "name": "_fee",
          "type": "uint256"
        }
      ],
      "name": "setFee",
      "outputs": [],
      "stateMutability": "nonpayable",
      "type": "function"
    },
    {
      "inputs": [],
      "name": "token",
      "outputs": [
        {
          "internalType": "contract IERC20",
          "name": "",
          "type": "address"
        }
      ],
      "stateMutability": "view",
      "type": "function"
    }
  ],
  "bytecode": "0x6080346200009357601f6200367d38819003918201601f19168301916001600160401b0383118484101762000098578084926020946040528339810103126200009357516001600160a01b038116908190036200009357662386f26fc10000600155633b9aca0060025560018060a01b03193381600054161760005560035416176003556040516135ce9081620000af8239f35b600080fd5b634e487b7160e01b600052604160045260246000fdfe608080604052600436101561001357600080fd5b60003560e01c908163072ea61c14612fb1575080630c596d9114612aca5780631080d30f146127ec5780634b11469114612a875780635b236d971461286257806369fe0e2d146128345780637781b86b146127ec578063877f4e12146127ad5780638da5cb5b146127845780639edded11146124d3578063c8c9bd2814610845578063c9275220146107cd578063cfb869bf146106d2578063d4f77b1c14610562578063de440fe91461044d578063ea777eec1461042f578063f3cd7add146103b9578063f6a1cf9114610361578063f71d96cb14610300578063fbfabac4146101345763fc0c546a1461010657600080fd5b3461012f57600036600319011261012f576003546040516001600160a01b039091168152602090f35b600080fd5b3461012f57602036600319011261012f57600435610169610154826131e3565b50600801546001600160a01b031633146133d3565b6005610174826131e3565b506064918291015410156102cf57600361018d836131e3565b5001548060011b90808204600214901517156102b9573360005260056020526101c0816002604060002001541015613384565b3360005260056020526101dc60026040600020019182546133c6565b905560056101e9836131e3565b500180546009198101919082116102b957556007610206836131e3565b5001805490600a82018092116102b957556006610222836131e3565b5001805490600a82018092116102b9575561023c826131e3565b505080600761024a846131e3565b500154116102a5575b80600661025f846131e3565b50015411610291575b50337f9ef3ef96a69917dbd3b0809769d9f6728750e08ab778d8fbf3ea05b2ac7a9438600080a3005b600661029c836131e3565b50015581610268565b8060076102b1846131e3565b500155610253565b634e487b7160e01b600052601160045260246000fd5b60405162461bcd60e51b815260206004820152600c60248201526b5065742069732066756c6c2160a01b6044820152fd5b3461012f57602036600319011261012f5760043560045481101561012f576103279061324c565b5080546001600160a01b031661035d610342600184016130ca565b9260ff600360028301549201541690604051948594856131b0565b0390f35b3461012f57604036600319011261012f5761037a61307a565b6001600160a01b031660009081526009602052604090208054602435919082101561012f576020916103ab91613234565b90546040519160031b1c8152f35b3461012f57602036600319011261012f576004356103d9610154826131e3565b6103f260ff600a6103e9846131e3565b50015416613341565b600a6103fd826131e3565b5001805460ff19169055337f1f76122ceba009bc563ff10d1bb29fcd3211e178931624d631121a877dd7fde4600080a3005b3461012f57600036600319011261012f576020600254604051908152f35b602036600319011261012f57600435610465816131e3565b50600801546001600160a01b0316331461051d576007548110156104e757600b61048e826131e3565b5001805490600182018092116102b957553360005260056020526002604060002001805490600582018092116102b95755337f608b673d19f28498e8e55664ba7500d0b17e731a244de245f1cd25a32eec2e4f600080a3005b60405162461bcd60e51b815260206004820152600e60248201526d506574206e6f7420666f756e642160901b6044820152606490fd5b60405162461bcd60e51b815260206004820152601e60248201527f596f752063616e206e6f74206c696b6520796f7572206f776e207065742100006044820152606490fd5b600036600319011261012f5761057c600154341015613384565b3360005260206006815260ff6040600020541661068e5760025460405190608082018281106001600160401b03821117610678576040523382526040516105c281612fe8565b6006815265283630bcb2b960d11b8482015283830152604082015260016060820152600454600160401b81101561067857806001610603920160045561324c565b6106625761063a926106178360059361342a565b33600052600681526040600020600160ff1982541617905552604060002061342a565b337f31e760aa525306aba638a784082a013b6a1cc0a9a1789f3f22281c0453b10b1f600080a2005b634e487b7160e01b600052600060045260246000fd5b634e487b7160e01b600052604160045260246000fd5b6064906040519062461bcd60e51b82526004820152601c60248201527f596f7520616c7265616479206a6f696e6564207468652067616d6521000000006044820152fd5b3461012f57602036600319011261012f5760043560075481101561012f576106f9906131e3565b508054610708600183016130ca565b91610715600282016130ca565b600382015491610727600482016130ca565b600582015493600683015460078401549061079f60018060a01b036008870154169360098701549561078c600b60ff600a8b0154169901549961077e6040519e8f9e8f908152610180908160208201520190613170565b8d810360408f015290613170565b9160608c01528a820360808c0152613170565b9660a089015260c088015260e087015261010086015261012085015215156101408401526101608301520390f35b3461012f57604036600319011261012f576004356024356107f0610154836131e3565b600a6107fb836131e3565b5001805460ff19166001179055806009610814846131e3565b5001556040519081527f3f90625203379813fb9623a1de60ef53b769232ed539a1673d0ce181eea593bb60203392a3005b3461012f57600036600319011261012f576000546001600160a01b0316331461086d81613286565b6040519061087a82612fe8565b600382526210d85d60ea1b60208301526108926132dd565b6108bd604051926108a284612fe8565b60098452684c6567656e6461727960b81b6020850152613286565b604051926108ca84612fcc565b6001845260208401526040830152606460608301526080820152606460a0820152606460c0820152606460e08201526000610100820152606461012082015260006101408201526000610160820152600754600160401b8110156106785780600161093892016007556131e3565b919091610662578051825560208101519182516001600160401b038111610678576109666001830154613090565b601f811161248c575b506020601f821160011461241e5781929394600092612413575b50508160011b916000199060031b1c19161760018201555b60408201519182516001600160401b038111610678576109c46002840154613090565b601f81116123cc575b506020601f821160011461235e5781929394600092612353575b50508160011b916000199060031b1c19161760028301555b6060810151600383015560808101518051906001600160401b03821161067857610a2c6004850154613090565b601f811161230c575b50602090601f8311600114612296579180600b94926101609460009261228b575b50508160011b916000199060031b1c19161760048501555b60a0810151600585015560c0810151600685015560e0810151600785015560018060a01b03610100820151166001600160601b0360a01b6008860154161760088501556101208101516009850155610adc6101408201511515600a86019060ff801983541691151516179055565b0151910155604051610aed81612fe8565b6005815264446f67677960d81b6020820152610b076132fd565b60405190610b1482612fe8565b60048252634570696360e01b6020830152610b3a60018060a01b03600054163314613286565b60405192610b4784612fcc565b6002845260208401526040830152603260608301526080820152606460a0820152606460c0820152606460e08201526000610100820152605a61012082015260016101408201526000610160820152600754600160401b81101561067857806001610bb592016007556131e3565b919091610662578051825560208101519182516001600160401b03811161067857610be36001830154613090565b601f8111612244575b506020601f82116001146121d657819293946000926121cb575b50508160011b916000199060031b1c19161760018201555b60408201519182516001600160401b03811161067857610c416002840154613090565b601f8111612184575b506020601f8211600114612116578192939460009261210b575b50508160011b916000199060031b1c19161760028301555b6060810151600383015560808101518051906001600160401b03821161067857610ca96004850154613090565b601f81116120c4575b50602090601f831160011461204e579180600b949261016094600092612043575b50508160011b916000199060031b1c19161760048501555b60a0810151600585015560c0810151600685015560e081015160078501556008840160018060a01b03610100830151166001600160601b0360a01b8254161790556101208101516009850155610d576101408201511515600a86019060ff801983541691151516179055565b0151910155604051610d6881612fe8565b600481526308cd2e6d60e31b6020820152610d816132dd565b610d8961331f565b90610d9f60018060a01b03600054163314613286565b60405192610dac84612fcc565b6003845260208401526040830152600a60608301526080820152606460a0820152606460c0820152606460e08201526000610100820152603261012082015260016101408201526000610160820152600754600160401b81101561067857806001610e1a92016007556131e3565b919091610662578051825560208101519182516001600160401b03811161067857610e486001830154613090565b601f8111611ffc575b506020601f8211600114611f8e5781929394600092611f83575b50508160011b916000199060031b1c19161760018201555b60408201519182516001600160401b03811161067857610ea66002840154613090565b601f8111611f3c575b506020601f8211600114611ece5781929394600092611ec3575b50508160011b916000199060031b1c19161760028301555b6060810151600383015560808101518051906001600160401b03821161067857610f0e6004850154613090565b601f8111611e7c575b50602090601f8311600114611e06579180600b949261016094600092611dfb575b50508160011b916000199060031b1c19161760048501555b60a0810151600585015560c0810151600685015560e081015160078501556008840160018060a01b03610100830151166001600160601b0360a01b8254161790556101208101516009850155610fbc6101408201511515600a86019060ff801983541691151516179055565b0151910155604051610fcd81612fe8565b6006815265149858989a5d60d21b6020820152610fe86132fd565b610ff061331f565b9061100660018060a01b03600054163314613286565b6040519261101384612fcc565b6004845260208401526040830152600f60608301526080820152606460a0820152606460c0820152606460e08201526000610100820152603761012082015260016101408201526000610160820152600754600160401b8110156106785780600161108192016007556131e3565b919091610662578051825560208101519182516001600160401b038111610678576110af6001830154613090565b601f8111611db4575b506020601f8211600114611d465781929394600092611d3b575b50508160011b916000199060031b1c19161760018201555b60408201519182516001600160401b0381116106785761110d6002840154613090565b601f8111611cf4575b506020601f8211600114611c865781929394600092611c7b575b50508160011b916000199060031b1c19161760028301555b6060810151600383015560808101518051906001600160401b038211610678576111756004850154613090565b601f8111611c34575b50602090601f8311600114611bbe579180600b949261016094600092611bb3575b50508160011b916000199060031b1c19161760048501555b60a0810151600585015560c0810151600685015560e081015160078501556008840160018060a01b03610100830151166001600160601b0360a01b82541617905561012081015160098501556112236101408201511515600a86019060ff801983541691151516179055565b015191015560405161123481612fe8565b6004815263109a5c9960e21b602082015261124d6132dd565b6040519061125a82612fe8565b60048252635261726560e01b602083015261128060018060a01b03600054163314613286565b6040519261128d84612fcc565b6005845260208401526040830152601e60608301526080820152606460a0820152606460c0820152606460e08201526000610100820152602861012082015260016101408201526000610160820152600754600160401b811015610678578060016112fb92016007556131e3565b919091610662578051825560208101519182516001600160401b038111610678576113296001830154613090565b601f8111611b6c575b506020601f8211600114611afe5781929394600092611af3575b50508160011b916000199060031b1c19161760018201555b60408201519182516001600160401b038111610678576113876002840154613090565b601f8111611aac575b506020601f8211600114611a3e5781929394600092611a33575b50508160011b916000199060031b1c19161760028301555b6060810151600383015560808101518051906001600160401b038211610678576113ef6004850154613090565b601f81116119ec575b50602090601f8311600114611976579180600b94926101609460009261196b575b50508160011b916000199060031b1c19161760048501555b60a0810151600585015560c0810151600685015560e081015160078501556008840160018060a01b03610100830151166001600160601b0360a01b825416179055610120810151600985015561149d6101408201511515600a86019060ff801983541691151516179055565b01519101556040516114ae81612fe8565b600881526723babb32b931b4b760c11b60208201526114cb6132dd565b604051906114d882612fe8565b600782526654616b6c61636960c81b602083015261150160018060a01b03600054163314613286565b6040519261150e84612fcc565b6006845260208401526040830152600160608301526080820152606460a0820152606460c0820152606460e08201526000610100820152600161012082015260016101408201526000610160820152600754600160401b8110156106785780600161157c92016007556131e3565b919091610662578051825560208101519182516001600160401b038111610678576115aa6001830154613090565b601f8111611924575b506020601f82116001146118b857819293946000926118ad575b50508160011b916000199060031b1c19161760018201555b60408201519182516001600160401b038111610678576116086002840154613090565b601f8111611866575b506020601f82116001146117f857819293946000926117ed575b50508160011b916000199060031b1c19161760028301555b6060810151600383015560808101518051906001600160401b038211610678576116706004850154613090565b601f81116117a6575b50602090601f8311600114611730579180600b949261016094600092611725575b50508160011b916000199060031b1c19161760048501555b60a0810151600585015560c0810151600685015560e081015160078501556008840160018060a01b03610100830151166001600160601b0360a01b825416179055610120810151600985015561171e6101408201511515600a86019060ff801983541691151516179055565b0151910155005b01519050868061169a565b906004850160005260206000209160005b601f198516811061178e575092600b94926001926101609583601f19811610611775575b505050811b0160048501556116b2565b015160001960f88460031b161c19169055868080611765565b91926020600181928685015181550194019201611741565b600485016000526020600020601f840160051c8101602085106117e6575b601f830160051c820181106117da575050611679565b600081556001016117c4565b50806117c4565b01519050848061162b565b6002840160005260206000209060005b601f198416811061184e5750600193949583601f19811610611835575b505050811b016002830155611643565b015160001960f88460031b161c19169055848080611825565b9091602060018192858a015181550193019101611808565b600284016000526020600020601f830160051c8101602084106118a6575b601f830160051c8201811061189a575050611611565b60008155600101611884565b5080611884565b0151905084806115cd565b600183016000526020600020906000601f198416905b81811061190c575095836001959697106118f3575b505050811b0160018201556115e5565b015160001960f88460031b161c191690558480806118e3565b9192602060018192868b0151815501940192016118ce565b600183016000526020600020601f830160051c810160208410611964575b601f830160051c820181106119585750506115b3565b60008155600101611942565b5080611942565b015190508680611419565b906004850160005260206000209160005b601f19851681106119d4575092600b94926001926101609583601f198116106119bb575b505050811b016004850155611431565b015160001960f88460031b161c191690558680806119ab565b91926020600181928685015181550194019201611987565b600485016000526020600020601f840160051c810160208510611a2c575b601f830160051c82018110611a205750506113f8565b60008155600101611a0a565b5080611a0a565b0151905084806113aa565b6002840160005260206000209060005b601f1984168110611a945750600193949583601f19811610611a7b575b505050811b0160028301556113c2565b015160001960f88460031b161c19169055848080611a6b565b9091602060018192858a015181550193019101611a4e565b600284016000526020600020601f830160051c810160208410611aec575b601f830160051c82018110611ae0575050611390565b60008155600101611aca565b5080611aca565b01519050848061134c565b6001830160005260206000209060005b601f1984168110611b545750600193949583601f19811610611b3b575b505050811b016001820155611364565b015160001960f88460031b161c19169055848080611b2b565b9091602060018192858a015181550193019101611b0e565b600183016000526020600020601f830160051c810160208410611bac575b601f830160051c82018110611ba0575050611332565b60008155600101611b8a565b5080611b8a565b01519050868061119f565b906004850160005260206000209160005b601f1985168110611c1c575092600b94926001926101609583601f19811610611c03575b505050811b0160048501556111b7565b015160001960f88460031b161c19169055868080611bf3565b91926020600181928685015181550194019201611bcf565b600485016000526020600020601f840160051c810160208510611c74575b601f830160051c82018110611c6857505061117e565b60008155600101611c52565b5080611c52565b015190508480611130565b6002840160005260206000209060005b601f1984168110611cdc5750600193949583601f19811610611cc3575b505050811b016002830155611148565b015160001960f88460031b161c19169055848080611cb3565b9091602060018192858a015181550193019101611c96565b600284016000526020600020601f830160051c810160208410611d34575b601f830160051c82018110611d28575050611116565b60008155600101611d12565b5080611d12565b0151905084806110d2565b6001830160005260206000209060005b601f1984168110611d9c5750600193949583601f19811610611d83575b505050811b0160018201556110ea565b015160001960f88460031b161c19169055848080611d73565b9091602060018192858a015181550193019101611d56565b600183016000526020600020601f830160051c810160208410611df4575b601f830160051c82018110611de85750506110b8565b60008155600101611dd2565b5080611dd2565b015190508680610f38565b906004850160005260206000209160005b601f1985168110611e64575092600b94926001926101609583601f19811610611e4b575b505050811b016004850155610f50565b015160001960f88460031b161c19169055868080611e3b565b91926020600181928685015181550194019201611e17565b600485016000526020600020601f840160051c810160208510611ebc575b601f830160051c82018110611eb0575050610f17565b60008155600101611e9a565b5080611e9a565b015190508480610ec9565b6002840160005260206000209060005b601f1984168110611f245750600193949583601f19811610611f0b575b505050811b016002830155610ee1565b015160001960f88460031b161c19169055848080611efb565b9091602060018192858a015181550193019101611ede565b600284016000526020600020601f830160051c810160208410611f7c575b601f830160051c82018110611f70575050610eaf565b60008155600101611f5a565b5080611f5a565b015190508480610e6b565b6001830160005260206000209060005b601f1984168110611fe45750600193949583601f19811610611fcb575b505050811b016001820155610e83565b015160001960f88460031b161c19169055848080611fbb565b9091602060018192858a015181550193019101611f9e565b600183016000526020600020601f830160051c81016020841061203c575b601f830160051c82018110612030575050610e51565b6000815560010161201a565b508061201a565b015190508680610cd3565b906004850160005260206000209160005b601f19851681106120ac575092600b94926001926101609583601f19811610612093575b505050811b016004850155610ceb565b015160001960f88460031b161c19169055868080612083565b9192602060018192868501518155019401920161205f565b600485016000526020600020601f840160051c810160208510612104575b601f830160051c820181106120f8575050610cb2565b600081556001016120e2565b50806120e2565b015190508480610c64565b6002840160005260206000209060005b601f198416811061216c5750600193949583601f19811610612153575b505050811b016002830155610c7c565b015160001960f88460031b161c19169055848080612143565b9091602060018192858a015181550193019101612126565b600284016000526020600020601f830160051c8101602084106121c4575b601f830160051c820181106121b8575050610c4a565b600081556001016121a2565b50806121a2565b015190508480610c06565b6001830160005260206000209060005b601f198416811061222c5750600193949583601f19811610612213575b505050811b016001820155610c1e565b015160001960f88460031b161c19169055848080612203565b9091602060018192858a0151815501930191016121e6565b600183016000526020600020601f830160051c810160208410612284575b601f830160051c82018110612278575050610bec565b60008155600101612262565b5080612262565b015190508680610a56565b906004850160005260206000209160005b601f19851681106122f4575092600b94926001926101609583601f198116106122db575b505050811b016004850155610a6e565b015160001960f88460031b161c191690558680806122cb565b919260206001819286850151815501940192016122a7565b600485016000526020600020601f840160051c81016020851061234c575b601f830160051c82018110612340575050610a35565b6000815560010161232a565b508061232a565b0151905084806109e7565b6002840160005260206000209060005b601f19841681106123b45750600193949583601f1981161061239b575b505050811b0160028301556109ff565b015160001960f88460031b161c1916905584808061238b565b9091602060018192858a01518155019301910161236e565b600284016000526020600020601f830160051c81016020841061240c575b601f830160051c820181106124005750506109cd565b600081556001016123ea565b50806123ea565b015190508480610989565b6001830160005260206000209060005b601f19841681106124745750600193949583601f1981161061245b575b505050811b0160018201556109a1565b015160001960f88460031b161c1916905584808061244b565b9091602060018192858a01518155019301910161242e565b600183016000526020600020601f830160051c8101602084106124cc575b601f830160051c820181106124c057505061096f565b600081556001016124aa565b50806124aa565b60208060031936011261012f57600435906124f460ff600a6103e9856131e3565b336000526005815261251d6002604060002001546009612513856131e3565b5001541115613384565b612526826131e3565b50600801546001600160a01b03908116331461273f576008612547846131e3565b500154166009612556846131e3565b500154336000526005835261257460026040600020019182546133c6565b90556009612581846131e3565b5001548160005260058352600260406000200180549182018092116102b957559060086125ad846131e3565b500180546001600160a01b03191633179055600a6125ca846131e3565b500160ff1981541690558160005260088152604060002083600052815260006040812055336000526008815260406000208360005281526001918260406000205560005260098152604060002090826000905b612694575b506009915033600052526040600020805491600160401b831015610678578284926126539261266c95018155613234565b90919082549060031b91821b91600019901b1916179055565b337f87b964eb5a2c9bec2a555f2dab828a37bf9c62ed6d24158233c27783ad6484d3600080a3005b84835480831015612738576126a98386613234565b929054600393841b1c146126ca57505060001981146102b95783018361261d565b6000199491928186019182116102b9576126536126ea6126f79385613234565b905490861b1c9184613234565b8054938415612722578060099501926127108484613234565b81939154921b1b191690555584612622565b634e487b7160e01b600052603160045260246000fd5b5050612622565b60405162461bcd60e51b815260048101839052601960248201527f596f7520616c7265616479206f776e20746869732070657421000000000000006044820152606490fd5b3461012f57600036600319011261012f576000546040516001600160a01b039091168152602090f35b3461012f57602036600319011261012f576001600160a01b036127ce61307a565b166000526006602052602060ff604060002054166040519015158152f35b3461012f57604036600319011261012f576001600160a01b0361280d61307a565b16600052600860205260406000206024356000526020526020604060002054604051908152f35b3461012f57602036600319011261012f5761285a60018060a01b03600054163314613286565b600435600155005b3461012f57600036600319011261012f5760078054906001600160401b0382116106785760405190602060059361289d8282871b0185613003565b8084526000838152828501937fa66cc928b5edb82af9bd49922954155ab7b0942694bea4ce44661d9a8736c68890855b8484106129ce575050505050604051928184019082855251809152604081818601961b85010192916000955b8287106129065785850386f35b909192938280600192603f198982030185528751908151815261296b61294e61293c858501516101808088870152850190613170565b60408501518482036040860152613170565b606080850151908401526080808501519084830390850152613170565b9160a0808201519083015260c0808201519083015260e081015160e0830152610100868060a01b038183015116908301526101208082015190830152610140808201511515908301526101608091015191015296019201960195929190926128f9565b600c8660019260409a989a516129e381612fcc565b865481526129f28588016130ca565b83820152612a02600288016130ca565b604082015260038701546060820152612a1d600488016130ca565b60808201528c87015460a0820152600687015460c08201528587015460e0820152848060a01b03600888015416610100820152600987015461012082015260ff600a880154161515610140820152600b8701546101608201528152019301930192919694966128cd565b3461012f57602036600319011261012f576001600160a01b0380612aa961307a565b16600052600560205260406000209081541661035d610342600184016130ca565b3461012f5761018036600319011261012f576024356001600160401b03811161012f57612afb903690600401613024565b6044356001600160401b03811161012f57612b1a903690600401613024565b6084356001600160401b03811161012f57612b39903690600401613024565b610104356001600160a01b038116919082900361012f57610144359283151580940361012f57612b7460018060a01b03600054163314613286565b60405194612b8186612fcc565b6004358652602086015260408501526064356060850152608084015260a43560a084015260c43560c084015260e43560e0840152610100830152610124356101208301526101408201526000610160820152600754600160401b81101561067857806001612bf292016007556131e3565b919091610662578051825560208101519182516001600160401b03811161067857612c206001830154613090565b601f8111612f6a575b506020601f8211600114612efe5781929394600092612ef3575b50508160011b916000199060031b1c19161760018201555b60408201519182516001600160401b03811161067857612c7e6002840154613090565b601f8111612eac575b506020601f8211600114612e3e5781929394600092612e33575b50508160011b916000199060031b1c19161760028301555b6060810151600383015560808101518051906001600160401b03821161067857612ce66004850154613090565b601f8111612dec575b50602090601f8311600114612d92579180600b9492610160946000926117255750508160011b916000199060031b1c191617600485015560a0810151600585015560c0810151600685015560e081015160078501556008840160018060a01b03610100830151166001600160601b0360a01b825416179055610120810151600985015561171e6101408201511515600a86019060ff801983541691151516179055565b90601f198316916004860160005260206000209260005b818110612dd4575092600192859261016096600b98961061177557505050811b0160048501556116b2565b92936020600181928786015181550195019301612da9565b600485016000526020600020601f840160051c810160208510612e2c575b601f830160051c82018110612e20575050612cef565b60008155600101612e0a565b5080612e0a565b015190508480612ca1565b6002840160005260206000209060005b601f1984168110612e945750600193949583601f19811610612e7b575b505050811b016002830155612cb9565b015160001960f88460031b161c19169055848080612e6b565b9091602060018192858a015181550193019101612e4e565b600284016000526020600020601f830160051c810160208410612eec575b601f830160051c82018110612ee0575050612c87565b60008155600101612eca565b5080612eca565b015190508480612c43565b600183016000526020600020906000601f198416905b818110612f5257509583600195969710612f39575b505050811b016001820155612c5b565b015160001960f88460031b161c19169055848080612f29565b9192602060018192868b015181550194019201612f14565b600183016000526020600020601f830160051c810160208410612faa575b601f830160051c82018110612f9e575050612c29565b60008155600101612f88565b5080612f88565b3461012f57600036600319011261012f576020906001548152f35b61018081019081106001600160401b0382111761067857604052565b604081019081106001600160401b0382111761067857604052565b90601f801991011681019081106001600160401b0382111761067857604052565b81601f8201121561012f578035906001600160401b0382116106785760405192613058601f8401601f191660200185613003565b8284526020838301011161012f57816000926020809301838601378301015290565b600435906001600160a01b038216820361012f57565b90600182811c921680156130c0575b60208310146130aa57565b634e487b7160e01b600052602260045260246000fd5b91607f169161309f565b90604051918260008254926130de84613090565b90818452600194858116908160001461314d575060011461310a575b505061310892500383613003565b565b9093915060005260209081600020936000915b818310613135575050613108935082010138806130fa565b8554888401850152948501948794509183019161311d565b91505061310894506020925060ff191682840152151560051b82010138806130fa565b919082519283825260005b84811061319c575050826000602080949584010152601f8019910116010190565b60208183018101518483018201520161317b565b929493906060926131d69160018060a01b03168552608060208601526080850190613170565b9460408401521515910152565b60075481101561321e57600c906007600052027fa66cc928b5edb82af9bd49922954155ab7b0942694bea4ce44661d9a8736c6880190600090565b634e487b7160e01b600052603260045260246000fd5b805482101561321e5760005260206000200190600090565b60045481101561321e57600460005260021b7f8a35acfbc15ff81a39ae7d344fd709f28e8600b4aa8c65c6b64bfe7fe36bd19b0190600090565b1561328d57565b60405162461bcd60e51b815260206004820152602260248201527f4f6e6c79206f776e65722063616e2063616c6c20746869732066756e6374696f6044820152616e2160f01b6064820152608490fd5b604051906132ea82612fe8565b60048252634d616c6560e01b6020830152565b6040519061330a82612fe8565b600682526546656d616c6560d01b6020830152565b6040519061332c82612fe8565b600682526521b7b6b6b7b760d11b6020830152565b1561334857565b60405162461bcd60e51b8152602060048201526014602482015273506574206973206e6f7420666f722073616c652160601b6044820152606490fd5b1561338b57565b60405162461bcd60e51b81526020600482015260136024820152724e6f7420656e6f7567682062616c616e63652160681b6044820152606490fd5b919082039182116102b957565b156133da57565b60405162461bcd60e51b815260206004820152602260248201527f596f7520617265206e6f7420746865206f776e6572206f662074686973207065604482015261742160f01b6064820152608490fd5b815181546001600160a01b0319166001600160a01b03919091161781556020808301518051909391600184810192916001600160401b038311610678576134718454613090565b601f811161354f575b5080601f84116001146134dc575091808060609593600397956131089a6000946134d1575b50501b9160001990871b1c19161790555b604081015160028501550151151591019060ff801983541691151516179055565b01519250388061349f565b9193949596601f1984168660005283600020936000905b828210613538575050926060959285926131089a99966003999610613520575b505050811b0190556134b0565b015160001983891b60f8161c19169055388080613513565b8088869782949787015181550196019401906134f3565b6000858152828120601f860160051c81019284871061358e575b601f0160051c019184905b8381106135835750505061347a565b828155018490613574565b909250829061356956fea2646970667358221220eea0b28d59b14435a028ca4f748f887e3e03e7b2e15f774a82eeb094af20c5d364736f6c63430008140033",
  "linkReferences": {},
  "deployedLinkReferences": {}
}