{
  "_format": "hh-sol-artifact-1",
  "contractName": "TradingGame",
  "sourceName": "contracts/TradingGame.sol",
  "abi": [
    {
      "inputs": [
        {
          "internalType": "contract IERC20",
          "name": "_token",
          "type": "address"
        }
      ],
      "stateMutability": "nonpayable",
      "type": "constructor"
    },
    {
      "anonymous": false,
      "inputs": [
        {
          "indexed": true,
          "internalType": "address",
          "name": "player",
          "type": "address"
        }
      ],
      "name": "AllTasksBonusClaimed",
      "type": "event"
    },
    {
      "anonymous": false,
      "inputs": [
        {
          "indexed": true,
          "internalType": "address",
          "name": "player",
          "type": "address"
        }
      ],
      "name": "DailyRewardClaimed",
      "type": "event"
    },
    {
      "anonymous": false,
      "inputs": [
        {
          "indexed": true,
          "internalType": "address",
          "name": "player",
          "type": "address"
        },
        {
          "indexed": true,
          "internalType": "uint256",
          "name": "petId",
          "type": "uint256"
        }
      ],
      "name": "PetBought",
      "type": "event"
    },
    {
      "anonymous": false,
      "inputs": [
        {
          "indexed": true,
          "internalType": "address",
          "name": "player",
          "type": "address"
        },
        {
          "indexed": true,
          "internalType": "uint256",
          "name": "petId",
          "type": "uint256"
        }
      ],
      "name": "PetCanceledForSale",
      "type": "event"
    },
    {
      "anonymous": false,
      "inputs": [
        {
          "indexed": true,
          "internalType": "address",
          "name": "player",
          "type": "address"
        },
        {
          "indexed": true,
          "internalType": "uint256",
          "name": "petId",
          "type": "uint256"
        }
      ],
      "name": "PetFed",
      "type": "event"
    },
    {
      "anonymous": false,
      "inputs": [
        {
          "indexed": true,
          "internalType": "address",
          "name": "player",
          "type": "address"
        },
        {
          "indexed": true,
          "internalType": "uint256",
          "name": "petId",
          "type": "uint256"
        },
        {
          "indexed": false,
          "internalType": "uint256",
          "name": "price",
          "type": "uint256"
        }
      ],
      "name": "PetForSale",
      "type": "event"
    },
    {
      "anonymous": false,
      "inputs": [
        {
          "indexed": true,
          "internalType": "address",
          "name": "player",
          "type": "address"
        },
        {
          "indexed": true,
          "internalType": "uint256",
          "name": "petId",
          "type": "uint256"
        }
      ],
      "name": "PetLiked",
      "type": "event"
    },
    {
      "anonymous": false,
      "inputs": [
        {
          "indexed": true,
          "internalType": "address",
          "name": "player",
          "type": "address"
        },
        {
          "indexed": true,
          "internalType": "uint256",
          "name": "petId",
          "type": "uint256"
        },
        {
          "indexed": false,
          "internalType": "uint256",
          "name": "price",
          "type": "uint256"
        }
      ],
      "name": "PetSold",
      "type": "event"
    },
    {
      "anonymous": false,
      "inputs": [
        {
          "indexed": true,
          "internalType": "address",
          "name": "player",
          "type": "address"
        }
      ],
      "name": "PlayerJoined",
      "type": "event"
    },
    {
      "anonymous": false,
      "inputs": [
        {
          "indexed": true,
          "internalType": "uint256",
          "name": "taskId",
          "type": "uint256"
        },
        {
          "indexed": false,
          "internalType": "string",
          "name": "name",
          "type": "string"
        },
        {
          "indexed": false,
          "internalType": "uint256",
          "name": "reward",
          "type": "uint256"
        }
      ],
      "name": "TaskAdded",
      "type": "event"
    },
    {
      "anonymous": false,
      "inputs": [
        {
          "indexed": true,
          "internalType": "address",
          "name": "player",
          "type": "address"
        },
        {
          "indexed": true,
          "internalType": "uint256",
          "name": "taskId",
          "type": "uint256"
        },
        {
          "indexed": false,
          "internalType": "uint256",
          "name": "reward",
          "type": "uint256"
        }
      ],
      "name": "TaskCompleted",
      "type": "event"
    },
    {
      "inputs": [
        {
          "internalType": "uint256",
          "name": "_id",
          "type": "uint256"
        },
        {
          "internalType": "string",
          "name": "_name",
          "type": "string"
        },
        {
          "internalType": "string",
          "name": "_gender",
          "type": "string"
        },
        {
          "internalType": "uint256",
          "name": "_level",
          "type": "uint256"
        },
        {
          "internalType": "string",
          "name": "_types",
          "type": "string"
        },
        {
          "internalType": "uint256",
          "name": "_hunger",
          "type": "uint256"
        },
        {
          "internalType": "uint256",
          "name": "_hapiness",
          "type": "uint256"
        },
        {
          "internalType": "uint256",
          "name": "_health",
          "type": "uint256"
        },
        {
          "internalType": "address",
          "name": "_owner",
          "type": "address"
        },
        {
          "internalType": "uint256",
          "name": "_price",
          "type": "uint256"
        },
        {
          "internalType": "bool",
          "name": "_isForSale",
          "type": "bool"
        },
        {
          "internalType": "uint256",
          "name": "_likes",
          "type": "uint256"
        }
      ],
      "name": "addPet",
      "outputs": [],
      "stateMutability": "nonpayable",
      "type": "function"
    },
    {
      "inputs": [
        {
          "internalType": "string",
          "name": "_name",
          "type": "string"
        },
        {
          "internalType": "string",
          "name": "_description",
          "type": "string"
        },
        {
          "internalType": "uint256",
          "name": "_reward",
          "type": "uint256"
        },
        {
          "internalType": "enum TradingGame.TaskType",
          "name": "_taskType",
          "type": "uint8"
        }
      ],
      "name": "addTask",
      "outputs": [],
      "stateMutability": "nonpayable",
      "type": "function"
    },
    {
      "inputs": [
        {
          "internalType": "uint256",
          "name": "_petId",
          "type": "uint256"
        }
      ],
      "name": "buyPet",
      "outputs": [],
      "stateMutability": "nonpayable",
      "type": "function"
    },
    {
      "inputs": [
        {
          "internalType": "uint256",
          "name": "_petId",
          "type": "uint256"
        }
      ],
      "name": "cancelPetSale",
      "outputs": [],
      "stateMutability": "nonpayable",
      "type": "function"
    },
    {
      "inputs": [
        {
          "internalType": "address",
          "name": "_player",
          "type": "address"
        }
      ],
      "name": "checkAllTasksCompleted",
      "outputs": [
        {
          "internalType": "bool",
          "name": "",
          "type": "bool"
        }
      ],
      "stateMutability": "view",
      "type": "function"
    },
    {
      "inputs": [
        {
          "internalType": "uint256",
          "name": "_taskId",
          "type": "uint256"
        }
      ],
      "name": "completeTask",
      "outputs": [],
      "stateMutability": "nonpayable",
      "type": "function"
    },
    {
      "inputs": [
        {
          "internalType": "address",
          "name": "",
          "type": "address"
        },
        {
          "internalType": "uint256",
          "name": "",
          "type": "uint256"
        }
      ],
      "name": "completedTasks",
      "outputs": [
        {
          "internalType": "bool",
          "name": "",
          "type": "bool"
        }
      ],
      "stateMutability": "view",
      "type": "function"
    },
    {
      "inputs": [],
      "name": "dailyReward",
      "outputs": [],
      "stateMutability": "nonpayable",
      "type": "function"
    },
    {
      "inputs": [],
      "name": "defaultPets",
      "outputs": [],
      "stateMutability": "nonpayable",
      "type": "function"
    },
    {
      "inputs": [],
      "name": "defaultTasks",
      "outputs": [],
      "stateMutability": "nonpayable",
      "type": "function"
    },
    {
      "inputs": [],
      "name": "entryFee",
      "outputs": [
        {
          "internalType": "uint256",
          "name": "",
          "type": "uint256"
        }
      ],
      "stateMutability": "view",
      "type": "function"
    },
    {
      "inputs": [
        {
          "internalType": "uint256",
          "name": "_petId",
          "type": "uint256"
        }
      ],
      "name": "feedPet",
      "outputs": [],
      "stateMutability": "nonpayable",
      "type": "function"
    },
    {
      "inputs": [],
      "name": "gameFee",
      "outputs": [
        {
          "internalType": "uint256",
          "name": "",
          "type": "uint256"
        }
      ],
      "stateMutability": "view",
      "type": "function"
    },
    {
      "inputs": [],
      "name": "getAllPets",
      "outputs": [
        {
          "components": [
            {
              "internalType": "uint256",
              "name": "id",
              "type": "uint256"
            },
            {
              "internalType": "string",
              "name": "name",
              "type": "string"
            },
            {
              "internalType": "string",
              "name": "gender",
              "type": "string"
            },
            {
              "internalType": "uint256",
              "name": "level",
              "type": "uint256"
            },
            {
              "internalType": "string",
              "name": "types",
              "type": "string"
            },
            {
              "internalType": "uint256",
              "name": "hunger",
              "type": "uint256"
            },
            {
              "internalType": "uint256",
              "name": "hapiness",
              "type": "uint256"
            },
            {
              "internalType": "uint256",
              "name": "health",
              "type": "uint256"
            },
            {
              "internalType": "address",
              "name": "owner",
              "type": "address"
            },
            {
              "internalType": "uint256",
              "name": "price",
              "type": "uint256"
            },
            {
              "internalType": "bool",
              "name": "isForSale",
              "type": "bool"
            },
            {
              "internalType": "uint256",
              "name": "likes",
              "type": "uint256"
            },
            {
              "internalType": "uint256",
              "name": "lastFed",
              "type": "uint256"
            }
          ],
          "internalType": "struct TradingGame.Pet[]",
          "name": "",
          "type": "tuple[]"
        }
      ],
      "stateMutability": "view",
      "type": "function"
    },
    {
      "inputs": [
        {
          "internalType": "address",
          "name": "_player",
          "type": "address"
        }
      ],
      "name": "getCompletedTasks",
      "outputs": [
        {
          "internalType": "uint256[]",
          "name": "",
          "type": "uint256[]"
        }
      ],
      "stateMutability": "view",
      "type": "function"
    },
    {
      "inputs": [
        {
          "internalType": "address",
          "name": "_playerAddress",
          "type": "address"
        },
        {
          "internalType": "uint256",
          "name": "_petId",
          "type": "uint256"
        }
      ],
      "name": "getPlayerPetBalance",
      "outputs": [
        {
          "internalType": "uint256",
          "name": "",
          "type": "uint256"
        }
      ],
      "stateMutability": "view",
      "type": "function"
    },
    {
      "inputs": [
        {
          "internalType": "address",
          "name": "",
          "type": "address"
        }
      ],
      "name": "hasJoined",
      "outputs": [
        {
          "internalType": "bool",
          "name": "",
          "type": "bool"
        }
      ],
      "stateMutability": "view",
      "type": "function"
    },
    {
      "inputs": [],
      "name": "joinGame",
      "outputs": [],
      "stateMutability": "payable",
      "type": "function"
    },
    {
      "inputs": [
        {
          "internalType": "uint256",
          "name": "_petId",
          "type": "uint256"
        }
      ],
      "name": "likePet",
      "outputs": [],
      "stateMutability": "payable",
      "type": "function"
    },
    {
      "inputs": [],
      "name": "owner",
      "outputs": [
        {
          "internalType": "address",
          "name": "",
          "type": "address"
        }
      ],
      "stateMutability": "view",
      "type": "function"
    },
    {
      "inputs": [
        {
          "internalType": "uint256",
          "name": "_petId",
          "type": "uint256"
        },
        {
          "internalType": "uint256",
          "name": "_price",
          "type": "uint256"
        }
      ],
      "name": "petForSale",
      "outputs": [],
      "stateMutability": "nonpayable",
      "type": "function"
    },
    {
      "inputs": [
        {
          "internalType": "uint256",
          "name": "",
          "type": "uint256"
        }
      ],
      "name": "pets",
      "outputs": [
        {
          "internalType": "uint256",
          "name": "id",
          "type": "uint256"
        },
        {
          "internalType": "string",
          "name": "name",
          "type": "string"
        },
        {
          "internalType": "string",
          "name": "gender",
          "type": "string"
        },
        {
          "internalType": "uint256",
          "name": "level",
          "type": "uint256"
        },
        {
          "internalType": "string",
          "name": "types",
          "type": "string"
        },
        {
          "internalType": "uint256",
          "name": "hunger",
          "type": "uint256"
        },
        {
          "internalType": "uint256",
          "name": "hapiness",
          "type": "uint256"
        },
        {
          "internalType": "uint256",
          "name": "health",
          "type": "uint256"
        },
        {
          "internalType": "address",
          "name": "owner",
          "type": "address"
        },
        {
          "internalType": "uint256",
          "name": "price",
          "type": "uint256"
        },
        {
          "internalType": "bool",
          "name": "isForSale",
          "type": "bool"
        },
        {
          "internalType": "uint256",
          "name": "likes",
          "type": "uint256"
        },
        {
          "internalType": "uint256",
          "name": "lastFed",
          "type": "uint256"
        }
      ],
      "stateMutability": "view",
      "type": "function"
    },
    {
      "inputs": [
        {
          "internalType": "address",
          "name": "",
          "type": "address"
        }
      ],
      "name": "playerInfo",
      "outputs": [
        {
          "internalType": "address",
          "name": "playerAddress",
          "type": "address"
        },
        {
          "internalType": "string",
          "name": "name",
          "type": "string"
        },
        {
          "internalType": "uint256",
          "name": "balance",
          "type": "uint256"
        },
        {
          "internalType": "bool",
          "name": "isActive",
          "type": "bool"
        },
        {
          "internalType": "uint256",
          "name": "lastClaimed",
          "type": "uint256"
        },
        {
          "internalType": "uint256",
          "name": "completedTaskCount",
          "type": "uint256"
        }
      ],
      "stateMutability": "view",
      "type": "function"
    },
    {
      "inputs": [
        {
          "internalType": "address",
          "name": "",
          "type": "address"
        },
        {
          "internalType": "uint256",
          "name": "",
          "type": "uint256"
        }
      ],
      "name": "playerPet",
      "outputs": [
        {
          "internalType": "uint256",
          "name": "",
          "type": "uint256"
        }
      ],
      "stateMutability": "view",
      "type": "function"
    },
    {
      "inputs": [
        {
          "internalType": "address",
          "name": "",
          "type": "address"
        },
        {
          "internalType": "uint256",
          "name": "",
          "type": "uint256"
        }
      ],
      "name": "playerPetIds",
      "outputs": [
        {
          "internalType": "uint256",
          "name": "",
          "type": "uint256"
        }
      ],
      "stateMutability": "view",
      "type": "function"
    },
    {
      "inputs": [
        {
          "internalType": "address",
          "name": "",
          "type": "address"
        },
        {
          "internalType": "uint256",
          "name": "",
          "type": "uint256"
        }
      ],
      "name": "playerTask",
      "outputs": [
        {
          "internalType": "bool",
          "name": "",
          "type": "bool"
        }
      ],
      "stateMutability": "view",
      "type": "function"
    },
    {
      "inputs": [
        {
          "internalType": "address",
          "name": "",
          "type": "address"
        }
      ],
      "name": "playerTaskCount",
      "outputs": [
        {
          "internalType": "uint256",
          "name": "",
          "type": "uint256"
        }
      ],
      "stateMutability": "view",
      "type": "function"
    },
    {
      "inputs": [
        {
          "internalType": "uint256",
          "name": "",
          "type": "uint256"
        }
      ],
      "name": "players",
      "outputs": [
        {
          "internalType": "address",
          "name": "playerAddress",
          "type": "address"
        },
        {
          "internalType": "string",
          "name": "name",
          "type": "string"
        },
        {
          "internalType": "uint256",
          "name": "balance",
          "type": "uint256"
        },
        {
          "internalType": "bool",
          "name": "isActive",
          "type": "bool"
        },
        {
          "internalType": "uint256",
          "name": "lastClaimed",
          "type": "uint256"
        },
        {
          "internalType": "uint256",
          "name": "completedTaskCount",
          "type": "uint256"
        }
      ],
      "stateMutability": "view",
      "type": "function"
    },
    {
      "inputs": [
        {
          "internalType": "uint256",
          "name": "_petId",
          "type": "uint256"
        },
        {
          "internalType": "uint256",
          "name": "_price",
          "type": "uint256"
        }
      ],
      "name": "sellPet",
      "outputs": [],
      "stateMutability": "nonpayable",
      "type": "function"
    },
    {
      "inputs": [
        {
          "internalType": "uint256",
          "name": "_fee",
          "type": "uint256"
        }
      ],
      "name": "setFee",
      "outputs": [],
      "stateMutability": "nonpayable",
      "type": "function"
    },
    {
      "inputs": [
        {
          "internalType": "uint256",
          "name": "",
          "type": "uint256"
        }
      ],
      "name": "tasks",
      "outputs": [
        {
          "internalType": "uint256",
          "name": "id",
          "type": "uint256"
        },
        {
          "internalType": "string",
          "name": "name",
          "type": "string"
        },
        {
          "internalType": "string",
          "name": "description",
          "type": "string"
        },
        {
          "internalType": "uint256",
          "name": "reward",
          "type": "uint256"
        },
        {
          "internalType": "bool",
          "name": "isCompleted",
          "type": "bool"
        },
        {
          "internalType": "enum TradingGame.TaskType",
          "name": "taskType",
          "type": "uint8"
        }
      ],
      "stateMutability": "view",
      "type": "function"
    },
    {
      "inputs": [
        {
          "internalType": "uint256",
          "name": "",
          "type": "uint256"
        }
      ],
      "name": "tasksById",
      "outputs": [
        {
          "internalType": "uint256",
          "name": "id",
          "type": "uint256"
        },
        {
          "internalType": "string",
          "name": "name",
          "type": "string"
        },
        {
          "internalType": "string",
          "name": "description",
          "type": "string"
        },
        {
          "internalType": "uint256",
          "name": "reward",
          "type": "uint256"
        },
        {
          "internalType": "bool",
          "name": "isCompleted",
          "type": "bool"
        },
        {
          "internalType": "enum TradingGame.TaskType",
          "name": "taskType",
          "type": "uint8"
        }
      ],
      "stateMutability": "view",
      "type": "function"
    },
    {
      "inputs": [],
      "name": "token",
      "outputs": [
        {
          "internalType": "contract IERC20",
          "name": "",
          "type": "address"
        }
      ],
      "stateMutability": "view",
      "type": "function"
    }
  ],
  "bytecode": "0x6080346200244e57601f6200799c38819003918201601f19168301916001600160401b038311848410176200146f578084926020946040528339810103126200244e57516001600160a01b038116908190036200244e57662386f26fc10000600155600a600255600080546001600160a01b0319908116331790915560038054909116919091179055600c548062002409576200009b62002474565b600381526210d85d60ea1b6020820152620000b562002474565b60048152634d616c6560e01b6020820152620000d062002474565b9060098252684c6567656e6461727960b81b6020830152620000f162002453565b926001845260208401526040830152606460608301526080820152606460a0820152606460c0820152606460e0820152600061010082015260646101208201526000610140820152620186a061016082015242610180820152680100000000000000008210156200146f576001820180600c558210156200165157600c6000526020600020908051600d8402830155602081015192835160018060401b0381116200146f576001600d830285010154600181811c91168015620023fe575b60208210146200144e57601f8111620023ad575b506020601f82116001146200232f57819293949560009262002323575b50508160011b916000199060031b1c1916176001600d8302850101555b604082015180519093906001600160401b0381116200146f576002600d840283010154600181811c9116801562002318575b60208210146200144e57601f8111620022c7575b506020601f8211600114620022495781929394956000926200223d575b50508160011b916000199060031b1c1916176002600d8402830101555b6060830151600d8302820160030155608083015180519093906001600160401b0381116200146f576004600d850284010154600181811c9116801562002232575b60208210146200144e57601f8111620021e1575b506020601f82116001146200215b57918161018092600d94600c97986000926200214f575b50508160011b916000199060031b1c1916176004848802860101555b60a0810151600593909602939093019182019490945560c0820151600682015560e082015160078201556101008201516008820180546001600160a01b039092166001600160a01b03199092169190911790556101208201516009820155610140820151600a8201805460ff191691151560ff16919091179055610160820151600b820155920151910155620003a862002474565b6005815264446f67677960d81b6020820152620003c462002474565b600681526546656d616c6560d01b6020820152620003e162002474565b9060048252634570696360e01b60208301526200040a60018060a01b0360005416331462002494565b6200041462002453565b926002845260208401526040830152603260608301526080820152606460a0820152606460c0820152606460e08201526000610100820152605a61012082015260016101408201526103e861016082015242610180820152600c5490680100000000000000008210156200146f576001820180600c558210156200165157600c6000526020600020908051600d8402830155602081015192835160018060401b0381116200146f576001600d830285010154600181811c9116801562002144575b60208210146200144e57601f8111620020f3575b506020601f82116001146200207557819293949560009262002069575b50508160011b916000199060031b1c1916176001600d8302850101555b604082015180519093906001600160401b0381116200146f576002600d840283010154600181811c911680156200205e575b60208210146200144e57601f81116200200d575b506020601f821160011462001f8f57819293949560009262001f83575b50508160011b916000199060031b1c1916176002600d8402830101555b6060830151600d8302820160030155608083015180519093906001600160401b0381116200146f576004600d850284010154600181811c9116801562001f78575b60208210146200144e57601f811162001f27575b506020601f821160011462001ea157918161018092600d94600c979860009262001e95575b50508160011b916000199060031b1c1916176004848802860101555b60a0810151600593909602939093019182019490945560c0820151600682015560e082015160078201556101008201516008820180546001600160a01b039092166001600160a01b03199092169190911790556101208201516009820155610140820151600a8201805460ff191691151560ff16919091179055610160820151600b820155920151910155620006ce62002474565b600481526308cd2e6d60e31b6020820152620006e962002474565b60048152634d616c6560e01b60208201526200070462002474565b90600682526521b7b6b6b7b760d11b60208301526200072f60018060a01b0360005416331462002494565b6200073962002453565b926003845260208401526040830152600a60608301526080820152606460a0820152606460c0820152606460e0820152600061010082015260326101208201526001610140820152600a61016082015242610180820152600c5490680100000000000000008210156200146f576001820180600c558210156200165157600c6000526020600020908051600d8402830155602081015192835160018060401b0381116200146f576001600d830285010154600181811c9116801562001e8a575b60208210146200144e57601f811162001e39575b506020601f821160011462001dbb57819293949560009262001daf575b50508160011b916000199060031b1c1916176001600d8302850101555b604082015180519093906001600160401b0381116200146f576002600d840283010154600181811c9116801562001da4575b60208210146200144e57601f811162001d53575b506020601f821160011462001cd557819293949560009262001cc9575b50508160011b916000199060031b1c1916176002600d8402830101555b6060830151600d8302820160030155608083015180519093906001600160401b0381116200146f576004600d850284010154600181811c9116801562001cbe575b60208210146200144e57601f811162001c6d575b506020601f821160011462001be757918161018092600d94600c979860009262001bdb575b50508160011b916000199060031b1c1916176004848802860101555b60a0810151600593909602939093019182019490945560c0820151600682015560e082015160078201556101008201516008820180546001600160a01b039092166001600160a01b03199092169190911790556101208201516009820155610140820151600a8201805460ff191691151560ff16919091179055610160820151600b820155920151910155620009f262002474565b6006815265149858989a5d60d21b602082015262000a0f62002474565b600681526546656d616c6560d01b602082015262000a2c62002474565b90600682526521b7b6b6b7b760d11b602083015262000a5760018060a01b0360005416331462002494565b62000a6162002453565b926004845260208401526040830152600f60608301526080820152606460a0820152606460c0820152606460e0820152600061010082015260376101208201526001610140820152601461016082015242610180820152600c5490680100000000000000008210156200146f576001820180600c558210156200165157600c6000526020600020908051600d8402830155602081015192835160018060401b0381116200146f576001600d830285010154600181811c9116801562001bd0575b60208210146200144e57601f811162001b7f575b506020601f821160011462001b0157819293949560009262001af5575b50508160011b916000199060031b1c1916176001600d8302850101555b604082015180519093906001600160401b0381116200146f576002600d840283010154600181811c9116801562001aea575b60208210146200144e57601f811162001a99575b506020601f821160011462001a1b57819293949560009262001a0f575b50508160011b916000199060031b1c1916176002600d8402830101555b6060830151600d8302820160030155608083015180519093906001600160401b0381116200146f576004600d850284010154600181811c9116801562001a04575b60208210146200144e57601f8111620019b3575b506020601f82116001146200192d57918161018092600d94600c979860009262001921575b50508160011b916000199060031b1c1916176004848802860101555b60a0810151600593909602939093019182019490945560c0820151600682015560e082015160078201556101008201516008820180546001600160a01b039092166001600160a01b03199092169190911790556101208201516009820155610140820151600a8201805460ff191691151560ff16919091179055610160820151600b82015592015191015562000d1a62002474565b6004815263109a5c9960e21b602082015262000d3562002474565b60048152634d616c6560e01b602082015262000d5062002474565b9060048252635261726560e01b602083015262000d7960018060a01b0360005416331462002494565b62000d8362002453565b926005845260208401526040830152601e60608301526080820152606460a0820152606460c0820152606460e0820152600061010082015260286101208201526001610140820152603261016082015242610180820152600c5490680100000000000000008210156200146f576001820180600c558210156200165157600c6000526020600020908051600d8402830155602081015192835160018060401b0381116200146f576001600d830285010154600181811c9116801562001916575b60208210146200144e57601f8111620018c5575b506020601f8211600114620018475781929394956000926200183b575b50508160011b916000199060031b1c1916176001600d8302850101555b604082015180519093906001600160401b0381116200146f576002600d840283010154600181811c9116801562001830575b60208210146200144e57601f8111620017df575b506020601f82116001146200176157819293949560009262001755575b50508160011b916000199060031b1c1916176002600d8402830101555b6060830151600d8302820160030155608083015180519093906001600160401b0381116200146f576004600d850284010154600181811c911680156200174a575b60208210146200144e57601f8111620016f9575b506020601f82116001146200167357918161018092600d94600c979860009262001667575b50508160011b916000199060031b1c1916176004848802860101555b60a0810151600593909602939093019182019490945560c0820151600682015560e082015160078201556101008201516008820180546001600160a01b039092166001600160a01b03199092169190911790556101208201516009820155610140820151600a8201805460ff191691151560ff16919091179055610160820151600b8201559201519101556200103c62002474565b600881526723babb32b931b4b760c11b60208201526200105b62002474565b60048152634d616c6560e01b60208201526200107662002474565b90600782526654616b6c61636960c81b6020830152620010a260018060a01b0360005416331462002494565b620010ac62002453565b926006845260208401526040830152600160608301526080820152606460a0820152606460c0820152606460e0820152600061010082015260016101208201526001610140820152600161016082015242610180820152600c5490680100000000000000008210156200146f576001820180600c558210156200165157600c6000526020600020908051600d8402830155602081015192835160018060401b0381116200146f576001600d830285010154600181811c9116801562001646575b60208210146200144e57601f8111620015f5575b506020601f8211600114620015775781929394956000926200156b575b50508160011b916000199060031b1c1916176001600d8302850101555b604082015180519093906001600160401b0381116200146f576002600d840283010154600181811c9116801562001560575b60208210146200144e57601f81116200150f575b506020601f82116001146200149157819293949560009262001485575b50508160011b916000199060031b1c1916176002600d8402830101555b6060830151600d8302820160030155608083015180519093906001600160401b0381116200146f576004600d850284010154600181811c9116801562001464575b60208210146200144e57601f8111620013fd575b506020601f82116001146200137757918161018092600d94600c97986000926200136b575b50508160011b916000199060031b1c1916176004848802860101555b60a0810151600593909602939093019182019490945560c0820151600682015560e082015160078201556101008201516008820180546001600160a01b039092166001600160a01b03199092169190911790556101208201516009820155610140820151600a8201805460ff191691151560ff16919091179055610160820151600b8201559201519101556040516154af9081620024ed8239f35b015190503880620012b4565b6004600d860285010160005260206000209560005b601f1984168110620013e4575082600c9697600d959360019361018096601f19811610620013ca575b505050811b01600484880286010155620012d0565b015160001960f88460031b161c19169055388080620013b5565b828201518855600190970196602092830192016200138c565b6004600d86028501016000526020600020601f830160051c81016020841062001446575b601f830160051c82018110620014395750506200128f565b6000815560010162001421565b508062001421565b634e487b7160e01b600052602260045260246000fd5b90607f16906200127b565b634e487b7160e01b600052604160045260246000fd5b0151905038806200121d565b6002600d850284010160005260206000209060005b601f1984168110620014f6575060019394959683601f19811610620014dc575b505050811b016002600d8402830101556200123a565b015160001960f88460031b161c19169055388080620014c6565b9091602060018192858b015181550193019101620014a6565b6002600d85028401016000526020600020601f830160051c81016020841062001558575b601f830160051c820181106200154b57505062001200565b6000815560010162001533565b508062001533565b90607f1690620011ec565b0151905038806200119d565b6001600d840286010160005260206000209060005b601f1984168110620015dc575060019394959683601f19811610620015c2575b505050811b016001600d830285010155620011ba565b015160001960f88460031b161c19169055388080620015ac565b9091602060018192858b0151815501930191016200158c565b6001600d84028601016000526020600020601f830160051c8101602084106200163e575b601f830160051c820181106200163157505062001180565b6000815560010162001619565b508062001619565b90607f16906200116c565b634e487b7160e01b600052603260045260246000fd5b01519050388062000f8b565b6004600d860285010160005260206000209560005b601f1984168110620016e0575082600c9697600d959360019361018096601f19811610620016c6575b505050811b0160048488028601015562000fa7565b015160001960f88460031b161c19169055388080620016b1565b8282015188556001909701966020928301920162001688565b6004600d86028501016000526020600020601f830160051c81016020841062001742575b601f830160051c820181106200173557505062000f66565b600081556001016200171d565b50806200171d565b90607f169062000f52565b01519050388062000ef4565b6002600d850284010160005260206000209060005b601f1984168110620017c6575060019394959683601f19811610620017ac575b505050811b016002600d84028301015562000f11565b015160001960f88460031b161c1916905538808062001796565b9091602060018192858b01518155019301910162001776565b6002600d85028401016000526020600020601f830160051c81016020841062001828575b601f830160051c820181106200181b57505062000ed7565b6000815560010162001803565b508062001803565b90607f169062000ec3565b01519050388062000e74565b6001600d840286010160005260206000209060005b601f1984168110620018ac575060019394959683601f1981161062001892575b505050811b016001600d83028501015562000e91565b015160001960f88460031b161c191690553880806200187c565b9091602060018192858b0151815501930191016200185c565b6001600d84028601016000526020600020601f830160051c8101602084106200190e575b601f830160051c820181106200190157505062000e57565b60008155600101620018e9565b5080620018e9565b90607f169062000e43565b01519050388062000c69565b6004600d860285010160005260206000209560005b601f19841681106200199a575082600c9697600d959360019361018096601f1981161062001980575b505050811b0160048488028601015562000c85565b015160001960f88460031b161c191690553880806200196b565b8282015188556001909701966020928301920162001942565b6004600d86028501016000526020600020601f830160051c810160208410620019fc575b601f830160051c82018110620019ef57505062000c44565b60008155600101620019d7565b5080620019d7565b90607f169062000c30565b01519050388062000bd2565b6002600d850284010160005260206000209060005b601f198416811062001a80575060019394959683601f1981161062001a66575b505050811b016002600d84028301015562000bef565b015160001960f88460031b161c1916905538808062001a50565b9091602060018192858b01518155019301910162001a30565b6002600d85028401016000526020600020601f830160051c81016020841062001ae2575b601f830160051c8201811062001ad557505062000bb5565b6000815560010162001abd565b508062001abd565b90607f169062000ba1565b01519050388062000b52565b6001600d840286010160005260206000209060005b601f198416811062001b66575060019394959683601f1981161062001b4c575b505050811b016001600d83028501015562000b6f565b015160001960f88460031b161c1916905538808062001b36565b9091602060018192858b01518155019301910162001b16565b6001600d84028601016000526020600020601f830160051c81016020841062001bc8575b601f830160051c8201811062001bbb57505062000b35565b6000815560010162001ba3565b508062001ba3565b90607f169062000b21565b01519050388062000941565b6004600d860285010160005260206000209560005b601f198416811062001c54575082600c9697600d959360019361018096601f1981161062001c3a575b505050811b016004848802860101556200095d565b015160001960f88460031b161c1916905538808062001c25565b8282015188556001909701966020928301920162001bfc565b6004600d86028501016000526020600020601f830160051c81016020841062001cb6575b601f830160051c8201811062001ca95750506200091c565b6000815560010162001c91565b508062001c91565b90607f169062000908565b015190503880620008aa565b6002600d850284010160005260206000209060005b601f198416811062001d3a575060019394959683601f1981161062001d20575b505050811b016002600d840283010155620008c7565b015160001960f88460031b161c1916905538808062001d0a565b9091602060018192858b01518155019301910162001cea565b6002600d85028401016000526020600020601f830160051c81016020841062001d9c575b601f830160051c8201811062001d8f5750506200088d565b6000815560010162001d77565b508062001d77565b90607f169062000879565b0151905038806200082a565b6001600d840286010160005260206000209060005b601f198416811062001e20575060019394959683601f1981161062001e06575b505050811b016001600d83028501015562000847565b015160001960f88460031b161c1916905538808062001df0565b9091602060018192858b01518155019301910162001dd0565b6001600d84028601016000526020600020601f830160051c81016020841062001e82575b601f830160051c8201811062001e755750506200080d565b6000815560010162001e5d565b508062001e5d565b90607f1690620007f9565b0151905038806200061d565b6004600d860285010160005260206000209560005b601f198416811062001f0e575082600c9697600d959360019361018096601f1981161062001ef4575b505050811b0160048488028601015562000639565b015160001960f88460031b161c1916905538808062001edf565b8282015188556001909701966020928301920162001eb6565b6004600d86028501016000526020600020601f830160051c81016020841062001f70575b601f830160051c8201811062001f63575050620005f8565b6000815560010162001f4b565b508062001f4b565b90607f1690620005e4565b01519050388062000586565b6002600d850284010160005260206000209060005b601f198416811062001ff4575060019394959683601f1981161062001fda575b505050811b016002600d840283010155620005a3565b015160001960f88460031b161c1916905538808062001fc4565b9091602060018192858b01518155019301910162001fa4565b6002600d85028401016000526020600020601f830160051c81016020841062002056575b601f830160051c820181106200204957505062000569565b6000815560010162002031565b508062002031565b90607f169062000555565b01519050388062000506565b6001600d840286010160005260206000209060005b601f1984168110620020da575060019394959683601f19811610620020c0575b505050811b016001600d83028501015562000523565b015160001960f88460031b161c19169055388080620020aa565b9091602060018192858b0151815501930191016200208a565b6001600d84028601016000526020600020601f830160051c8101602084106200213c575b601f830160051c820181106200212f575050620004e9565b6000815560010162002117565b508062002117565b90607f1690620004d5565b015190503880620002f7565b6004600d860285010160005260206000209560005b601f1984168110620021c8575082600c9697600d959360019361018096601f19811610620021ae575b505050811b0160048488028601015562000313565b015160001960f88460031b161c1916905538808062002199565b8282015188556001909701966020928301920162002170565b6004600d86028501016000526020600020601f830160051c8101602084106200222a575b601f830160051c820181106200221d575050620002d2565b6000815560010162002205565b508062002205565b90607f1690620002be565b01519050388062000260565b6002600d850284010160005260206000209060005b601f1984168110620022ae575060019394959683601f1981161062002294575b505050811b016002600d8402830101556200027d565b015160001960f88460031b161c191690553880806200227e565b9091602060018192858b0151815501930191016200225e565b6002600d85028401016000526020600020601f830160051c81016020841062002310575b601f830160051c820181106200230357505062000243565b60008155600101620022eb565b5080620022eb565b90607f16906200022f565b015190503880620001e0565b6001600d840286010160005260206000209060005b601f198416811062002394575060019394959683601f198116106200237a575b505050811b016001600d830285010155620001fd565b015160001960f88460031b161c1916905538808062002364565b9091602060018192858b01518155019301910162002344565b6001600d84028601016000526020600020601f830160051c810160208410620023f6575b601f830160051c82018110620023e9575050620001c3565b60008155600101620023d1565b5080620023d1565b90607f1690620001af565b60405162461bcd60e51b815260206004820152601b60248201527f44656661756c74207065747320616c72656164792065786973742100000000006044820152606490fd5b600080fd5b604051906101a082016001600160401b038111838210176200146f57604052565b60408051919082016001600160401b038111838210176200146f57604052565b156200249c57565b60405162461bcd60e51b815260206004820152602260248201527f4f6e6c79206f776e65722063616e2063616c6c20746869732066756e6374696f6044820152616e2160f01b6064820152608490fdfe608080604052600436101561001357600080fd5b60003560e01c908163072ea61c14614d83575080630b2237ed14614d365780630c596d91146148465780631080d30f1461329457806317e837941461480c57806325277a5a146147cb57806342bbcd69146135fd5780634b114691146135ba5780635604d1a914613587578063571874151461353a5780635b236d971461330a57806369fe0e2d146132dc5780637781b86b14613294578063877f4e12146132555780638d977672146131eb5780638da5cb5b146131c2578063983c00de146130a35780639edded1114612de4578063c8c9bd281461109d578063c92752201461102e578063c964ad4514610ef4578063cf7deee514610e59578063cfb869bf14610d50578063d43bb72d1461095d578063d4f77b1c146107f0578063de440fe9146106fb578063e1e295581461054b578063ea777eec1461052d578063f3cd7add146104b7578063f6a1cf911461045f578063f71d96cb146103f3578063fbfabac4146101b85763fc0c546a1461018a57600080fd5b346101b35760003660031901126101b3576003546040516001600160a01b039091168152602090f35b600080fd5b346101b35760203660031901126101b3576004356101ed6101d882615076565b50600801546001600160a01b0316331461525e565b603c610206600c6101fd84615076565b50015442615244565b0461021082615076565b509080600580930154116000146103de576102388261022e85615076565b5001918254615244565b90555b8061024583615076565b506064928391015410156103ac57600361025e84615076565b5001548060011b9080820460021490151715610396573360005281602052610290816002604060002001541015615202565b33600052816020526102ab6002604060002001918254615244565b90556102b683615076565b50018054600919810191908211610396575560076102d383615076565b5001805490600a8201809211610396575560066102ef83615076565b5001805490600a8201809211610396575561030982615076565b50600c4291015561031982615076565b505080600761032784615076565b50015411610382575b80600661033c84615076565b5001541161036e575b50337f9ef3ef96a69917dbd3b0809769d9f6728750e08ab778d8fbf3ea05b2ac7a9438600080a3005b600661037983615076565b50015581610345565b80600761038e84615076565b500155610330565b634e487b7160e01b600052601160045260246000fd5b5060405162461bcd60e51b815260206004820152600c60248201526b5065742069732066756c6c2160a01b6044820152fd5b506000816103eb84615076565b50015561023b565b346101b35760203660031901126101b3576004356004548110156101b35761041a906150c9565b5080546001600160a01b031661045b61043560018401614eb7565b9260028101549060ff600382015416600560048301549201549260405196879687614f9d565b0390f35b346101b35760403660031901126101b357610478614d9e565b6001600160a01b03166000908152600e60205260409020805460243591908210156101b3576020916104a9916150b1565b90546040519160031b1c8152f35b346101b35760203660031901126101b3576004356104d76101d882615076565b6104f060ff600a6104e784615076565b500154166151bf565b600a6104fb82615076565b5001805460ff19169055337f1f76122ceba009bc563ff10d1bb29fcd3211e178931624d631121a877dd7fde4600080a3005b346101b35760003660031901126101b3576020600254604051908152f35b346101b3576020806003193601126101b357600435906007548210156106c0573360005260098152604060002082600052815260ff6040600020541661067c57600361059683615025565b500191825433600052600583526105b66002604060002001918254615251565b9055336000526009825260406000208160005282526040600020600160ff1982541617905533600052600582526005604060002001928354600181018091116103965760059455546040519081527f50c83292cbed2e0e82c326c455870ed0cfe292eb185581159265e76147d205ea833392a33360005252604060002060058101546007541461064257005b600201805490600f82018092116103965755337ff0fd5bf81278bc1314a43ac7a3f0567ac69298193d24afc78f4509fffaac94b5600080a2005b6064906040519062461bcd60e51b82526004820152601760248201527f5461736b20616c726561647920636f6d706c65746564210000000000000000006044820152fd5b6064906040519062461bcd60e51b8252600482015260146024820152735461736b20646f6573206e6f742065786973742160601b6044820152fd5b60203660031901126101b35760043561071381615076565b50600801546001600160a01b031633146107ab57600c5481101561077557600b61073c82615076565b5001805490600182018092116103965755337f608b673d19f28498e8e55664ba7500d0b17e731a244de245f1cd25a32eec2e4f600080a3005b60405162461bcd60e51b815260206004820152600e60248201526d506574206e6f7420666f756e642160901b6044820152606490fd5b60405162461bcd60e51b815260206004820152601e60248201527f596f752063616e206e6f74206c696b6520796f7572206f776e207065742100006044820152606490fd5b60003660031901126101b35761080a600154341015615202565b3360005260206006815260ff60406000205416610919576002546040519061083182614dd0565b33825260405161084081614deb565b6006815265283630bcb2b960d11b8482015283830152604082015260016060820152426080820152600060a0820152600454600160401b8110156109035780600161088e92016004556150c9565b6108ed576108c5926108a2836005936152db565b33600052600681526040600020600160ff198254161790555260406000206152db565b337f31e760aa525306aba638a784082a013b6a1cc0a9a1789f3f22281c0453b10b1f600080a2005b634e487b7160e01b600052600060045260246000fd5b634e487b7160e01b600052604160045260246000fd5b6064906040519062461bcd60e51b82526004820152601c60248201527f596f7520616c7265616479206a6f696e6564207468652067616d6521000000006044820152fd5b346101b35760803660031901126101b3576004356001600160401b0381116101b35761098d903690600401614e27565b60249081356001600160401b0381116101b3576109ae903690600401614e27565b916064359060058210156101b3576109d160018060a01b03600054163314615104565b60075493604051926109e284614dd0565b8584526020840191858352604085015260443560608501526000608085015260a0840152600160401b851015610d3b5760018501600755610a2285615025565b919091610d265783518255518051906001600160401b038211610c41578190610a4e6001850154614e7d565b601f8111610cd3575b50602090601f8311600114610c6157600092610c56575b50508160011b916000199060031b1c19161760018201555b60408301518051906001600160401b038211610c4157610aa96002840154614e7d565b601f8111610bfa575b50602090601f8311600114610b8757918060a09492600494600092610b7c575b50508160011b916000199060031b1c19161760028201555b606085015160038201550192610b1260808201511515859060ff801983541691151516179055565b0151906005821015610b685750918160008051602061545a8339815191529361ff00610b5b94549160081b169061ff001916179055604051918291604083526040830190614f5d565b60443560208301520390a2005b634e487b7160e01b60009081526021600452fd5b015190508980610ad2565b90601f198316916002850160005260206000209260005b818110610be2575092600192859260049660a0989610610bc9575b505050811b016002820155610aea565b015160001960f88460031b161c19169055898080610bb9565b92936020600181928786015181550195019301610b9e565b600284016000526020600020601f840160051c810160208510610c3a575b601f830160051c82018110610c2e575050610ab2565b60008155600101610c18565b5080610c18565b83634e487b7160e01b60005260416004526000fd5b015190508780610a6e565b9250600184016000526020600020906000935b601f1984168510610cb8576001945083601f19811610610c9f575b505050811b016001820155610a86565b015160001960f88460031b161c19169055878080610c8f565b81810151835560209485019460019093019290910190610c74565b909150600184016000526020600020601f840160051c810160208510610d1f575b90849392915b601f830160051c82018110610d10575050610a57565b60008155859450600101610cfa565b5080610cf4565b82634e487b7160e01b60005260006004526000fd5b50634e487b7160e01b60009081526041600452fd5b346101b35760203660031901126101b357600435600c548110156101b357610d7790615076565b508054610d8660018301614eb7565b91610d9360028201614eb7565b600382015491610da560048201614eb7565b9260058201549360068301546007840154600160a01b6001900360088601541691600986015493600a87015460ff1695600b88015497600c0154986040519c8d9c8d528c6101a06020819201528d01610dfd91614f5d565b8c810360408e0152610e0e91614f5d565b9060608c01528a810360808c0152610e2591614f5d565b9760a08a015260c089015260e088015261010087015261012086015215156101408501526101608401526101808301520390f35b346101b357610e6736615060565b610e736101d883615076565b610e8360ff600a6104e785615076565b600a610e8e83615076565b5001805460ff19169055806009610ea484615076565b5001556008610eb283615076565b5001336001600160601b0360a01b8254161790556040519081527f2c6f4a5d663a61e7c390abca958862a538b7a9bdd4360b68b30862aefc9ea6e860203392a3005b346101b35760003660031901126101b3573360005260206005815260ff6003604060002001541615610ff457336000526005815262015180610f3e60046040600020015442615244565b10610f9c5733600052600581526002604060002001908154600a81018091116103965760059255336000525242600460406000200155337f6fe284d782e841b99f2a56d6a1564b2c222d1b259694856db9721519659326f1600080a2005b6084906040519062461bcd60e51b82526004820152602b60248201527f596f75206861766520616c726561647920636c61696d656420796f757220646160448201526a696c79207265776172642160a81b6064820152fd5b6064906040519062461bcd60e51b825260048201526013602482015272596f7520617265206e6f74206163746976652160681b6044820152fd5b346101b35761103c36615060565b6110486101d883615076565b600a61105383615076565b5001805460ff1916600117905580600961106c84615076565b5001556040519081527f3f90625203379813fb9623a1de60ef53b769232ed539a1673d0ce181eea593bb60203392a3005b346101b35760003660031901126101b3576000546001600160a01b031633146110c581615104565b600c5480612d9f57604051916110da83614deb565b600383526210d85d60ea1b60208401526110f261515b565b61111d6040519261110284614deb565b60098452684c6567656e6461727960b81b6020850152615104565b6040519361112a85614db4565b6001855260208501526040840152606460608401526080830152606460a0830152606460c0830152606460e0830152600061010083015260646101208301526000610140830152620186a061016083015242610180830152600160401b8110156109035780600161119e9201600c55615076565b9190916108ed578051825560208101519182516001600160401b038111610903576111cc6001830154614e7d565b601f8111612d58575b506020601f8211600114612cea5781929394600092612cdf575b50508160011b916000199060031b1c19161760018201555b60408201519182516001600160401b0381116109035761122a6002840154614e7d565b601f8111612c98575b506020601f8211600114612c2a5781929394600092612c1f575b50508160011b916000199060031b1c19161760028301555b6060810151600383015560808101518051906001600160401b038211610903576112926004850154614e7d565b601f8111612bd8575b50602090601f8311600114612b62579180600c949261018094600092612b57575b50508160011b916000199060031b1c19161760048501555b60a0810151600585015560c0810151600685015560e0810151600785015560018060a01b03610100820151166001600160601b0360a01b60088601541617600885015561012081015160098501556113426101408201511515600a86019060ff801983541691151516179055565b610160810151600b850155015191015560405161135e81614deb565b6005815264446f67677960d81b602082015261137861517b565b6040519061138582614deb565b60048252634570696360e01b60208301526113ab60018060a01b03600054163314615104565b604051926113b884614db4565b6002845260208401526040830152603260608301526080820152606460a0820152606460c0820152606460e08201526000610100820152605a61012082015260016101408201526103e861016082015242610180820152600c54600160401b8110156109035780600161142e9201600c55615076565b9190916108ed578051825560208101519182516001600160401b0381116109035761145c6001830154614e7d565b601f8111612b10575b506020601f8211600114612aa25781929394600092612a97575b50508160011b916000199060031b1c19161760018201555b60408201519182516001600160401b038111610903576114ba6002840154614e7d565b601f8111612a50575b506020601f82116001146129e257819293946000926129d7575b50508160011b916000199060031b1c19161760028301555b6060810151600383015560808101518051906001600160401b038211610903576115226004850154614e7d565b601f8111612990575b50602090601f831160011461291a579180600c94926101809460009261290f575b50508160011b916000199060031b1c19161760048501555b60a0810151600585015560c0810151600685015560e081015160078501556008840160018060a01b03610100830151166001600160601b0360a01b82541617905561012081015160098501556115d06101408201511515600a86019060ff801983541691151516179055565b610160810151600b85015501519101556040516115ec81614deb565b600481526308cd2e6d60e31b602082015261160561515b565b61160d61519d565b9061162360018060a01b03600054163314615104565b6040519261163084614db4565b6003845260208401526040830152600a60608301526080820152606460a0820152606460c0820152606460e0820152600061010082015260326101208201526001610140820152600a61016082015242610180820152600c54600160401b811015610903578060016116a59201600c55615076565b9190916108ed578051825560208101519182516001600160401b038111610903576116d36001830154614e7d565b601f81116128c8575b506020601f821160011461285a578192939460009261284f575b50508160011b916000199060031b1c19161760018201555b60408201519182516001600160401b038111610903576117316002840154614e7d565b601f8111612808575b506020601f821160011461279a578192939460009261278f575b50508160011b916000199060031b1c19161760028301555b6060810151600383015560808101518051906001600160401b038211610903576117996004850154614e7d565b601f8111612748575b50602090601f83116001146126d2579180600c9492610180946000926126c7575b50508160011b916000199060031b1c19161760048501555b60a0810151600585015560c0810151600685015560e081015160078501556008840160018060a01b03610100830151166001600160601b0360a01b82541617905561012081015160098501556118476101408201511515600a86019060ff801983541691151516179055565b610160810151600b850155015191015560405161186381614deb565b6006815265149858989a5d60d21b602082015261187e61517b565b61188661519d565b9061189c60018060a01b03600054163314615104565b604051926118a984614db4565b6004845260208401526040830152600f60608301526080820152606460a0820152606460c0820152606460e0820152600061010082015260376101208201526001610140820152601461016082015242610180820152600c54600160401b8110156109035780600161191e9201600c55615076565b9190916108ed578051825560208101519182516001600160401b0381116109035761194c6001830154614e7d565b601f8111612680575b506020601f82116001146126125781929394600092612607575b50508160011b916000199060031b1c19161760018201555b60408201519182516001600160401b038111610903576119aa6002840154614e7d565b601f81116125c0575b506020601f82116001146125525781929394600092612547575b50508160011b916000199060031b1c19161760028301555b6060810151600383015560808101518051906001600160401b03821161090357611a126004850154614e7d565b601f8111612500575b50602090601f831160011461248a579180600c94926101809460009261247f575b50508160011b916000199060031b1c19161760048501555b60a0810151600585015560c0810151600685015560e081015160078501556008840160018060a01b03610100830151166001600160601b0360a01b8254161790556101208101516009850155611ac06101408201511515600a86019060ff801983541691151516179055565b610160810151600b8501550151910155604051611adc81614deb565b6004815263109a5c9960e21b6020820152611af561515b565b60405190611b0282614deb565b60048252635261726560e01b6020830152611b2860018060a01b03600054163314615104565b60405192611b3584614db4565b6005845260208401526040830152601e60608301526080820152606460a0820152606460c0820152606460e0820152600061010082015260286101208201526001610140820152603261016082015242610180820152600c54600160401b81101561090357806001611baa9201600c55615076565b9190916108ed578051825560208101519182516001600160401b03811161090357611bd86001830154614e7d565b601f8111612438575b506020601f82116001146123ca57819293946000926123bf575b50508160011b916000199060031b1c19161760018201555b60408201519182516001600160401b03811161090357611c366002840154614e7d565b601f8111612378575b506020601f821160011461230a57819293946000926122ff575b50508160011b916000199060031b1c19161760028301555b6060810151600383015560808101518051906001600160401b03821161090357611c9e6004850154614e7d565b601f81116122b8575b50602090601f8311600114612242579180600c949261018094600092612237575b50508160011b916000199060031b1c19161760048501555b60a0810151600585015560c0810151600685015560e081015160078501556008840160018060a01b03610100830151166001600160601b0360a01b8254161790556101208101516009850155611d4c6101408201511515600a86019060ff801983541691151516179055565b610160810151600b8501550151910155604051611d6881614deb565b600881526723babb32b931b4b760c11b6020820152611d8561515b565b60405190611d9282614deb565b600782526654616b6c61636960c81b6020830152611dbb60018060a01b03600054163314615104565b60405192611dc884614db4565b6006845260208401526040830152600160608301526080820152606460a0820152606460c0820152606460e0820152600061010082015260016101208201526001610140820152600161016082015242610180820152600c54600160401b81101561090357806001611e3d9201600c55615076565b9190916108ed578051825560208101519182516001600160401b03811161090357611e6b6001830154614e7d565b601f81116121f0575b506020601f82116001146121845781929394600092612179575b50508160011b916000199060031b1c19161760018201555b60408201519182516001600160401b03811161090357611ec96002840154614e7d565b601f8111612132575b506020601f82116001146120c457819293946000926120b9575b50508160011b916000199060031b1c19161760028301555b6060810151600383015560808101518051906001600160401b03821161090357611f316004850154614e7d565b601f8111612072575b50602090601f8311600114611ffc579180600c949261018094600092611ff1575b50508160011b916000199060031b1c19161760048501555b60a0810151600585015560c0810151600685015560e081015160078501556008840160018060a01b03610100830151166001600160601b0360a01b8254161790556101208101516009850155611fdf6101408201511515600a86019060ff801983541691151516179055565b610160810151600b8501550151910155005b015190508680611f5b565b906004850160005260206000209160005b601f198516811061205a575092600c94926001926101809583601f19811610612041575b505050811b016004850155611f73565b015160001960f88460031b161c19169055868080612031565b9192602060018192868501518155019401920161200d565b600485016000526020600020601f840160051c8101602085106120b2575b601f830160051c820181106120a6575050611f3a565b60008155600101612090565b5080612090565b015190508480611eec565b6002840160005260206000209060005b601f198416811061211a5750600193949583601f19811610612101575b505050811b016002830155611f04565b015160001960f88460031b161c191690558480806120f1565b9091602060018192858a0151815501930191016120d4565b600284016000526020600020601f830160051c810160208410612172575b601f830160051c82018110612166575050611ed2565b60008155600101612150565b5080612150565b015190508480611e8e565b600183016000526020600020906000601f198416905b8181106121d8575095836001959697106121bf575b505050811b016001820155611ea6565b015160001960f88460031b161c191690558480806121af565b9192602060018192868b01518155019401920161219a565b600183016000526020600020601f830160051c810160208410612230575b601f830160051c82018110612224575050611e74565b6000815560010161220e565b508061220e565b015190508680611cc8565b906004850160005260206000209160005b601f19851681106122a0575092600c94926001926101809583601f19811610612287575b505050811b016004850155611ce0565b015160001960f88460031b161c19169055868080612277565b91926020600181928685015181550194019201612253565b600485016000526020600020601f840160051c8101602085106122f8575b601f830160051c820181106122ec575050611ca7565b600081556001016122d6565b50806122d6565b015190508480611c59565b6002840160005260206000209060005b601f19841681106123605750600193949583601f19811610612347575b505050811b016002830155611c71565b015160001960f88460031b161c19169055848080612337565b9091602060018192858a01518155019301910161231a565b600284016000526020600020601f830160051c8101602084106123b8575b601f830160051c820181106123ac575050611c3f565b60008155600101612396565b5080612396565b015190508480611bfb565b6001830160005260206000209060005b601f19841681106124205750600193949583601f19811610612407575b505050811b016001820155611c13565b015160001960f88460031b161c191690558480806123f7565b9091602060018192858a0151815501930191016123da565b600183016000526020600020601f830160051c810160208410612478575b601f830160051c8201811061246c575050611be1565b60008155600101612456565b5080612456565b015190508680611a3c565b906004850160005260206000209160005b601f19851681106124e8575092600c94926001926101809583601f198116106124cf575b505050811b016004850155611a54565b015160001960f88460031b161c191690558680806124bf565b9192602060018192868501518155019401920161249b565b600485016000526020600020601f840160051c810160208510612540575b601f830160051c82018110612534575050611a1b565b6000815560010161251e565b508061251e565b0151905084806119cd565b6002840160005260206000209060005b601f19841681106125a85750600193949583601f1981161061258f575b505050811b0160028301556119e5565b015160001960f88460031b161c1916905584808061257f565b9091602060018192858a015181550193019101612562565b600284016000526020600020601f830160051c810160208410612600575b601f830160051c820181106125f45750506119b3565b600081556001016125de565b50806125de565b01519050848061196f565b6001830160005260206000209060005b601f19841681106126685750600193949583601f1981161061264f575b505050811b016001820155611987565b015160001960f88460031b161c1916905584808061263f565b9091602060018192858a015181550193019101612622565b600183016000526020600020601f830160051c8101602084106126c0575b601f830160051c820181106126b4575050611955565b6000815560010161269e565b508061269e565b0151905086806117c3565b906004850160005260206000209160005b601f1985168110612730575092600c94926001926101809583601f19811610612717575b505050811b0160048501556117db565b015160001960f88460031b161c19169055868080612707565b919260206001819286850151815501940192016126e3565b600485016000526020600020601f840160051c810160208510612788575b601f830160051c8201811061277c5750506117a2565b60008155600101612766565b5080612766565b015190508480611754565b6002840160005260206000209060005b601f19841681106127f05750600193949583601f198116106127d7575b505050811b01600283015561176c565b015160001960f88460031b161c191690558480806127c7565b9091602060018192858a0151815501930191016127aa565b600284016000526020600020601f830160051c810160208410612848575b601f830160051c8201811061283c57505061173a565b60008155600101612826565b5080612826565b0151905084806116f6565b6001830160005260206000209060005b601f19841681106128b05750600193949583601f19811610612897575b505050811b01600182015561170e565b015160001960f88460031b161c19169055848080612887565b9091602060018192858a01518155019301910161286a565b600183016000526020600020601f830160051c810160208410612908575b601f830160051c820181106128fc5750506116dc565b600081556001016128e6565b50806128e6565b01519050868061154c565b906004850160005260206000209160005b601f1985168110612978575092600c94926001926101809583601f1981161061295f575b505050811b016004850155611564565b015160001960f88460031b161c1916905586808061294f565b9192602060018192868501518155019401920161292b565b600485016000526020600020601f840160051c8101602085106129d0575b601f830160051c820181106129c457505061152b565b600081556001016129ae565b50806129ae565b0151905084806114dd565b6002840160005260206000209060005b601f1984168110612a385750600193949583601f19811610612a1f575b505050811b0160028301556114f5565b015160001960f88460031b161c19169055848080612a0f565b9091602060018192858a0151815501930191016129f2565b600284016000526020600020601f830160051c810160208410612a90575b601f830160051c82018110612a845750506114c3565b60008155600101612a6e565b5080612a6e565b01519050848061147f565b6001830160005260206000209060005b601f1984168110612af85750600193949583601f19811610612adf575b505050811b016001820155611497565b015160001960f88460031b161c19169055848080612acf565b9091602060018192858a015181550193019101612ab2565b600183016000526020600020601f830160051c810160208410612b50575b601f830160051c82018110612b44575050611465565b60008155600101612b2e565b5080612b2e565b0151905086806112bc565b906004850160005260206000209160005b601f1985168110612bc0575092600c94926001926101809583601f19811610612ba7575b505050811b0160048501556112d4565b015160001960f88460031b161c19169055868080612b97565b91926020600181928685015181550194019201612b73565b600485016000526020600020601f840160051c810160208510612c18575b601f830160051c82018110612c0c57505061129b565b60008155600101612bf6565b5080612bf6565b01519050848061124d565b6002840160005260206000209060005b601f1984168110612c805750600193949583601f19811610612c67575b505050811b016002830155611265565b015160001960f88460031b161c19169055848080612c57565b9091602060018192858a015181550193019101612c3a565b600284016000526020600020601f830160051c810160208410612cd8575b601f830160051c82018110612ccc575050611233565b60008155600101612cb6565b5080612cb6565b0151905084806111ef565b6001830160005260206000209060005b601f1984168110612d405750600193949583601f19811610612d27575b505050811b016001820155611207565b015160001960f88460031b161c19169055848080612d17565b9091602060018192858a015181550193019101612cfa565b600183016000526020600020601f830160051c810160208410612d98575b601f830160051c82018110612d8c5750506111d5565b60008155600101612d76565b5080612d76565b60405162461bcd60e51b815260206004820152601b60248201527f44656661756c74207065747320616c72656164792065786973742100000000006044820152606490fd5b346101b3576020806003193601126101b35760043590612e0a60ff600a6104e785615076565b3360005260058152612e336002604060002001546009612e2985615076565b5001541115615202565b612e3c82615076565b50600801546001600160a01b03908116331461305e576008612e5d84615076565b500154166009612e6c84615076565b5001543360005260058352612e8a6002604060002001918254615244565b90556009612e9784615076565b5001548160005260058352612eb56002604060002001918254615251565b90556008612ec284615076565b500180546001600160a01b03191633179055600a612edf84615076565b500160ff19815416905580600052600d825260406000208360005282526000604081205533600052600d82526040600020836000528252600191829182604060002055600052600e8152836040600020836000905b612fad575b505050600e915033600052526040600020805491600160401b83101561090357828492612f6c92612f85950181556150b1565b90919082549060031b91821b91600019901b1916179055565b337f87b964eb5a2c9bec2a555f2dab828a37bf9c62ed6d24158233c27783ad6484d3600080a3005b815480821015613058578390612fc383856150b1565b929054600393841b1c14612fe2575050612fdc906152cc565b84612f34565b60001996509093508581019190821161039657612f6c61300561301293856150b1565b905490861b1c91846150b1565b80549384156130425780600e95019261302b84846150b1565b81939154921b1b1916905555829150838580612f39565b634e487b7160e01b600052603160045260246000fd5b50612f39565b60405162461bcd60e51b815260048101839052601960248201527f596f7520616c7265616479206f776e20746869732070657421000000000000006044820152606490fd5b346101b3576020806003193601126101b3576001600160a01b036130c5614d9e565b1680600052600b82526040600020546130f66130e0826152b5565b916130ee6040519384614e06565b8083526152b5565b8184019290601f190136843760008091600754925b83811061315557868587604051928392818401908285525180915260408401929160005b82811061313e57505050500390f35b83518552869550938101939281019260010161312f565b8160005260098752604060002081600052875260ff60406000205416613184575b61317f906152cc565b61310b565b9184518110156131ac576131a481848961317f9460051b890101526152cc565b929050613176565b634e487b7160e01b600052603260045260246000fd5b346101b35760003660031901126101b3576000546040516001600160a01b039091168152602090f35b346101b35760203660031901126101b3576004356007548110156101b35761321290615025565b5080549061045b61322560018301614eb7565b9161323260028201614eb7565b93600460038301549201549160405195869560ff808660081c1695169387614fda565b346101b35760203660031901126101b3576001600160a01b03613276614d9e565b166000526006602052602060ff604060002054166040519015158152f35b346101b35760403660031901126101b3576001600160a01b036132b5614d9e565b16600052600d60205260406000206024356000526020526020604060002054604051908152f35b346101b35760203660031901126101b35761330260018060a01b03600054163314615104565b600435600155005b346101b35760003660031901126101b357600c8054613328816152b5565b916133366040519384614e06565b8183526020918284018092806000527fdf6966c971051c3d54ec59162606531493a51404a002842f56009d7e5cf4a8c7906000925b84841061347557604080518881528951818a01819052600092600582901b83018101918a918c9085015b8287106133a25785850386f35b909192938280600192603f19898203018552875190815181526134076133ea6133d8858501516101a08088870152850190614f5d565b60408501518482036040860152614f5d565b606080850151908401526080808501519084830390850152614f5d565b9160a0808201519083015260c0808201519083015260e081015160e0830152610100868060a01b038183015116908301526101208082015190830152610140808201511515908301526101608082015190830152610180809101519101529601920196019592919092613395565b600d8760019260409a999a5161348a81614db4565b86548152613499858801614eb7565b838201526134a960028801614eb7565b6040820152600387015460608201526134c460048801614eb7565b6080820152600587015460a0820152600687015460c0820152600787015460e0820152848060a01b03600888015416610100820152600987015461012082015260ff600a880154161515610140820152600b8701546101608201528587015461018082015281520193019301929196959661336b565b346101b35760403660031901126101b3576001600160a01b0361355b614d9e565b1660005260086020526040600020602435600052602052602060ff604060002054166040519015158152f35b346101b35760203660031901126101b357600435600052600a602052604060002080549061045b61322560018301614eb7565b346101b35760203660031901126101b3576001600160a01b03806135dc614d9e565b16600052600560205260406000209081541661045b61043560018401614eb7565b346101b35760003660031901126101b3576000546001600160a01b0316331461362581615104565b6040519061363282614deb565b6007825266109d5e4814195d60ca1b60208301526136716040519161365683614deb565b6009835268109d5e4818481c195d60ba1b6020840152615104565b6007549160405161368181614dd0565b83815260208101928284526040820152600f606082015260006080820152600060a0820152600160401b84101561090357600184016007556136c284615025565b9390936108ed5781518455518051906001600160401b0382116109035781906136ee6001870154614e7d565b601f8111614778575b50602090601f8311600114614706576000926146fb575b50508160011b916000199060031b1c19161760018401555b60408101518051906001600160401b038211610903576137496002860154614e7d565b601f81116146b4575b50602090601f83116001146146415760a093929160009183614636575b50508160011b916000199060031b1c19161760028501555b606081015160038501556137b060808201511515600486019060ff801983541691151516179055565b0151906005821015613fca578260046137fc9361ff008260008051602061545a8339815191529701549160081b169061ff00191617910155604051918291604083526040830190614f5d565b600f60208301520390a260405161381281614deb565b6008815267119959590814195d60c21b602082015260405161383381614deb565b600a815269119959590818481c195d60b21b602082015261385f60018060a01b03600054163314615104565b600754916040519161387083614dd0565b83835281602084015260408301526005606083015260006080830152600160a0830152600160401b83101561090357600183016007556138af83615025565b9290926108ed578051835560208101518051906001600160401b0382116109035781906138df6001870154614e7d565b601f81116145e3575b50602090601f831160011461457157600092614566575b50508160011b916000199060031b1c19161760018401555b60408101518051906001600160401b0382116109035761393a6002860154614e7d565b601f811161451f575b50602090601f83116001146144ac5760a0939291600091836144a1575b50508160011b916000199060031b1c19161760028501555b606081015160038501556139a160808201511515600486019060ff801983541691151516179055565b0151906005821015613fca578260046139ed9361ff008260008051602061545a8339815191529701549160081b169061ff00191617910155604051918291604083526040830190614f5d565b600560208301520390a2604051613a0381614deb565b6008815267131a5ad94814195d60c21b6020820152604051613a2481614deb565b600a815269131a5ad94818481c195d60b21b6020820152613a5060018060a01b03600054163314615104565b6007549160405191613a6183614dd0565b83835281602084015260408301526002606083015260006080830152600260a0830152600160401b8310156109035760018301600755613aa083615025565b9290926108ed578051835560208101518051906001600160401b038211610903578190613ad06001870154614e7d565b601f811161444e575b50602090601f83116001146143dc576000926143d1575b50508160011b916000199060031b1c19161760018401555b60408101518051906001600160401b03821161090357613b2b6002860154614e7d565b601f811161438a575b50602090601f83116001146143175760a09392916000918361430c575b50508160011b916000199060031b1c19161760028501555b60608101516003850155613b9260808201511515600486019060ff801983541691151516179055565b0151906005821015613fca57826004613bde9361ff008260008051602061545a8339815191529701549160081b169061ff00191617910155604051918291604083526040830190614f5d565b600260208301520390a2604051613bf481614deb565b600881526714d95b1b0814195d60c21b6020820152604051613c1581614deb565b600a81526914d95b1b0818481c195d60b21b6020820152613c4160018060a01b03600054163314615104565b6007549160405191613c5283614dd0565b8383528160208401526040830152600f606083015260006080830152600360a0830152600160401b8310156109035760018301600755613c9183615025565b9290926108ed578051835560208101518051906001600160401b038211610903578190613cc16001870154614e7d565b601f81116142b9575b50602090601f83116001146142475760009261423c575b50508160011b916000199060031b1c19161760018401555b60408101518051906001600160401b03821161090357613d1c6002860154614e7d565b601f81116141f5575b50602090601f83116001146141825760a093929160009183614177575b50508160011b916000199060031b1c19161760028501555b60608101516003850155613d8360808201511515600486019060ff801983541691151516179055565b0151906005821015613fca57826004613dcf9361ff008260008051602061545a8339815191529701549160081b169061ff00191617910155604051918291604083526040830190614f5d565b600f60208301520390a2604051613de581614deb565b600b81526a2230b4b63c902637b3b4b760a91b6020820152604051613e0981614deb565b600b81526a4c6f67696e206461696c7960a81b6020820152613e3660018060a01b03600054163314615104565b6007549160405191613e4783614dd0565b8383528160208401526040830152600a606083015260006080830152600460a0830152600160401b8310156109035760018301600755613e8683615025565b6108ed578251815560208301518051906001600160401b038211610903578190613eb36001850154614e7d565b601f8111614124575b50602090601f83116001146140b2576000926140a7575b50508160011b916000199060031b1c19161760018201555b60408301518051906001600160401b03821161090357613f0e6002840154614e7d565b601f8111614060575b50602090601f8311600114613feb57918060a09492600494600092613fe0575b50508160011b916000199060031b1c19161760028201555b606085015160038201550192613f7760808201511515859060ff801983541691151516179055565b0151906005821015613fca5782613fbe9261ff0060008051602061545a83398151915295549160081b169061ff001916179055604051918291604083526040830190614f5d565b600a60208301520390a2005b634e487b7160e01b600052602160045260246000fd5b015190508880613f37565b906002840160005260206000209160005b601f198516811061404857509260a0949260019260049583601f1981161061402f575b505050811b016002820155613f4f565b015160001960f88460031b161c1916905588808061401f565b91926020600181928685015181550194019201613ffc565b600284016000526020600020601f840160051c8101602085106140a0575b601f830160051c82018110614094575050613f17565b6000815560010161407e565b508061407e565b015190508680613ed3565b9250600184016000526020600020906000935b601f1984168510614109576001945083601f198116106140f0575b505050811b016001820155613eeb565b015160001960f88460031b161c191690558680806140e0565b818101518355602094850194600190930192909101906140c5565b909150600184016000526020600020601f840160051c810160208510614170575b90849392915b601f830160051c82018110614161575050613ebc565b6000815585945060010161414b565b5080614145565b015190508780613d42565b906002860160005260206000209160005b601f19851681106141dd575091839160019360a09695601f198116106141c4575b505050811b016002850155613d5a565b015160001960f88460031b161c191690558780806141b4565b91926020600181928685015181550194019201614193565b600286016000526020600020601f840160051c810160208510614235575b601f830160051c82018110614229575050613d25565b60008155600101614213565b5080614213565b015190508680613ce1565b9250600186016000526020600020906000935b601f198416851061429e576001945083601f19811610614285575b505050811b016001840155613cf9565b015160001960f88460031b161c19169055868080614275565b8181015183556020948501946001909301929091019061425a565b909150600186016000526020600020601f840160051c810160208510614305575b90849392915b601f830160051c820181106142f6575050613cca565b600081558594506001016142e0565b50806142da565b015190508780613b51565b906002860160005260206000209160005b601f1985168110614372575091839160019360a09695601f19811610614359575b505050811b016002850155613b69565b015160001960f88460031b161c19169055878080614349565b91926020600181928685015181550194019201614328565b600286016000526020600020601f840160051c8101602085106143ca575b601f830160051c820181106143be575050613b34565b600081556001016143a8565b50806143a8565b015190508680613af0565b9250600186016000526020600020906000935b601f1984168510614433576001945083601f1981161061441a575b505050811b016001840155613b08565b015160001960f88460031b161c1916905586808061440a565b818101518355602094850194600190930192909101906143ef565b909150600186016000526020600020601f840160051c81016020851061449a575b90849392915b601f830160051c8201811061448b575050613ad9565b60008155859450600101614475565b508061446f565b015190508780613960565b906002860160005260206000209160005b601f1985168110614507575091839160019360a09695601f198116106144ee575b505050811b016002850155613978565b015160001960f88460031b161c191690558780806144de565b919260206001819286850151815501940192016144bd565b600286016000526020600020601f840160051c81016020851061455f575b601f830160051c82018110614553575050613943565b6000815560010161453d565b508061453d565b0151905086806138ff565b9250600186016000526020600020906000935b601f19841685106145c8576001945083601f198116106145af575b505050811b016001840155613917565b015160001960f88460031b161c1916905586808061459f565b81810151835560209485019460019093019290910190614584565b909150600186016000526020600020601f840160051c81016020851061462f575b90849392915b601f830160051c820181106146205750506138e8565b6000815585945060010161460a565b5080614604565b01519050878061376f565b906002860160005260206000209160005b601f198516811061469c575091839160019360a09695601f19811610614683575b505050811b016002850155613787565b015160001960f88460031b161c19169055878080614673565b91926020600181928685015181550194019201614652565b600286016000526020600020601f840160051c8101602085106146f4575b601f830160051c820181106146e8575050613752565b600081556001016146d2565b50806146d2565b01519050868061370e565b9250600186016000526020600020906000935b601f198416851061475d576001945083601f19811610614744575b505050811b016001840155613726565b015160001960f88460031b161c19169055868080614734565b81810151835560209485019460019093019290910190614719565b909150600186016000526020600020601f840160051c8101602085106147c4575b90849392915b601f830160051c820181106147b55750506136f7565b6000815585945060010161479f565b5080614799565b346101b35760203660031901126101b3576001600160a01b036147ec614d9e565b166000526005602052602060056040600020015460075414604051908152f35b346101b35760203660031901126101b3576001600160a01b0361482d614d9e565b16600052600b6020526020604060002054604051908152f35b346101b3576101803660031901126101b3576024356001600160401b0381116101b357614877903690600401614e27565b6044356001600160401b0381116101b357614896903690600401614e27565b6084356001600160401b0381116101b3576148b5903690600401614e27565b610104356001600160a01b03811691908290036101b35761014435928315158094036101b3576148f060018060a01b03600054163314615104565b604051946148fd86614db4565b6004358652602086015260408501526064356060850152608084015260a43560a084015260c43560c084015260e43560e0840152610100830152610124356101208301526101408201526101643561016082015242610180820152600c54600160401b811015610903578060016149779201600c55615076565b9190916108ed578051825560208101519182516001600160401b038111610903576149a56001830154614e7d565b601f8111614cef575b506020601f8211600114614c835781929394600092614c78575b50508160011b916000199060031b1c19161760018201555b60408201519182516001600160401b03811161090357614a036002840154614e7d565b601f8111614c31575b506020601f8211600114614bc35781929394600092614bb8575b50508160011b916000199060031b1c19161760028301555b6060810151600383015560808101518051906001600160401b03821161090357614a6b6004850154614e7d565b601f8111614b71575b50602090601f8311600114614b17579180600c949261018094600092611ff15750508160011b916000199060031b1c191617600485015560a0810151600585015560c0810151600685015560e081015160078501556008840160018060a01b03610100830151166001600160601b0360a01b8254161790556101208101516009850155611fdf6101408201511515600a86019060ff801983541691151516179055565b90601f198316916004860160005260206000209260005b818110614b59575092600192859261018096600c98961061204157505050811b016004850155611f73565b92936020600181928786015181550195019301614b2e565b600485016000526020600020601f840160051c810160208510614bb1575b601f830160051c82018110614ba5575050614a74565b60008155600101614b8f565b5080614b8f565b015190508480614a26565b6002840160005260206000209060005b601f1984168110614c195750600193949583601f19811610614c00575b505050811b016002830155614a3e565b015160001960f88460031b161c19169055848080614bf0565b9091602060018192858a015181550193019101614bd3565b600284016000526020600020601f830160051c810160208410614c71575b601f830160051c82018110614c65575050614a0c565b60008155600101614c4f565b5080614c4f565b0151905084806149c8565b600183016000526020600020906000601f198416905b818110614cd757509583600195969710614cbe575b505050811b0160018201556149e0565b015160001960f88460031b161c19169055848080614cae565b9192602060018192868b015181550194019201614c99565b600183016000526020600020601f830160051c810160208410614d2f575b601f830160051c82018110614d235750506149ae565b60008155600101614d0d565b5080614d0d565b346101b35760403660031901126101b3576001600160a01b03614d57614d9e565b1660005260096020526040600020602435600052602052602060ff604060002054166040519015158152f35b346101b35760003660031901126101b3576020906001548152f35b600435906001600160a01b03821682036101b357565b6101a081019081106001600160401b0382111761090357604052565b60c081019081106001600160401b0382111761090357604052565b604081019081106001600160401b0382111761090357604052565b90601f801991011681019081106001600160401b0382111761090357604052565b81601f820112156101b3578035906001600160401b0382116109035760405192614e5b601f8401601f191660200185614e06565b828452602083830101116101b357816000926020809301838601378301015290565b90600182811c92168015614ead575b6020831014614e9757565b634e487b7160e01b600052602260045260246000fd5b91607f1691614e8c565b9060405191826000825492614ecb84614e7d565b908184526001948581169081600014614f3a5750600114614ef7575b5050614ef592500383614e06565b565b9093915060005260209081600020936000915b818310614f22575050614ef593508201013880614ee7565b85548884018501529485019487945091830191614f0a565b915050614ef594506020925060ff191682840152151560051b8201013880614ee7565b919082519283825260005b848110614f89575050826000602080949584010152601f8019910116010190565b602081830181015184830182015201614f68565b9296959491614fc49060a09592600180881b0316855260c0602086015260c0850190614f5d565b9660408401521515606083015260808201520152565b93969594929061500992614ffb91865260c0602087015260c0860190614f5d565b908482036040860152614f5d565b946060830152151560808201526005821015613fca5760a00152565b6007548110156131ac576005906007600052027fa66cc928b5edb82af9bd49922954155ab7b0942694bea4ce44661d9a8736c6880190600090565b60409060031901126101b3576004359060243590565b600c548110156131ac57600d90600c600052027fdf6966c971051c3d54ec59162606531493a51404a002842f56009d7e5cf4a8c70190600090565b80548210156131ac5760005260206000200190600090565b6004548110156131ac576006906004600052027f8a35acfbc15ff81a39ae7d344fd709f28e8600b4aa8c65c6b64bfe7fe36bd19b0190600090565b1561510b57565b60405162461bcd60e51b815260206004820152602260248201527f4f6e6c79206f776e65722063616e2063616c6c20746869732066756e6374696f6044820152616e2160f01b6064820152608490fd5b6040519061516882614deb565b60048252634d616c6560e01b6020830152565b6040519061518882614deb565b600682526546656d616c6560d01b6020830152565b604051906151aa82614deb565b600682526521b7b6b6b7b760d11b6020830152565b156151c657565b60405162461bcd60e51b8152602060048201526014602482015273506574206973206e6f7420666f722073616c652160601b6044820152606490fd5b1561520957565b60405162461bcd60e51b81526020600482015260136024820152724e6f7420656e6f7567682062616c616e63652160681b6044820152606490fd5b9190820391821161039657565b9190820180921161039657565b1561526557565b60405162461bcd60e51b815260206004820152602260248201527f596f7520617265206e6f7420746865206f776e6572206f662074686973207065604482015261742160f01b6064820152608490fd5b6001600160401b0381116109035760051b60200190565b60001981146103965760010190565b9060018060a01b038151166001600160601b0360a01b835416178255600190818301602080830151938451916001600160401b0383116109035761531f8454614e7d565b601f8111615410575b5080601f84116001146153a157509180809260a0969594600598600094615396575b50501b916000199060031b1c19161790555b6040810151600285015561538560608201511515600386019060ff801983541691151516179055565b608081015160048501550151910155565b01519250388061534a565b91939495601f1984168660005283600020936000905b8282106153f9575050916005979593918560a0989694106153e0575b505050811b01905561535c565b015160001960f88460031b161c191690553880806153d3565b8088869782949787015181550196019401906153b7565b6000858152828120601f860160051c81019284871061544f575b601f0160051c019184905b83811061544457505050615328565b828155018490615435565b909250829061542a56fee1aae1cb4745fccc4315dc70504babb014a5b3de0fc5a1b47b1b7cbc03d6d035a2646970667358221220a5ed5f6ea61d13264009041976e1bb36a9cc2a640b4f817590c0b82ff2137b0e64736f6c63430008140033",
  "linkReferences": {},
  "deployedLinkReferences": {}
}