{
  "_format": "hh-sol-artifact-1",
  "contractName": "TradingGame",
  "sourceName": "contracts/TradingGame.sol",
  "abi": [
    {
      "inputs": [],
      "stateMutability": "nonpayable",
      "type": "constructor"
    },
    {
      "inputs": [],
      "name": "entryfee",
      "outputs": [
        {
          "internalType": "uint256",
          "name": "",
          "type": "uint256"
        }
      ],
      "stateMutability": "view",
      "type": "function"
    },
    {
      "inputs": [],
      "name": "owner",
      "outputs": [
        {
          "internalType": "address",
          "name": "",
          "type": "address"
        }
      ],
      "stateMutability": "view",
      "type": "function"
    },
    {
      "inputs": [
        {
          "internalType": "uint256",
          "name": "_fee",
          "type": "uint256"
        }
      ],
      "name": "setFee",
      "outputs": [],
      "stateMutability": "nonpayable",
      "type": "function"
    },
    {
      "inputs": [
        {
          "internalType": "address",
          "name": "",
          "type": "address"
        },
        {
          "internalType": "uint256",
          "name": "",
          "type": "uint256"
        }
      ],
      "name": "userPools",
      "outputs": [
        {
          "internalType": "address",
          "name": "user",
          "type": "address"
        },
        {
          "internalType": "uint256",
          "name": "totalReward",
          "type": "uint256"
        }
      ],
      "stateMutability": "view",
      "type": "function"
    }
  ],
  "bytecode": "0x608060405234801561001057600080fd5b50336000806101000a81548173ffffffffffffffffffffffffffffffffffffffff021916908373ffffffffffffffffffffffffffffffffffffffff160217905550610459806100606000396000f3fe608060405234801561001057600080fd5b506004361061004c5760003560e01c80631064aa551461005157806369fe0e2d146100825780637af4b3571461009e5780638da5cb5b146100bc575b600080fd5b61006b60048036038101906100669190610296565b6100da565b6040516100799291906102f4565b60405180910390f35b61009c6004803603810190610097919061031d565b61013b565b005b6100a66101d3565b6040516100b3919061034a565b60405180910390f35b6100c46101d9565b6040516100d19190610365565b60405180910390f35b600260205281600052604060002081815481106100f657600080fd5b9060005260206000209060020201600091509150508060000160009054906101000a900473ffffffffffffffffffffffffffffffffffffffff16908060010154905082565b60008054906101000a900473ffffffffffffffffffffffffffffffffffffffff1673ffffffffffffffffffffffffffffffffffffffff163373ffffffffffffffffffffffffffffffffffffffff16146101c9576040517f08c379a00000000000000000000000000000000000000000000000000000000081526004016101c090610403565b60405180910390fd5b8060018190555050565b60015481565b60008054906101000a900473ffffffffffffffffffffffffffffffffffffffff1681565b600080fd5b600073ffffffffffffffffffffffffffffffffffffffff82169050919050565b600061022d82610202565b9050919050565b61023d81610222565b811461024857600080fd5b50565b60008135905061025a81610234565b92915050565b6000819050919050565b61027381610260565b811461027e57600080fd5b50565b6000813590506102908161026a565b92915050565b600080604083850312156102ad576102ac6101fd565b5b60006102bb8582860161024b565b92505060206102cc85828601610281565b9150509250929050565b6102df81610222565b82525050565b6102ee81610260565b82525050565b600060408201905061030960008301856102d6565b61031660208301846102e5565b9392505050565b600060208284031215610333576103326101fd565b5b600061034184828501610281565b91505092915050565b600060208201905061035f60008301846102e5565b92915050565b600060208201905061037a60008301846102d6565b92915050565b600082825260208201905092915050565b7f4f6e6c79206f776e65722063616e2063616c6c20746869732066756e6374696f60008201527f6e21000000000000000000000000000000000000000000000000000000000000602082015250565b60006103ed602283610380565b91506103f882610391565b604082019050919050565b6000602082019050818103600083015261041c816103e0565b905091905056fea2646970667358221220256e3d51686d380aaded502e17019dffb6558b9c88b9eaae9ea772e17e7a566964736f6c63430008140033",
  "linkReferences": {},
  "deployedLinkReferences": {}
}